{
  "contractName": "BoardManager",
  "abi": [
    {
      "anonymous": false,
      "inputs": [
        {
          "indexed": false,
          "internalType": "uint256",
          "name": "boardId",
          "type": "uint256"
        },
        {
          "indexed": false,
          "internalType": "string",
          "name": "boardName",
          "type": "string"
        },
        {
          "indexed": true,
          "internalType": "address",
          "name": "owner",
          "type": "address"
        }
      ],
      "name": "BoardCreated",
      "type": "event"
    },
    {
      "anonymous": false,
      "inputs": [
        {
          "indexed": false,
          "internalType": "uint256",
          "name": "boardId",
          "type": "uint256"
        }
      ],
      "name": "BoardDeleted",
      "type": "event"
    },
    {
      "anonymous": false,
      "inputs": [
        {
          "indexed": false,
          "internalType": "uint256",
          "name": "boardId",
          "type": "uint256"
        },
        {
          "indexed": false,
          "internalType": "string",
          "name": "newName",
          "type": "string"
        }
      ],
      "name": "BoardEdited",
      "type": "event"
    },
    {
      "anonymous": false,
      "inputs": [
        {
          "indexed": false,
          "internalType": "uint256",
          "name": "pinId",
          "type": "uint256"
        },
        {
          "indexed": false,
          "internalType": "string",
          "name": "title",
          "type": "string"
        },
        {
          "indexed": false,
          "internalType": "string",
          "name": "description",
          "type": "string"
        },
        {
          "indexed": false,
          "internalType": "string",
          "name": "imageHash",
          "type": "string"
        },
        {
          "indexed": false,
          "internalType": "uint256",
          "name": "boardId",
          "type": "uint256"
        },
        {
          "indexed": false,
          "internalType": "string",
          "name": "owner",
          "type": "string"
        }
      ],
      "name": "PinSaved",
      "type": "event"
    },
    {
      "anonymous": false,
      "inputs": [
        {
          "indexed": false,
          "internalType": "uint256",
          "name": "pinId",
          "type": "uint256"
        },
        {
          "indexed": false,
          "internalType": "uint256",
          "name": "boardId",
          "type": "uint256"
        }
      ],
      "name": "SavedPinDeleted",
      "type": "event"
    },
    {
      "anonymous": false,
      "inputs": [
        {
          "indexed": false,
          "internalType": "uint256",
          "name": "pinId",
          "type": "uint256"
        },
        {
          "indexed": false,
          "internalType": "uint256",
          "name": "oldBoardId",
          "type": "uint256"
        },
        {
          "indexed": false,
          "internalType": "uint256",
          "name": "newBoardId",
          "type": "uint256"
        }
      ],
      "name": "SavedPinEdited",
      "type": "event"
    },
    {
      "inputs": [
        {
          "internalType": "uint256",
          "name": "",
          "type": "uint256"
        }
      ],
      "name": "boards",
      "outputs": [
        {
          "internalType": "uint256",
          "name": "id",
          "type": "uint256"
        },
        {
          "internalType": "string",
          "name": "name",
          "type": "string"
        },
        {
          "internalType": "address",
          "name": "owner",
          "type": "address"
        }
      ],
      "stateMutability": "view",
      "type": "function"
    },
    {
      "inputs": [],
      "name": "currentBoardId",
      "outputs": [
        {
          "internalType": "uint256",
          "name": "",
          "type": "uint256"
        }
      ],
      "stateMutability": "view",
      "type": "function"
    },
    {
      "inputs": [
        {
          "internalType": "string",
          "name": "boardName",
          "type": "string"
        }
      ],
      "name": "createBoard",
      "outputs": [
        {
          "internalType": "uint256",
          "name": "",
          "type": "uint256"
        }
      ],
      "stateMutability": "nonpayable",
      "type": "function"
    },
    {
      "inputs": [
        {
          "internalType": "uint256",
          "name": "boardId",
          "type": "uint256"
        },
        {
          "internalType": "string",
          "name": "newName",
          "type": "string"
        }
      ],
      "name": "editBoard",
      "outputs": [],
      "stateMutability": "nonpayable",
      "type": "function"
    },
    {
      "inputs": [
        {
          "internalType": "uint256",
          "name": "boardId",
          "type": "uint256"
        }
      ],
      "name": "deleteBoard",
      "outputs": [],
      "stateMutability": "nonpayable",
      "type": "function"
    },
    {
      "inputs": [
        {
          "internalType": "uint256",
          "name": "boardId",
          "type": "uint256"
        }
      ],
      "name": "getBoardById",
      "outputs": [
        {
          "components": [
            {
              "internalType": "uint256",
              "name": "id",
              "type": "uint256"
            },
            {
              "internalType": "string",
              "name": "name",
              "type": "string"
            },
            {
              "internalType": "address",
              "name": "owner",
              "type": "address"
            },
            {
              "internalType": "uint256[]",
              "name": "pins",
              "type": "uint256[]"
            }
          ],
          "internalType": "struct Board",
          "name": "",
          "type": "tuple"
        }
      ],
      "stateMutability": "view",
      "type": "function"
    },
    {
      "inputs": [
        {
          "internalType": "address",
          "name": "owner",
          "type": "address"
        }
      ],
      "name": "getBoardsByOwner",
      "outputs": [
        {
          "components": [
            {
              "internalType": "uint256",
              "name": "id",
              "type": "uint256"
            },
            {
              "internalType": "string",
              "name": "name",
              "type": "string"
            },
            {
              "internalType": "address",
              "name": "owner",
              "type": "address"
            },
            {
              "internalType": "uint256[]",
              "name": "pins",
              "type": "uint256[]"
            }
          ],
          "internalType": "struct Board[]",
          "name": "",
          "type": "tuple[]"
        }
      ],
      "stateMutability": "view",
      "type": "function"
    },
    {
      "inputs": [
        {
          "internalType": "uint256",
          "name": "boardId",
          "type": "uint256"
        },
        {
          "internalType": "uint256",
          "name": "pinId",
          "type": "uint256"
        },
        {
          "internalType": "string",
          "name": "pinTitle",
          "type": "string"
        },
        {
          "internalType": "string",
          "name": "pinDescription",
          "type": "string"
        },
        {
          "internalType": "string",
          "name": "pinImageHash",
          "type": "string"
        },
        {
          "internalType": "string",
          "name": "pinOwner",
          "type": "string"
        }
      ],
      "name": "savePinToBoard",
      "outputs": [],
      "stateMutability": "nonpayable",
      "type": "function"
    },
    {
      "inputs": [
        {
          "internalType": "uint256",
          "name": "pinId",
          "type": "uint256"
        },
        {
          "internalType": "uint256",
          "name": "boardId",
          "type": "uint256"
        },
        {
          "internalType": "uint256",
          "name": "newBoardId",
          "type": "uint256"
        }
      ],
      "name": "editSavedPin",
      "outputs": [],
      "stateMutability": "nonpayable",
      "type": "function"
    },
    {
      "inputs": [
        {
          "internalType": "uint256",
          "name": "pinId",
          "type": "uint256"
        },
        {
          "internalType": "uint256",
          "name": "boardId",
          "type": "uint256"
        }
      ],
      "name": "deleteSavedPin",
      "outputs": [],
      "stateMutability": "nonpayable",
      "type": "function"
    }
  ],
  "bytecode": "0x608060405234801561001057600080fd5b506122ad806100206000396000f3fe608060405234801561001057600080fd5b506004361061009e5760003560e01c80639a7083f9116100665780639a7083f914610145578063a778b81a14610177578063af2d715614610193578063f47810a1146101c3578063fb72d200146101df5761009e565b806326d51258146100a357806333942a48146100bf5780636a211e87146100dd57806387159746146100f95780638e1c99da14610129575b600080fd5b6100bd60048036038101906100b891906114e6565b61020f565b005b6100c761035d565b6040516100d49190611551565b60405180910390f35b6100f760048036038101906100f2919061156c565b610363565b005b610113600480360381019061010e91906115bf565b610594565b6040516101209190611551565b60405180910390f35b610143600480360381019061013e9190611608565b610731565b005b61015f600480360381019061015a9190611705565b610844565b60405161016e939291906117fb565b60405180910390f35b610191600480360381019061018c9190611839565b610916565b005b6101ad60048036038101906101a891906118a5565b610a7a565b6040516101ba9190611b15565b60405180910390f35b6101dd60048036038101906101d89190611705565b610d9f565b005b6101f960048036038101906101f49190611705565b610f25565b6040516102069190611ba1565b60405180910390f35b60008083815260200190815260200160002060020160009054906101000a900473ffffffffffffffffffffffffffffffffffffffff1673ffffffffffffffffffffffffffffffffffffffff163373ffffffffffffffffffffffffffffffffffffffff16146102b2576040517f08c379a00000000000000000000000000000000000000000000000000000000081526004016102a990611c35565b60405180910390fd5b60008151036102f6576040517f08c379a00000000000000000000000000000000000000000000000000000000081526004016102ed90611ca1565b60405180910390fd5b80600080848152602001908152602001600020600101908051906020019061031f9291906111c7565b507fa480dae974664e5c50091568dd2fbd43a987a1728f702d659b83f74a10ef67c18282604051610351929190611cc1565b60405180910390a15050565b60015481565b6001548111156103a8576040517f08c379a000000000000000000000000000000000000000000000000000000000815260040161039f90611d3d565b60405180910390fd5b6001548211156103ed576040517f08c379a00000000000000000000000000000000000000000000000000000000081526004016103e490611da9565b60405180910390fd5b60008060008481526020019081526020016000209050600080600084815260200190815260200160002090506000851161045c576040517f08c379a000000000000000000000000000000000000000000000000000000000815260040161045390611e3b565b60405180910390fd5b600082600301905060005b8180549050811015610525578682828154811061048757610486611e5b565b5b9060005260206000200154036105125781600183805490506104a99190611eb9565b815481106104ba576104b9611e5b565b5b90600052602060002001548282815481106104d8576104d7611e5b565b5b9060005260206000200181905550818054806104f7576104f6611eed565b5b60019003818190600052602060002001600090559055610525565b808061051d90611f1c565b915050610467565b50816003018690806001815401808255809150506001900390600052602060002001600090919091909150557fc2ac4f588bf0f7df63088a6001d1616084881c8fccc57d51a79474fd3b89c15d86868660405161058493929190611f64565b60405180910390a1505050505050565b6000808251036105d9576040517f08c379a00000000000000000000000000000000000000000000000000000000081526004016105d090611fe7565b60405180910390fd5b600160008154809291906105ec90611f1c565b919050555060606000604051806080016040528060015481526020018581526020013373ffffffffffffffffffffffffffffffffffffffff16815260200183815250905080600080600154815260200190815260200160002060008201518160000155602082015181600101908051906020019061066b9291906111c7565b5060408201518160020160006101000a81548173ffffffffffffffffffffffffffffffffffffffff021916908373ffffffffffffffffffffffffffffffffffffffff16021790555060608201518160030190805190602001906106cf92919061124d565b509050503373ffffffffffffffffffffffffffffffffffffffff167fac364e15813c225ec404ce90e1d473c41abc7b9bd06ce024a06988906fc7668b6001548660405161071d929190611cc1565b60405180910390a260015492505050919050565b600154861115610776576040517f08c379a000000000000000000000000000000000000000000000000000000000815260040161076d90612053565b60405180910390fd5b600085116107b9576040517f08c379a00000000000000000000000000000000000000000000000000000000081526004016107b090611e3b565b60405180910390fd5b60008060008881526020019081526020016000209050806003018690806001815401808255809150506001900390600052602060002001600090919091909150557f0422ecaba94a999e4f0827685d90258b8a9f42f8e41c41ab02df745cc08f6709868686868b8760405161083396959493929190612073565b60405180910390a150505050505050565b600060205280600052604060002060009150905080600001549080600101805461086d9061211f565b80601f01602080910402602001604051908101604052809291908181526020018280546108999061211f565b80156108e65780601f106108bb576101008083540402835291602001916108e6565b820191906000526020600020905b8154815290600101906020018083116108c957829003601f168201915b5050505050908060020160009054906101000a900473ffffffffffffffffffffffffffffffffffffffff16905083565b60015481111561095b576040517f08c379a000000000000000000000000000000000000000000000000000000000815260040161095290612053565b60405180910390fd5b60008060008381526020019081526020016000209050600081600301905060005b8180549050811015610a3a578482828154811061099c5761099b611e5b565b5b906000526020600020015403610a275781600183805490506109be9190611eb9565b815481106109cf576109ce611e5b565b5b90600052602060002001548282815481106109ed576109ec611e5b565b5b906000526020600020018190555081805480610a0c57610a0b611eed565b5b60019003818190600052602060002001600090559055610a3a565b8080610a3290611f1c565b91505061097c565b507f50aa957e57c079bfd9bc0b2ce096427029f577f3c2e8bc010485679d09bd279e8484604051610a6c929190612150565b60405180910390a150505050565b6060600080600190505b6001548111610b17578373ffffffffffffffffffffffffffffffffffffffff1660008083815260200190815260200160002060020160009054906101000a900473ffffffffffffffffffffffffffffffffffffffff1673ffffffffffffffffffffffffffffffffffffffff1603610b04578180610b0090611f1c565b9250505b8080610b0f90611f1c565b915050610a84565b5060008167ffffffffffffffff811115610b3457610b336113bb565b5b604051908082528060200260200182016040528015610b6d57816020015b610b5a61129a565b815260200190600190039081610b525790505b509050600080600190505b6001548111610d90578573ffffffffffffffffffffffffffffffffffffffff1660008083815260200190815260200160002060020160009054906101000a900473ffffffffffffffffffffffffffffffffffffffff1673ffffffffffffffffffffffffffffffffffffffff1603610d7d5760008082815260200190815260200160002060405180608001604052908160008201548152602001600182018054610c209061211f565b80601f0160208091040260200160405190810160405280929190818152602001828054610c4c9061211f565b8015610c995780601f10610c6e57610100808354040283529160200191610c99565b820191906000526020600020905b815481529060010190602001808311610c7c57829003601f168201915b505050505081526020016002820160009054906101000a900473ffffffffffffffffffffffffffffffffffffffff1673ffffffffffffffffffffffffffffffffffffffff1673ffffffffffffffffffffffffffffffffffffffff16815260200160038201805480602002602001604051908101604052809291908181526020018280548015610d4757602002820191906000526020600020905b815481526020019060010190808311610d33575b505050505081525050838381518110610d6357610d62611e5b565b5b60200260200101819052508180610d7990611f1c565b9250505b8080610d8890611f1c565b915050610b78565b50808252819350505050919050565b600154811115610de4576040517f08c379a0000000000000000000000000000000000000000000000000000000008152600401610ddb90612053565b60405180910390fd5b60008082815260200190815260200160002060020160009054906101000a900473ffffffffffffffffffffffffffffffffffffffff1673ffffffffffffffffffffffffffffffffffffffff163373ffffffffffffffffffffffffffffffffffffffff1614610e87576040517f08c379a0000000000000000000000000000000000000000000000000000000008152600401610e7e906121eb565b60405180910390fd5b7f4e8a750abb5bc4433f76ccc65ec77d14d55174b068aa54a2d68383fd76601cdb81604051610eb69190611551565b60405180910390a1600080828152602001908152602001600020600080820160009055600182016000610ee991906112d8565b6002820160006101000a81549073ffffffffffffffffffffffffffffffffffffffff0219169055600382016000610f209190611318565b505050565b610f2d61129a565b60008203610f70576040517f08c379a0000000000000000000000000000000000000000000000000000000008152600401610f6790612257565b60405180910390fd5b600154821115610fb5576040517f08c379a0000000000000000000000000000000000000000000000000000000008152600401610fac90612053565b60405180910390fd5b600073ffffffffffffffffffffffffffffffffffffffff1660008084815260200190815260200160002060020160009054906101000a900473ffffffffffffffffffffffffffffffffffffffff1673ffffffffffffffffffffffffffffffffffffffff1603611059576040517f08c379a000000000000000000000000000000000000000000000000000000000815260040161105090612053565b60405180910390fd5b600080838152602001908152602001600020604051806080016040529081600082015481526020016001820180546110909061211f565b80601f01602080910402602001604051908101604052809291908181526020018280546110bc9061211f565b80156111095780601f106110de57610100808354040283529160200191611109565b820191906000526020600020905b8154815290600101906020018083116110ec57829003601f168201915b505050505081526020016002820160009054906101000a900473ffffffffffffffffffffffffffffffffffffffff1673ffffffffffffffffffffffffffffffffffffffff1673ffffffffffffffffffffffffffffffffffffffff168152602001600382018054806020026020016040519081016040528092919081815260200182805480156111b757602002820191906000526020600020905b8154815260200190600101908083116111a3575b5050505050815250509050919050565b8280546111d39061211f565b90600052602060002090601f0160209004810192826111f5576000855561123c565b82601f1061120e57805160ff191683800117855561123c565b8280016001018555821561123c579182015b8281111561123b578251825591602001919060010190611220565b5b5090506112499190611339565b5090565b828054828255906000526020600020908101928215611289579160200282015b8281111561128857825182559160200191906001019061126d565b5b5090506112969190611339565b5090565b60405180608001604052806000815260200160608152602001600073ffffffffffffffffffffffffffffffffffffffff168152602001606081525090565b5080546112e49061211f565b6000825580601f106112f65750611315565b601f0160209004906000526020600020908101906113149190611339565b5b50565b50805460008255906000526020600020908101906113369190611339565b50565b5b8082111561135257600081600090555060010161133a565b5090565b6000604051905090565b600080fd5b600080fd5b6000819050919050565b61137d8161136a565b811461138857600080fd5b50565b60008135905061139a81611374565b92915050565b600080fd5b600080fd5b6000601f19601f8301169050919050565b7f4e487b7100000000000000000000000000000000000000000000000000000000600052604160045260246000fd5b6113f3826113aa565b810181811067ffffffffffffffff82111715611412576114116113bb565b5b80604052505050565b6000611425611356565b905061143182826113ea565b919050565b600067ffffffffffffffff821115611451576114506113bb565b5b61145a826113aa565b9050602081019050919050565b82818337600083830152505050565b600061148961148484611436565b61141b565b9050828152602081018484840111156114a5576114a46113a5565b5b6114b0848285611467565b509392505050565b600082601f8301126114cd576114cc6113a0565b5b81356114dd848260208601611476565b91505092915050565b600080604083850312156114fd576114fc611360565b5b600061150b8582860161138b565b925050602083013567ffffffffffffffff81111561152c5761152b611365565b5b611538858286016114b8565b9150509250929050565b61154b8161136a565b82525050565b60006020820190506115666000830184611542565b92915050565b60008060006060848603121561158557611584611360565b5b60006115938682870161138b565b93505060206115a48682870161138b565b92505060406115b58682870161138b565b9150509250925092565b6000602082840312156115d5576115d4611360565b5b600082013567ffffffffffffffff8111156115f3576115f2611365565b5b6115ff848285016114b8565b91505092915050565b60008060008060008060c0878903121561162557611624611360565b5b600061163389828a0161138b565b965050602061164489828a0161138b565b955050604087013567ffffffffffffffff81111561166557611664611365565b5b61167189828a016114b8565b945050606087013567ffffffffffffffff81111561169257611691611365565b5b61169e89828a016114b8565b935050608087013567ffffffffffffffff8111156116bf576116be611365565b5b6116cb89828a016114b8565b92505060a087013567ffffffffffffffff8111156116ec576116eb611365565b5b6116f889828a016114b8565b9150509295509295509295565b60006020828403121561171b5761171a611360565b5b60006117298482850161138b565b91505092915050565b600081519050919050565b600082825260208201905092915050565b60005b8381101561176c578082015181840152602081019050611751565b8381111561177b576000848401525b50505050565b600061178c82611732565b611796818561173d565b93506117a681856020860161174e565b6117af816113aa565b840191505092915050565b600073ffffffffffffffffffffffffffffffffffffffff82169050919050565b60006117e5826117ba565b9050919050565b6117f5816117da565b82525050565b60006060820190506118106000830186611542565b81810360208301526118228185611781565b905061183160408301846117ec565b949350505050565b600080604083850312156118505761184f611360565b5b600061185e8582860161138b565b925050602061186f8582860161138b565b9150509250929050565b611882816117da565b811461188d57600080fd5b50565b60008135905061189f81611879565b92915050565b6000602082840312156118bb576118ba611360565b5b60006118c984828501611890565b91505092915050565b600081519050919050565b600082825260208201905092915050565b6000819050602082019050919050565b6119078161136a565b82525050565b600082825260208201905092915050565b600061192982611732565b611933818561190d565b935061194381856020860161174e565b61194c816113aa565b840191505092915050565b611960816117da565b82525050565b600081519050919050565b600082825260208201905092915050565b6000819050602082019050919050565b600061199e83836118fe565b60208301905092915050565b6000602082019050919050565b60006119c282611966565b6119cc8185611971565b93506119d783611982565b8060005b83811015611a085781516119ef8882611992565b97506119fa836119aa565b9250506001810190506119db565b5085935050505092915050565b6000608083016000830151611a2d60008601826118fe565b5060208301518482036020860152611a45828261191e565b9150506040830151611a5a6040860182611957565b5060608301518482036060860152611a7282826119b7565b9150508091505092915050565b6000611a8b8383611a15565b905092915050565b6000602082019050919050565b6000611aab826118d2565b611ab581856118dd565b935083602082028501611ac7856118ee565b8060005b85811015611b035784840389528151611ae48582611a7f565b9450611aef83611a93565b925060208a01995050600181019050611acb565b50829750879550505050505092915050565b60006020820190508181036000830152611b2f8184611aa0565b905092915050565b6000608083016000830151611b4f60008601826118fe565b5060208301518482036020860152611b67828261191e565b9150506040830151611b7c6040860182611957565b5060608301518482036060860152611b9482826119b7565b9150508091505092915050565b60006020820190508181036000830152611bbb8184611b37565b905092915050565b7f4f6e6c792074686520626f617264206f776e65722063616e206564697420746860008201527f6520626f6172642e000000000000000000000000000000000000000000000000602082015250565b6000611c1f60288361173d565b9150611c2a82611bc3565b604082019050919050565b60006020820190508181036000830152611c4e81611c12565b9050919050565b7f4e657720626f617264206e616d652063616e6e6f7420626520656d7074792e00600082015250565b6000611c8b601f8361173d565b9150611c9682611c55565b602082019050919050565b60006020820190508181036000830152611cba81611c7e565b9050919050565b6000604082019050611cd66000830185611542565b8181036020830152611ce88184611781565b90509392505050565b7f4e657720426f61726420646f6573206e6f742065786973742e00000000000000600082015250565b6000611d2760198361173d565b9150611d3282611cf1565b602082019050919050565b60006020820190508181036000830152611d5681611d1a565b9050919050565b7f4f6c6420426f61726420646f6573206e6f742065786973742e00000000000000600082015250565b6000611d9360198361173d565b9150611d9e82611d5d565b602082019050919050565b60006020820190508181036000830152611dc281611d86565b9050919050565b7f50696e204944206d7573742062652067726561746572207468616e207a65726f60008201527f2e00000000000000000000000000000000000000000000000000000000000000602082015250565b6000611e2560218361173d565b9150611e3082611dc9565b604082019050919050565b60006020820190508181036000830152611e5481611e18565b9050919050565b7f4e487b7100000000000000000000000000000000000000000000000000000000600052603260045260246000fd5b7f4e487b7100000000000000000000000000000000000000000000000000000000600052601160045260246000fd5b6000611ec48261136a565b9150611ecf8361136a565b925082821015611ee257611ee1611e8a565b5b828203905092915050565b7f4e487b7100000000000000000000000000000000000000000000000000000000600052603160045260246000fd5b6000611f278261136a565b91507fffffffffffffffffffffffffffffffffffffffffffffffffffffffffffffffff8203611f5957611f58611e8a565b5b600182019050919050565b6000606082019050611f796000830186611542565b611f866020830185611542565b611f936040830184611542565b949350505050565b7f426f617264206e616d652063616e6e6f7420626520656d7074792e0000000000600082015250565b6000611fd1601b8361173d565b9150611fdc82611f9b565b602082019050919050565b6000602082019050818103600083015261200081611fc4565b9050919050565b7f426f61726420646f6573206e6f742065786973742e0000000000000000000000600082015250565b600061203d60158361173d565b915061204882612007565b602082019050919050565b6000602082019050818103600083015261206c81612030565b9050919050565b600060c0820190506120886000830189611542565b818103602083015261209a8188611781565b905081810360408301526120ae8187611781565b905081810360608301526120c28186611781565b90506120d16080830185611542565b81810360a08301526120e38184611781565b9050979650505050505050565b7f4e487b7100000000000000000000000000000000000000000000000000000000600052602260045260246000fd5b6000600282049050600182168061213757607f821691505b60208210810361214a576121496120f0565b5b50919050565b60006040820190506121656000830185611542565b6121726020830184611542565b9392505050565b7f4f6e6c792074686520626f617264206f776e65722063616e2064656c6574652060008201527f74686520626f6172642e00000000000000000000000000000000000000000000602082015250565b60006121d5602a8361173d565b91506121e082612179565b604082019050919050565b60006020820190508181036000830152612204816121c8565b9050919050565b7f426f6172642049442063616e6e6f74206265207a65726f2e0000000000000000600082015250565b600061224160188361173d565b915061224c8261220b565b602082019050919050565b6000602082019050818103600083015261227081612234565b905091905056fea264697066735822122061d0de08b19721b6a2e0e7c344ce4268f3fad7e5c6853c854766a4775938cc6c64736f6c634300080d0033",
  "immutableReferences": {},
  "source": "// SPDX-License-Identifier: GPL-3.0\n\npragma solidity >=0.7.0 <0.9.0;\n\n//import \"hardhat/console.sol\";\nimport {Board, Pin} from \"./common/types.sol\";\n\n/**\n * @title BoardManager\n * @dev A smart contract for managing boards\n */\ncontract BoardManager {\n    /**\n     * @dev Event emitted when a new board is created\n     * @param boardId ID of the board created\n     * @param boardName Name of the board created\n     * @param owner Owner of the board created\n     */\n    event BoardCreated(\n        uint256 boardId,\n        string boardName,\n        address indexed owner\n    );\n\n    /**\n     * @dev Event emitted when a board is deleted\n     * @param boardId ID of the board deleted\n     */\n    event BoardDeleted(uint256 boardId);\n\n    /**\n     * @dev Event emitted when a board is edited\n     * @param boardId ID of the board edited\n     * @param newName New name of the board edited\n     */\n    event BoardEdited(uint256 boardId, string newName);\n\n    /**\n     * @dev Event emitted when a pin is saved to a board\n     * @param pinId ID of the saved pin\n     * @param title Title of the pin saved\n     * @param description Description of the pin saved\n     * @param imageHash IPFS hash of the pin's image\n     * @param boardId ID of the board the pin is saved to\n     * @param owner Owner of the pin saved\n     */\n    event PinSaved(\n        uint256 pinId,\n        string title,\n        string description,\n        string imageHash,\n        uint256 boardId,\n        string owner\n    );\n\n    /**\n     * @dev Event emitted when a saved pin is edited\n     * @param pinId ID of the pin edited\n     * @param oldBoardId ID of the old board\n     * @param newBoardId ID of the new board\n     */\n    event SavedPinEdited(uint256 pinId, uint256 oldBoardId, uint256 newBoardId);\n\n    /**\n     * @dev Event emitted when a saved pin is deleted\n     * @param pinId ID of the pin edited\n     * @param boardId ID of the board\n     */\n    event SavedPinDeleted(uint256 pinId, uint256 boardId);\n\n    /**\n     * @dev Mapping to store boards by their ID\n     */\n    mapping(uint256 => Board) public boards;\n\n    /**\n     * @dev Number of boards created\n     */\n    uint256 public currentBoardId;\n\n    /**\n     * @dev Create a new board\n     * @param boardName Name of the board to create\n     * Requirements:\n     * - boardName cannot be an empty string\n     */\n    function createBoard(string memory boardName) public returns (uint256) {\n        require(bytes(boardName).length != 0, \"Board name cannot be empty.\");\n        currentBoardId++;\n        uint256[] memory pins;\n        Board memory board = Board(currentBoardId, boardName, msg.sender, pins);\n        boards[currentBoardId] = board;\n        emit BoardCreated(currentBoardId, boardName, msg.sender);\n        return currentBoardId;\n    }\n\n    /**\n     * @dev Edit board information\n     * @param boardId ID of the board to edit\n     * @param newName New name for the board\n     * Requirements:\n     * - Only the board owner can edit the board\n     * - Board with the given ID must exist\n     */\n    function editBoard(uint256 boardId, string memory newName) public {\n        require(\n            msg.sender == boards[boardId].owner,\n            \"Only the board owner can edit the board.\"\n        );\n        require(bytes(newName).length != 0, \"New board name cannot be empty.\");\n\n        boards[boardId].name = newName;\n\n        emit BoardEdited(boardId, newName);\n    }\n\n    /**\n     * @dev Delete an existing board\n     * @param boardId ID of the board to delete\n     * Requirements:\n     * - Only the board owner can delete the board\n     */\n    function deleteBoard(uint256 boardId) public {\n        require(boardId <= currentBoardId, \"Board does not exist.\");\n        require(\n            msg.sender == boards[boardId].owner,\n            \"Only the board owner can delete the board.\"\n        );\n        emit BoardDeleted(boardId);\n        delete boards[boardId];\n    }\n\n    /**\n     * @dev Get board information by its ID\n     * @param boardId ID of the board to get\n     * @return Board struct containing board information\n     * Requirements:\n     * - Board ID cannot be zero\n     * - Board with the given ID must exist\n     */\n    function getBoardById(uint256 boardId) public view returns (Board memory) {\n        require(boardId != 0, \"Board ID cannot be zero.\");\n        require(boardId <= currentBoardId, \"Board does not exist.\");\n        require(boards[boardId].owner != address(0), \"Board does not exist.\");\n        return boards[boardId];\n    }\n\n    /**\n     * @dev Get boards owned by a specific address\n     * @param owner Address of the board owner\n     * @return Board[] array containing the boards owned by the specified address\n     */\n    function getBoardsByOwner(\n        address owner\n    ) public view returns (Board[] memory) {\n        uint256 count = 0;\n\n        // Count the number of boards owned by the specified address\n        for (uint256 i = 1; i <= currentBoardId; i++) {\n            if (boards[i].owner == owner) {\n                count++;\n            }\n        }\n\n        // Create an array with the count of boards\n        Board[] memory ownerBoards = new Board[](count);\n        uint256 index = 0;\n\n        // Retrieve the boards owned by the specified address\n        for (uint256 i = 1; i <= currentBoardId; i++) {\n            if (boards[i].owner == owner) {\n                ownerBoards[index] = boards[i];\n                index++;\n            }\n        }\n\n        // Resize the ownerBoards array to remove any unused elements\n        assembly {\n            mstore(ownerBoards, index)\n        }\n\n        return ownerBoards;\n    }\n\n    /* @dev Save a new pin to a board\n     * @param boardId ID of the board to save the pin to\n     * @param pinId ID of the pin to save\n     * @param pinTitle Title of the pin to save\n     * @param pinDescription Description of the pin to save\n     * @param pinImageHash IPFS hash of the pin's image\n     * @param pinOwner Owner of the pin to save\n     * Requirements:\n     * - Board with the given ID must exist\n     * - Pin ID must be unique within the board\n     */\n    function savePinToBoard(\n        uint256 boardId,\n        uint256 pinId,\n        string memory pinTitle,\n        string memory pinDescription,\n        string memory pinImageHash,\n        string memory pinOwner\n    ) public {\n        require(boardId <= currentBoardId, \"Board does not exist.\");\n        require(pinId > 0, \"Pin ID must be greater than zero.\");\n\n        Board storage board = boards[boardId];\n        board.pins.push(pinId);\n\n        emit PinSaved(\n            pinId,\n            pinTitle,\n            pinDescription,\n            pinImageHash,\n            boardId,\n            pinOwner\n        );\n    }\n\n    /**\n     * @dev Edit a saved pin\n     * @param pinId ID of the pin to edit\n     * @param boardId ID of the board the pin is saved to\n     * @param newBoardId ID of the new board to save the pin to\n     * Requirements:\n     * - Board with the given ID must exist\n     * - Pin ID must be unique within the board\n     */\n    function editSavedPin(\n        uint256 pinId,\n        uint256 boardId,\n        uint256 newBoardId\n    ) public {\n        require(newBoardId <= currentBoardId, \"New Board does not exist.\");\n        require(boardId <= currentBoardId, \"Old Board does not exist.\");\n\n        Board storage oldBoard = boards[boardId];\n        Board storage newBoard = boards[newBoardId];\n        require(pinId > 0, \"Pin ID must be greater than zero.\");\n\n        // Delete pin from the old board\n        uint256[] storage oldBoardPins = oldBoard.pins;\n        for (uint256 i = 0; i < oldBoardPins.length; i++) {\n            if (oldBoardPins[i] == pinId) {\n                // Move the last element to the deleted position\n                oldBoardPins[i] = oldBoardPins[oldBoardPins.length - 1];\n                // Decrease the length of the array by 1\n                oldBoardPins.pop();\n                break;\n            }\n        }\n\n        // Save pin to the new board\n        newBoard.pins.push(pinId);\n\n        emit SavedPinEdited(pinId, boardId, newBoardId);\n    }\n\n    /**\n     * @dev Delete a saved pin\n     * @param pinId ID of the pin to delete\n     * @param boardId ID of the board the pin is saved to\n     * Requirements:\n     * - Board with the given ID must exist\n     * - Pin with the given ID must exist in the board's pins array\n     */\n    function deleteSavedPin(uint256 pinId, uint256 boardId) public {\n        require(boardId <= currentBoardId, \"Board does not exist.\");\n\n        Board storage board = boards[boardId];\n        uint256[] storage pins = board.pins;\n\n        for (uint256 i = 0; i < pins.length; i++) {\n            if (pins[i] == pinId) {\n                // Move the last element to the deleted position\n                pins[i] = pins[pins.length - 1];\n                // Decrease the length of the array by 1\n                pins.pop();\n                break;\n            }\n        }\n\n        emit SavedPinDeleted(pinId, boardId);\n    }\n}\n",
  "sourcePath": "/Users/lisapolena/Documents/Master_04/Thesis/Prototyp/betterPinterest/src/contracts/boardManager.sol",
  "compiler": {
    "name": "solc",
    "version": "0.8.13+commit.abaa5c0e.Emscripten.clang"
  },
  "schemaVersion": "3.4.14",
  "updatedAt": "2023-06-07T15:53:28.147Z",
  "devdoc": {
    "details": "A smart contract for managing boards",
    "events": {
      "BoardCreated(uint256,string,address)": {
        "details": "Event emitted when a new board is created",
        "params": {
          "boardId": "ID of the board created",
          "boardName": "Name of the board created",
          "owner": "Owner of the board created"
        }
      },
      "BoardDeleted(uint256)": {
        "details": "Event emitted when a board is deleted",
        "params": {
          "boardId": "ID of the board deleted"
        }
      },
      "BoardEdited(uint256,string)": {
        "details": "Event emitted when a board is edited",
        "params": {
          "boardId": "ID of the board edited",
          "newName": "New name of the board edited"
        }
      },
      "PinSaved(uint256,string,string,string,uint256,string)": {
        "details": "Event emitted when a pin is saved to a board",
        "params": {
          "boardId": "ID of the board the pin is saved to",
          "description": "Description of the pin saved",
          "imageHash": "IPFS hash of the pin's image",
          "owner": "Owner of the pin saved",
          "pinId": "ID of the saved pin",
          "title": "Title of the pin saved"
        }
      },
      "SavedPinDeleted(uint256,uint256)": {
        "details": "Event emitted when a saved pin is deleted",
        "params": {
          "boardId": "ID of the board",
          "pinId": "ID of the pin edited"
        }
      },
      "SavedPinEdited(uint256,uint256,uint256)": {
        "details": "Event emitted when a saved pin is edited",
        "params": {
          "newBoardId": "ID of the new board",
          "oldBoardId": "ID of the old board",
          "pinId": "ID of the pin edited"
        }
      }
    },
    "kind": "dev",
    "methods": {
      "createBoard(string)": {
        "details": "Create a new board",
        "params": {
          "boardName": "Name of the board to create Requirements: - boardName cannot be an empty string"
        }
      },
      "deleteBoard(uint256)": {
        "details": "Delete an existing board",
        "params": {
          "boardId": "ID of the board to delete Requirements: - Only the board owner can delete the board"
        }
      },
      "deleteSavedPin(uint256,uint256)": {
        "details": "Delete a saved pin",
        "params": {
          "boardId": "ID of the board the pin is saved to Requirements: - Board with the given ID must exist - Pin with the given ID must exist in the board's pins array",
          "pinId": "ID of the pin to delete"
        }
      },
      "editBoard(uint256,string)": {
        "details": "Edit board information",
        "params": {
          "boardId": "ID of the board to edit",
          "newName": "New name for the board Requirements: - Only the board owner can edit the board - Board with the given ID must exist"
        }
      },
      "editSavedPin(uint256,uint256,uint256)": {
        "details": "Edit a saved pin",
        "params": {
          "boardId": "ID of the board the pin is saved to",
          "newBoardId": "ID of the new board to save the pin to Requirements: - Board with the given ID must exist - Pin ID must be unique within the board",
          "pinId": "ID of the pin to edit"
        }
      },
      "getBoardById(uint256)": {
        "details": "Get board information by its ID",
        "params": {
          "boardId": "ID of the board to get"
        },
        "returns": {
          "_0": "Board struct containing board information Requirements: - Board ID cannot be zero - Board with the given ID must exist"
        }
      },
      "getBoardsByOwner(address)": {
        "details": "Get boards owned by a specific address",
        "params": {
          "owner": "Address of the board owner"
        },
        "returns": {
          "_0": "Board[] array containing the boards owned by the specified address"
        }
      }
    },
    "stateVariables": {
      "boards": {
        "details": "Mapping to store boards by their ID"
      },
      "currentBoardId": {
        "details": "Number of boards created"
      }
    },
    "title": "BoardManager",
    "version": 1
  },
  "userdoc": {
    "kind": "user",
    "methods": {},
    "version": 1
  }
}