{
  "contractName": "BoardManager",
  "abi": [
    {
      "anonymous": false,
      "inputs": [
        {
          "indexed": false,
          "internalType": "uint256",
          "name": "boardId",
          "type": "uint256"
        },
        {
          "indexed": false,
          "internalType": "string",
          "name": "boardName",
          "type": "string"
        },
        {
          "indexed": true,
          "internalType": "address",
          "name": "owner",
          "type": "address"
        }
      ],
      "name": "BoardCreated",
      "type": "event"
    },
    {
      "anonymous": false,
      "inputs": [
        {
          "indexed": false,
          "internalType": "uint256",
          "name": "boardId",
          "type": "uint256"
        }
      ],
      "name": "BoardDeleted",
      "type": "event"
    },
    {
      "anonymous": false,
      "inputs": [
        {
          "indexed": false,
          "internalType": "uint256",
          "name": "boardId",
          "type": "uint256"
        },
        {
          "indexed": false,
          "internalType": "string",
          "name": "newName",
          "type": "string"
        }
      ],
      "name": "BoardEdited",
      "type": "event"
    },
    {
      "anonymous": false,
      "inputs": [
        {
          "indexed": false,
          "internalType": "uint256",
          "name": "pinId",
          "type": "uint256"
        },
        {
          "indexed": false,
          "internalType": "uint256",
          "name": "boardId",
          "type": "uint256"
        }
      ],
      "name": "PinSaved",
      "type": "event"
    },
    {
      "anonymous": false,
      "inputs": [
        {
          "indexed": false,
          "internalType": "uint256",
          "name": "pinId",
          "type": "uint256"
        },
        {
          "indexed": false,
          "internalType": "uint256",
          "name": "boardId",
          "type": "uint256"
        }
      ],
      "name": "SavedPinEdited",
      "type": "event"
    },
    {
      "inputs": [
        {
          "internalType": "uint256",
          "name": "",
          "type": "uint256"
        }
      ],
      "name": "boards",
      "outputs": [
        {
          "internalType": "uint256",
          "name": "id",
          "type": "uint256"
        },
        {
          "internalType": "string",
          "name": "name",
          "type": "string"
        },
        {
          "internalType": "address",
          "name": "owner",
          "type": "address"
        }
      ],
      "stateMutability": "view",
      "type": "function"
    },
    {
      "inputs": [],
      "name": "currentBoardId",
      "outputs": [
        {
          "internalType": "uint256",
          "name": "",
          "type": "uint256"
        }
      ],
      "stateMutability": "view",
      "type": "function"
    },
    {
      "inputs": [
        {
          "internalType": "string",
          "name": "boardName",
          "type": "string"
        }
      ],
      "name": "createBoard",
      "outputs": [
        {
          "internalType": "uint256",
          "name": "",
          "type": "uint256"
        }
      ],
      "stateMutability": "nonpayable",
      "type": "function"
    },
    {
      "inputs": [
        {
          "internalType": "uint256",
          "name": "boardId",
          "type": "uint256"
        },
        {
          "internalType": "string",
          "name": "newName",
          "type": "string"
        }
      ],
      "name": "editBoard",
      "outputs": [],
      "stateMutability": "nonpayable",
      "type": "function"
    },
    {
      "inputs": [
        {
          "internalType": "uint256",
          "name": "boardId",
          "type": "uint256"
        }
      ],
      "name": "deleteBoard",
      "outputs": [],
      "stateMutability": "nonpayable",
      "type": "function"
    },
    {
      "inputs": [
        {
          "internalType": "uint256",
          "name": "boardId",
          "type": "uint256"
        }
      ],
      "name": "getBoardById",
      "outputs": [
        {
          "components": [
            {
              "internalType": "uint256",
              "name": "id",
              "type": "uint256"
            },
            {
              "internalType": "string",
              "name": "name",
              "type": "string"
            },
            {
              "internalType": "address",
              "name": "owner",
              "type": "address"
            },
            {
              "internalType": "uint256[]",
              "name": "pins",
              "type": "uint256[]"
            }
          ],
          "internalType": "struct Board",
          "name": "",
          "type": "tuple"
        }
      ],
      "stateMutability": "view",
      "type": "function"
    },
    {
      "inputs": [
        {
          "internalType": "address",
          "name": "owner",
          "type": "address"
        }
      ],
      "name": "getBoardsByOwner",
      "outputs": [
        {
          "components": [
            {
              "internalType": "uint256",
              "name": "id",
              "type": "uint256"
            },
            {
              "internalType": "string",
              "name": "name",
              "type": "string"
            },
            {
              "internalType": "address",
              "name": "owner",
              "type": "address"
            },
            {
              "internalType": "uint256[]",
              "name": "pins",
              "type": "uint256[]"
            }
          ],
          "internalType": "struct Board[]",
          "name": "",
          "type": "tuple[]"
        }
      ],
      "stateMutability": "view",
      "type": "function"
    },
    {
      "inputs": [
        {
          "internalType": "uint256",
          "name": "boardId",
          "type": "uint256"
        },
        {
          "internalType": "uint256",
          "name": "pinId",
          "type": "uint256"
        }
      ],
      "name": "savePinToBoard",
      "outputs": [],
      "stateMutability": "nonpayable",
      "type": "function"
    },
    {
      "inputs": [
        {
          "internalType": "uint256",
          "name": "pinId",
          "type": "uint256"
        },
        {
          "internalType": "uint256",
          "name": "boardId",
          "type": "uint256"
        },
        {
          "internalType": "uint256",
          "name": "newBoardId",
          "type": "uint256"
        }
      ],
      "name": "editSavedPin",
      "outputs": [],
      "stateMutability": "nonpayable",
      "type": "function"
    }
  ],
  "bytecode": "0x608060405234801561001057600080fd5b50611e7b806100206000396000f3fe608060405234801561001057600080fd5b50600436106100935760003560e01c80639a7083f9116100665780639a7083f91461011e578063af2d715614610150578063b3d55dee14610180578063f47810a11461019c578063fb72d200146101b857610093565b806326d512581461009857806333942a48146100b45780636a211e87146100d257806387159746146100ee575b600080fd5b6100b260048036038101906100ad91906112d1565b6101e8565b005b6100bc6102fd565b6040516100c9919061133c565b60405180910390f35b6100ec60048036038101906100e79190611357565b610303565b005b610108600480360381019061010391906113aa565b610532565b604051610115919061133c565b60405180910390f35b610138600480360381019061013391906113f3565b6106cf565b604051610147939291906114e9565b60405180910390f35b61016a60048036038101906101659190611553565b6107a1565b60405161017791906117c3565b60405180910390f35b61019a600480360381019061019591906117e5565b610ac6565b005b6101b660048036038101906101b191906113f3565b610bcd565b005b6101d260048036038101906101cd91906113f3565b610d53565b6040516101df919061188f565b60405180910390f35b60008083815260200190815260200160002060020160009054906101000a900473ffffffffffffffffffffffffffffffffffffffff1673ffffffffffffffffffffffffffffffffffffffff163373ffffffffffffffffffffffffffffffffffffffff161461028b576040517f08c379a000000000000000000000000000000000000000000000000000000000815260040161028290611923565b60405180910390fd5b60008151036102cf576040517f08c379a00000000000000000000000000000000000000000000000000000000081526004016102c69061198f565b60405180910390fd5b8060008084815260200190815260200160002060010190805190602001906102f8929190610fb2565b505050565b60015481565b600154811115610348576040517f08c379a000000000000000000000000000000000000000000000000000000000815260040161033f906119fb565b60405180910390fd5b60015482111561038d576040517f08c379a000000000000000000000000000000000000000000000000000000000815260040161038490611a67565b60405180910390fd5b6000806000848152602001908152602001600020905060008060008481526020019081526020016000209050600085116103fc576040517f08c379a00000000000000000000000000000000000000000000000000000000081526004016103f390611af9565b60405180910390fd5b600082600301905060005b81805490508110156104c5578682828154811061042757610426611b19565b5b9060005260206000200154036104b25781600183805490506104499190611b77565b8154811061045a57610459611b19565b5b906000526020600020015482828154811061047857610477611b19565b5b90600052602060002001819055508180548061049757610496611bab565b5b600190038181906000526020600020016000905590556104c5565b80806104bd90611bda565b915050610407565b50816003018690806001815401808255809150506001900390600052602060002001600090919091909150557f04475d7e28f4cdb7ac10e432ee2c6c6ca8af04441f239b8b43780f259566af118685604051610522929190611c22565b60405180910390a1505050505050565b600080825103610577576040517f08c379a000000000000000000000000000000000000000000000000000000000815260040161056e90611c97565b60405180910390fd5b6001600081548092919061058a90611bda565b919050555060606000604051806080016040528060015481526020018581526020013373ffffffffffffffffffffffffffffffffffffffff168152602001838152509050806000806001548152602001908152602001600020600082015181600001556020820151816001019080519060200190610609929190610fb2565b5060408201518160020160006101000a81548173ffffffffffffffffffffffffffffffffffffffff021916908373ffffffffffffffffffffffffffffffffffffffff160217905550606082015181600301908051906020019061066d929190611038565b509050503373ffffffffffffffffffffffffffffffffffffffff167fac364e15813c225ec404ce90e1d473c41abc7b9bd06ce024a06988906fc7668b600154866040516106bb929190611cb7565b60405180910390a260015492505050919050565b60006020528060005260406000206000915090508060000154908060010180546106f890611d16565b80601f016020809104026020016040519081016040528092919081815260200182805461072490611d16565b80156107715780601f1061074657610100808354040283529160200191610771565b820191906000526020600020905b81548152906001019060200180831161075457829003601f168201915b5050505050908060020160009054906101000a900473ffffffffffffffffffffffffffffffffffffffff16905083565b6060600080600190505b600154811161083e578373ffffffffffffffffffffffffffffffffffffffff1660008083815260200190815260200160002060020160009054906101000a900473ffffffffffffffffffffffffffffffffffffffff1673ffffffffffffffffffffffffffffffffffffffff160361082b57818061082790611bda565b9250505b808061083690611bda565b9150506107ab565b5060008167ffffffffffffffff81111561085b5761085a6111a6565b5b60405190808252806020026020018201604052801561089457816020015b610881611085565b8152602001906001900390816108795790505b509050600080600190505b6001548111610ab7578573ffffffffffffffffffffffffffffffffffffffff1660008083815260200190815260200160002060020160009054906101000a900473ffffffffffffffffffffffffffffffffffffffff1673ffffffffffffffffffffffffffffffffffffffff1603610aa4576000808281526020019081526020016000206040518060800160405290816000820154815260200160018201805461094790611d16565b80601f016020809104026020016040519081016040528092919081815260200182805461097390611d16565b80156109c05780601f10610995576101008083540402835291602001916109c0565b820191906000526020600020905b8154815290600101906020018083116109a357829003601f168201915b505050505081526020016002820160009054906101000a900473ffffffffffffffffffffffffffffffffffffffff1673ffffffffffffffffffffffffffffffffffffffff1673ffffffffffffffffffffffffffffffffffffffff16815260200160038201805480602002602001604051908101604052809291908181526020018280548015610a6e57602002820191906000526020600020905b815481526020019060010190808311610a5a575b505050505081525050838381518110610a8a57610a89611b19565b5b60200260200101819052508180610aa090611bda565b9250505b8080610aaf90611bda565b91505061089f565b50808252819350505050919050565b600154821115610b0b576040517f08c379a0000000000000000000000000000000000000000000000000000000008152600401610b0290611d93565b60405180910390fd5b60008111610b4e576040517f08c379a0000000000000000000000000000000000000000000000000000000008152600401610b4590611af9565b60405180910390fd5b60008060008481526020019081526020016000209050806003018290806001815401808255809150506001900390600052602060002001600090919091909150557f254924bb2e054e39fb8f465854bd69f92a4ef727ef0ebe475a3e394070d1f42b8284604051610bc0929190611c22565b60405180910390a1505050565b600154811115610c12576040517f08c379a0000000000000000000000000000000000000000000000000000000008152600401610c0990611d93565b60405180910390fd5b60008082815260200190815260200160002060020160009054906101000a900473ffffffffffffffffffffffffffffffffffffffff1673ffffffffffffffffffffffffffffffffffffffff163373ffffffffffffffffffffffffffffffffffffffff1614610cb5576040517f08c379a0000000000000000000000000000000000000000000000000000000008152600401610cac90611e25565b60405180910390fd5b7f4e8a750abb5bc4433f76ccc65ec77d14d55174b068aa54a2d68383fd76601cdb81604051610ce4919061133c565b60405180910390a1600080828152602001908152602001600020600080820160009055600182016000610d1791906110c3565b6002820160006101000a81549073ffffffffffffffffffffffffffffffffffffffff0219169055600382016000610d4e9190611103565b505050565b610d5b611085565b600154821115610da0576040517f08c379a0000000000000000000000000000000000000000000000000000000008152600401610d9790611d93565b60405180910390fd5b600073ffffffffffffffffffffffffffffffffffffffff1660008084815260200190815260200160002060020160009054906101000a900473ffffffffffffffffffffffffffffffffffffffff1673ffffffffffffffffffffffffffffffffffffffff1603610e44576040517f08c379a0000000000000000000000000000000000000000000000000000000008152600401610e3b90611d93565b60405180910390fd5b60008083815260200190815260200160002060405180608001604052908160008201548152602001600182018054610e7b90611d16565b80601f0160208091040260200160405190810160405280929190818152602001828054610ea790611d16565b8015610ef45780601f10610ec957610100808354040283529160200191610ef4565b820191906000526020600020905b815481529060010190602001808311610ed757829003601f168201915b505050505081526020016002820160009054906101000a900473ffffffffffffffffffffffffffffffffffffffff1673ffffffffffffffffffffffffffffffffffffffff1673ffffffffffffffffffffffffffffffffffffffff16815260200160038201805480602002602001604051908101604052809291908181526020018280548015610fa257602002820191906000526020600020905b815481526020019060010190808311610f8e575b5050505050815250509050919050565b828054610fbe90611d16565b90600052602060002090601f016020900481019282610fe05760008555611027565b82601f10610ff957805160ff1916838001178555611027565b82800160010185558215611027579182015b8281111561102657825182559160200191906001019061100b565b5b5090506110349190611124565b5090565b828054828255906000526020600020908101928215611074579160200282015b82811115611073578251825591602001919060010190611058565b5b5090506110819190611124565b5090565b60405180608001604052806000815260200160608152602001600073ffffffffffffffffffffffffffffffffffffffff168152602001606081525090565b5080546110cf90611d16565b6000825580601f106110e15750611100565b601f0160209004906000526020600020908101906110ff9190611124565b5b50565b50805460008255906000526020600020908101906111219190611124565b50565b5b8082111561113d576000816000905550600101611125565b5090565b6000604051905090565b600080fd5b600080fd5b6000819050919050565b61116881611155565b811461117357600080fd5b50565b6000813590506111858161115f565b92915050565b600080fd5b600080fd5b6000601f19601f8301169050919050565b7f4e487b7100000000000000000000000000000000000000000000000000000000600052604160045260246000fd5b6111de82611195565b810181811067ffffffffffffffff821117156111fd576111fc6111a6565b5b80604052505050565b6000611210611141565b905061121c82826111d5565b919050565b600067ffffffffffffffff82111561123c5761123b6111a6565b5b61124582611195565b9050602081019050919050565b82818337600083830152505050565b600061127461126f84611221565b611206565b9050828152602081018484840111156112905761128f611190565b5b61129b848285611252565b509392505050565b600082601f8301126112b8576112b761118b565b5b81356112c8848260208601611261565b91505092915050565b600080604083850312156112e8576112e761114b565b5b60006112f685828601611176565b925050602083013567ffffffffffffffff81111561131757611316611150565b5b611323858286016112a3565b9150509250929050565b61133681611155565b82525050565b6000602082019050611351600083018461132d565b92915050565b6000806000606084860312156113705761136f61114b565b5b600061137e86828701611176565b935050602061138f86828701611176565b92505060406113a086828701611176565b9150509250925092565b6000602082840312156113c0576113bf61114b565b5b600082013567ffffffffffffffff8111156113de576113dd611150565b5b6113ea848285016112a3565b91505092915050565b6000602082840312156114095761140861114b565b5b600061141784828501611176565b91505092915050565b600081519050919050565b600082825260208201905092915050565b60005b8381101561145a57808201518184015260208101905061143f565b83811115611469576000848401525b50505050565b600061147a82611420565b611484818561142b565b935061149481856020860161143c565b61149d81611195565b840191505092915050565b600073ffffffffffffffffffffffffffffffffffffffff82169050919050565b60006114d3826114a8565b9050919050565b6114e3816114c8565b82525050565b60006060820190506114fe600083018661132d565b8181036020830152611510818561146f565b905061151f60408301846114da565b949350505050565b611530816114c8565b811461153b57600080fd5b50565b60008135905061154d81611527565b92915050565b6000602082840312156115695761156861114b565b5b60006115778482850161153e565b91505092915050565b600081519050919050565b600082825260208201905092915050565b6000819050602082019050919050565b6115b581611155565b82525050565b600082825260208201905092915050565b60006115d782611420565b6115e181856115bb565b93506115f181856020860161143c565b6115fa81611195565b840191505092915050565b61160e816114c8565b82525050565b600081519050919050565b600082825260208201905092915050565b6000819050602082019050919050565b600061164c83836115ac565b60208301905092915050565b6000602082019050919050565b600061167082611614565b61167a818561161f565b935061168583611630565b8060005b838110156116b657815161169d8882611640565b97506116a883611658565b925050600181019050611689565b5085935050505092915050565b60006080830160008301516116db60008601826115ac565b50602083015184820360208601526116f382826115cc565b91505060408301516117086040860182611605565b50606083015184820360608601526117208282611665565b9150508091505092915050565b600061173983836116c3565b905092915050565b6000602082019050919050565b600061175982611580565b611763818561158b565b9350836020820285016117758561159c565b8060005b858110156117b15784840389528151611792858261172d565b945061179d83611741565b925060208a01995050600181019050611779565b50829750879550505050505092915050565b600060208201905081810360008301526117dd818461174e565b905092915050565b600080604083850312156117fc576117fb61114b565b5b600061180a85828601611176565b925050602061181b85828601611176565b9150509250929050565b600060808301600083015161183d60008601826115ac565b506020830151848203602086015261185582826115cc565b915050604083015161186a6040860182611605565b50606083015184820360608601526118828282611665565b9150508091505092915050565b600060208201905081810360008301526118a98184611825565b905092915050565b7f4f6e6c792074686520626f617264206f776e65722063616e206564697420746860008201527f6520626f6172642e000000000000000000000000000000000000000000000000602082015250565b600061190d60288361142b565b9150611918826118b1565b604082019050919050565b6000602082019050818103600083015261193c81611900565b9050919050565b7f4e657720626f617264206e616d652063616e6e6f7420626520656d7074792e00600082015250565b6000611979601f8361142b565b915061198482611943565b602082019050919050565b600060208201905081810360008301526119a88161196c565b9050919050565b7f4e657720426f61726420646f6573206e6f742065786973742e00000000000000600082015250565b60006119e560198361142b565b91506119f0826119af565b602082019050919050565b60006020820190508181036000830152611a14816119d8565b9050919050565b7f4f6c6420426f61726420646f6573206e6f742065786973742e00000000000000600082015250565b6000611a5160198361142b565b9150611a5c82611a1b565b602082019050919050565b60006020820190508181036000830152611a8081611a44565b9050919050565b7f50696e204944206d7573742062652067726561746572207468616e207a65726f60008201527f2e00000000000000000000000000000000000000000000000000000000000000602082015250565b6000611ae360218361142b565b9150611aee82611a87565b604082019050919050565b60006020820190508181036000830152611b1281611ad6565b9050919050565b7f4e487b7100000000000000000000000000000000000000000000000000000000600052603260045260246000fd5b7f4e487b7100000000000000000000000000000000000000000000000000000000600052601160045260246000fd5b6000611b8282611155565b9150611b8d83611155565b925082821015611ba057611b9f611b48565b5b828203905092915050565b7f4e487b7100000000000000000000000000000000000000000000000000000000600052603160045260246000fd5b6000611be582611155565b91507fffffffffffffffffffffffffffffffffffffffffffffffffffffffffffffffff8203611c1757611c16611b48565b5b600182019050919050565b6000604082019050611c37600083018561132d565b611c44602083018461132d565b9392505050565b7f426f617264206e616d652063616e6e6f7420626520656d7074792e0000000000600082015250565b6000611c81601b8361142b565b9150611c8c82611c4b565b602082019050919050565b60006020820190508181036000830152611cb081611c74565b9050919050565b6000604082019050611ccc600083018561132d565b8181036020830152611cde818461146f565b90509392505050565b7f4e487b7100000000000000000000000000000000000000000000000000000000600052602260045260246000fd5b60006002820490506001821680611d2e57607f821691505b602082108103611d4157611d40611ce7565b5b50919050565b7f426f61726420646f6573206e6f742065786973742e0000000000000000000000600082015250565b6000611d7d60158361142b565b9150611d8882611d47565b602082019050919050565b60006020820190508181036000830152611dac81611d70565b9050919050565b7f4f6e6c792074686520626f617264206f776e65722063616e2064656c6574652060008201527f74686520626f6172642e00000000000000000000000000000000000000000000602082015250565b6000611e0f602a8361142b565b9150611e1a82611db3565b604082019050919050565b60006020820190508181036000830152611e3e81611e02565b905091905056fea26469706673582212203d41a390aa3fb4ed0bc09def4c6d9ea5c5b445fb4006cc77cced2713033e49e964736f6c634300080d0033",
  "immutableReferences": {},
  "source": "// SPDX-License-Identifier: GPL-3.0\n\npragma solidity >=0.7.0 <0.9.0;\n\n//import \"hardhat/console.sol\";\nimport {Board, Pin} from \"./common/types.sol\";\n\n/**\n * @title BoardManager\n * @dev A smart contract for managing boards\n */\ncontract BoardManager {\n    /**\n     * @dev Event emitted when a new board is created\n     * @param boardId ID of the board created\n     * @param boardName Name of the board created\n     * @param owner Owner of the board created\n     */\n    event BoardCreated(\n        uint256 boardId,\n        string boardName,\n        address indexed owner\n    );\n\n    /**\n     * @dev Event emitted when a board is deleted\n     * @param boardId ID of the board deleted\n     */\n    event BoardDeleted(uint256 boardId);\n\n    /**\n     * @dev Event emitted when a board is edited\n     * @param boardId ID of the board edited\n     * @param newName New name of the board edited\n     */\n    event BoardEdited(uint256 boardId, string newName);\n\n    /**\n     * @dev Event emitted when a pin is saved to a board\n     * @param pinId ID of the saved pin\n     * @param boardId ID of the board the pin is saved to\n     */\n    event PinSaved(uint256 pinId, uint256 boardId);\n\n    /**\n     * @dev Event emitted when a saved pin is edited\n     * @param pinId ID of the pin edited\n     * @param boardId ID of the new board\n     */\n    event SavedPinEdited(uint256 pinId, uint256 boardId);\n\n    /**\n     * @dev Mapping to store boards by their ID\n     */\n    mapping(uint256 => Board) public boards;\n\n    /**\n     * @dev Number of boards created\n     */\n    uint256 public currentBoardId;\n\n    /**\n     * @dev Create a new board\n     * @param boardName Name of the board to create\n     * Requirements:\n     * - boardName cannot be an empty string\n     */\n    function createBoard(string memory boardName) public returns (uint256) {\n        require(bytes(boardName).length != 0, \"Board name cannot be empty.\");\n        currentBoardId++;\n        uint256[] memory pins;\n        Board memory board = Board(currentBoardId, boardName, msg.sender, pins);\n        boards[currentBoardId] = board;\n        emit BoardCreated(currentBoardId, boardName, msg.sender);\n        return currentBoardId;\n    }\n\n    /**\n     * @dev Edit board information\n     * @param boardId ID of the board to edit\n     * @param newName New name for the board\n     * Requirements:\n     * - Only the board owner can edit the board\n     * - Board with the given ID must exist\n     */\n    function editBoard(uint256 boardId, string memory newName) public {\n        require(\n            msg.sender == boards[boardId].owner,\n            \"Only the board owner can edit the board.\"\n        );\n        require(bytes(newName).length != 0, \"New board name cannot be empty.\");\n\n        boards[boardId].name = newName;\n    }\n\n    /**\n     * @dev Delete an existing board\n     * @param boardId ID of the board to delete\n     * Requirements:\n     * - Only the board owner can delete the board\n     */\n    function deleteBoard(uint256 boardId) public {\n        require(boardId <= currentBoardId, \"Board does not exist.\");\n        require(\n            msg.sender == boards[boardId].owner,\n            \"Only the board owner can delete the board.\"\n        );\n        emit BoardDeleted(boardId);\n        delete boards[boardId];\n    }\n\n    /**\n     * @dev Get board information by its ID\n     * @param boardId ID of the board to get\n     * @return Board struct containing board information\n     * Requirements:\n     * - Board with the given ID must exist\n     */\n    function getBoardById(uint256 boardId) public view returns (Board memory) {\n        require(boardId <= currentBoardId, \"Board does not exist.\");\n        require(boards[boardId].owner != address(0), \"Board does not exist.\");\n        return boards[boardId];\n    }\n\n    /**\n     * @dev Get boards owned by a specific address\n     * @param owner Address of the board owner\n     * @return Board[] array containing the boards owned by the specified address\n     */\n    function getBoardsByOwner(\n        address owner\n    ) public view returns (Board[] memory) {\n        uint256 count = 0;\n\n        // Count the number of boards owned by the specified address\n        for (uint256 i = 1; i <= currentBoardId; i++) {\n            if (boards[i].owner == owner) {\n                count++;\n            }\n        }\n\n        // Create an array with the count of boards\n        Board[] memory ownerBoards = new Board[](count);\n        uint256 index = 0;\n\n        // Retrieve the boards owned by the specified address\n        for (uint256 i = 1; i <= currentBoardId; i++) {\n            if (boards[i].owner == owner) {\n                ownerBoards[index] = boards[i];\n                index++;\n            }\n        }\n\n        // Resize the ownerBoards array to remove any unused elements\n        assembly {\n            mstore(ownerBoards, index)\n        }\n\n        return ownerBoards;\n    }\n\n    /* @dev Save a new pin to a board\n     * @param boardId ID of the board to save the pin to\n     * @param pinId ID of the pin to save\n     * Requirements:\n     * - Board with the given ID must exist\n     * - Pin ID must be unique within the board\n     */\n    function savePinToBoard(uint256 boardId, uint256 pinId) public {\n        require(boardId <= currentBoardId, \"Board does not exist.\");\n        require(pinId > 0, \"Pin ID must be greater than zero.\");\n\n        Board storage board = boards[boardId];\n        board.pins.push(pinId);\n\n        emit PinSaved(pinId, boardId);\n    }\n\n    /**\n     * @dev Edit a saved pin\n     * @param pinId ID of the pin to edit\n     * @param boardId ID of the board the pin is saved to\n     * @param newBoardId ID of the new board to save the pin to\n     * Requirements:\n     * - Board with the given ID must exist\n     * - Pin ID must be unique within the board\n     */\n    function editSavedPin(\n        uint256 pinId,\n        uint256 boardId,\n        uint256 newBoardId\n    ) public {\n        require(newBoardId <= currentBoardId, \"New Board does not exist.\");\n        require(boardId <= currentBoardId, \"Old Board does not exist.\");\n\n        Board storage oldBoard = boards[boardId];\n        Board storage newBoard = boards[newBoardId];\n        require(pinId > 0, \"Pin ID must be greater than zero.\");\n\n        // Delete pin from the old board\n        uint256[] storage oldBoardPins = oldBoard.pins;\n        for (uint256 i = 0; i < oldBoardPins.length; i++) {\n            if (oldBoardPins[i] == pinId) {\n                // Move the last element to the deleted position\n                oldBoardPins[i] = oldBoardPins[oldBoardPins.length - 1];\n                // Decrease the length of the array by 1\n                oldBoardPins.pop();\n                break;\n            }\n        }\n\n        // Save pin to the new board\n        newBoard.pins.push(pinId);\n\n        emit SavedPinEdited(pinId, newBoardId);\n    }\n}\n",
  "sourcePath": "/Users/lisapolena/Documents/Master_04/Thesis/Prototyp/betterPinterest/src/contracts/boardManager.sol",
  "compiler": {
    "name": "solc",
    "version": "0.8.13+commit.abaa5c0e.Emscripten.clang"
  },
  "schemaVersion": "3.4.14",
  "updatedAt": "2023-06-05T18:50:26.803Z",
  "devdoc": {
    "details": "A smart contract for managing boards",
    "events": {
      "BoardCreated(uint256,string,address)": {
        "details": "Event emitted when a new board is created",
        "params": {
          "boardId": "ID of the board created",
          "boardName": "Name of the board created",
          "owner": "Owner of the board created"
        }
      },
      "BoardDeleted(uint256)": {
        "details": "Event emitted when a board is deleted",
        "params": {
          "boardId": "ID of the board deleted"
        }
      },
      "BoardEdited(uint256,string)": {
        "details": "Event emitted when a board is edited",
        "params": {
          "boardId": "ID of the board edited",
          "newName": "New name of the board edited"
        }
      },
      "PinSaved(uint256,uint256)": {
        "details": "Event emitted when a pin is saved to a board",
        "params": {
          "boardId": "ID of the board the pin is saved to",
          "pinId": "ID of the saved pin"
        }
      },
      "SavedPinEdited(uint256,uint256)": {
        "details": "Event emitted when a saved pin is edited",
        "params": {
          "boardId": "ID of the new board",
          "pinId": "ID of the pin edited"
        }
      }
    },
    "kind": "dev",
    "methods": {
      "createBoard(string)": {
        "details": "Create a new board",
        "params": {
          "boardName": "Name of the board to create Requirements: - boardName cannot be an empty string"
        }
      },
      "deleteBoard(uint256)": {
        "details": "Delete an existing board",
        "params": {
          "boardId": "ID of the board to delete Requirements: - Only the board owner can delete the board"
        }
      },
      "editBoard(uint256,string)": {
        "details": "Edit board information",
        "params": {
          "boardId": "ID of the board to edit",
          "newName": "New name for the board Requirements: - Only the board owner can edit the board - Board with the given ID must exist"
        }
      },
      "editSavedPin(uint256,uint256,uint256)": {
        "details": "Edit a saved pin",
        "params": {
          "boardId": "ID of the board the pin is saved to",
          "newBoardId": "ID of the new board to save the pin to Requirements: - Board with the given ID must exist - Pin ID must be unique within the board",
          "pinId": "ID of the pin to edit"
        }
      },
      "getBoardById(uint256)": {
        "details": "Get board information by its ID",
        "params": {
          "boardId": "ID of the board to get"
        },
        "returns": {
          "_0": "Board struct containing board information Requirements: - Board with the given ID must exist"
        }
      },
      "getBoardsByOwner(address)": {
        "details": "Get boards owned by a specific address",
        "params": {
          "owner": "Address of the board owner"
        },
        "returns": {
          "_0": "Board[] array containing the boards owned by the specified address"
        }
      }
    },
    "stateVariables": {
      "boards": {
        "details": "Mapping to store boards by their ID"
      },
      "currentBoardId": {
        "details": "Number of boards created"
      }
    },
    "title": "BoardManager",
    "version": 1
  },
  "userdoc": {
    "kind": "user",
    "methods": {},
    "version": 1
  }
}