{
  "contractName": "BoardManager",
  "abi": [
    {
      "anonymous": false,
      "inputs": [
        {
          "indexed": false,
          "internalType": "uint256",
          "name": "boardId",
          "type": "uint256"
        },
        {
          "indexed": false,
          "internalType": "string",
          "name": "boardName",
          "type": "string"
        },
        {
          "indexed": false,
          "internalType": "string",
          "name": "boardDescription",
          "type": "string"
        },
        {
          "indexed": true,
          "internalType": "address",
          "name": "owner",
          "type": "address"
        }
      ],
      "name": "BoardCreated",
      "type": "event"
    },
    {
      "anonymous": false,
      "inputs": [
        {
          "indexed": false,
          "internalType": "uint256",
          "name": "boardId",
          "type": "uint256"
        }
      ],
      "name": "BoardDeleted",
      "type": "event"
    },
    {
      "anonymous": false,
      "inputs": [
        {
          "indexed": false,
          "internalType": "uint256",
          "name": "boardId",
          "type": "uint256"
        },
        {
          "indexed": false,
          "internalType": "string",
          "name": "newName",
          "type": "string"
        },
        {
          "indexed": false,
          "internalType": "string",
          "name": "newDescription",
          "type": "string"
        },
        {
          "indexed": true,
          "internalType": "address",
          "name": "owner",
          "type": "address"
        },
        {
          "indexed": false,
          "internalType": "uint256[]",
          "name": "pins",
          "type": "uint256[]"
        },
        {
          "indexed": false,
          "internalType": "string",
          "name": "boardCoverHash",
          "type": "string"
        }
      ],
      "name": "BoardEdited",
      "type": "event"
    },
    {
      "anonymous": false,
      "inputs": [
        {
          "indexed": false,
          "internalType": "uint256",
          "name": "pinId",
          "type": "uint256"
        },
        {
          "indexed": false,
          "internalType": "string",
          "name": "title",
          "type": "string"
        },
        {
          "indexed": false,
          "internalType": "string",
          "name": "description",
          "type": "string"
        },
        {
          "indexed": false,
          "internalType": "string",
          "name": "imageHash",
          "type": "string"
        },
        {
          "indexed": false,
          "internalType": "uint256",
          "name": "boardId",
          "type": "uint256"
        },
        {
          "indexed": false,
          "internalType": "string",
          "name": "owner",
          "type": "string"
        }
      ],
      "name": "PinSaved",
      "type": "event"
    },
    {
      "anonymous": false,
      "inputs": [
        {
          "indexed": false,
          "internalType": "uint256",
          "name": "pinId",
          "type": "uint256"
        },
        {
          "indexed": false,
          "internalType": "uint256",
          "name": "boardId",
          "type": "uint256"
        }
      ],
      "name": "SavedPinDeleted",
      "type": "event"
    },
    {
      "anonymous": false,
      "inputs": [
        {
          "indexed": false,
          "internalType": "uint256",
          "name": "pinId",
          "type": "uint256"
        },
        {
          "indexed": false,
          "internalType": "uint256",
          "name": "oldBoardId",
          "type": "uint256"
        },
        {
          "indexed": false,
          "internalType": "uint256",
          "name": "newBoardId",
          "type": "uint256"
        }
      ],
      "name": "SavedPinEdited",
      "type": "event"
    },
    {
      "inputs": [
        {
          "internalType": "uint256",
          "name": "",
          "type": "uint256"
        }
      ],
      "name": "boards",
      "outputs": [
        {
          "internalType": "uint256",
          "name": "id",
          "type": "uint256"
        },
        {
          "internalType": "string",
          "name": "name",
          "type": "string"
        },
        {
          "internalType": "string",
          "name": "description",
          "type": "string"
        },
        {
          "internalType": "address",
          "name": "owner",
          "type": "address"
        },
        {
          "internalType": "string",
          "name": "boardCoverHash",
          "type": "string"
        }
      ],
      "stateMutability": "view",
      "type": "function"
    },
    {
      "inputs": [],
      "name": "currentBoardId",
      "outputs": [
        {
          "internalType": "uint256",
          "name": "",
          "type": "uint256"
        }
      ],
      "stateMutability": "view",
      "type": "function"
    },
    {
      "inputs": [
        {
          "internalType": "string",
          "name": "boardName",
          "type": "string"
        },
        {
          "internalType": "string",
          "name": "boardDescription",
          "type": "string"
        }
      ],
      "name": "createBoard",
      "outputs": [
        {
          "internalType": "uint256",
          "name": "",
          "type": "uint256"
        }
      ],
      "stateMutability": "nonpayable",
      "type": "function"
    },
    {
      "inputs": [
        {
          "internalType": "uint256",
          "name": "boardId",
          "type": "uint256"
        },
        {
          "internalType": "string",
          "name": "newName",
          "type": "string"
        },
        {
          "internalType": "string",
          "name": "newDescription",
          "type": "string"
        },
        {
          "internalType": "string",
          "name": "boardCoverHash",
          "type": "string"
        }
      ],
      "name": "editBoard",
      "outputs": [],
      "stateMutability": "nonpayable",
      "type": "function"
    },
    {
      "inputs": [
        {
          "internalType": "uint256",
          "name": "boardId",
          "type": "uint256"
        }
      ],
      "name": "deleteBoard",
      "outputs": [],
      "stateMutability": "nonpayable",
      "type": "function"
    },
    {
      "inputs": [
        {
          "internalType": "uint256",
          "name": "boardId",
          "type": "uint256"
        }
      ],
      "name": "getBoardById",
      "outputs": [
        {
          "components": [
            {
              "internalType": "uint256",
              "name": "id",
              "type": "uint256"
            },
            {
              "internalType": "string",
              "name": "name",
              "type": "string"
            },
            {
              "internalType": "string",
              "name": "description",
              "type": "string"
            },
            {
              "internalType": "address",
              "name": "owner",
              "type": "address"
            },
            {
              "internalType": "uint256[]",
              "name": "pins",
              "type": "uint256[]"
            },
            {
              "internalType": "string",
              "name": "boardCoverHash",
              "type": "string"
            }
          ],
          "internalType": "struct Board",
          "name": "",
          "type": "tuple"
        }
      ],
      "stateMutability": "view",
      "type": "function"
    },
    {
      "inputs": [
        {
          "internalType": "address",
          "name": "owner",
          "type": "address"
        }
      ],
      "name": "getBoardsByOwner",
      "outputs": [
        {
          "components": [
            {
              "internalType": "uint256",
              "name": "id",
              "type": "uint256"
            },
            {
              "internalType": "string",
              "name": "name",
              "type": "string"
            },
            {
              "internalType": "string",
              "name": "description",
              "type": "string"
            },
            {
              "internalType": "address",
              "name": "owner",
              "type": "address"
            },
            {
              "internalType": "uint256[]",
              "name": "pins",
              "type": "uint256[]"
            },
            {
              "internalType": "string",
              "name": "boardCoverHash",
              "type": "string"
            }
          ],
          "internalType": "struct Board[]",
          "name": "",
          "type": "tuple[]"
        }
      ],
      "stateMutability": "view",
      "type": "function"
    },
    {
      "inputs": [
        {
          "internalType": "uint256",
          "name": "boardId",
          "type": "uint256"
        },
        {
          "internalType": "uint256",
          "name": "pinId",
          "type": "uint256"
        },
        {
          "internalType": "string",
          "name": "pinTitle",
          "type": "string"
        },
        {
          "internalType": "string",
          "name": "pinDescription",
          "type": "string"
        },
        {
          "internalType": "string",
          "name": "pinImageHash",
          "type": "string"
        },
        {
          "internalType": "string",
          "name": "pinOwner",
          "type": "string"
        }
      ],
      "name": "savePinToBoard",
      "outputs": [],
      "stateMutability": "nonpayable",
      "type": "function"
    },
    {
      "inputs": [
        {
          "internalType": "uint256",
          "name": "pinId",
          "type": "uint256"
        },
        {
          "internalType": "uint256",
          "name": "boardId",
          "type": "uint256"
        },
        {
          "internalType": "uint256",
          "name": "newBoardId",
          "type": "uint256"
        }
      ],
      "name": "editSavedPin",
      "outputs": [],
      "stateMutability": "nonpayable",
      "type": "function"
    },
    {
      "inputs": [
        {
          "internalType": "uint256",
          "name": "pinId",
          "type": "uint256"
        },
        {
          "internalType": "uint256",
          "name": "boardId",
          "type": "uint256"
        }
      ],
      "name": "deleteSavedPin",
      "outputs": [],
      "stateMutability": "nonpayable",
      "type": "function"
    }
  ],
  "bytecode": "0x608060405234801561001057600080fd5b506129d3806100206000396000f3fe608060405234801561001057600080fd5b506004361061009e5760003560e01c8063a563099f11610066578063a563099f1461015d578063a778b81a14610179578063af2d715614610195578063f47810a1146101c5578063fb72d200146101e15761009e565b80630e029fe9146100a357806333942a48146100d35780636a211e87146100f15780638e1c99da1461010d5780639a7083f914610129575b600080fd5b6100bd60048036038101906100b8919061194b565b610211565b6040516100ca91906119dc565b60405180910390f35b6100db6103f9565b6040516100e891906119dc565b60405180910390f35b61010b60048036038101906101069190611a23565b6103ff565b005b61012760048036038101906101229190611a76565b610630565b005b610143600480360381019061013e9190611b73565b610743565b604051610154959493929190611c69565b60405180910390f35b61017760048036038101906101729190611cd1565b610931565b005b610193600480360381019061018e9190611d8c565b610b3b565b005b6101af60048036038101906101aa9190611df8565b610c9f565b6040516101bc919061209c565b60405180910390f35b6101df60048036038101906101da9190611b73565b6110e8565b005b6101fb60048036038101906101f69190611b73565b61128e565b604051610208919061215c565b60405180910390f35b600080835103610256576040517f08c379a000000000000000000000000000000000000000000000000000000000815260040161024d906121ca565b60405180910390fd5b6001600081548092919061026990612219565b919050555060608060006040518060c0016040528060015481526020018781526020018681526020013373ffffffffffffffffffffffffffffffffffffffff1681526020018481526020018381525090508060008060015481526020019081526020016000206000820151816000015560208201518160010190805190602001906102f5929190611654565b506040820151816002019080519060200190610312929190611654565b5060608201518160030160006101000a81548173ffffffffffffffffffffffffffffffffffffffff021916908373ffffffffffffffffffffffffffffffffffffffff16021790555060808201518160040190805190602001906103769291906116da565b5060a0820151816005019080519060200190610393929190611654565b509050503373ffffffffffffffffffffffffffffffffffffffff167f8c375633a474ffea151cd7ca4b71d8148f09f731944f80f9cee4e6043a681b4760015488886040516103e393929190612261565b60405180910390a2600154935050505092915050565b60015481565b600154811115610444576040517f08c379a000000000000000000000000000000000000000000000000000000000815260040161043b906122f2565b60405180910390fd5b600154821115610489576040517f08c379a00000000000000000000000000000000000000000000000000000000081526004016104809061235e565b60405180910390fd5b6000806000848152602001908152602001600020905060008060008481526020019081526020016000209050600085116104f8576040517f08c379a00000000000000000000000000000000000000000000000000000000081526004016104ef906123f0565b60405180910390fd5b600082600401905060005b81805490508110156105c1578682828154811061052357610522612410565b5b9060005260206000200154036105ae578160018380549050610545919061243f565b8154811061055657610555612410565b5b906000526020600020015482828154811061057457610573612410565b5b90600052602060002001819055508180548061059357610592612473565b5b600190038181906000526020600020016000905590556105c1565b80806105b990612219565b915050610503565b50816004018690806001815401808255809150506001900390600052602060002001600090919091909150557fc2ac4f588bf0f7df63088a6001d1616084881c8fccc57d51a79474fd3b89c15d868686604051610620939291906124a2565b60405180910390a1505050505050565b600154861115610675576040517f08c379a000000000000000000000000000000000000000000000000000000000815260040161066c90612525565b60405180910390fd5b600085116106b8576040517f08c379a00000000000000000000000000000000000000000000000000000000081526004016106af906123f0565b60405180910390fd5b60008060008881526020019081526020016000209050806004018690806001815401808255809150506001900390600052602060002001600090919091909150557f0422ecaba94a999e4f0827685d90258b8a9f42f8e41c41ab02df745cc08f6709868686868b8760405161073296959493929190612545565b60405180910390a150505050505050565b600060205280600052604060002060009150905080600001549080600101805461076c906125f1565b80601f0160208091040260200160405190810160405280929190818152602001828054610798906125f1565b80156107e55780601f106107ba576101008083540402835291602001916107e5565b820191906000526020600020905b8154815290600101906020018083116107c857829003601f168201915b5050505050908060020180546107fa906125f1565b80601f0160208091040260200160405190810160405280929190818152602001828054610826906125f1565b80156108735780601f1061084857610100808354040283529160200191610873565b820191906000526020600020905b81548152906001019060200180831161085657829003601f168201915b5050505050908060030160009054906101000a900473ffffffffffffffffffffffffffffffffffffffff16908060050180546108ae906125f1565b80601f01602080910402602001604051908101604052809291908181526020018280546108da906125f1565b80156109275780601f106108fc57610100808354040283529160200191610927565b820191906000526020600020905b81548152906001019060200180831161090a57829003601f168201915b5050505050905085565b60008085815260200190815260200160002060030160009054906101000a900473ffffffffffffffffffffffffffffffffffffffff1673ffffffffffffffffffffffffffffffffffffffff163373ffffffffffffffffffffffffffffffffffffffff16146109d4576040517f08c379a00000000000000000000000000000000000000000000000000000000081526004016109cb90612694565b60405180910390fd5b6000835103610a18576040517f08c379a0000000000000000000000000000000000000000000000000000000008152600401610a0f90612700565b60405180910390fd5b826000808681526020019081526020016000206001019080519060200190610a41929190611654565b50816000808681526020019081526020016000206002019080519060200190610a6b929190611654565b50806000808681526020019081526020016000206005019080519060200190610a95929190611654565b5060008085815260200190815260200160002060030160009054906101000a900473ffffffffffffffffffffffffffffffffffffffff1673ffffffffffffffffffffffffffffffffffffffff167f0ff6206eb351e3c688878b3fb822aeb4e77b631b70e6d04f78c16fc0a00fd7688585856000808a815260200190815260200160002060040186604051610b2d959493929190612807565b60405180910390a250505050565b600154811115610b80576040517f08c379a0000000000000000000000000000000000000000000000000000000008152600401610b7790612525565b60405180910390fd5b60008060008381526020019081526020016000209050600081600401905060005b8180549050811015610c5f5784828281548110610bc157610bc0612410565b5b906000526020600020015403610c4c578160018380549050610be3919061243f565b81548110610bf457610bf3612410565b5b9060005260206000200154828281548110610c1257610c11612410565b5b906000526020600020018190555081805480610c3157610c30612473565b5b60019003818190600052602060002001600090559055610c5f565b8080610c5790612219565b915050610ba1565b507f50aa957e57c079bfd9bc0b2ce096427029f577f3c2e8bc010485679d09bd279e8484604051610c91929190612876565b60405180910390a150505050565b6060600080600190505b6001548111610d3c578373ffffffffffffffffffffffffffffffffffffffff1660008083815260200190815260200160002060030160009054906101000a900473ffffffffffffffffffffffffffffffffffffffff1673ffffffffffffffffffffffffffffffffffffffff1603610d29578180610d2590612219565b9250505b8080610d3490612219565b915050610ca9565b5060008167ffffffffffffffff811115610d5957610d58611820565b5b604051908082528060200260200182016040528015610d9257816020015b610d7f611727565b815260200190600190039081610d775790505b509050600080600190505b60015481116110d9578573ffffffffffffffffffffffffffffffffffffffff1660008083815260200190815260200160002060030160009054906101000a900473ffffffffffffffffffffffffffffffffffffffff1673ffffffffffffffffffffffffffffffffffffffff16036110c6576000808281526020019081526020016000206040518060c001604052908160008201548152602001600182018054610e45906125f1565b80601f0160208091040260200160405190810160405280929190818152602001828054610e71906125f1565b8015610ebe5780601f10610e9357610100808354040283529160200191610ebe565b820191906000526020600020905b815481529060010190602001808311610ea157829003601f168201915b50505050508152602001600282018054610ed7906125f1565b80601f0160208091040260200160405190810160405280929190818152602001828054610f03906125f1565b8015610f505780601f10610f2557610100808354040283529160200191610f50565b820191906000526020600020905b815481529060010190602001808311610f3357829003601f168201915b505050505081526020016003820160009054906101000a900473ffffffffffffffffffffffffffffffffffffffff1673ffffffffffffffffffffffffffffffffffffffff1673ffffffffffffffffffffffffffffffffffffffff16815260200160048201805480602002602001604051908101604052809291908181526020018280548015610ffe57602002820191906000526020600020905b815481526020019060010190808311610fea575b50505050508152602001600582018054611017906125f1565b80601f0160208091040260200160405190810160405280929190818152602001828054611043906125f1565b80156110905780601f1061106557610100808354040283529160200191611090565b820191906000526020600020905b81548152906001019060200180831161107357829003601f168201915b5050505050815250508383815181106110ac576110ab612410565b5b602002602001018190525081806110c290612219565b9250505b80806110d190612219565b915050610d9d565b50808252819350505050919050565b60015481111561112d576040517f08c379a000000000000000000000000000000000000000000000000000000000815260040161112490612525565b60405180910390fd5b60008082815260200190815260200160002060030160009054906101000a900473ffffffffffffffffffffffffffffffffffffffff1673ffffffffffffffffffffffffffffffffffffffff163373ffffffffffffffffffffffffffffffffffffffff16146111d0576040517f08c379a00000000000000000000000000000000000000000000000000000000081526004016111c790612911565b60405180910390fd5b7f4e8a750abb5bc4433f76ccc65ec77d14d55174b068aa54a2d68383fd76601cdb816040516111ff91906119dc565b60405180910390a16000808281526020019081526020016000206000808201600090556001820160006112329190611773565b6002820160006112429190611773565b6003820160006101000a81549073ffffffffffffffffffffffffffffffffffffffff021916905560048201600061127991906117b3565b6005820160006112899190611773565b505050565b611296611727565b600082036112d9576040517f08c379a00000000000000000000000000000000000000000000000000000000081526004016112d09061297d565b60405180910390fd5b60015482111561131e576040517f08c379a000000000000000000000000000000000000000000000000000000000815260040161131590612525565b60405180910390fd5b600073ffffffffffffffffffffffffffffffffffffffff1660008084815260200190815260200160002060030160009054906101000a900473ffffffffffffffffffffffffffffffffffffffff1673ffffffffffffffffffffffffffffffffffffffff16036113c2576040517f08c379a00000000000000000000000000000000000000000000000000000000081526004016113b990612525565b60405180910390fd5b6000808381526020019081526020016000206040518060c0016040529081600082015481526020016001820180546113f9906125f1565b80601f0160208091040260200160405190810160405280929190818152602001828054611425906125f1565b80156114725780601f1061144757610100808354040283529160200191611472565b820191906000526020600020905b81548152906001019060200180831161145557829003601f168201915b5050505050815260200160028201805461148b906125f1565b80601f01602080910402602001604051908101604052809291908181526020018280546114b7906125f1565b80156115045780601f106114d957610100808354040283529160200191611504565b820191906000526020600020905b8154815290600101906020018083116114e757829003601f168201915b505050505081526020016003820160009054906101000a900473ffffffffffffffffffffffffffffffffffffffff1673ffffffffffffffffffffffffffffffffffffffff1673ffffffffffffffffffffffffffffffffffffffff168152602001600482018054806020026020016040519081016040528092919081815260200182805480156115b257602002820191906000526020600020905b81548152602001906001019080831161159e575b505050505081526020016005820180546115cb906125f1565b80601f01602080910402602001604051908101604052809291908181526020018280546115f7906125f1565b80156116445780601f1061161957610100808354040283529160200191611644565b820191906000526020600020905b81548152906001019060200180831161162757829003601f168201915b5050505050815250509050919050565b828054611660906125f1565b90600052602060002090601f01602090048101928261168257600085556116c9565b82601f1061169b57805160ff19168380011785556116c9565b828001600101855582156116c9579182015b828111156116c85782518255916020019190600101906116ad565b5b5090506116d691906117d4565b5090565b828054828255906000526020600020908101928215611716579160200282015b828111156117155782518255916020019190600101906116fa565b5b50905061172391906117d4565b5090565b6040518060c00160405280600081526020016060815260200160608152602001600073ffffffffffffffffffffffffffffffffffffffff16815260200160608152602001606081525090565b50805461177f906125f1565b6000825580601f1061179157506117b0565b601f0160209004906000526020600020908101906117af91906117d4565b5b50565b50805460008255906000526020600020908101906117d191906117d4565b50565b5b808211156117ed5760008160009055506001016117d5565b5090565b6000604051905090565b600080fd5b600080fd5b600080fd5b600080fd5b6000601f19601f8301169050919050565b7f4e487b7100000000000000000000000000000000000000000000000000000000600052604160045260246000fd5b6118588261180f565b810181811067ffffffffffffffff8211171561187757611876611820565b5b80604052505050565b600061188a6117f1565b9050611896828261184f565b919050565b600067ffffffffffffffff8211156118b6576118b5611820565b5b6118bf8261180f565b9050602081019050919050565b82818337600083830152505050565b60006118ee6118e98461189b565b611880565b90508281526020810184848401111561190a5761190961180a565b5b6119158482856118cc565b509392505050565b600082601f83011261193257611931611805565b5b81356119428482602086016118db565b91505092915050565b60008060408385031215611962576119616117fb565b5b600083013567ffffffffffffffff8111156119805761197f611800565b5b61198c8582860161191d565b925050602083013567ffffffffffffffff8111156119ad576119ac611800565b5b6119b98582860161191d565b9150509250929050565b6000819050919050565b6119d6816119c3565b82525050565b60006020820190506119f160008301846119cd565b92915050565b611a00816119c3565b8114611a0b57600080fd5b50565b600081359050611a1d816119f7565b92915050565b600080600060608486031215611a3c57611a3b6117fb565b5b6000611a4a86828701611a0e565b9350506020611a5b86828701611a0e565b9250506040611a6c86828701611a0e565b9150509250925092565b60008060008060008060c08789031215611a9357611a926117fb565b5b6000611aa189828a01611a0e565b9650506020611ab289828a01611a0e565b955050604087013567ffffffffffffffff811115611ad357611ad2611800565b5b611adf89828a0161191d565b945050606087013567ffffffffffffffff811115611b0057611aff611800565b5b611b0c89828a0161191d565b935050608087013567ffffffffffffffff811115611b2d57611b2c611800565b5b611b3989828a0161191d565b92505060a087013567ffffffffffffffff811115611b5a57611b59611800565b5b611b6689828a0161191d565b9150509295509295509295565b600060208284031215611b8957611b886117fb565b5b6000611b9784828501611a0e565b91505092915050565b600081519050919050565b600082825260208201905092915050565b60005b83811015611bda578082015181840152602081019050611bbf565b83811115611be9576000848401525b50505050565b6000611bfa82611ba0565b611c048185611bab565b9350611c14818560208601611bbc565b611c1d8161180f565b840191505092915050565b600073ffffffffffffffffffffffffffffffffffffffff82169050919050565b6000611c5382611c28565b9050919050565b611c6381611c48565b82525050565b600060a082019050611c7e60008301886119cd565b8181036020830152611c908187611bef565b90508181036040830152611ca48186611bef565b9050611cb36060830185611c5a565b8181036080830152611cc58184611bef565b90509695505050505050565b60008060008060808587031215611ceb57611cea6117fb565b5b6000611cf987828801611a0e565b945050602085013567ffffffffffffffff811115611d1a57611d19611800565b5b611d268782880161191d565b935050604085013567ffffffffffffffff811115611d4757611d46611800565b5b611d538782880161191d565b925050606085013567ffffffffffffffff811115611d7457611d73611800565b5b611d808782880161191d565b91505092959194509250565b60008060408385031215611da357611da26117fb565b5b6000611db185828601611a0e565b9250506020611dc285828601611a0e565b9150509250929050565b611dd581611c48565b8114611de057600080fd5b50565b600081359050611df281611dcc565b92915050565b600060208284031215611e0e57611e0d6117fb565b5b6000611e1c84828501611de3565b91505092915050565b600081519050919050565b600082825260208201905092915050565b6000819050602082019050919050565b611e5a816119c3565b82525050565b600082825260208201905092915050565b6000611e7c82611ba0565b611e868185611e60565b9350611e96818560208601611bbc565b611e9f8161180f565b840191505092915050565b611eb381611c48565b82525050565b600081519050919050565b600082825260208201905092915050565b6000819050602082019050919050565b6000611ef18383611e51565b60208301905092915050565b6000602082019050919050565b6000611f1582611eb9565b611f1f8185611ec4565b9350611f2a83611ed5565b8060005b83811015611f5b578151611f428882611ee5565b9750611f4d83611efd565b925050600181019050611f2e565b5085935050505092915050565b600060c083016000830151611f806000860182611e51565b5060208301518482036020860152611f988282611e71565b91505060408301518482036040860152611fb28282611e71565b9150506060830151611fc76060860182611eaa565b5060808301518482036080860152611fdf8282611f0a565b91505060a083015184820360a0860152611ff98282611e71565b9150508091505092915050565b60006120128383611f68565b905092915050565b6000602082019050919050565b600061203282611e25565b61203c8185611e30565b93508360208202850161204e85611e41565b8060005b8581101561208a578484038952815161206b8582612006565b94506120768361201a565b925060208a01995050600181019050612052565b50829750879550505050505092915050565b600060208201905081810360008301526120b68184612027565b905092915050565b600060c0830160008301516120d66000860182611e51565b50602083015184820360208601526120ee8282611e71565b915050604083015184820360408601526121088282611e71565b915050606083015161211d6060860182611eaa565b50608083015184820360808601526121358282611f0a565b91505060a083015184820360a086015261214f8282611e71565b9150508091505092915050565b6000602082019050818103600083015261217681846120be565b905092915050565b7f426f617264206e616d652063616e6e6f7420626520656d7074792e0000000000600082015250565b60006121b4601b83611bab565b91506121bf8261217e565b602082019050919050565b600060208201905081810360008301526121e3816121a7565b9050919050565b7f4e487b7100000000000000000000000000000000000000000000000000000000600052601160045260246000fd5b6000612224826119c3565b91507fffffffffffffffffffffffffffffffffffffffffffffffffffffffffffffffff8203612256576122556121ea565b5b600182019050919050565b600060608201905061227660008301866119cd565b81810360208301526122888185611bef565b9050818103604083015261229c8184611bef565b9050949350505050565b7f4e657720426f61726420646f6573206e6f742065786973742e00000000000000600082015250565b60006122dc601983611bab565b91506122e7826122a6565b602082019050919050565b6000602082019050818103600083015261230b816122cf565b9050919050565b7f4f6c6420426f61726420646f6573206e6f742065786973742e00000000000000600082015250565b6000612348601983611bab565b915061235382612312565b602082019050919050565b600060208201905081810360008301526123778161233b565b9050919050565b7f50696e204944206d7573742062652067726561746572207468616e207a65726f60008201527f2e00000000000000000000000000000000000000000000000000000000000000602082015250565b60006123da602183611bab565b91506123e58261237e565b604082019050919050565b60006020820190508181036000830152612409816123cd565b9050919050565b7f4e487b7100000000000000000000000000000000000000000000000000000000600052603260045260246000fd5b600061244a826119c3565b9150612455836119c3565b925082821015612468576124676121ea565b5b828203905092915050565b7f4e487b7100000000000000000000000000000000000000000000000000000000600052603160045260246000fd5b60006060820190506124b760008301866119cd565b6124c460208301856119cd565b6124d160408301846119cd565b949350505050565b7f426f61726420646f6573206e6f742065786973742e0000000000000000000000600082015250565b600061250f601583611bab565b915061251a826124d9565b602082019050919050565b6000602082019050818103600083015261253e81612502565b9050919050565b600060c08201905061255a60008301896119cd565b818103602083015261256c8188611bef565b905081810360408301526125808187611bef565b905081810360608301526125948186611bef565b90506125a360808301856119cd565b81810360a08301526125b58184611bef565b9050979650505050505050565b7f4e487b7100000000000000000000000000000000000000000000000000000000600052602260045260246000fd5b6000600282049050600182168061260957607f821691505b60208210810361261c5761261b6125c2565b5b50919050565b7f4f6e6c792074686520626f617264206f776e65722063616e206564697420746860008201527f6520626f6172642e000000000000000000000000000000000000000000000000602082015250565b600061267e602883611bab565b915061268982612622565b604082019050919050565b600060208201905081810360008301526126ad81612671565b9050919050565b7f4e657720626f617264206e616d652063616e6e6f7420626520656d7074792e00600082015250565b60006126ea601f83611bab565b91506126f5826126b4565b602082019050919050565b60006020820190508181036000830152612719816126dd565b9050919050565b600081549050919050565b600082825260208201905092915050565b60008190508160005260206000209050919050565b60008160001c9050919050565b6000819050919050565b600061277b61277683612751565b61275e565b9050919050565b600061278e8254612768565b9050919050565b6000600182019050919050565b60006127ad82612720565b6127b7818561272b565b93506127c28361273c565b8060005b838110156127fa576127d782612782565b6127e18882611ee5565b97506127ec83612795565b9250506001810190506127c6565b5085935050505092915050565b600060a08201905061281c60008301886119cd565b818103602083015261282e8187611bef565b905081810360408301526128428186611bef565b9050818103606083015261285681856127a2565b9050818103608083015261286a8184611bef565b90509695505050505050565b600060408201905061288b60008301856119cd565b61289860208301846119cd565b9392505050565b7f4f6e6c792074686520626f617264206f776e65722063616e2064656c6574652060008201527f74686520626f6172642e00000000000000000000000000000000000000000000602082015250565b60006128fb602a83611bab565b91506129068261289f565b604082019050919050565b6000602082019050818103600083015261292a816128ee565b9050919050565b7f426f6172642049442063616e6e6f74206265207a65726f2e0000000000000000600082015250565b6000612967601883611bab565b915061297282612931565b602082019050919050565b600060208201905081810360008301526129968161295a565b905091905056fea2646970667358221220ef7582ed26b3a5b438d9d776a5787d7173e22740b11abd0e9d352dc9199ec32464736f6c634300080d0033",
  "immutableReferences": {},
  "source": "// SPDX-License-Identifier: GPL-3.0\n\npragma solidity >=0.7.0 <0.9.0;\n\n//import \"hardhat/console.sol\";\nimport {Board, Pin} from \"./common/types.sol\";\n\n/**\n * @title BoardManager\n * @dev A smart contract for managing boards\n */\ncontract BoardManager {\n    /**\n     * @dev Event emitted when a new board is created\n     * @param boardId ID of the board created\n     * @param boardName Name of the board created\n     * @param boardDescription Description of the board created\n     * @param owner Owner of the board created\n     */\n    event BoardCreated(\n        uint256 boardId,\n        string boardName,\n        string boardDescription,\n        address indexed owner\n    );\n\n    /**\n     * @dev Event emitted when a board is deleted\n     * @param boardId ID of the board deleted\n     */\n    event BoardDeleted(uint256 boardId);\n\n    /**\n     * @dev Event emitted when a board is edited\n     * @param boardId ID of the board edited\n     * @param newName New name of the board edited\n     * @param newDescription New description of the board edited\n     * @param owner Owner of the board edited\n     * @param pins Array of pin IDs saved to the board\n     * @param boardCoverHash New IPFS hash of the board cover image\n     */\n    event BoardEdited(\n        uint256 boardId,\n        string newName,\n        string newDescription,\n        address indexed owner,\n        uint256[] pins,\n        string boardCoverHash\n    );\n\n    /**\n     * @dev Event emitted when a pin is saved to a board\n     * @param pinId ID of the saved pin\n     * @param title Title of the pin saved\n     * @param description Description of the pin saved\n     * @param imageHash IPFS hash of the pin's image\n     * @param boardId ID of the board the pin is saved to\n     * @param owner Owner of the pin saved\n     */\n    event PinSaved(\n        uint256 pinId,\n        string title,\n        string description,\n        string imageHash,\n        uint256 boardId,\n        string owner\n    );\n\n    /**\n     * @dev Event emitted when a saved pin is edited\n     * @param pinId ID of the pin edited\n     * @param oldBoardId ID of the old board\n     * @param newBoardId ID of the new board\n     */\n    event SavedPinEdited(uint256 pinId, uint256 oldBoardId, uint256 newBoardId);\n\n    /**\n     * @dev Event emitted when a saved pin is deleted\n     * @param pinId ID of the pin edited\n     * @param boardId ID of the board\n     */\n    event SavedPinDeleted(uint256 pinId, uint256 boardId);\n\n    /**\n     * @dev Mapping to store boards by their ID\n     */\n    mapping(uint256 => Board) public boards;\n\n    /**\n     * @dev Number of boards created\n     */\n    uint256 public currentBoardId;\n\n    /**\n     * @dev Create a new board\n     * @param boardName Name of the board to create\n     * @param boardDescription Description of the board to create\n     * Requirements:\n     * - boardName cannot be an empty string\n     */\n    function createBoard(\n        string memory boardName,\n        string memory boardDescription\n    ) public returns (uint256) {\n        require(bytes(boardName).length != 0, \"Board name cannot be empty.\");\n        currentBoardId++;\n        uint256[] memory pins;\n        string memory boardCoverHash;\n        Board memory board = Board(\n            currentBoardId,\n            boardName,\n            boardDescription,\n            msg.sender,\n            pins,\n            boardCoverHash\n        );\n        boards[currentBoardId] = board;\n        emit BoardCreated(\n            currentBoardId,\n            boardName,\n            boardDescription,\n            msg.sender\n        );\n        return currentBoardId;\n    }\n\n    /**\n     * @dev Edit board information\n     * @param boardId ID of the board to edit\n     * @param newName New name for the board\n     * @param newDescription New description for the board\n     * @param boardCoverHash New IPFS hash of the board cover image\n     * Requirements:\n     * - Only the board owner can edit the board\n     * - Board with the given ID must exist\n     */\n    function editBoard(\n        uint256 boardId,\n        string memory newName,\n        string memory newDescription,\n        string memory boardCoverHash\n    ) public {\n        require(\n            msg.sender == boards[boardId].owner,\n            \"Only the board owner can edit the board.\"\n        );\n        require(bytes(newName).length != 0, \"New board name cannot be empty.\");\n\n        boards[boardId].name = newName;\n        boards[boardId].description = newDescription;\n        boards[boardId].boardCoverHash = boardCoverHash;\n\n        emit BoardEdited(\n            boardId,\n            newName,\n            newDescription,\n            boards[boardId].owner,\n            boards[boardId].pins,\n            boardCoverHash\n        );\n    }\n\n    /**\n     * @dev Delete an existing board\n     * @param boardId ID of the board to delete\n     * Requirements:\n     * - Only the board owner can delete the board\n     */\n    function deleteBoard(uint256 boardId) public {\n        require(boardId <= currentBoardId, \"Board does not exist.\");\n        require(\n            msg.sender == boards[boardId].owner,\n            \"Only the board owner can delete the board.\"\n        );\n        emit BoardDeleted(boardId);\n        delete boards[boardId];\n    }\n\n    /**\n     * @dev Get board information by its ID\n     * @param boardId ID of the board to get\n     * @return Board struct containing board information\n     * Requirements:\n     * - Board ID cannot be zero\n     * - Board with the given ID must exist\n     */\n    function getBoardById(uint256 boardId) public view returns (Board memory) {\n        require(boardId != 0, \"Board ID cannot be zero.\");\n        require(boardId <= currentBoardId, \"Board does not exist.\");\n        require(boards[boardId].owner != address(0), \"Board does not exist.\");\n        return boards[boardId];\n    }\n\n    /**\n     * @dev Get boards owned by a specific address\n     * @param owner Address of the board owner\n     * @return Board[] array containing the boards owned by the specified address\n     */\n    function getBoardsByOwner(\n        address owner\n    ) public view returns (Board[] memory) {\n        uint256 count = 0;\n\n        // Count the number of boards owned by the specified address\n        for (uint256 i = 1; i <= currentBoardId; i++) {\n            if (boards[i].owner == owner) {\n                count++;\n            }\n        }\n\n        // Create an array with the count of boards\n        Board[] memory ownerBoards = new Board[](count);\n        uint256 index = 0;\n\n        // Retrieve the boards owned by the specified address\n        for (uint256 i = 1; i <= currentBoardId; i++) {\n            if (boards[i].owner == owner) {\n                ownerBoards[index] = boards[i];\n                index++;\n            }\n        }\n\n        // Resize the ownerBoards array to remove any unused elements\n        assembly {\n            mstore(ownerBoards, index)\n        }\n\n        return ownerBoards;\n    }\n\n    /* @dev Save a new pin to a board\n     * @param boardId ID of the board to save the pin to\n     * @param pinId ID of the pin to save\n     * @param pinTitle Title of the pin to save\n     * @param pinDescription Description of the pin to save\n     * @param pinImageHash IPFS hash of the pin's image\n     * @param pinOwner Owner of the pin to save\n     * Requirements:\n     * - Board with the given ID must exist\n     * - Pin ID must be unique within the board\n     */\n    function savePinToBoard(\n        uint256 boardId,\n        uint256 pinId,\n        string memory pinTitle,\n        string memory pinDescription,\n        string memory pinImageHash,\n        string memory pinOwner\n    ) public {\n        require(boardId <= currentBoardId, \"Board does not exist.\");\n        require(pinId > 0, \"Pin ID must be greater than zero.\");\n\n        Board storage board = boards[boardId];\n        board.pins.push(pinId);\n\n        emit PinSaved(\n            pinId,\n            pinTitle,\n            pinDescription,\n            pinImageHash,\n            boardId,\n            pinOwner\n        );\n    }\n\n    /**\n     * @dev Edit a saved pin\n     * @param pinId ID of the pin to edit\n     * @param boardId ID of the board the pin is saved to\n     * @param newBoardId ID of the new board to save the pin to\n     * Requirements:\n     * - Board with the given ID must exist\n     * - Pin ID must be unique within the board\n     */\n    function editSavedPin(\n        uint256 pinId,\n        uint256 boardId,\n        uint256 newBoardId\n    ) public {\n        require(newBoardId <= currentBoardId, \"New Board does not exist.\");\n        require(boardId <= currentBoardId, \"Old Board does not exist.\");\n\n        Board storage oldBoard = boards[boardId];\n        Board storage newBoard = boards[newBoardId];\n        require(pinId > 0, \"Pin ID must be greater than zero.\");\n\n        // Delete pin from the old board\n        uint256[] storage oldBoardPins = oldBoard.pins;\n        for (uint256 i = 0; i < oldBoardPins.length; i++) {\n            if (oldBoardPins[i] == pinId) {\n                // Move the last element to the deleted position\n                oldBoardPins[i] = oldBoardPins[oldBoardPins.length - 1];\n                // Decrease the length of the array by 1\n                oldBoardPins.pop();\n                break;\n            }\n        }\n\n        // Save pin to the new board\n        newBoard.pins.push(pinId);\n\n        emit SavedPinEdited(pinId, boardId, newBoardId);\n    }\n\n    /**\n     * @dev Delete a saved pin\n     * @param pinId ID of the pin to delete\n     * @param boardId ID of the board the pin is saved to\n     * Requirements:\n     * - Board with the given ID must exist\n     * - Pin with the given ID must exist in the board's pins array\n     */\n    function deleteSavedPin(uint256 pinId, uint256 boardId) public {\n        require(boardId <= currentBoardId, \"Board does not exist.\");\n\n        Board storage board = boards[boardId];\n        uint256[] storage pins = board.pins;\n\n        for (uint256 i = 0; i < pins.length; i++) {\n            if (pins[i] == pinId) {\n                // Move the last element to the deleted position\n                pins[i] = pins[pins.length - 1];\n                // Decrease the length of the array by 1\n                pins.pop();\n                break;\n            }\n        }\n\n        emit SavedPinDeleted(pinId, boardId);\n    }\n}\n",
  "sourcePath": "/Users/lisapolena/Documents/Master_04/Thesis/Prototyp/betterPinterest/src/contracts/boardManager.sol",
  "compiler": {
    "name": "solc",
    "version": "0.8.13+commit.abaa5c0e.Emscripten.clang"
  },
  "schemaVersion": "3.4.14",
  "updatedAt": "2023-06-08T22:24:03.154Z",
  "devdoc": {
    "details": "A smart contract for managing boards",
    "events": {
      "BoardCreated(uint256,string,string,address)": {
        "details": "Event emitted when a new board is created",
        "params": {
          "boardDescription": "Description of the board created",
          "boardId": "ID of the board created",
          "boardName": "Name of the board created",
          "owner": "Owner of the board created"
        }
      },
      "BoardDeleted(uint256)": {
        "details": "Event emitted when a board is deleted",
        "params": {
          "boardId": "ID of the board deleted"
        }
      },
      "BoardEdited(uint256,string,string,address,uint256[],string)": {
        "details": "Event emitted when a board is edited",
        "params": {
          "boardCoverHash": "New IPFS hash of the board cover image",
          "boardId": "ID of the board edited",
          "newDescription": "New description of the board edited",
          "newName": "New name of the board edited",
          "owner": "Owner of the board edited",
          "pins": "Array of pin IDs saved to the board"
        }
      },
      "PinSaved(uint256,string,string,string,uint256,string)": {
        "details": "Event emitted when a pin is saved to a board",
        "params": {
          "boardId": "ID of the board the pin is saved to",
          "description": "Description of the pin saved",
          "imageHash": "IPFS hash of the pin's image",
          "owner": "Owner of the pin saved",
          "pinId": "ID of the saved pin",
          "title": "Title of the pin saved"
        }
      },
      "SavedPinDeleted(uint256,uint256)": {
        "details": "Event emitted when a saved pin is deleted",
        "params": {
          "boardId": "ID of the board",
          "pinId": "ID of the pin edited"
        }
      },
      "SavedPinEdited(uint256,uint256,uint256)": {
        "details": "Event emitted when a saved pin is edited",
        "params": {
          "newBoardId": "ID of the new board",
          "oldBoardId": "ID of the old board",
          "pinId": "ID of the pin edited"
        }
      }
    },
    "kind": "dev",
    "methods": {
      "createBoard(string,string)": {
        "details": "Create a new board",
        "params": {
          "boardDescription": "Description of the board to create Requirements: - boardName cannot be an empty string",
          "boardName": "Name of the board to create"
        }
      },
      "deleteBoard(uint256)": {
        "details": "Delete an existing board",
        "params": {
          "boardId": "ID of the board to delete Requirements: - Only the board owner can delete the board"
        }
      },
      "deleteSavedPin(uint256,uint256)": {
        "details": "Delete a saved pin",
        "params": {
          "boardId": "ID of the board the pin is saved to Requirements: - Board with the given ID must exist - Pin with the given ID must exist in the board's pins array",
          "pinId": "ID of the pin to delete"
        }
      },
      "editBoard(uint256,string,string,string)": {
        "details": "Edit board information",
        "params": {
          "boardCoverHash": "New IPFS hash of the board cover image Requirements: - Only the board owner can edit the board - Board with the given ID must exist",
          "boardId": "ID of the board to edit",
          "newDescription": "New description for the board",
          "newName": "New name for the board"
        }
      },
      "editSavedPin(uint256,uint256,uint256)": {
        "details": "Edit a saved pin",
        "params": {
          "boardId": "ID of the board the pin is saved to",
          "newBoardId": "ID of the new board to save the pin to Requirements: - Board with the given ID must exist - Pin ID must be unique within the board",
          "pinId": "ID of the pin to edit"
        }
      },
      "getBoardById(uint256)": {
        "details": "Get board information by its ID",
        "params": {
          "boardId": "ID of the board to get"
        },
        "returns": {
          "_0": "Board struct containing board information Requirements: - Board ID cannot be zero - Board with the given ID must exist"
        }
      },
      "getBoardsByOwner(address)": {
        "details": "Get boards owned by a specific address",
        "params": {
          "owner": "Address of the board owner"
        },
        "returns": {
          "_0": "Board[] array containing the boards owned by the specified address"
        }
      }
    },
    "stateVariables": {
      "boards": {
        "details": "Mapping to store boards by their ID"
      },
      "currentBoardId": {
        "details": "Number of boards created"
      }
    },
    "title": "BoardManager",
    "version": 1
  },
  "userdoc": {
    "kind": "user",
    "methods": {},
    "version": 1
  }
}