{
  "contractName": "BoardManager",
  "abi": [
    {
      "anonymous": false,
      "inputs": [
        {
          "indexed": false,
          "internalType": "uint256",
          "name": "boardId",
          "type": "uint256"
        },
        {
          "indexed": false,
          "internalType": "string",
          "name": "boardName",
          "type": "string"
        },
        {
          "indexed": true,
          "internalType": "address",
          "name": "owner",
          "type": "address"
        }
      ],
      "name": "BoardCreated",
      "type": "event"
    },
    {
      "anonymous": false,
      "inputs": [
        {
          "indexed": false,
          "internalType": "uint256",
          "name": "boardId",
          "type": "uint256"
        }
      ],
      "name": "BoardDeleted",
      "type": "event"
    },
    {
      "anonymous": false,
      "inputs": [
        {
          "indexed": false,
          "internalType": "uint256",
          "name": "boardId",
          "type": "uint256"
        },
        {
          "indexed": false,
          "internalType": "string",
          "name": "newName",
          "type": "string"
        }
      ],
      "name": "BoardEdited",
      "type": "event"
    },
    {
      "anonymous": false,
      "inputs": [
        {
          "indexed": false,
          "internalType": "uint256",
          "name": "pinId",
          "type": "uint256"
        },
        {
          "indexed": false,
          "internalType": "uint256",
          "name": "boardId",
          "type": "uint256"
        }
      ],
      "name": "PinSaved",
      "type": "event"
    },
    {
      "inputs": [
        {
          "internalType": "uint256",
          "name": "",
          "type": "uint256"
        }
      ],
      "name": "boards",
      "outputs": [
        {
          "internalType": "uint256",
          "name": "id",
          "type": "uint256"
        },
        {
          "internalType": "string",
          "name": "name",
          "type": "string"
        },
        {
          "internalType": "address",
          "name": "owner",
          "type": "address"
        }
      ],
      "stateMutability": "view",
      "type": "function"
    },
    {
      "inputs": [],
      "name": "currentBoardId",
      "outputs": [
        {
          "internalType": "uint256",
          "name": "",
          "type": "uint256"
        }
      ],
      "stateMutability": "view",
      "type": "function"
    },
    {
      "inputs": [
        {
          "internalType": "string",
          "name": "boardName",
          "type": "string"
        }
      ],
      "name": "createBoard",
      "outputs": [
        {
          "internalType": "uint256",
          "name": "",
          "type": "uint256"
        }
      ],
      "stateMutability": "nonpayable",
      "type": "function"
    },
    {
      "inputs": [
        {
          "internalType": "uint256",
          "name": "boardId",
          "type": "uint256"
        }
      ],
      "name": "deleteBoard",
      "outputs": [],
      "stateMutability": "nonpayable",
      "type": "function"
    },
    {
      "inputs": [
        {
          "internalType": "uint256",
          "name": "boardId",
          "type": "uint256"
        }
      ],
      "name": "getBoardById",
      "outputs": [
        {
          "components": [
            {
              "internalType": "uint256",
              "name": "id",
              "type": "uint256"
            },
            {
              "internalType": "string",
              "name": "name",
              "type": "string"
            },
            {
              "internalType": "address",
              "name": "owner",
              "type": "address"
            },
            {
              "internalType": "uint256[]",
              "name": "pins",
              "type": "uint256[]"
            }
          ],
          "internalType": "struct Board",
          "name": "",
          "type": "tuple"
        }
      ],
      "stateMutability": "view",
      "type": "function"
    },
    {
      "inputs": [],
      "name": "getAllBoards",
      "outputs": [
        {
          "components": [
            {
              "internalType": "uint256",
              "name": "id",
              "type": "uint256"
            },
            {
              "internalType": "string",
              "name": "name",
              "type": "string"
            },
            {
              "internalType": "address",
              "name": "owner",
              "type": "address"
            },
            {
              "internalType": "uint256[]",
              "name": "pins",
              "type": "uint256[]"
            }
          ],
          "internalType": "struct Board[]",
          "name": "",
          "type": "tuple[]"
        }
      ],
      "stateMutability": "view",
      "type": "function"
    },
    {
      "inputs": [
        {
          "internalType": "uint256",
          "name": "boardId",
          "type": "uint256"
        },
        {
          "internalType": "uint256",
          "name": "pinId",
          "type": "uint256"
        }
      ],
      "name": "savePinToBoard",
      "outputs": [
        {
          "internalType": "uint256",
          "name": "",
          "type": "uint256"
        }
      ],
      "stateMutability": "nonpayable",
      "type": "function"
    }
  ],
  "bytecode": "0x608060405234801561001057600080fd5b50611715806100206000396000f3fe608060405234801561001057600080fd5b506004361061007d5760003560e01c80639a7083f91161005b5780639a7083f9146100ee578063b3d55dee14610120578063f47810a114610150578063fb72d2001461016c5761007d565b80631872cd4c1461008257806333942a48146100a057806387159746146100be575b600080fd5b61008a61019c565b6040516100979190610fea565b60405180910390f35b6100a8610425565b6040516100b5919061101b565b60405180910390f35b6100d860048036038101906100d3919061117f565b61042b565b6040516100e5919061101b565b60405180910390f35b610108600480360381019061010391906111f4565b6105c8565b6040516101179392919061127a565b60405180910390f35b61013a600480360381019061013591906112b8565b61069a565b604051610147919061101b565b60405180910390f35b61016a600480360381019061016591906111f4565b6107a8565b005b610186600480360381019061018191906111f4565b61092e565b6040516101939190611362565b60405180910390f35b6060600060015467ffffffffffffffff8111156101bc576101bb611054565b5b6040519080825280602002602001820160405280156101f557816020015b6101e2610b8d565b8152602001906001900390816101da5790505b509050600080600190505b600154811161041957600073ffffffffffffffffffffffffffffffffffffffff1660008083815260200190815260200160002060020160009054906101000a900473ffffffffffffffffffffffffffffffffffffffff1673ffffffffffffffffffffffffffffffffffffffff161461040657600080828152602001908152602001600020604051806080016040529081600082015481526020016001820180546102a9906113b3565b80601f01602080910402602001604051908101604052809291908181526020018280546102d5906113b3565b80156103225780601f106102f757610100808354040283529160200191610322565b820191906000526020600020905b81548152906001019060200180831161030557829003601f168201915b505050505081526020016002820160009054906101000a900473ffffffffffffffffffffffffffffffffffffffff1673ffffffffffffffffffffffffffffffffffffffff1673ffffffffffffffffffffffffffffffffffffffff168152602001600382018054806020026020016040519081016040528092919081815260200182805480156103d057602002820191906000526020600020905b8154815260200190600101908083116103bc575b5050505050815250508383815181106103ec576103eb6113e4565b5b6020026020010181905250818061040290611442565b9250505b808061041190611442565b915050610200565b50808252819250505090565b60015481565b600080825103610470576040517f08c379a0000000000000000000000000000000000000000000000000000000008152600401610467906114d6565b60405180910390fd5b6001600081548092919061048390611442565b919050555060606000604051806080016040528060015481526020018581526020013373ffffffffffffffffffffffffffffffffffffffff168152602001838152509050806000806001548152602001908152602001600020600082015181600001556020820151816001019080519060200190610502929190610bcb565b5060408201518160020160006101000a81548173ffffffffffffffffffffffffffffffffffffffff021916908373ffffffffffffffffffffffffffffffffffffffff1602179055506060820151816003019080519060200190610566929190610c51565b509050503373ffffffffffffffffffffffffffffffffffffffff167fac364e15813c225ec404ce90e1d473c41abc7b9bd06ce024a06988906fc7668b600154866040516105b49291906114f6565b60405180910390a260015492505050919050565b60006020528060005260406000206000915090508060000154908060010180546105f1906113b3565b80601f016020809104026020016040519081016040528092919081815260200182805461061d906113b3565b801561066a5780601f1061063f5761010080835404028352916020019161066a565b820191906000526020600020905b81548152906001019060200180831161064d57829003601f168201915b5050505050908060020160009054906101000a900473ffffffffffffffffffffffffffffffffffffffff16905083565b60006001548311156106e1576040517f08c379a00000000000000000000000000000000000000000000000000000000081526004016106d890611572565b60405180910390fd5b600080600085815260200190815260200160002090506000831161073a576040517f08c379a000000000000000000000000000000000000000000000000000000000815260040161073190611604565b60405180910390fd5b806003018390806001815401808255809150506001900390600052602060002001600090919091909150557f254924bb2e054e39fb8f465854bd69f92a4ef727ef0ebe475a3e394070d1f42b8385604051610796929190611624565b60405180910390a18291505092915050565b6001548111156107ed576040517f08c379a00000000000000000000000000000000000000000000000000000000081526004016107e490611572565b60405180910390fd5b60008082815260200190815260200160002060020160009054906101000a900473ffffffffffffffffffffffffffffffffffffffff1673ffffffffffffffffffffffffffffffffffffffff163373ffffffffffffffffffffffffffffffffffffffff1614610890576040517f08c379a0000000000000000000000000000000000000000000000000000000008152600401610887906116bf565b60405180910390fd5b7f4e8a750abb5bc4433f76ccc65ec77d14d55174b068aa54a2d68383fd76601cdb816040516108bf919061101b565b60405180910390a16000808281526020019081526020016000206000808201600090556001820160006108f29190610c9e565b6002820160006101000a81549073ffffffffffffffffffffffffffffffffffffffff02191690556003820160006109299190610cde565b505050565b610936610b8d565b60015482111561097b576040517f08c379a000000000000000000000000000000000000000000000000000000000815260040161097290611572565b60405180910390fd5b600073ffffffffffffffffffffffffffffffffffffffff1660008084815260200190815260200160002060020160009054906101000a900473ffffffffffffffffffffffffffffffffffffffff1673ffffffffffffffffffffffffffffffffffffffff1603610a1f576040517f08c379a0000000000000000000000000000000000000000000000000000000008152600401610a1690611572565b60405180910390fd5b60008083815260200190815260200160002060405180608001604052908160008201548152602001600182018054610a56906113b3565b80601f0160208091040260200160405190810160405280929190818152602001828054610a82906113b3565b8015610acf5780601f10610aa457610100808354040283529160200191610acf565b820191906000526020600020905b815481529060010190602001808311610ab257829003601f168201915b505050505081526020016002820160009054906101000a900473ffffffffffffffffffffffffffffffffffffffff1673ffffffffffffffffffffffffffffffffffffffff1673ffffffffffffffffffffffffffffffffffffffff16815260200160038201805480602002602001604051908101604052809291908181526020018280548015610b7d57602002820191906000526020600020905b815481526020019060010190808311610b69575b5050505050815250509050919050565b60405180608001604052806000815260200160608152602001600073ffffffffffffffffffffffffffffffffffffffff168152602001606081525090565b828054610bd7906113b3565b90600052602060002090601f016020900481019282610bf95760008555610c40565b82601f10610c1257805160ff1916838001178555610c40565b82800160010185558215610c40579182015b82811115610c3f578251825591602001919060010190610c24565b5b509050610c4d9190610cff565b5090565b828054828255906000526020600020908101928215610c8d579160200282015b82811115610c8c578251825591602001919060010190610c71565b5b509050610c9a9190610cff565b5090565b508054610caa906113b3565b6000825580601f10610cbc5750610cdb565b601f016020900490600052602060002090810190610cda9190610cff565b5b50565b5080546000825590600052602060002090810190610cfc9190610cff565b50565b5b80821115610d18576000816000905550600101610d00565b5090565b600081519050919050565b600082825260208201905092915050565b6000819050602082019050919050565b6000819050919050565b610d5b81610d48565b82525050565b600081519050919050565b600082825260208201905092915050565b60005b83811015610d9b578082015181840152602081019050610d80565b83811115610daa576000848401525b50505050565b6000601f19601f8301169050919050565b6000610dcc82610d61565b610dd68185610d6c565b9350610de6818560208601610d7d565b610def81610db0565b840191505092915050565b600073ffffffffffffffffffffffffffffffffffffffff82169050919050565b6000610e2582610dfa565b9050919050565b610e3581610e1a565b82525050565b600081519050919050565b600082825260208201905092915050565b6000819050602082019050919050565b6000610e738383610d52565b60208301905092915050565b6000602082019050919050565b6000610e9782610e3b565b610ea18185610e46565b9350610eac83610e57565b8060005b83811015610edd578151610ec48882610e67565b9750610ecf83610e7f565b925050600181019050610eb0565b5085935050505092915050565b6000608083016000830151610f026000860182610d52565b5060208301518482036020860152610f1a8282610dc1565b9150506040830151610f2f6040860182610e2c565b5060608301518482036060860152610f478282610e8c565b9150508091505092915050565b6000610f608383610eea565b905092915050565b6000602082019050919050565b6000610f8082610d1c565b610f8a8185610d27565b935083602082028501610f9c85610d38565b8060005b85811015610fd85784840389528151610fb98582610f54565b9450610fc483610f68565b925060208a01995050600181019050610fa0565b50829750879550505050505092915050565b600060208201905081810360008301526110048184610f75565b905092915050565b61101581610d48565b82525050565b6000602082019050611030600083018461100c565b92915050565b6000604051905090565b600080fd5b600080fd5b600080fd5b600080fd5b7f4e487b7100000000000000000000000000000000000000000000000000000000600052604160045260246000fd5b61108c82610db0565b810181811067ffffffffffffffff821117156110ab576110aa611054565b5b80604052505050565b60006110be611036565b90506110ca8282611083565b919050565b600067ffffffffffffffff8211156110ea576110e9611054565b5b6110f382610db0565b9050602081019050919050565b82818337600083830152505050565b600061112261111d846110cf565b6110b4565b90508281526020810184848401111561113e5761113d61104f565b5b611149848285611100565b509392505050565b600082601f8301126111665761116561104a565b5b813561117684826020860161110f565b91505092915050565b60006020828403121561119557611194611040565b5b600082013567ffffffffffffffff8111156111b3576111b2611045565b5b6111bf84828501611151565b91505092915050565b6111d181610d48565b81146111dc57600080fd5b50565b6000813590506111ee816111c8565b92915050565b60006020828403121561120a57611209611040565b5b6000611218848285016111df565b91505092915050565b600082825260208201905092915050565b600061123d82610d61565b6112478185611221565b9350611257818560208601610d7d565b61126081610db0565b840191505092915050565b61127481610e1a565b82525050565b600060608201905061128f600083018661100c565b81810360208301526112a18185611232565b90506112b0604083018461126b565b949350505050565b600080604083850312156112cf576112ce611040565b5b60006112dd858286016111df565b92505060206112ee858286016111df565b9150509250929050565b60006080830160008301516113106000860182610d52565b50602083015184820360208601526113288282610dc1565b915050604083015161133d6040860182610e2c565b50606083015184820360608601526113558282610e8c565b9150508091505092915050565b6000602082019050818103600083015261137c81846112f8565b905092915050565b7f4e487b7100000000000000000000000000000000000000000000000000000000600052602260045260246000fd5b600060028204905060018216806113cb57607f821691505b6020821081036113de576113dd611384565b5b50919050565b7f4e487b7100000000000000000000000000000000000000000000000000000000600052603260045260246000fd5b7f4e487b7100000000000000000000000000000000000000000000000000000000600052601160045260246000fd5b600061144d82610d48565b91507fffffffffffffffffffffffffffffffffffffffffffffffffffffffffffffffff820361147f5761147e611413565b5b600182019050919050565b7f426f617264206e616d652063616e6e6f7420626520656d7074792e0000000000600082015250565b60006114c0601b83611221565b91506114cb8261148a565b602082019050919050565b600060208201905081810360008301526114ef816114b3565b9050919050565b600060408201905061150b600083018561100c565b818103602083015261151d8184611232565b90509392505050565b7f426f61726420646f6573206e6f742065786973742e0000000000000000000000600082015250565b600061155c601583611221565b915061156782611526565b602082019050919050565b6000602082019050818103600083015261158b8161154f565b9050919050565b7f50696e204944206d7573742062652067726561746572207468616e207a65726f60008201527f2e00000000000000000000000000000000000000000000000000000000000000602082015250565b60006115ee602183611221565b91506115f982611592565b604082019050919050565b6000602082019050818103600083015261161d816115e1565b9050919050565b6000604082019050611639600083018561100c565b611646602083018461100c565b9392505050565b7f4f6e6c792074686520626f617264206f776e65722063616e2064656c6574652060008201527f74686520626f6172642e00000000000000000000000000000000000000000000602082015250565b60006116a9602a83611221565b91506116b48261164d565b604082019050919050565b600060208201905081810360008301526116d88161169c565b905091905056fea264697066735822122053c8ac666dba8625bc7ea016af1417df10ad603b1fe090e22cf817fc2cccb23964736f6c634300080d0033",
  "immutableReferences": {},
  "source": "// SPDX-License-Identifier: GPL-3.0\n\npragma solidity >=0.7.0 <0.9.0;\n\n//import \"hardhat/console.sol\";\nimport {Board, Pin} from \"./common/types.sol\";\n\n/**\n * @title BoardManager\n * @dev A smart contract for managing boards\n */\ncontract BoardManager {\n    /**\n     * @dev Event emitted when a new board is created\n     * @param boardId ID of the board created\n     * @param boardName Name of the board created\n     * @param owner Owner of the board created\n     */\n    event BoardCreated(\n        uint256 boardId,\n        string boardName,\n        address indexed owner\n    );\n\n    /**\n     * @dev Event emitted when a board is deleted\n     * @param boardId ID of the board deleted\n     */\n    event BoardDeleted(uint256 boardId);\n\n    /**\n     * @dev Event emitted when a board is edited\n     * @param boardId ID of the board edited\n     * @param newName New name of the board edited\n     */\n    event BoardEdited(uint256 boardId, string newName);\n\n    /**\n     * @dev Event emitted when a pin is saved to a board\n     * @param pinId ID of the saved pin\n     * @param boardId ID of the board the pin is saved to\n     */\n    event PinSaved(uint256 pinId, uint256 boardId);\n\n    /**\n     * @dev Mapping to store boards by their ID\n     */\n    mapping(uint256 => Board) public boards;\n\n    /**\n     * @dev Number of boards created\n     */\n    uint256 public currentBoardId;\n\n    /**\n     * @dev Create a new board\n     * @param boardName Name of the board to create\n     * Requirements:\n     * - boardName cannot be an empty string\n     */\n    function createBoard(string memory boardName) public returns (uint256) {\n        require(bytes(boardName).length != 0, \"Board name cannot be empty.\");\n        currentBoardId++;\n        uint256[] memory pins;\n        Board memory board = Board(currentBoardId, boardName, msg.sender, pins);\n        boards[currentBoardId] = board;\n        emit BoardCreated(currentBoardId, boardName, msg.sender);\n        return currentBoardId;\n    }\n\n    /**\n     * @dev Delete an existing board\n     * @param boardId ID of the board to delete\n     * Requirements:\n     * - Only the board owner can delete the board\n     */\n    function deleteBoard(uint256 boardId) public {\n        require(boardId <= currentBoardId, \"Board does not exist.\");\n        require(\n            msg.sender == boards[boardId].owner,\n            \"Only the board owner can delete the board.\"\n        );\n        emit BoardDeleted(boardId);\n        delete boards[boardId];\n    }\n\n    /**\n     * @dev Get board information by its ID\n     * @param boardId ID of the board to get\n     * @return Board struct containing board information\n     * Requirements:\n     * - Board with the given ID must exist\n     */\n    function getBoardById(uint256 boardId) public view returns (Board memory) {\n        require(boardId <= currentBoardId, \"Board does not exist.\");\n        require(boards[boardId].owner != address(0), \"Board does not exist.\");\n        return boards[boardId];\n    }\n\n    /**\n     * @dev Get all boards\n     * @return Board[] array containing all the boards\n     */\n    function getAllBoards() public view returns (Board[] memory) {\n        Board[] memory allBoards = new Board[](currentBoardId);\n        uint index = 0;\n\n        for (uint i = 1; i <= currentBoardId; i++) {\n            if (boards[i].owner != address(0)) {\n                allBoards[index] = boards[i];\n                index++;\n            }\n        }\n\n        // Resize the allBoards array to remove any unused elements\n        assembly {\n            mstore(allBoards, index)\n        }\n\n        return allBoards;\n    }\n\n    /**\n     * @dev Save a new pin to a board\n     * @param boardId ID of the board to save the pin to\n     * @param pinId ID of the pin to save\n     * @return uint256 ID of the saved pin\n     * Requirements:\n     * - Board with the given ID must exist\n     * - Pin ID must be unique within the board\n     */\n    function savePinToBoard(\n        uint256 boardId,\n        uint256 pinId\n    ) public returns (uint256) {\n        require(boardId <= currentBoardId, \"Board does not exist.\");\n\n        Board storage board = boards[boardId];\n        require(pinId > 0, \"Pin ID must be greater than zero.\");\n\n        board.pins.push(pinId);\n\n        emit PinSaved(pinId, boardId);\n\n        return pinId;\n    }\n}\n",
  "sourcePath": "/Users/lisapolena/Documents/Master_04/Thesis/Prototyp/betterPinterest/src/contracts/boardManager.sol",
  "compiler": {
    "name": "solc",
    "version": "0.8.13+commit.abaa5c0e.Emscripten.clang"
  },
  "schemaVersion": "3.4.14",
  "updatedAt": "2023-06-03T18:27:45.509Z",
  "devdoc": {
    "details": "A smart contract for managing boards",
    "events": {
      "BoardCreated(uint256,string,address)": {
        "details": "Event emitted when a new board is created",
        "params": {
          "boardId": "ID of the board created",
          "boardName": "Name of the board created",
          "owner": "Owner of the board created"
        }
      },
      "BoardDeleted(uint256)": {
        "details": "Event emitted when a board is deleted",
        "params": {
          "boardId": "ID of the board deleted"
        }
      },
      "BoardEdited(uint256,string)": {
        "details": "Event emitted when a board is edited",
        "params": {
          "boardId": "ID of the board edited",
          "newName": "New name of the board edited"
        }
      },
      "PinSaved(uint256,uint256)": {
        "details": "Event emitted when a pin is saved to a board",
        "params": {
          "boardId": "ID of the board the pin is saved to",
          "pinId": "ID of the saved pin"
        }
      }
    },
    "kind": "dev",
    "methods": {
      "createBoard(string)": {
        "details": "Create a new board",
        "params": {
          "boardName": "Name of the board to create Requirements: - boardName cannot be an empty string"
        }
      },
      "deleteBoard(uint256)": {
        "details": "Delete an existing board",
        "params": {
          "boardId": "ID of the board to delete Requirements: - Only the board owner can delete the board"
        }
      },
      "getAllBoards()": {
        "details": "Get all boards",
        "returns": {
          "_0": "Board[] array containing all the boards"
        }
      },
      "getBoardById(uint256)": {
        "details": "Get board information by its ID",
        "params": {
          "boardId": "ID of the board to get"
        },
        "returns": {
          "_0": "Board struct containing board information Requirements: - Board with the given ID must exist"
        }
      },
      "savePinToBoard(uint256,uint256)": {
        "details": "Save a new pin to a board",
        "params": {
          "boardId": "ID of the board to save the pin to",
          "pinId": "ID of the pin to save"
        },
        "returns": {
          "_0": "uint256 ID of the saved pin Requirements: - Board with the given ID must exist - Pin ID must be unique within the board"
        }
      }
    },
    "stateVariables": {
      "boards": {
        "details": "Mapping to store boards by their ID"
      },
      "currentBoardId": {
        "details": "Number of boards created"
      }
    },
    "title": "BoardManager",
    "version": 1
  },
  "userdoc": {
    "kind": "user",
    "methods": {},
    "version": 1
  }
}