{
  "contractName": "BoardManager",
  "abi": [
    {
      "anonymous": false,
      "inputs": [
        {
          "indexed": false,
          "internalType": "uint256",
          "name": "boardId",
          "type": "uint256"
        },
        {
          "indexed": false,
          "internalType": "string",
          "name": "boardName",
          "type": "string"
        },
        {
          "indexed": true,
          "internalType": "address",
          "name": "owner",
          "type": "address"
        }
      ],
      "name": "BoardCreated",
      "type": "event"
    },
    {
      "anonymous": false,
      "inputs": [
        {
          "indexed": false,
          "internalType": "uint256",
          "name": "boardId",
          "type": "uint256"
        }
      ],
      "name": "BoardDeleted",
      "type": "event"
    },
    {
      "anonymous": false,
      "inputs": [
        {
          "indexed": false,
          "internalType": "uint256",
          "name": "boardId",
          "type": "uint256"
        },
        {
          "indexed": false,
          "internalType": "string",
          "name": "newName",
          "type": "string"
        }
      ],
      "name": "BoardEdited",
      "type": "event"
    },
    {
      "anonymous": false,
      "inputs": [
        {
          "indexed": false,
          "internalType": "uint256",
          "name": "pinId",
          "type": "uint256"
        },
        {
          "indexed": false,
          "internalType": "uint256",
          "name": "boardId",
          "type": "uint256"
        }
      ],
      "name": "PinSaved",
      "type": "event"
    },
    {
      "inputs": [
        {
          "internalType": "uint256",
          "name": "",
          "type": "uint256"
        }
      ],
      "name": "boards",
      "outputs": [
        {
          "internalType": "uint256",
          "name": "id",
          "type": "uint256"
        },
        {
          "internalType": "string",
          "name": "name",
          "type": "string"
        },
        {
          "internalType": "address",
          "name": "owner",
          "type": "address"
        }
      ],
      "stateMutability": "view",
      "type": "function"
    },
    {
      "inputs": [],
      "name": "currentBoardId",
      "outputs": [
        {
          "internalType": "uint256",
          "name": "",
          "type": "uint256"
        }
      ],
      "stateMutability": "view",
      "type": "function"
    },
    {
      "inputs": [
        {
          "internalType": "string",
          "name": "boardName",
          "type": "string"
        }
      ],
      "name": "createBoard",
      "outputs": [
        {
          "internalType": "uint256",
          "name": "",
          "type": "uint256"
        }
      ],
      "stateMutability": "nonpayable",
      "type": "function"
    },
    {
      "inputs": [
        {
          "internalType": "uint256",
          "name": "boardId",
          "type": "uint256"
        },
        {
          "internalType": "string",
          "name": "newName",
          "type": "string"
        }
      ],
      "name": "editBoard",
      "outputs": [],
      "stateMutability": "nonpayable",
      "type": "function"
    },
    {
      "inputs": [
        {
          "internalType": "uint256",
          "name": "boardId",
          "type": "uint256"
        }
      ],
      "name": "deleteBoard",
      "outputs": [],
      "stateMutability": "nonpayable",
      "type": "function"
    },
    {
      "inputs": [
        {
          "internalType": "uint256",
          "name": "boardId",
          "type": "uint256"
        }
      ],
      "name": "getBoardById",
      "outputs": [
        {
          "components": [
            {
              "internalType": "uint256",
              "name": "id",
              "type": "uint256"
            },
            {
              "internalType": "string",
              "name": "name",
              "type": "string"
            },
            {
              "internalType": "address",
              "name": "owner",
              "type": "address"
            },
            {
              "internalType": "uint256[]",
              "name": "pins",
              "type": "uint256[]"
            }
          ],
          "internalType": "struct Board",
          "name": "",
          "type": "tuple"
        }
      ],
      "stateMutability": "view",
      "type": "function"
    },
    {
      "inputs": [
        {
          "internalType": "address",
          "name": "owner",
          "type": "address"
        }
      ],
      "name": "getBoardsByOwner",
      "outputs": [
        {
          "components": [
            {
              "internalType": "uint256",
              "name": "id",
              "type": "uint256"
            },
            {
              "internalType": "string",
              "name": "name",
              "type": "string"
            },
            {
              "internalType": "address",
              "name": "owner",
              "type": "address"
            },
            {
              "internalType": "uint256[]",
              "name": "pins",
              "type": "uint256[]"
            }
          ],
          "internalType": "struct Board[]",
          "name": "",
          "type": "tuple[]"
        }
      ],
      "stateMutability": "view",
      "type": "function"
    },
    {
      "inputs": [
        {
          "internalType": "uint256",
          "name": "boardId",
          "type": "uint256"
        },
        {
          "internalType": "uint256",
          "name": "pinId",
          "type": "uint256"
        }
      ],
      "name": "savePinToBoard",
      "outputs": [],
      "stateMutability": "nonpayable",
      "type": "function"
    }
  ],
  "bytecode": "0x608060405234801561001057600080fd5b50611a97806100206000396000f3fe608060405234801561001057600080fd5b50600436106100885760003560e01c8063af2d71561161005b578063af2d715614610129578063b3d55dee14610159578063f47810a114610175578063fb72d2001461019157610088565b806326d512581461008d57806333942a48146100a957806387159746146100c75780639a7083f9146100f7575b600080fd5b6100a760048036038101906100a2919061107b565b6101c1565b005b6100b16102d6565b6040516100be91906110e6565b60405180910390f35b6100e160048036038101906100dc9190611101565b6102dc565b6040516100ee91906110e6565b60405180910390f35b610111600480360381019061010c919061114a565b610479565b60405161012093929190611240565b60405180910390f35b610143600480360381019061013e91906112aa565b61054b565b604051610150919061151a565b60405180910390f35b610173600480360381019061016e919061153c565b610870565b005b61018f600480360381019061018a919061114a565b610977565b005b6101ab60048036038101906101a6919061114a565b610afd565b6040516101b891906115e6565b60405180910390f35b60008083815260200190815260200160002060020160009054906101000a900473ffffffffffffffffffffffffffffffffffffffff1673ffffffffffffffffffffffffffffffffffffffff163373ffffffffffffffffffffffffffffffffffffffff1614610264576040517f08c379a000000000000000000000000000000000000000000000000000000000815260040161025b9061167a565b60405180910390fd5b60008151036102a8576040517f08c379a000000000000000000000000000000000000000000000000000000000815260040161029f906116e6565b60405180910390fd5b8060008084815260200190815260200160002060010190805190602001906102d1929190610d5c565b505050565b60015481565b600080825103610321576040517f08c379a000000000000000000000000000000000000000000000000000000000815260040161031890611752565b60405180910390fd5b60016000815480929190610334906117a1565b919050555060606000604051806080016040528060015481526020018581526020013373ffffffffffffffffffffffffffffffffffffffff1681526020018381525090508060008060015481526020019081526020016000206000820151816000015560208201518160010190805190602001906103b3929190610d5c565b5060408201518160020160006101000a81548173ffffffffffffffffffffffffffffffffffffffff021916908373ffffffffffffffffffffffffffffffffffffffff1602179055506060820151816003019080519060200190610417929190610de2565b509050503373ffffffffffffffffffffffffffffffffffffffff167fac364e15813c225ec404ce90e1d473c41abc7b9bd06ce024a06988906fc7668b600154866040516104659291906117e9565b60405180910390a260015492505050919050565b60006020528060005260406000206000915090508060000154908060010180546104a290611848565b80601f01602080910402602001604051908101604052809291908181526020018280546104ce90611848565b801561051b5780601f106104f05761010080835404028352916020019161051b565b820191906000526020600020905b8154815290600101906020018083116104fe57829003601f168201915b5050505050908060020160009054906101000a900473ffffffffffffffffffffffffffffffffffffffff16905083565b6060600080600190505b60015481116105e8578373ffffffffffffffffffffffffffffffffffffffff1660008083815260200190815260200160002060020160009054906101000a900473ffffffffffffffffffffffffffffffffffffffff1673ffffffffffffffffffffffffffffffffffffffff16036105d55781806105d1906117a1565b9250505b80806105e0906117a1565b915050610555565b5060008167ffffffffffffffff81111561060557610604610f50565b5b60405190808252806020026020018201604052801561063e57816020015b61062b610e2f565b8152602001906001900390816106235790505b509050600080600190505b6001548111610861578573ffffffffffffffffffffffffffffffffffffffff1660008083815260200190815260200160002060020160009054906101000a900473ffffffffffffffffffffffffffffffffffffffff1673ffffffffffffffffffffffffffffffffffffffff160361084e57600080828152602001908152602001600020604051806080016040529081600082015481526020016001820180546106f190611848565b80601f016020809104026020016040519081016040528092919081815260200182805461071d90611848565b801561076a5780601f1061073f5761010080835404028352916020019161076a565b820191906000526020600020905b81548152906001019060200180831161074d57829003601f168201915b505050505081526020016002820160009054906101000a900473ffffffffffffffffffffffffffffffffffffffff1673ffffffffffffffffffffffffffffffffffffffff1673ffffffffffffffffffffffffffffffffffffffff1681526020016003820180548060200260200160405190810160405280929190818152602001828054801561081857602002820191906000526020600020905b815481526020019060010190808311610804575b50505050508152505083838151811061083457610833611879565b5b6020026020010181905250818061084a906117a1565b9250505b8080610859906117a1565b915050610649565b50808252819350505050919050565b6001548211156108b5576040517f08c379a00000000000000000000000000000000000000000000000000000000081526004016108ac906118f4565b60405180910390fd5b600080600084815260200190815260200160002090506000821161090e576040517f08c379a000000000000000000000000000000000000000000000000000000000815260040161090590611986565b60405180910390fd5b806003018290806001815401808255809150506001900390600052602060002001600090919091909150557f254924bb2e054e39fb8f465854bd69f92a4ef727ef0ebe475a3e394070d1f42b828460405161096a9291906119a6565b60405180910390a1505050565b6001548111156109bc576040517f08c379a00000000000000000000000000000000000000000000000000000000081526004016109b3906118f4565b60405180910390fd5b60008082815260200190815260200160002060020160009054906101000a900473ffffffffffffffffffffffffffffffffffffffff1673ffffffffffffffffffffffffffffffffffffffff163373ffffffffffffffffffffffffffffffffffffffff1614610a5f576040517f08c379a0000000000000000000000000000000000000000000000000000000008152600401610a5690611a41565b60405180910390fd5b7f4e8a750abb5bc4433f76ccc65ec77d14d55174b068aa54a2d68383fd76601cdb81604051610a8e91906110e6565b60405180910390a1600080828152602001908152602001600020600080820160009055600182016000610ac19190610e6d565b6002820160006101000a81549073ffffffffffffffffffffffffffffffffffffffff0219169055600382016000610af89190610ead565b505050565b610b05610e2f565b600154821115610b4a576040517f08c379a0000000000000000000000000000000000000000000000000000000008152600401610b41906118f4565b60405180910390fd5b600073ffffffffffffffffffffffffffffffffffffffff1660008084815260200190815260200160002060020160009054906101000a900473ffffffffffffffffffffffffffffffffffffffff1673ffffffffffffffffffffffffffffffffffffffff1603610bee576040517f08c379a0000000000000000000000000000000000000000000000000000000008152600401610be5906118f4565b60405180910390fd5b60008083815260200190815260200160002060405180608001604052908160008201548152602001600182018054610c2590611848565b80601f0160208091040260200160405190810160405280929190818152602001828054610c5190611848565b8015610c9e5780601f10610c7357610100808354040283529160200191610c9e565b820191906000526020600020905b815481529060010190602001808311610c8157829003601f168201915b505050505081526020016002820160009054906101000a900473ffffffffffffffffffffffffffffffffffffffff1673ffffffffffffffffffffffffffffffffffffffff1673ffffffffffffffffffffffffffffffffffffffff16815260200160038201805480602002602001604051908101604052809291908181526020018280548015610d4c57602002820191906000526020600020905b815481526020019060010190808311610d38575b5050505050815250509050919050565b828054610d6890611848565b90600052602060002090601f016020900481019282610d8a5760008555610dd1565b82601f10610da357805160ff1916838001178555610dd1565b82800160010185558215610dd1579182015b82811115610dd0578251825591602001919060010190610db5565b5b509050610dde9190610ece565b5090565b828054828255906000526020600020908101928215610e1e579160200282015b82811115610e1d578251825591602001919060010190610e02565b5b509050610e2b9190610ece565b5090565b60405180608001604052806000815260200160608152602001600073ffffffffffffffffffffffffffffffffffffffff168152602001606081525090565b508054610e7990611848565b6000825580601f10610e8b5750610eaa565b601f016020900490600052602060002090810190610ea99190610ece565b5b50565b5080546000825590600052602060002090810190610ecb9190610ece565b50565b5b80821115610ee7576000816000905550600101610ecf565b5090565b6000604051905090565b600080fd5b600080fd5b6000819050919050565b610f1281610eff565b8114610f1d57600080fd5b50565b600081359050610f2f81610f09565b92915050565b600080fd5b600080fd5b6000601f19601f8301169050919050565b7f4e487b7100000000000000000000000000000000000000000000000000000000600052604160045260246000fd5b610f8882610f3f565b810181811067ffffffffffffffff82111715610fa757610fa6610f50565b5b80604052505050565b6000610fba610eeb565b9050610fc68282610f7f565b919050565b600067ffffffffffffffff821115610fe657610fe5610f50565b5b610fef82610f3f565b9050602081019050919050565b82818337600083830152505050565b600061101e61101984610fcb565b610fb0565b90508281526020810184848401111561103a57611039610f3a565b5b611045848285610ffc565b509392505050565b600082601f83011261106257611061610f35565b5b813561107284826020860161100b565b91505092915050565b6000806040838503121561109257611091610ef5565b5b60006110a085828601610f20565b925050602083013567ffffffffffffffff8111156110c1576110c0610efa565b5b6110cd8582860161104d565b9150509250929050565b6110e081610eff565b82525050565b60006020820190506110fb60008301846110d7565b92915050565b60006020828403121561111757611116610ef5565b5b600082013567ffffffffffffffff81111561113557611134610efa565b5b6111418482850161104d565b91505092915050565b6000602082840312156111605761115f610ef5565b5b600061116e84828501610f20565b91505092915050565b600081519050919050565b600082825260208201905092915050565b60005b838110156111b1578082015181840152602081019050611196565b838111156111c0576000848401525b50505050565b60006111d182611177565b6111db8185611182565b93506111eb818560208601611193565b6111f481610f3f565b840191505092915050565b600073ffffffffffffffffffffffffffffffffffffffff82169050919050565b600061122a826111ff565b9050919050565b61123a8161121f565b82525050565b600060608201905061125560008301866110d7565b818103602083015261126781856111c6565b90506112766040830184611231565b949350505050565b6112878161121f565b811461129257600080fd5b50565b6000813590506112a48161127e565b92915050565b6000602082840312156112c0576112bf610ef5565b5b60006112ce84828501611295565b91505092915050565b600081519050919050565b600082825260208201905092915050565b6000819050602082019050919050565b61130c81610eff565b82525050565b600082825260208201905092915050565b600061132e82611177565b6113388185611312565b9350611348818560208601611193565b61135181610f3f565b840191505092915050565b6113658161121f565b82525050565b600081519050919050565b600082825260208201905092915050565b6000819050602082019050919050565b60006113a38383611303565b60208301905092915050565b6000602082019050919050565b60006113c78261136b565b6113d18185611376565b93506113dc83611387565b8060005b8381101561140d5781516113f48882611397565b97506113ff836113af565b9250506001810190506113e0565b5085935050505092915050565b60006080830160008301516114326000860182611303565b506020830151848203602086015261144a8282611323565b915050604083015161145f604086018261135c565b506060830151848203606086015261147782826113bc565b9150508091505092915050565b6000611490838361141a565b905092915050565b6000602082019050919050565b60006114b0826112d7565b6114ba81856112e2565b9350836020820285016114cc856112f3565b8060005b8581101561150857848403895281516114e98582611484565b94506114f483611498565b925060208a019950506001810190506114d0565b50829750879550505050505092915050565b6000602082019050818103600083015261153481846114a5565b905092915050565b6000806040838503121561155357611552610ef5565b5b600061156185828601610f20565b925050602061157285828601610f20565b9150509250929050565b60006080830160008301516115946000860182611303565b50602083015184820360208601526115ac8282611323565b91505060408301516115c1604086018261135c565b50606083015184820360608601526115d982826113bc565b9150508091505092915050565b60006020820190508181036000830152611600818461157c565b905092915050565b7f4f6e6c792074686520626f617264206f776e65722063616e206564697420746860008201527f6520626f6172642e000000000000000000000000000000000000000000000000602082015250565b6000611664602883611182565b915061166f82611608565b604082019050919050565b6000602082019050818103600083015261169381611657565b9050919050565b7f4e657720626f617264206e616d652063616e6e6f7420626520656d7074792e00600082015250565b60006116d0601f83611182565b91506116db8261169a565b602082019050919050565b600060208201905081810360008301526116ff816116c3565b9050919050565b7f426f617264206e616d652063616e6e6f7420626520656d7074792e0000000000600082015250565b600061173c601b83611182565b915061174782611706565b602082019050919050565b6000602082019050818103600083015261176b8161172f565b9050919050565b7f4e487b7100000000000000000000000000000000000000000000000000000000600052601160045260246000fd5b60006117ac82610eff565b91507fffffffffffffffffffffffffffffffffffffffffffffffffffffffffffffffff82036117de576117dd611772565b5b600182019050919050565b60006040820190506117fe60008301856110d7565b818103602083015261181081846111c6565b90509392505050565b7f4e487b7100000000000000000000000000000000000000000000000000000000600052602260045260246000fd5b6000600282049050600182168061186057607f821691505b60208210810361187357611872611819565b5b50919050565b7f4e487b7100000000000000000000000000000000000000000000000000000000600052603260045260246000fd5b7f426f61726420646f6573206e6f742065786973742e0000000000000000000000600082015250565b60006118de601583611182565b91506118e9826118a8565b602082019050919050565b6000602082019050818103600083015261190d816118d1565b9050919050565b7f50696e204944206d7573742062652067726561746572207468616e207a65726f60008201527f2e00000000000000000000000000000000000000000000000000000000000000602082015250565b6000611970602183611182565b915061197b82611914565b604082019050919050565b6000602082019050818103600083015261199f81611963565b9050919050565b60006040820190506119bb60008301856110d7565b6119c860208301846110d7565b9392505050565b7f4f6e6c792074686520626f617264206f776e65722063616e2064656c6574652060008201527f74686520626f6172642e00000000000000000000000000000000000000000000602082015250565b6000611a2b602a83611182565b9150611a36826119cf565b604082019050919050565b60006020820190508181036000830152611a5a81611a1e565b905091905056fea26469706673582212204a65eb6da1094c38ee84690beaee95ed45fb3cac04146726fcf3e8c2d521af6864736f6c634300080d0033",
  "immutableReferences": {},
  "source": "// SPDX-License-Identifier: GPL-3.0\n\npragma solidity >=0.7.0 <0.9.0;\n\n//import \"hardhat/console.sol\";\nimport {Board, Pin} from \"./common/types.sol\";\n\n/**\n * @title BoardManager\n * @dev A smart contract for managing boards\n */\ncontract BoardManager {\n    /**\n     * @dev Event emitted when a new board is created\n     * @param boardId ID of the board created\n     * @param boardName Name of the board created\n     * @param owner Owner of the board created\n     */\n    event BoardCreated(\n        uint256 boardId,\n        string boardName,\n        address indexed owner\n    );\n\n    /**\n     * @dev Event emitted when a board is deleted\n     * @param boardId ID of the board deleted\n     */\n    event BoardDeleted(uint256 boardId);\n\n    /**\n     * @dev Event emitted when a board is edited\n     * @param boardId ID of the board edited\n     * @param newName New name of the board edited\n     */\n    event BoardEdited(uint256 boardId, string newName);\n\n    /**\n     * @dev Event emitted when a pin is saved to a board\n     * @param pinId ID of the saved pin\n     * @param boardId ID of the board the pin is saved to\n     */\n    event PinSaved(uint256 pinId, uint256 boardId);\n\n    /**\n     * @dev Mapping to store boards by their ID\n     */\n    mapping(uint256 => Board) public boards;\n\n    /**\n     * @dev Number of boards created\n     */\n    uint256 public currentBoardId;\n\n    /**\n     * @dev Create a new board\n     * @param boardName Name of the board to create\n     * Requirements:\n     * - boardName cannot be an empty string\n     */\n    function createBoard(string memory boardName) public returns (uint256) {\n        require(bytes(boardName).length != 0, \"Board name cannot be empty.\");\n        currentBoardId++;\n        uint256[] memory pins;\n        Board memory board = Board(currentBoardId, boardName, msg.sender, pins);\n        boards[currentBoardId] = board;\n        emit BoardCreated(currentBoardId, boardName, msg.sender);\n        return currentBoardId;\n    }\n\n    /**\n     * @dev Edit board information\n     * @param boardId ID of the board to edit\n     * @param newName New name for the board\n     * Requirements:\n     * - Only the board owner can edit the board\n     * - Board with the given ID must exist\n     */\n    function editBoard(uint256 boardId, string memory newName) public {\n        require(\n            msg.sender == boards[boardId].owner,\n            \"Only the board owner can edit the board.\"\n        );\n        require(bytes(newName).length != 0, \"New board name cannot be empty.\");\n\n        boards[boardId].name = newName;\n    }\n\n    /**\n     * @dev Delete an existing board\n     * @param boardId ID of the board to delete\n     * Requirements:\n     * - Only the board owner can delete the board\n     */\n    function deleteBoard(uint256 boardId) public {\n        require(boardId <= currentBoardId, \"Board does not exist.\");\n        require(\n            msg.sender == boards[boardId].owner,\n            \"Only the board owner can delete the board.\"\n        );\n        emit BoardDeleted(boardId);\n        delete boards[boardId];\n    }\n\n    /**\n     * @dev Get board information by its ID\n     * @param boardId ID of the board to get\n     * @return Board struct containing board information\n     * Requirements:\n     * - Board with the given ID must exist\n     */\n    function getBoardById(uint256 boardId) public view returns (Board memory) {\n        require(boardId <= currentBoardId, \"Board does not exist.\");\n        require(boards[boardId].owner != address(0), \"Board does not exist.\");\n        return boards[boardId];\n    }\n\n    /**\n     * @dev Get boards owned by a specific address\n     * @param owner Address of the board owner\n     * @return Board[] array containing the boards owned by the specified address\n     */\n    function getBoardsByOwner(\n        address owner\n    ) public view returns (Board[] memory) {\n        uint256 count = 0;\n\n        // Count the number of boards owned by the specified address\n        for (uint256 i = 1; i <= currentBoardId; i++) {\n            if (boards[i].owner == owner) {\n                count++;\n            }\n        }\n\n        // Create an array with the count of boards\n        Board[] memory ownerBoards = new Board[](count);\n        uint256 index = 0;\n\n        // Retrieve the boards owned by the specified address\n        for (uint256 i = 1; i <= currentBoardId; i++) {\n            if (boards[i].owner == owner) {\n                ownerBoards[index] = boards[i];\n                index++;\n            }\n        }\n\n        // Resize the ownerBoards array to remove any unused elements\n        assembly {\n            mstore(ownerBoards, index)\n        }\n\n        return ownerBoards;\n    }\n\n    /**\n     * @dev Save a new pin to a board\n     * @param boardId ID of the board to save the pin to\n     * @param pinId ID of the pin to save\n     * Requirements:\n     * - Board with the given ID must exist\n     * - Pin ID must be unique within the board\n     */\n    function savePinToBoard(uint256 boardId, uint256 pinId) public {\n        require(boardId <= currentBoardId, \"Board does not exist.\");\n\n        Board storage board = boards[boardId];\n        require(pinId > 0, \"Pin ID must be greater than zero.\");\n\n        board.pins.push(pinId);\n\n        emit PinSaved(pinId, boardId);\n    }\n}\n",
  "sourcePath": "/Users/lisapolena/Documents/Master_04/Thesis/Prototyp/betterPinterest/src/contracts/boardManager.sol",
  "compiler": {
    "name": "solc",
    "version": "0.8.13+commit.abaa5c0e.Emscripten.clang"
  },
  "schemaVersion": "3.4.14",
  "updatedAt": "2023-06-05T14:09:47.933Z",
  "devdoc": {
    "details": "A smart contract for managing boards",
    "events": {
      "BoardCreated(uint256,string,address)": {
        "details": "Event emitted when a new board is created",
        "params": {
          "boardId": "ID of the board created",
          "boardName": "Name of the board created",
          "owner": "Owner of the board created"
        }
      },
      "BoardDeleted(uint256)": {
        "details": "Event emitted when a board is deleted",
        "params": {
          "boardId": "ID of the board deleted"
        }
      },
      "BoardEdited(uint256,string)": {
        "details": "Event emitted when a board is edited",
        "params": {
          "boardId": "ID of the board edited",
          "newName": "New name of the board edited"
        }
      },
      "PinSaved(uint256,uint256)": {
        "details": "Event emitted when a pin is saved to a board",
        "params": {
          "boardId": "ID of the board the pin is saved to",
          "pinId": "ID of the saved pin"
        }
      }
    },
    "kind": "dev",
    "methods": {
      "createBoard(string)": {
        "details": "Create a new board",
        "params": {
          "boardName": "Name of the board to create Requirements: - boardName cannot be an empty string"
        }
      },
      "deleteBoard(uint256)": {
        "details": "Delete an existing board",
        "params": {
          "boardId": "ID of the board to delete Requirements: - Only the board owner can delete the board"
        }
      },
      "editBoard(uint256,string)": {
        "details": "Edit board information",
        "params": {
          "boardId": "ID of the board to edit",
          "newName": "New name for the board Requirements: - Only the board owner can edit the board - Board with the given ID must exist"
        }
      },
      "getBoardById(uint256)": {
        "details": "Get board information by its ID",
        "params": {
          "boardId": "ID of the board to get"
        },
        "returns": {
          "_0": "Board struct containing board information Requirements: - Board with the given ID must exist"
        }
      },
      "getBoardsByOwner(address)": {
        "details": "Get boards owned by a specific address",
        "params": {
          "owner": "Address of the board owner"
        },
        "returns": {
          "_0": "Board[] array containing the boards owned by the specified address"
        }
      },
      "savePinToBoard(uint256,uint256)": {
        "details": "Save a new pin to a board",
        "params": {
          "boardId": "ID of the board to save the pin to",
          "pinId": "ID of the pin to save Requirements: - Board with the given ID must exist - Pin ID must be unique within the board"
        }
      }
    },
    "stateVariables": {
      "boards": {
        "details": "Mapping to store boards by their ID"
      },
      "currentBoardId": {
        "details": "Number of boards created"
      }
    },
    "title": "BoardManager",
    "version": 1
  },
  "userdoc": {
    "kind": "user",
    "methods": {},
    "version": 1
  }
}