{
  "contractName": "BoardManager",
  "abi": [
    {
      "anonymous": false,
      "inputs": [
        {
          "indexed": false,
          "internalType": "uint256",
          "name": "boardId",
          "type": "uint256"
        },
        {
          "indexed": false,
          "internalType": "string",
          "name": "boardName",
          "type": "string"
        },
        {
          "indexed": true,
          "internalType": "address",
          "name": "owner",
          "type": "address"
        }
      ],
      "name": "BoardCreated",
      "type": "event"
    },
    {
      "anonymous": false,
      "inputs": [
        {
          "indexed": false,
          "internalType": "uint256",
          "name": "boardId",
          "type": "uint256"
        }
      ],
      "name": "BoardDeleted",
      "type": "event"
    },
    {
      "anonymous": false,
      "inputs": [
        {
          "indexed": false,
          "internalType": "uint256",
          "name": "boardId",
          "type": "uint256"
        },
        {
          "indexed": false,
          "internalType": "string",
          "name": "newName",
          "type": "string"
        }
      ],
      "name": "BoardEdited",
      "type": "event"
    },
    {
      "anonymous": false,
      "inputs": [
        {
          "indexed": false,
          "internalType": "uint256",
          "name": "pinId",
          "type": "uint256"
        },
        {
          "indexed": false,
          "internalType": "string",
          "name": "title",
          "type": "string"
        },
        {
          "indexed": false,
          "internalType": "string",
          "name": "description",
          "type": "string"
        },
        {
          "indexed": false,
          "internalType": "string",
          "name": "imageHash",
          "type": "string"
        },
        {
          "indexed": false,
          "internalType": "uint256",
          "name": "boardId",
          "type": "uint256"
        },
        {
          "indexed": false,
          "internalType": "string",
          "name": "owner",
          "type": "string"
        }
      ],
      "name": "PinSaved",
      "type": "event"
    },
    {
      "anonymous": false,
      "inputs": [
        {
          "indexed": false,
          "internalType": "uint256",
          "name": "pinId",
          "type": "uint256"
        },
        {
          "indexed": false,
          "internalType": "uint256",
          "name": "boardId",
          "type": "uint256"
        }
      ],
      "name": "SavedPinDeleted",
      "type": "event"
    },
    {
      "anonymous": false,
      "inputs": [
        {
          "indexed": false,
          "internalType": "uint256",
          "name": "pinId",
          "type": "uint256"
        },
        {
          "indexed": false,
          "internalType": "uint256",
          "name": "boardId",
          "type": "uint256"
        }
      ],
      "name": "SavedPinEdited",
      "type": "event"
    },
    {
      "inputs": [
        {
          "internalType": "uint256",
          "name": "",
          "type": "uint256"
        }
      ],
      "name": "boards",
      "outputs": [
        {
          "internalType": "uint256",
          "name": "id",
          "type": "uint256"
        },
        {
          "internalType": "string",
          "name": "name",
          "type": "string"
        },
        {
          "internalType": "address",
          "name": "owner",
          "type": "address"
        }
      ],
      "stateMutability": "view",
      "type": "function"
    },
    {
      "inputs": [],
      "name": "currentBoardId",
      "outputs": [
        {
          "internalType": "uint256",
          "name": "",
          "type": "uint256"
        }
      ],
      "stateMutability": "view",
      "type": "function"
    },
    {
      "inputs": [
        {
          "internalType": "string",
          "name": "boardName",
          "type": "string"
        }
      ],
      "name": "createBoard",
      "outputs": [
        {
          "internalType": "uint256",
          "name": "",
          "type": "uint256"
        }
      ],
      "stateMutability": "nonpayable",
      "type": "function"
    },
    {
      "inputs": [
        {
          "internalType": "uint256",
          "name": "boardId",
          "type": "uint256"
        },
        {
          "internalType": "string",
          "name": "newName",
          "type": "string"
        }
      ],
      "name": "editBoard",
      "outputs": [],
      "stateMutability": "nonpayable",
      "type": "function"
    },
    {
      "inputs": [
        {
          "internalType": "uint256",
          "name": "boardId",
          "type": "uint256"
        }
      ],
      "name": "deleteBoard",
      "outputs": [],
      "stateMutability": "nonpayable",
      "type": "function"
    },
    {
      "inputs": [
        {
          "internalType": "uint256",
          "name": "boardId",
          "type": "uint256"
        }
      ],
      "name": "getBoardById",
      "outputs": [
        {
          "components": [
            {
              "internalType": "uint256",
              "name": "id",
              "type": "uint256"
            },
            {
              "internalType": "string",
              "name": "name",
              "type": "string"
            },
            {
              "internalType": "address",
              "name": "owner",
              "type": "address"
            },
            {
              "internalType": "uint256[]",
              "name": "pins",
              "type": "uint256[]"
            }
          ],
          "internalType": "struct Board",
          "name": "",
          "type": "tuple"
        }
      ],
      "stateMutability": "view",
      "type": "function"
    },
    {
      "inputs": [
        {
          "internalType": "address",
          "name": "owner",
          "type": "address"
        }
      ],
      "name": "getBoardsByOwner",
      "outputs": [
        {
          "components": [
            {
              "internalType": "uint256",
              "name": "id",
              "type": "uint256"
            },
            {
              "internalType": "string",
              "name": "name",
              "type": "string"
            },
            {
              "internalType": "address",
              "name": "owner",
              "type": "address"
            },
            {
              "internalType": "uint256[]",
              "name": "pins",
              "type": "uint256[]"
            }
          ],
          "internalType": "struct Board[]",
          "name": "",
          "type": "tuple[]"
        }
      ],
      "stateMutability": "view",
      "type": "function"
    },
    {
      "inputs": [
        {
          "internalType": "uint256",
          "name": "boardId",
          "type": "uint256"
        },
        {
          "internalType": "uint256",
          "name": "pinId",
          "type": "uint256"
        },
        {
          "internalType": "string",
          "name": "pinTitle",
          "type": "string"
        },
        {
          "internalType": "string",
          "name": "pinDescription",
          "type": "string"
        },
        {
          "internalType": "string",
          "name": "pinImageHash",
          "type": "string"
        },
        {
          "internalType": "string",
          "name": "pinOwner",
          "type": "string"
        }
      ],
      "name": "savePinToBoard",
      "outputs": [],
      "stateMutability": "nonpayable",
      "type": "function"
    },
    {
      "inputs": [
        {
          "internalType": "uint256",
          "name": "pinId",
          "type": "uint256"
        },
        {
          "internalType": "uint256",
          "name": "boardId",
          "type": "uint256"
        },
        {
          "internalType": "uint256",
          "name": "newBoardId",
          "type": "uint256"
        }
      ],
      "name": "editSavedPin",
      "outputs": [],
      "stateMutability": "nonpayable",
      "type": "function"
    },
    {
      "inputs": [
        {
          "internalType": "uint256",
          "name": "pinId",
          "type": "uint256"
        },
        {
          "internalType": "uint256",
          "name": "boardId",
          "type": "uint256"
        }
      ],
      "name": "deleteSavedPin",
      "outputs": [],
      "stateMutability": "nonpayable",
      "type": "function"
    }
  ],
  "bytecode": "0x608060405234801561001057600080fd5b5061223b806100206000396000f3fe608060405234801561001057600080fd5b506004361061009e5760003560e01c80639a7083f9116100665780639a7083f914610145578063a778b81a14610177578063af2d715614610193578063f47810a1146101c3578063fb72d200146101df5761009e565b806326d51258146100a357806333942a48146100bf5780636a211e87146100dd57806387159746146100f95780638e1c99da14610129575b600080fd5b6100bd60048036038101906100b891906114ab565b61020f565b005b6100c7610324565b6040516100d49190611516565b60405180910390f35b6100f760048036038101906100f29190611531565b61032a565b005b610113600480360381019061010e9190611584565b610559565b6040516101209190611516565b60405180910390f35b610143600480360381019061013e91906115cd565b6106f6565b005b61015f600480360381019061015a91906116ca565b610809565b60405161016e939291906117c0565b60405180910390f35b610191600480360381019061018c91906117fe565b6108db565b005b6101ad60048036038101906101a8919061186a565b610a3f565b6040516101ba9190611ada565b60405180910390f35b6101dd60048036038101906101d891906116ca565b610d64565b005b6101f960048036038101906101f491906116ca565b610eea565b6040516102069190611b66565b60405180910390f35b60008083815260200190815260200160002060020160009054906101000a900473ffffffffffffffffffffffffffffffffffffffff1673ffffffffffffffffffffffffffffffffffffffff163373ffffffffffffffffffffffffffffffffffffffff16146102b2576040517f08c379a00000000000000000000000000000000000000000000000000000000081526004016102a990611bfa565b60405180910390fd5b60008151036102f6576040517f08c379a00000000000000000000000000000000000000000000000000000000081526004016102ed90611c66565b60405180910390fd5b80600080848152602001908152602001600020600101908051906020019061031f92919061118c565b505050565b60015481565b60015481111561036f576040517f08c379a000000000000000000000000000000000000000000000000000000000815260040161036690611cd2565b60405180910390fd5b6001548211156103b4576040517f08c379a00000000000000000000000000000000000000000000000000000000081526004016103ab90611d3e565b60405180910390fd5b600080600084815260200190815260200160002090506000806000848152602001908152602001600020905060008511610423576040517f08c379a000000000000000000000000000000000000000000000000000000000815260040161041a90611dd0565b60405180910390fd5b600082600301905060005b81805490508110156104ec578682828154811061044e5761044d611df0565b5b9060005260206000200154036104d95781600183805490506104709190611e4e565b8154811061048157610480611df0565b5b906000526020600020015482828154811061049f5761049e611df0565b5b9060005260206000200181905550818054806104be576104bd611e82565b5b600190038181906000526020600020016000905590556104ec565b80806104e490611eb1565b91505061042e565b50816003018690806001815401808255809150506001900390600052602060002001600090919091909150557f04475d7e28f4cdb7ac10e432ee2c6c6ca8af04441f239b8b43780f259566af118685604051610549929190611ef9565b60405180910390a1505050505050565b60008082510361059e576040517f08c379a000000000000000000000000000000000000000000000000000000000815260040161059590611f6e565b60405180910390fd5b600160008154809291906105b190611eb1565b919050555060606000604051806080016040528060015481526020018581526020013373ffffffffffffffffffffffffffffffffffffffff16815260200183815250905080600080600154815260200190815260200160002060008201518160000155602082015181600101908051906020019061063092919061118c565b5060408201518160020160006101000a81548173ffffffffffffffffffffffffffffffffffffffff021916908373ffffffffffffffffffffffffffffffffffffffff1602179055506060820151816003019080519060200190610694929190611212565b509050503373ffffffffffffffffffffffffffffffffffffffff167fac364e15813c225ec404ce90e1d473c41abc7b9bd06ce024a06988906fc7668b600154866040516106e2929190611f8e565b60405180910390a260015492505050919050565b60015486111561073b576040517f08c379a00000000000000000000000000000000000000000000000000000000081526004016107329061200a565b60405180910390fd5b6000851161077e576040517f08c379a000000000000000000000000000000000000000000000000000000000815260040161077590611dd0565b60405180910390fd5b60008060008881526020019081526020016000209050806003018690806001815401808255809150506001900390600052602060002001600090919091909150557f0422ecaba94a999e4f0827685d90258b8a9f42f8e41c41ab02df745cc08f6709868686868b876040516107f89695949392919061202a565b60405180910390a150505050505050565b6000602052806000526040600020600091509050806000015490806001018054610832906120d6565b80601f016020809104026020016040519081016040528092919081815260200182805461085e906120d6565b80156108ab5780601f10610880576101008083540402835291602001916108ab565b820191906000526020600020905b81548152906001019060200180831161088e57829003601f168201915b5050505050908060020160009054906101000a900473ffffffffffffffffffffffffffffffffffffffff16905083565b600154811115610920576040517f08c379a00000000000000000000000000000000000000000000000000000000081526004016109179061200a565b60405180910390fd5b60008060008381526020019081526020016000209050600081600301905060005b81805490508110156109ff578482828154811061096157610960611df0565b5b9060005260206000200154036109ec5781600183805490506109839190611e4e565b8154811061099457610993611df0565b5b90600052602060002001548282815481106109b2576109b1611df0565b5b9060005260206000200181905550818054806109d1576109d0611e82565b5b600190038181906000526020600020016000905590556109ff565b80806109f790611eb1565b915050610941565b507f50aa957e57c079bfd9bc0b2ce096427029f577f3c2e8bc010485679d09bd279e8484604051610a31929190611ef9565b60405180910390a150505050565b6060600080600190505b6001548111610adc578373ffffffffffffffffffffffffffffffffffffffff1660008083815260200190815260200160002060020160009054906101000a900473ffffffffffffffffffffffffffffffffffffffff1673ffffffffffffffffffffffffffffffffffffffff1603610ac9578180610ac590611eb1565b9250505b8080610ad490611eb1565b915050610a49565b5060008167ffffffffffffffff811115610af957610af8611380565b5b604051908082528060200260200182016040528015610b3257816020015b610b1f61125f565b815260200190600190039081610b175790505b509050600080600190505b6001548111610d55578573ffffffffffffffffffffffffffffffffffffffff1660008083815260200190815260200160002060020160009054906101000a900473ffffffffffffffffffffffffffffffffffffffff1673ffffffffffffffffffffffffffffffffffffffff1603610d425760008082815260200190815260200160002060405180608001604052908160008201548152602001600182018054610be5906120d6565b80601f0160208091040260200160405190810160405280929190818152602001828054610c11906120d6565b8015610c5e5780601f10610c3357610100808354040283529160200191610c5e565b820191906000526020600020905b815481529060010190602001808311610c4157829003601f168201915b505050505081526020016002820160009054906101000a900473ffffffffffffffffffffffffffffffffffffffff1673ffffffffffffffffffffffffffffffffffffffff1673ffffffffffffffffffffffffffffffffffffffff16815260200160038201805480602002602001604051908101604052809291908181526020018280548015610d0c57602002820191906000526020600020905b815481526020019060010190808311610cf8575b505050505081525050838381518110610d2857610d27611df0565b5b60200260200101819052508180610d3e90611eb1565b9250505b8080610d4d90611eb1565b915050610b3d565b50808252819350505050919050565b600154811115610da9576040517f08c379a0000000000000000000000000000000000000000000000000000000008152600401610da09061200a565b60405180910390fd5b60008082815260200190815260200160002060020160009054906101000a900473ffffffffffffffffffffffffffffffffffffffff1673ffffffffffffffffffffffffffffffffffffffff163373ffffffffffffffffffffffffffffffffffffffff1614610e4c576040517f08c379a0000000000000000000000000000000000000000000000000000000008152600401610e4390612179565b60405180910390fd5b7f4e8a750abb5bc4433f76ccc65ec77d14d55174b068aa54a2d68383fd76601cdb81604051610e7b9190611516565b60405180910390a1600080828152602001908152602001600020600080820160009055600182016000610eae919061129d565b6002820160006101000a81549073ffffffffffffffffffffffffffffffffffffffff0219169055600382016000610ee591906112dd565b505050565b610ef261125f565b60008203610f35576040517f08c379a0000000000000000000000000000000000000000000000000000000008152600401610f2c906121e5565b60405180910390fd5b600154821115610f7a576040517f08c379a0000000000000000000000000000000000000000000000000000000008152600401610f719061200a565b60405180910390fd5b600073ffffffffffffffffffffffffffffffffffffffff1660008084815260200190815260200160002060020160009054906101000a900473ffffffffffffffffffffffffffffffffffffffff1673ffffffffffffffffffffffffffffffffffffffff160361101e576040517f08c379a00000000000000000000000000000000000000000000000000000000081526004016110159061200a565b60405180910390fd5b60008083815260200190815260200160002060405180608001604052908160008201548152602001600182018054611055906120d6565b80601f0160208091040260200160405190810160405280929190818152602001828054611081906120d6565b80156110ce5780601f106110a3576101008083540402835291602001916110ce565b820191906000526020600020905b8154815290600101906020018083116110b157829003601f168201915b505050505081526020016002820160009054906101000a900473ffffffffffffffffffffffffffffffffffffffff1673ffffffffffffffffffffffffffffffffffffffff1673ffffffffffffffffffffffffffffffffffffffff1681526020016003820180548060200260200160405190810160405280929190818152602001828054801561117c57602002820191906000526020600020905b815481526020019060010190808311611168575b5050505050815250509050919050565b828054611198906120d6565b90600052602060002090601f0160209004810192826111ba5760008555611201565b82601f106111d357805160ff1916838001178555611201565b82800160010185558215611201579182015b828111156112005782518255916020019190600101906111e5565b5b50905061120e91906112fe565b5090565b82805482825590600052602060002090810192821561124e579160200282015b8281111561124d578251825591602001919060010190611232565b5b50905061125b91906112fe565b5090565b60405180608001604052806000815260200160608152602001600073ffffffffffffffffffffffffffffffffffffffff168152602001606081525090565b5080546112a9906120d6565b6000825580601f106112bb57506112da565b601f0160209004906000526020600020908101906112d991906112fe565b5b50565b50805460008255906000526020600020908101906112fb91906112fe565b50565b5b808211156113175760008160009055506001016112ff565b5090565b6000604051905090565b600080fd5b600080fd5b6000819050919050565b6113428161132f565b811461134d57600080fd5b50565b60008135905061135f81611339565b92915050565b600080fd5b600080fd5b6000601f19601f8301169050919050565b7f4e487b7100000000000000000000000000000000000000000000000000000000600052604160045260246000fd5b6113b88261136f565b810181811067ffffffffffffffff821117156113d7576113d6611380565b5b80604052505050565b60006113ea61131b565b90506113f682826113af565b919050565b600067ffffffffffffffff82111561141657611415611380565b5b61141f8261136f565b9050602081019050919050565b82818337600083830152505050565b600061144e611449846113fb565b6113e0565b90508281526020810184848401111561146a5761146961136a565b5b61147584828561142c565b509392505050565b600082601f83011261149257611491611365565b5b81356114a284826020860161143b565b91505092915050565b600080604083850312156114c2576114c1611325565b5b60006114d085828601611350565b925050602083013567ffffffffffffffff8111156114f1576114f061132a565b5b6114fd8582860161147d565b9150509250929050565b6115108161132f565b82525050565b600060208201905061152b6000830184611507565b92915050565b60008060006060848603121561154a57611549611325565b5b600061155886828701611350565b935050602061156986828701611350565b925050604061157a86828701611350565b9150509250925092565b60006020828403121561159a57611599611325565b5b600082013567ffffffffffffffff8111156115b8576115b761132a565b5b6115c48482850161147d565b91505092915050565b60008060008060008060c087890312156115ea576115e9611325565b5b60006115f889828a01611350565b965050602061160989828a01611350565b955050604087013567ffffffffffffffff81111561162a5761162961132a565b5b61163689828a0161147d565b945050606087013567ffffffffffffffff8111156116575761165661132a565b5b61166389828a0161147d565b935050608087013567ffffffffffffffff8111156116845761168361132a565b5b61169089828a0161147d565b92505060a087013567ffffffffffffffff8111156116b1576116b061132a565b5b6116bd89828a0161147d565b9150509295509295509295565b6000602082840312156116e0576116df611325565b5b60006116ee84828501611350565b91505092915050565b600081519050919050565b600082825260208201905092915050565b60005b83811015611731578082015181840152602081019050611716565b83811115611740576000848401525b50505050565b6000611751826116f7565b61175b8185611702565b935061176b818560208601611713565b6117748161136f565b840191505092915050565b600073ffffffffffffffffffffffffffffffffffffffff82169050919050565b60006117aa8261177f565b9050919050565b6117ba8161179f565b82525050565b60006060820190506117d56000830186611507565b81810360208301526117e78185611746565b90506117f660408301846117b1565b949350505050565b6000806040838503121561181557611814611325565b5b600061182385828601611350565b925050602061183485828601611350565b9150509250929050565b6118478161179f565b811461185257600080fd5b50565b6000813590506118648161183e565b92915050565b6000602082840312156118805761187f611325565b5b600061188e84828501611855565b91505092915050565b600081519050919050565b600082825260208201905092915050565b6000819050602082019050919050565b6118cc8161132f565b82525050565b600082825260208201905092915050565b60006118ee826116f7565b6118f881856118d2565b9350611908818560208601611713565b6119118161136f565b840191505092915050565b6119258161179f565b82525050565b600081519050919050565b600082825260208201905092915050565b6000819050602082019050919050565b600061196383836118c3565b60208301905092915050565b6000602082019050919050565b60006119878261192b565b6119918185611936565b935061199c83611947565b8060005b838110156119cd5781516119b48882611957565b97506119bf8361196f565b9250506001810190506119a0565b5085935050505092915050565b60006080830160008301516119f260008601826118c3565b5060208301518482036020860152611a0a82826118e3565b9150506040830151611a1f604086018261191c565b5060608301518482036060860152611a37828261197c565b9150508091505092915050565b6000611a5083836119da565b905092915050565b6000602082019050919050565b6000611a7082611897565b611a7a81856118a2565b935083602082028501611a8c856118b3565b8060005b85811015611ac85784840389528151611aa98582611a44565b9450611ab483611a58565b925060208a01995050600181019050611a90565b50829750879550505050505092915050565b60006020820190508181036000830152611af48184611a65565b905092915050565b6000608083016000830151611b1460008601826118c3565b5060208301518482036020860152611b2c82826118e3565b9150506040830151611b41604086018261191c565b5060608301518482036060860152611b59828261197c565b9150508091505092915050565b60006020820190508181036000830152611b808184611afc565b905092915050565b7f4f6e6c792074686520626f617264206f776e65722063616e206564697420746860008201527f6520626f6172642e000000000000000000000000000000000000000000000000602082015250565b6000611be4602883611702565b9150611bef82611b88565b604082019050919050565b60006020820190508181036000830152611c1381611bd7565b9050919050565b7f4e657720626f617264206e616d652063616e6e6f7420626520656d7074792e00600082015250565b6000611c50601f83611702565b9150611c5b82611c1a565b602082019050919050565b60006020820190508181036000830152611c7f81611c43565b9050919050565b7f4e657720426f61726420646f6573206e6f742065786973742e00000000000000600082015250565b6000611cbc601983611702565b9150611cc782611c86565b602082019050919050565b60006020820190508181036000830152611ceb81611caf565b9050919050565b7f4f6c6420426f61726420646f6573206e6f742065786973742e00000000000000600082015250565b6000611d28601983611702565b9150611d3382611cf2565b602082019050919050565b60006020820190508181036000830152611d5781611d1b565b9050919050565b7f50696e204944206d7573742062652067726561746572207468616e207a65726f60008201527f2e00000000000000000000000000000000000000000000000000000000000000602082015250565b6000611dba602183611702565b9150611dc582611d5e565b604082019050919050565b60006020820190508181036000830152611de981611dad565b9050919050565b7f4e487b7100000000000000000000000000000000000000000000000000000000600052603260045260246000fd5b7f4e487b7100000000000000000000000000000000000000000000000000000000600052601160045260246000fd5b6000611e598261132f565b9150611e648361132f565b925082821015611e7757611e76611e1f565b5b828203905092915050565b7f4e487b7100000000000000000000000000000000000000000000000000000000600052603160045260246000fd5b6000611ebc8261132f565b91507fffffffffffffffffffffffffffffffffffffffffffffffffffffffffffffffff8203611eee57611eed611e1f565b5b600182019050919050565b6000604082019050611f0e6000830185611507565b611f1b6020830184611507565b9392505050565b7f426f617264206e616d652063616e6e6f7420626520656d7074792e0000000000600082015250565b6000611f58601b83611702565b9150611f6382611f22565b602082019050919050565b60006020820190508181036000830152611f8781611f4b565b9050919050565b6000604082019050611fa36000830185611507565b8181036020830152611fb58184611746565b90509392505050565b7f426f61726420646f6573206e6f742065786973742e0000000000000000000000600082015250565b6000611ff4601583611702565b9150611fff82611fbe565b602082019050919050565b6000602082019050818103600083015261202381611fe7565b9050919050565b600060c08201905061203f6000830189611507565b81810360208301526120518188611746565b905081810360408301526120658187611746565b905081810360608301526120798186611746565b90506120886080830185611507565b81810360a083015261209a8184611746565b9050979650505050505050565b7f4e487b7100000000000000000000000000000000000000000000000000000000600052602260045260246000fd5b600060028204905060018216806120ee57607f821691505b602082108103612101576121006120a7565b5b50919050565b7f4f6e6c792074686520626f617264206f776e65722063616e2064656c6574652060008201527f74686520626f6172642e00000000000000000000000000000000000000000000602082015250565b6000612163602a83611702565b915061216e82612107565b604082019050919050565b6000602082019050818103600083015261219281612156565b9050919050565b7f426f6172642049442063616e6e6f74206265207a65726f2e0000000000000000600082015250565b60006121cf601883611702565b91506121da82612199565b602082019050919050565b600060208201905081810360008301526121fe816121c2565b905091905056fea2646970667358221220e1f52eca815d56f0a11ca76780aad3d7b41fa183a0c4be9bb624aee13dd874e564736f6c634300080d0033",
  "immutableReferences": {},
  "source": "// SPDX-License-Identifier: GPL-3.0\n\npragma solidity >=0.7.0 <0.9.0;\n\n//import \"hardhat/console.sol\";\nimport {Board, Pin} from \"./common/types.sol\";\n\n/**\n * @title BoardManager\n * @dev A smart contract for managing boards\n */\ncontract BoardManager {\n    /**\n     * @dev Event emitted when a new board is created\n     * @param boardId ID of the board created\n     * @param boardName Name of the board created\n     * @param owner Owner of the board created\n     */\n    event BoardCreated(\n        uint256 boardId,\n        string boardName,\n        address indexed owner\n    );\n\n    /**\n     * @dev Event emitted when a board is deleted\n     * @param boardId ID of the board deleted\n     */\n    event BoardDeleted(uint256 boardId);\n\n    /**\n     * @dev Event emitted when a board is edited\n     * @param boardId ID of the board edited\n     * @param newName New name of the board edited\n     */\n    event BoardEdited(uint256 boardId, string newName);\n\n    /**\n     * @dev Event emitted when a pin is saved to a board\n     * @param pinId ID of the saved pin\n     * @param title Title of the pin saved\n     * @param description Description of the pin saved\n     * @param imageHash IPFS hash of the pin's image\n     * @param boardId ID of the board the pin is saved to\n     * @param owner Owner of the pin saved\n     */\n    event PinSaved(\n        uint256 pinId,\n        string title,\n        string description,\n        string imageHash,\n        uint256 boardId,\n        string owner\n    );\n\n    /**\n     * @dev Event emitted when a saved pin is edited\n     * @param pinId ID of the pin edited\n     * @param boardId ID of the new board\n     */\n    event SavedPinEdited(uint256 pinId, uint256 boardId);\n\n    /**\n     * @dev Event emitted when a saved pin is deleted\n     * @param pinId ID of the pin edited\n     * @param boardId ID of the board\n     */\n    event SavedPinDeleted(uint256 pinId, uint256 boardId);\n\n    /**\n     * @dev Mapping to store boards by their ID\n     */\n    mapping(uint256 => Board) public boards;\n\n    /**\n     * @dev Number of boards created\n     */\n    uint256 public currentBoardId;\n\n    /**\n     * @dev Create a new board\n     * @param boardName Name of the board to create\n     * Requirements:\n     * - boardName cannot be an empty string\n     */\n    function createBoard(string memory boardName) public returns (uint256) {\n        require(bytes(boardName).length != 0, \"Board name cannot be empty.\");\n        currentBoardId++;\n        uint256[] memory pins;\n        Board memory board = Board(currentBoardId, boardName, msg.sender, pins);\n        boards[currentBoardId] = board;\n        emit BoardCreated(currentBoardId, boardName, msg.sender);\n        return currentBoardId;\n    }\n\n    /**\n     * @dev Edit board information\n     * @param boardId ID of the board to edit\n     * @param newName New name for the board\n     * Requirements:\n     * - Only the board owner can edit the board\n     * - Board with the given ID must exist\n     */\n    function editBoard(uint256 boardId, string memory newName) public {\n        require(\n            msg.sender == boards[boardId].owner,\n            \"Only the board owner can edit the board.\"\n        );\n        require(bytes(newName).length != 0, \"New board name cannot be empty.\");\n\n        boards[boardId].name = newName;\n    }\n\n    /**\n     * @dev Delete an existing board\n     * @param boardId ID of the board to delete\n     * Requirements:\n     * - Only the board owner can delete the board\n     */\n    function deleteBoard(uint256 boardId) public {\n        require(boardId <= currentBoardId, \"Board does not exist.\");\n        require(\n            msg.sender == boards[boardId].owner,\n            \"Only the board owner can delete the board.\"\n        );\n        emit BoardDeleted(boardId);\n        delete boards[boardId];\n    }\n\n    /**\n     * @dev Get board information by its ID\n     * @param boardId ID of the board to get\n     * @return Board struct containing board information\n     * Requirements:\n     * - Board ID cannot be zero\n     * - Board with the given ID must exist\n     */\n    function getBoardById(uint256 boardId) public view returns (Board memory) {\n        require(boardId != 0, \"Board ID cannot be zero.\");\n        require(boardId <= currentBoardId, \"Board does not exist.\");\n        require(boards[boardId].owner != address(0), \"Board does not exist.\");\n        return boards[boardId];\n    }\n\n    /**\n     * @dev Get boards owned by a specific address\n     * @param owner Address of the board owner\n     * @return Board[] array containing the boards owned by the specified address\n     */\n    function getBoardsByOwner(\n        address owner\n    ) public view returns (Board[] memory) {\n        uint256 count = 0;\n\n        // Count the number of boards owned by the specified address\n        for (uint256 i = 1; i <= currentBoardId; i++) {\n            if (boards[i].owner == owner) {\n                count++;\n            }\n        }\n\n        // Create an array with the count of boards\n        Board[] memory ownerBoards = new Board[](count);\n        uint256 index = 0;\n\n        // Retrieve the boards owned by the specified address\n        for (uint256 i = 1; i <= currentBoardId; i++) {\n            if (boards[i].owner == owner) {\n                ownerBoards[index] = boards[i];\n                index++;\n            }\n        }\n\n        // Resize the ownerBoards array to remove any unused elements\n        assembly {\n            mstore(ownerBoards, index)\n        }\n\n        return ownerBoards;\n    }\n\n    /* @dev Save a new pin to a board\n     * @param boardId ID of the board to save the pin to\n     * @param pinId ID of the pin to save\n     * @param pinTitle Title of the pin to save\n     * @param pinDescription Description of the pin to save\n     * @param pinImageHash IPFS hash of the pin's image\n     * @param pinOwner Owner of the pin to save\n     * Requirements:\n     * - Board with the given ID must exist\n     * - Pin ID must be unique within the board\n     */\n    function savePinToBoard(\n        uint256 boardId,\n        uint256 pinId,\n        string memory pinTitle,\n        string memory pinDescription,\n        string memory pinImageHash,\n        string memory pinOwner\n    ) public {\n        require(boardId <= currentBoardId, \"Board does not exist.\");\n        require(pinId > 0, \"Pin ID must be greater than zero.\");\n\n        Board storage board = boards[boardId];\n        board.pins.push(pinId);\n\n        emit PinSaved(\n            pinId,\n            pinTitle,\n            pinDescription,\n            pinImageHash,\n            boardId,\n            pinOwner\n        );\n    }\n\n    /**\n     * @dev Edit a saved pin\n     * @param pinId ID of the pin to edit\n     * @param boardId ID of the board the pin is saved to\n     * @param newBoardId ID of the new board to save the pin to\n     * Requirements:\n     * - Board with the given ID must exist\n     * - Pin ID must be unique within the board\n     */\n    function editSavedPin(\n        uint256 pinId,\n        uint256 boardId,\n        uint256 newBoardId\n    ) public {\n        require(newBoardId <= currentBoardId, \"New Board does not exist.\");\n        require(boardId <= currentBoardId, \"Old Board does not exist.\");\n\n        Board storage oldBoard = boards[boardId];\n        Board storage newBoard = boards[newBoardId];\n        require(pinId > 0, \"Pin ID must be greater than zero.\");\n\n        // Delete pin from the old board\n        uint256[] storage oldBoardPins = oldBoard.pins;\n        for (uint256 i = 0; i < oldBoardPins.length; i++) {\n            if (oldBoardPins[i] == pinId) {\n                // Move the last element to the deleted position\n                oldBoardPins[i] = oldBoardPins[oldBoardPins.length - 1];\n                // Decrease the length of the array by 1\n                oldBoardPins.pop();\n                break;\n            }\n        }\n\n        // Save pin to the new board\n        newBoard.pins.push(pinId);\n\n        emit SavedPinEdited(pinId, newBoardId);\n    }\n\n    /**\n     * @dev Delete a saved pin\n     * @param pinId ID of the pin to delete\n     * @param boardId ID of the board the pin is saved to\n     * Requirements:\n     * - Board with the given ID must exist\n     * - Pin with the given ID must exist in the board's pins array\n     */\n    function deleteSavedPin(uint256 pinId, uint256 boardId) public {\n        require(boardId <= currentBoardId, \"Board does not exist.\");\n\n        Board storage board = boards[boardId];\n        uint256[] storage pins = board.pins;\n\n        for (uint256 i = 0; i < pins.length; i++) {\n            if (pins[i] == pinId) {\n                // Move the last element to the deleted position\n                pins[i] = pins[pins.length - 1];\n                // Decrease the length of the array by 1\n                pins.pop();\n                break;\n            }\n        }\n\n        emit SavedPinDeleted(pinId, boardId);\n    }\n}\n",
  "sourcePath": "/Users/lisapolena/Documents/Master_04/Thesis/Prototyp/betterPinterest/src/contracts/boardManager.sol",
  "compiler": {
    "name": "solc",
    "version": "0.8.13+commit.abaa5c0e.Emscripten.clang"
  },
  "schemaVersion": "3.4.14",
  "updatedAt": "2023-06-07T14:30:15.517Z",
  "devdoc": {
    "details": "A smart contract for managing boards",
    "events": {
      "BoardCreated(uint256,string,address)": {
        "details": "Event emitted when a new board is created",
        "params": {
          "boardId": "ID of the board created",
          "boardName": "Name of the board created",
          "owner": "Owner of the board created"
        }
      },
      "BoardDeleted(uint256)": {
        "details": "Event emitted when a board is deleted",
        "params": {
          "boardId": "ID of the board deleted"
        }
      },
      "BoardEdited(uint256,string)": {
        "details": "Event emitted when a board is edited",
        "params": {
          "boardId": "ID of the board edited",
          "newName": "New name of the board edited"
        }
      },
      "PinSaved(uint256,string,string,string,uint256,string)": {
        "details": "Event emitted when a pin is saved to a board",
        "params": {
          "boardId": "ID of the board the pin is saved to",
          "description": "Description of the pin saved",
          "imageHash": "IPFS hash of the pin's image",
          "owner": "Owner of the pin saved",
          "pinId": "ID of the saved pin",
          "title": "Title of the pin saved"
        }
      },
      "SavedPinDeleted(uint256,uint256)": {
        "details": "Event emitted when a saved pin is deleted",
        "params": {
          "boardId": "ID of the board",
          "pinId": "ID of the pin edited"
        }
      },
      "SavedPinEdited(uint256,uint256)": {
        "details": "Event emitted when a saved pin is edited",
        "params": {
          "boardId": "ID of the new board",
          "pinId": "ID of the pin edited"
        }
      }
    },
    "kind": "dev",
    "methods": {
      "createBoard(string)": {
        "details": "Create a new board",
        "params": {
          "boardName": "Name of the board to create Requirements: - boardName cannot be an empty string"
        }
      },
      "deleteBoard(uint256)": {
        "details": "Delete an existing board",
        "params": {
          "boardId": "ID of the board to delete Requirements: - Only the board owner can delete the board"
        }
      },
      "deleteSavedPin(uint256,uint256)": {
        "details": "Delete a saved pin",
        "params": {
          "boardId": "ID of the board the pin is saved to Requirements: - Board with the given ID must exist - Pin with the given ID must exist in the board's pins array",
          "pinId": "ID of the pin to delete"
        }
      },
      "editBoard(uint256,string)": {
        "details": "Edit board information",
        "params": {
          "boardId": "ID of the board to edit",
          "newName": "New name for the board Requirements: - Only the board owner can edit the board - Board with the given ID must exist"
        }
      },
      "editSavedPin(uint256,uint256,uint256)": {
        "details": "Edit a saved pin",
        "params": {
          "boardId": "ID of the board the pin is saved to",
          "newBoardId": "ID of the new board to save the pin to Requirements: - Board with the given ID must exist - Pin ID must be unique within the board",
          "pinId": "ID of the pin to edit"
        }
      },
      "getBoardById(uint256)": {
        "details": "Get board information by its ID",
        "params": {
          "boardId": "ID of the board to get"
        },
        "returns": {
          "_0": "Board struct containing board information Requirements: - Board ID cannot be zero - Board with the given ID must exist"
        }
      },
      "getBoardsByOwner(address)": {
        "details": "Get boards owned by a specific address",
        "params": {
          "owner": "Address of the board owner"
        },
        "returns": {
          "_0": "Board[] array containing the boards owned by the specified address"
        }
      }
    },
    "stateVariables": {
      "boards": {
        "details": "Mapping to store boards by their ID"
      },
      "currentBoardId": {
        "details": "Number of boards created"
      }
    },
    "title": "BoardManager",
    "version": 1
  },
  "userdoc": {
    "kind": "user",
    "methods": {},
    "version": 1
  }
}