{
  "contractName": "BoardManager",
  "abi": [
    {
      "anonymous": false,
      "inputs": [
        {
          "indexed": false,
          "internalType": "uint256",
          "name": "boardId",
          "type": "uint256"
        },
        {
          "indexed": false,
          "internalType": "string",
          "name": "boardName",
          "type": "string"
        },
        {
          "indexed": true,
          "internalType": "address",
          "name": "owner",
          "type": "address"
        }
      ],
      "name": "BoardCreated",
      "type": "event"
    },
    {
      "anonymous": false,
      "inputs": [
        {
          "indexed": false,
          "internalType": "uint256",
          "name": "boardId",
          "type": "uint256"
        }
      ],
      "name": "BoardDeleted",
      "type": "event"
    },
    {
      "anonymous": false,
      "inputs": [
        {
          "indexed": false,
          "internalType": "uint256",
          "name": "boardId",
          "type": "uint256"
        },
        {
          "indexed": false,
          "internalType": "string",
          "name": "newName",
          "type": "string"
        }
      ],
      "name": "BoardEdited",
      "type": "event"
    },
    {
      "anonymous": false,
      "inputs": [
        {
          "indexed": false,
          "internalType": "uint256",
          "name": "pinId",
          "type": "uint256"
        },
        {
          "indexed": false,
          "internalType": "uint256",
          "name": "boardId",
          "type": "uint256"
        }
      ],
      "name": "PinSaved",
      "type": "event"
    },
    {
      "anonymous": false,
      "inputs": [
        {
          "indexed": false,
          "internalType": "uint256",
          "name": "pinId",
          "type": "uint256"
        },
        {
          "indexed": false,
          "internalType": "uint256",
          "name": "boardId",
          "type": "uint256"
        }
      ],
      "name": "SavedPinDeleted",
      "type": "event"
    },
    {
      "anonymous": false,
      "inputs": [
        {
          "indexed": false,
          "internalType": "uint256",
          "name": "pinId",
          "type": "uint256"
        },
        {
          "indexed": false,
          "internalType": "uint256",
          "name": "boardId",
          "type": "uint256"
        }
      ],
      "name": "SavedPinEdited",
      "type": "event"
    },
    {
      "inputs": [
        {
          "internalType": "uint256",
          "name": "",
          "type": "uint256"
        }
      ],
      "name": "boards",
      "outputs": [
        {
          "internalType": "uint256",
          "name": "id",
          "type": "uint256"
        },
        {
          "internalType": "string",
          "name": "name",
          "type": "string"
        },
        {
          "internalType": "address",
          "name": "owner",
          "type": "address"
        }
      ],
      "stateMutability": "view",
      "type": "function"
    },
    {
      "inputs": [],
      "name": "currentBoardId",
      "outputs": [
        {
          "internalType": "uint256",
          "name": "",
          "type": "uint256"
        }
      ],
      "stateMutability": "view",
      "type": "function"
    },
    {
      "inputs": [
        {
          "internalType": "string",
          "name": "boardName",
          "type": "string"
        }
      ],
      "name": "createBoard",
      "outputs": [
        {
          "internalType": "uint256",
          "name": "",
          "type": "uint256"
        }
      ],
      "stateMutability": "nonpayable",
      "type": "function"
    },
    {
      "inputs": [
        {
          "internalType": "uint256",
          "name": "boardId",
          "type": "uint256"
        },
        {
          "internalType": "string",
          "name": "newName",
          "type": "string"
        }
      ],
      "name": "editBoard",
      "outputs": [],
      "stateMutability": "nonpayable",
      "type": "function"
    },
    {
      "inputs": [
        {
          "internalType": "uint256",
          "name": "boardId",
          "type": "uint256"
        }
      ],
      "name": "deleteBoard",
      "outputs": [],
      "stateMutability": "nonpayable",
      "type": "function"
    },
    {
      "inputs": [
        {
          "internalType": "uint256",
          "name": "boardId",
          "type": "uint256"
        }
      ],
      "name": "getBoardById",
      "outputs": [
        {
          "components": [
            {
              "internalType": "uint256",
              "name": "id",
              "type": "uint256"
            },
            {
              "internalType": "string",
              "name": "name",
              "type": "string"
            },
            {
              "internalType": "address",
              "name": "owner",
              "type": "address"
            },
            {
              "internalType": "uint256[]",
              "name": "pins",
              "type": "uint256[]"
            }
          ],
          "internalType": "struct Board",
          "name": "",
          "type": "tuple"
        }
      ],
      "stateMutability": "view",
      "type": "function"
    },
    {
      "inputs": [
        {
          "internalType": "address",
          "name": "owner",
          "type": "address"
        }
      ],
      "name": "getBoardsByOwner",
      "outputs": [
        {
          "components": [
            {
              "internalType": "uint256",
              "name": "id",
              "type": "uint256"
            },
            {
              "internalType": "string",
              "name": "name",
              "type": "string"
            },
            {
              "internalType": "address",
              "name": "owner",
              "type": "address"
            },
            {
              "internalType": "uint256[]",
              "name": "pins",
              "type": "uint256[]"
            }
          ],
          "internalType": "struct Board[]",
          "name": "",
          "type": "tuple[]"
        }
      ],
      "stateMutability": "view",
      "type": "function"
    },
    {
      "inputs": [
        {
          "internalType": "uint256",
          "name": "boardId",
          "type": "uint256"
        },
        {
          "internalType": "uint256",
          "name": "pinId",
          "type": "uint256"
        }
      ],
      "name": "savePinToBoard",
      "outputs": [],
      "stateMutability": "nonpayable",
      "type": "function"
    },
    {
      "inputs": [
        {
          "internalType": "uint256",
          "name": "pinId",
          "type": "uint256"
        },
        {
          "internalType": "uint256",
          "name": "boardId",
          "type": "uint256"
        },
        {
          "internalType": "uint256",
          "name": "newBoardId",
          "type": "uint256"
        }
      ],
      "name": "editSavedPin",
      "outputs": [],
      "stateMutability": "nonpayable",
      "type": "function"
    },
    {
      "inputs": [
        {
          "internalType": "uint256",
          "name": "pinId",
          "type": "uint256"
        },
        {
          "internalType": "uint256",
          "name": "boardId",
          "type": "uint256"
        }
      ],
      "name": "deleteSavedPin",
      "outputs": [],
      "stateMutability": "nonpayable",
      "type": "function"
    }
  ],
  "bytecode": "0x608060405234801561001057600080fd5b506120b5806100206000396000f3fe608060405234801561001057600080fd5b506004361061009e5760003560e01c8063a778b81a11610066578063a778b81a1461015b578063af2d715614610177578063b3d55dee146101a7578063f47810a1146101c3578063fb72d200146101df5761009e565b806326d51258146100a357806333942a48146100bf5780636a211e87146100dd57806387159746146100f95780639a7083f914610129575b600080fd5b6100bd60048036038101906100b8919061149f565b61020f565b005b6100c7610324565b6040516100d4919061150a565b60405180910390f35b6100f760048036038101906100f29190611525565b61032a565b005b610113600480360381019061010e9190611578565b610559565b604051610120919061150a565b60405180910390f35b610143600480360381019061013e91906115c1565b6106f6565b604051610152939291906116b7565b60405180910390f35b610175600480360381019061017091906116f5565b6107c8565b005b610191600480360381019061018c9190611761565b61092c565b60405161019e91906119d1565b60405180910390f35b6101c160048036038101906101bc91906116f5565b610c51565b005b6101dd60048036038101906101d891906115c1565b610d58565b005b6101f960048036038101906101f491906115c1565b610ede565b6040516102069190611a5d565b60405180910390f35b60008083815260200190815260200160002060020160009054906101000a900473ffffffffffffffffffffffffffffffffffffffff1673ffffffffffffffffffffffffffffffffffffffff163373ffffffffffffffffffffffffffffffffffffffff16146102b2576040517f08c379a00000000000000000000000000000000000000000000000000000000081526004016102a990611af1565b60405180910390fd5b60008151036102f6576040517f08c379a00000000000000000000000000000000000000000000000000000000081526004016102ed90611b5d565b60405180910390fd5b80600080848152602001908152602001600020600101908051906020019061031f929190611180565b505050565b60015481565b60015481111561036f576040517f08c379a000000000000000000000000000000000000000000000000000000000815260040161036690611bc9565b60405180910390fd5b6001548211156103b4576040517f08c379a00000000000000000000000000000000000000000000000000000000081526004016103ab90611c35565b60405180910390fd5b600080600084815260200190815260200160002090506000806000848152602001908152602001600020905060008511610423576040517f08c379a000000000000000000000000000000000000000000000000000000000815260040161041a90611cc7565b60405180910390fd5b600082600301905060005b81805490508110156104ec578682828154811061044e5761044d611ce7565b5b9060005260206000200154036104d95781600183805490506104709190611d45565b8154811061048157610480611ce7565b5b906000526020600020015482828154811061049f5761049e611ce7565b5b9060005260206000200181905550818054806104be576104bd611d79565b5b600190038181906000526020600020016000905590556104ec565b80806104e490611da8565b91505061042e565b50816003018690806001815401808255809150506001900390600052602060002001600090919091909150557f04475d7e28f4cdb7ac10e432ee2c6c6ca8af04441f239b8b43780f259566af118685604051610549929190611df0565b60405180910390a1505050505050565b60008082510361059e576040517f08c379a000000000000000000000000000000000000000000000000000000000815260040161059590611e65565b60405180910390fd5b600160008154809291906105b190611da8565b919050555060606000604051806080016040528060015481526020018581526020013373ffffffffffffffffffffffffffffffffffffffff168152602001838152509050806000806001548152602001908152602001600020600082015181600001556020820151816001019080519060200190610630929190611180565b5060408201518160020160006101000a81548173ffffffffffffffffffffffffffffffffffffffff021916908373ffffffffffffffffffffffffffffffffffffffff1602179055506060820151816003019080519060200190610694929190611206565b509050503373ffffffffffffffffffffffffffffffffffffffff167fac364e15813c225ec404ce90e1d473c41abc7b9bd06ce024a06988906fc7668b600154866040516106e2929190611e85565b60405180910390a260015492505050919050565b600060205280600052604060002060009150905080600001549080600101805461071f90611ee4565b80601f016020809104026020016040519081016040528092919081815260200182805461074b90611ee4565b80156107985780601f1061076d57610100808354040283529160200191610798565b820191906000526020600020905b81548152906001019060200180831161077b57829003601f168201915b5050505050908060020160009054906101000a900473ffffffffffffffffffffffffffffffffffffffff16905083565b60015481111561080d576040517f08c379a000000000000000000000000000000000000000000000000000000000815260040161080490611f61565b60405180910390fd5b60008060008381526020019081526020016000209050600081600301905060005b81805490508110156108ec578482828154811061084e5761084d611ce7565b5b9060005260206000200154036108d95781600183805490506108709190611d45565b8154811061088157610880611ce7565b5b906000526020600020015482828154811061089f5761089e611ce7565b5b9060005260206000200181905550818054806108be576108bd611d79565b5b600190038181906000526020600020016000905590556108ec565b80806108e490611da8565b91505061082e565b507f50aa957e57c079bfd9bc0b2ce096427029f577f3c2e8bc010485679d09bd279e848460405161091e929190611df0565b60405180910390a150505050565b6060600080600190505b60015481116109c9578373ffffffffffffffffffffffffffffffffffffffff1660008083815260200190815260200160002060020160009054906101000a900473ffffffffffffffffffffffffffffffffffffffff1673ffffffffffffffffffffffffffffffffffffffff16036109b65781806109b290611da8565b9250505b80806109c190611da8565b915050610936565b5060008167ffffffffffffffff8111156109e6576109e5611374565b5b604051908082528060200260200182016040528015610a1f57816020015b610a0c611253565b815260200190600190039081610a045790505b509050600080600190505b6001548111610c42578573ffffffffffffffffffffffffffffffffffffffff1660008083815260200190815260200160002060020160009054906101000a900473ffffffffffffffffffffffffffffffffffffffff1673ffffffffffffffffffffffffffffffffffffffff1603610c2f5760008082815260200190815260200160002060405180608001604052908160008201548152602001600182018054610ad290611ee4565b80601f0160208091040260200160405190810160405280929190818152602001828054610afe90611ee4565b8015610b4b5780601f10610b2057610100808354040283529160200191610b4b565b820191906000526020600020905b815481529060010190602001808311610b2e57829003601f168201915b505050505081526020016002820160009054906101000a900473ffffffffffffffffffffffffffffffffffffffff1673ffffffffffffffffffffffffffffffffffffffff1673ffffffffffffffffffffffffffffffffffffffff16815260200160038201805480602002602001604051908101604052809291908181526020018280548015610bf957602002820191906000526020600020905b815481526020019060010190808311610be5575b505050505081525050838381518110610c1557610c14611ce7565b5b60200260200101819052508180610c2b90611da8565b9250505b8080610c3a90611da8565b915050610a2a565b50808252819350505050919050565b600154821115610c96576040517f08c379a0000000000000000000000000000000000000000000000000000000008152600401610c8d90611f61565b60405180910390fd5b60008111610cd9576040517f08c379a0000000000000000000000000000000000000000000000000000000008152600401610cd090611cc7565b60405180910390fd5b60008060008481526020019081526020016000209050806003018290806001815401808255809150506001900390600052602060002001600090919091909150557f254924bb2e054e39fb8f465854bd69f92a4ef727ef0ebe475a3e394070d1f42b8284604051610d4b929190611df0565b60405180910390a1505050565b600154811115610d9d576040517f08c379a0000000000000000000000000000000000000000000000000000000008152600401610d9490611f61565b60405180910390fd5b60008082815260200190815260200160002060020160009054906101000a900473ffffffffffffffffffffffffffffffffffffffff1673ffffffffffffffffffffffffffffffffffffffff163373ffffffffffffffffffffffffffffffffffffffff1614610e40576040517f08c379a0000000000000000000000000000000000000000000000000000000008152600401610e3790611ff3565b60405180910390fd5b7f4e8a750abb5bc4433f76ccc65ec77d14d55174b068aa54a2d68383fd76601cdb81604051610e6f919061150a565b60405180910390a1600080828152602001908152602001600020600080820160009055600182016000610ea29190611291565b6002820160006101000a81549073ffffffffffffffffffffffffffffffffffffffff0219169055600382016000610ed991906112d1565b505050565b610ee6611253565b60008203610f29576040517f08c379a0000000000000000000000000000000000000000000000000000000008152600401610f209061205f565b60405180910390fd5b600154821115610f6e576040517f08c379a0000000000000000000000000000000000000000000000000000000008152600401610f6590611f61565b60405180910390fd5b600073ffffffffffffffffffffffffffffffffffffffff1660008084815260200190815260200160002060020160009054906101000a900473ffffffffffffffffffffffffffffffffffffffff1673ffffffffffffffffffffffffffffffffffffffff1603611012576040517f08c379a000000000000000000000000000000000000000000000000000000000815260040161100990611f61565b60405180910390fd5b6000808381526020019081526020016000206040518060800160405290816000820154815260200160018201805461104990611ee4565b80601f016020809104026020016040519081016040528092919081815260200182805461107590611ee4565b80156110c25780601f10611097576101008083540402835291602001916110c2565b820191906000526020600020905b8154815290600101906020018083116110a557829003601f168201915b505050505081526020016002820160009054906101000a900473ffffffffffffffffffffffffffffffffffffffff1673ffffffffffffffffffffffffffffffffffffffff1673ffffffffffffffffffffffffffffffffffffffff1681526020016003820180548060200260200160405190810160405280929190818152602001828054801561117057602002820191906000526020600020905b81548152602001906001019080831161115c575b5050505050815250509050919050565b82805461118c90611ee4565b90600052602060002090601f0160209004810192826111ae57600085556111f5565b82601f106111c757805160ff19168380011785556111f5565b828001600101855582156111f5579182015b828111156111f45782518255916020019190600101906111d9565b5b50905061120291906112f2565b5090565b828054828255906000526020600020908101928215611242579160200282015b82811115611241578251825591602001919060010190611226565b5b50905061124f91906112f2565b5090565b60405180608001604052806000815260200160608152602001600073ffffffffffffffffffffffffffffffffffffffff168152602001606081525090565b50805461129d90611ee4565b6000825580601f106112af57506112ce565b601f0160209004906000526020600020908101906112cd91906112f2565b5b50565b50805460008255906000526020600020908101906112ef91906112f2565b50565b5b8082111561130b5760008160009055506001016112f3565b5090565b6000604051905090565b600080fd5b600080fd5b6000819050919050565b61133681611323565b811461134157600080fd5b50565b6000813590506113538161132d565b92915050565b600080fd5b600080fd5b6000601f19601f8301169050919050565b7f4e487b7100000000000000000000000000000000000000000000000000000000600052604160045260246000fd5b6113ac82611363565b810181811067ffffffffffffffff821117156113cb576113ca611374565b5b80604052505050565b60006113de61130f565b90506113ea82826113a3565b919050565b600067ffffffffffffffff82111561140a57611409611374565b5b61141382611363565b9050602081019050919050565b82818337600083830152505050565b600061144261143d846113ef565b6113d4565b90508281526020810184848401111561145e5761145d61135e565b5b611469848285611420565b509392505050565b600082601f83011261148657611485611359565b5b813561149684826020860161142f565b91505092915050565b600080604083850312156114b6576114b5611319565b5b60006114c485828601611344565b925050602083013567ffffffffffffffff8111156114e5576114e461131e565b5b6114f185828601611471565b9150509250929050565b61150481611323565b82525050565b600060208201905061151f60008301846114fb565b92915050565b60008060006060848603121561153e5761153d611319565b5b600061154c86828701611344565b935050602061155d86828701611344565b925050604061156e86828701611344565b9150509250925092565b60006020828403121561158e5761158d611319565b5b600082013567ffffffffffffffff8111156115ac576115ab61131e565b5b6115b884828501611471565b91505092915050565b6000602082840312156115d7576115d6611319565b5b60006115e584828501611344565b91505092915050565b600081519050919050565b600082825260208201905092915050565b60005b8381101561162857808201518184015260208101905061160d565b83811115611637576000848401525b50505050565b6000611648826115ee565b61165281856115f9565b935061166281856020860161160a565b61166b81611363565b840191505092915050565b600073ffffffffffffffffffffffffffffffffffffffff82169050919050565b60006116a182611676565b9050919050565b6116b181611696565b82525050565b60006060820190506116cc60008301866114fb565b81810360208301526116de818561163d565b90506116ed60408301846116a8565b949350505050565b6000806040838503121561170c5761170b611319565b5b600061171a85828601611344565b925050602061172b85828601611344565b9150509250929050565b61173e81611696565b811461174957600080fd5b50565b60008135905061175b81611735565b92915050565b60006020828403121561177757611776611319565b5b60006117858482850161174c565b91505092915050565b600081519050919050565b600082825260208201905092915050565b6000819050602082019050919050565b6117c381611323565b82525050565b600082825260208201905092915050565b60006117e5826115ee565b6117ef81856117c9565b93506117ff81856020860161160a565b61180881611363565b840191505092915050565b61181c81611696565b82525050565b600081519050919050565b600082825260208201905092915050565b6000819050602082019050919050565b600061185a83836117ba565b60208301905092915050565b6000602082019050919050565b600061187e82611822565b611888818561182d565b93506118938361183e565b8060005b838110156118c45781516118ab888261184e565b97506118b683611866565b925050600181019050611897565b5085935050505092915050565b60006080830160008301516118e960008601826117ba565b506020830151848203602086015261190182826117da565b91505060408301516119166040860182611813565b506060830151848203606086015261192e8282611873565b9150508091505092915050565b600061194783836118d1565b905092915050565b6000602082019050919050565b60006119678261178e565b6119718185611799565b935083602082028501611983856117aa565b8060005b858110156119bf57848403895281516119a0858261193b565b94506119ab8361194f565b925060208a01995050600181019050611987565b50829750879550505050505092915050565b600060208201905081810360008301526119eb818461195c565b905092915050565b6000608083016000830151611a0b60008601826117ba565b5060208301518482036020860152611a2382826117da565b9150506040830151611a386040860182611813565b5060608301518482036060860152611a508282611873565b9150508091505092915050565b60006020820190508181036000830152611a7781846119f3565b905092915050565b7f4f6e6c792074686520626f617264206f776e65722063616e206564697420746860008201527f6520626f6172642e000000000000000000000000000000000000000000000000602082015250565b6000611adb6028836115f9565b9150611ae682611a7f565b604082019050919050565b60006020820190508181036000830152611b0a81611ace565b9050919050565b7f4e657720626f617264206e616d652063616e6e6f7420626520656d7074792e00600082015250565b6000611b47601f836115f9565b9150611b5282611b11565b602082019050919050565b60006020820190508181036000830152611b7681611b3a565b9050919050565b7f4e657720426f61726420646f6573206e6f742065786973742e00000000000000600082015250565b6000611bb36019836115f9565b9150611bbe82611b7d565b602082019050919050565b60006020820190508181036000830152611be281611ba6565b9050919050565b7f4f6c6420426f61726420646f6573206e6f742065786973742e00000000000000600082015250565b6000611c1f6019836115f9565b9150611c2a82611be9565b602082019050919050565b60006020820190508181036000830152611c4e81611c12565b9050919050565b7f50696e204944206d7573742062652067726561746572207468616e207a65726f60008201527f2e00000000000000000000000000000000000000000000000000000000000000602082015250565b6000611cb16021836115f9565b9150611cbc82611c55565b604082019050919050565b60006020820190508181036000830152611ce081611ca4565b9050919050565b7f4e487b7100000000000000000000000000000000000000000000000000000000600052603260045260246000fd5b7f4e487b7100000000000000000000000000000000000000000000000000000000600052601160045260246000fd5b6000611d5082611323565b9150611d5b83611323565b925082821015611d6e57611d6d611d16565b5b828203905092915050565b7f4e487b7100000000000000000000000000000000000000000000000000000000600052603160045260246000fd5b6000611db382611323565b91507fffffffffffffffffffffffffffffffffffffffffffffffffffffffffffffffff8203611de557611de4611d16565b5b600182019050919050565b6000604082019050611e0560008301856114fb565b611e1260208301846114fb565b9392505050565b7f426f617264206e616d652063616e6e6f7420626520656d7074792e0000000000600082015250565b6000611e4f601b836115f9565b9150611e5a82611e19565b602082019050919050565b60006020820190508181036000830152611e7e81611e42565b9050919050565b6000604082019050611e9a60008301856114fb565b8181036020830152611eac818461163d565b90509392505050565b7f4e487b7100000000000000000000000000000000000000000000000000000000600052602260045260246000fd5b60006002820490506001821680611efc57607f821691505b602082108103611f0f57611f0e611eb5565b5b50919050565b7f426f61726420646f6573206e6f742065786973742e0000000000000000000000600082015250565b6000611f4b6015836115f9565b9150611f5682611f15565b602082019050919050565b60006020820190508181036000830152611f7a81611f3e565b9050919050565b7f4f6e6c792074686520626f617264206f776e65722063616e2064656c6574652060008201527f74686520626f6172642e00000000000000000000000000000000000000000000602082015250565b6000611fdd602a836115f9565b9150611fe882611f81565b604082019050919050565b6000602082019050818103600083015261200c81611fd0565b9050919050565b7f426f6172642049442063616e6e6f74206265207a65726f2e0000000000000000600082015250565b60006120496018836115f9565b915061205482612013565b602082019050919050565b600060208201905081810360008301526120788161203c565b905091905056fea26469706673582212207654ec28ea34050e97f81dcd4c71c1285c556041a3ea929dc93671f046adc78c64736f6c634300080d0033",
  "immutableReferences": {},
  "source": "// SPDX-License-Identifier: GPL-3.0\n\npragma solidity >=0.7.0 <0.9.0;\n\n//import \"hardhat/console.sol\";\nimport {Board, Pin} from \"./common/types.sol\";\n\n/**\n * @title BoardManager\n * @dev A smart contract for managing boards\n */\ncontract BoardManager {\n    /**\n     * @dev Event emitted when a new board is created\n     * @param boardId ID of the board created\n     * @param boardName Name of the board created\n     * @param owner Owner of the board created\n     */\n    event BoardCreated(\n        uint256 boardId,\n        string boardName,\n        address indexed owner\n    );\n\n    /**\n     * @dev Event emitted when a board is deleted\n     * @param boardId ID of the board deleted\n     */\n    event BoardDeleted(uint256 boardId);\n\n    /**\n     * @dev Event emitted when a board is edited\n     * @param boardId ID of the board edited\n     * @param newName New name of the board edited\n     */\n    event BoardEdited(uint256 boardId, string newName);\n\n    /**\n     * @dev Event emitted when a pin is saved to a board\n     * @param pinId ID of the saved pin\n     * @param boardId ID of the board the pin is saved to\n     */\n    event PinSaved(uint256 pinId, uint256 boardId);\n\n    /**\n     * @dev Event emitted when a saved pin is edited\n     * @param pinId ID of the pin edited\n     * @param boardId ID of the new board\n     */\n    event SavedPinEdited(uint256 pinId, uint256 boardId);\n\n    /**\n     * @dev Event emitted when a saved pin is deleted\n     * @param pinId ID of the pin edited\n     * @param boardId ID of the board\n     */\n    event SavedPinDeleted(uint256 pinId, uint256 boardId);\n\n    /**\n     * @dev Mapping to store boards by their ID\n     */\n    mapping(uint256 => Board) public boards;\n\n    /**\n     * @dev Number of boards created\n     */\n    uint256 public currentBoardId;\n\n    /**\n     * @dev Create a new board\n     * @param boardName Name of the board to create\n     * Requirements:\n     * - boardName cannot be an empty string\n     */\n    function createBoard(string memory boardName) public returns (uint256) {\n        require(bytes(boardName).length != 0, \"Board name cannot be empty.\");\n        currentBoardId++;\n        uint256[] memory pins;\n        Board memory board = Board(currentBoardId, boardName, msg.sender, pins);\n        boards[currentBoardId] = board;\n        emit BoardCreated(currentBoardId, boardName, msg.sender);\n        return currentBoardId;\n    }\n\n    /**\n     * @dev Edit board information\n     * @param boardId ID of the board to edit\n     * @param newName New name for the board\n     * Requirements:\n     * - Only the board owner can edit the board\n     * - Board with the given ID must exist\n     */\n    function editBoard(uint256 boardId, string memory newName) public {\n        require(\n            msg.sender == boards[boardId].owner,\n            \"Only the board owner can edit the board.\"\n        );\n        require(bytes(newName).length != 0, \"New board name cannot be empty.\");\n\n        boards[boardId].name = newName;\n    }\n\n    /**\n     * @dev Delete an existing board\n     * @param boardId ID of the board to delete\n     * Requirements:\n     * - Only the board owner can delete the board\n     */\n    function deleteBoard(uint256 boardId) public {\n        require(boardId <= currentBoardId, \"Board does not exist.\");\n        require(\n            msg.sender == boards[boardId].owner,\n            \"Only the board owner can delete the board.\"\n        );\n        emit BoardDeleted(boardId);\n        delete boards[boardId];\n    }\n\n    /**\n     * @dev Get board information by its ID\n     * @param boardId ID of the board to get\n     * @return Board struct containing board information\n     * Requirements:\n     * - Board ID cannot be zero\n     * - Board with the given ID must exist\n     */\n    function getBoardById(uint256 boardId) public view returns (Board memory) {\n        require(boardId != 0, \"Board ID cannot be zero.\");\n        require(boardId <= currentBoardId, \"Board does not exist.\");\n        require(boards[boardId].owner != address(0), \"Board does not exist.\");\n        return boards[boardId];\n    }\n\n    /**\n     * @dev Get boards owned by a specific address\n     * @param owner Address of the board owner\n     * @return Board[] array containing the boards owned by the specified address\n     */\n    function getBoardsByOwner(\n        address owner\n    ) public view returns (Board[] memory) {\n        uint256 count = 0;\n\n        // Count the number of boards owned by the specified address\n        for (uint256 i = 1; i <= currentBoardId; i++) {\n            if (boards[i].owner == owner) {\n                count++;\n            }\n        }\n\n        // Create an array with the count of boards\n        Board[] memory ownerBoards = new Board[](count);\n        uint256 index = 0;\n\n        // Retrieve the boards owned by the specified address\n        for (uint256 i = 1; i <= currentBoardId; i++) {\n            if (boards[i].owner == owner) {\n                ownerBoards[index] = boards[i];\n                index++;\n            }\n        }\n\n        // Resize the ownerBoards array to remove any unused elements\n        assembly {\n            mstore(ownerBoards, index)\n        }\n\n        return ownerBoards;\n    }\n\n    /* @dev Save a new pin to a board\n     * @param boardId ID of the board to save the pin to\n     * @param pinId ID of the pin to save\n     * Requirements:\n     * - Board with the given ID must exist\n     * - Pin ID must be unique within the board\n     */\n    function savePinToBoard(uint256 boardId, uint256 pinId) public {\n        require(boardId <= currentBoardId, \"Board does not exist.\");\n        require(pinId > 0, \"Pin ID must be greater than zero.\");\n\n        Board storage board = boards[boardId];\n        board.pins.push(pinId);\n\n        emit PinSaved(pinId, boardId);\n    }\n\n    /**\n     * @dev Edit a saved pin\n     * @param pinId ID of the pin to edit\n     * @param boardId ID of the board the pin is saved to\n     * @param newBoardId ID of the new board to save the pin to\n     * Requirements:\n     * - Board with the given ID must exist\n     * - Pin ID must be unique within the board\n     */\n    function editSavedPin(\n        uint256 pinId,\n        uint256 boardId,\n        uint256 newBoardId\n    ) public {\n        require(newBoardId <= currentBoardId, \"New Board does not exist.\");\n        require(boardId <= currentBoardId, \"Old Board does not exist.\");\n\n        Board storage oldBoard = boards[boardId];\n        Board storage newBoard = boards[newBoardId];\n        require(pinId > 0, \"Pin ID must be greater than zero.\");\n\n        // Delete pin from the old board\n        uint256[] storage oldBoardPins = oldBoard.pins;\n        for (uint256 i = 0; i < oldBoardPins.length; i++) {\n            if (oldBoardPins[i] == pinId) {\n                // Move the last element to the deleted position\n                oldBoardPins[i] = oldBoardPins[oldBoardPins.length - 1];\n                // Decrease the length of the array by 1\n                oldBoardPins.pop();\n                break;\n            }\n        }\n\n        // Save pin to the new board\n        newBoard.pins.push(pinId);\n\n        emit SavedPinEdited(pinId, newBoardId);\n    }\n\n    /**\n     * @dev Delete a saved pin\n     * @param pinId ID of the pin to delete\n     * @param boardId ID of the board the pin is saved to\n     * Requirements:\n     * - Board with the given ID must exist\n     * - Pin with the given ID must exist in the board's pins array\n     */\n    function deleteSavedPin(uint256 pinId, uint256 boardId) public {\n        require(boardId <= currentBoardId, \"Board does not exist.\");\n\n        Board storage board = boards[boardId];\n        uint256[] storage pins = board.pins;\n\n        for (uint256 i = 0; i < pins.length; i++) {\n            if (pins[i] == pinId) {\n                // Move the last element to the deleted position\n                pins[i] = pins[pins.length - 1];\n                // Decrease the length of the array by 1\n                pins.pop();\n                break;\n            }\n        }\n\n        emit SavedPinDeleted(pinId, boardId);\n    }\n}\n",
  "sourcePath": "/Users/lisapolena/Documents/Master_04/Thesis/Prototyp/betterPinterest/src/contracts/boardManager.sol",
  "compiler": {
    "name": "solc",
    "version": "0.8.13+commit.abaa5c0e.Emscripten.clang"
  },
  "schemaVersion": "3.4.14",
  "updatedAt": "2023-06-06T18:51:36.244Z",
  "devdoc": {
    "details": "A smart contract for managing boards",
    "events": {
      "BoardCreated(uint256,string,address)": {
        "details": "Event emitted when a new board is created",
        "params": {
          "boardId": "ID of the board created",
          "boardName": "Name of the board created",
          "owner": "Owner of the board created"
        }
      },
      "BoardDeleted(uint256)": {
        "details": "Event emitted when a board is deleted",
        "params": {
          "boardId": "ID of the board deleted"
        }
      },
      "BoardEdited(uint256,string)": {
        "details": "Event emitted when a board is edited",
        "params": {
          "boardId": "ID of the board edited",
          "newName": "New name of the board edited"
        }
      },
      "PinSaved(uint256,uint256)": {
        "details": "Event emitted when a pin is saved to a board",
        "params": {
          "boardId": "ID of the board the pin is saved to",
          "pinId": "ID of the saved pin"
        }
      },
      "SavedPinDeleted(uint256,uint256)": {
        "details": "Event emitted when a saved pin is deleted",
        "params": {
          "boardId": "ID of the board",
          "pinId": "ID of the pin edited"
        }
      },
      "SavedPinEdited(uint256,uint256)": {
        "details": "Event emitted when a saved pin is edited",
        "params": {
          "boardId": "ID of the new board",
          "pinId": "ID of the pin edited"
        }
      }
    },
    "kind": "dev",
    "methods": {
      "createBoard(string)": {
        "details": "Create a new board",
        "params": {
          "boardName": "Name of the board to create Requirements: - boardName cannot be an empty string"
        }
      },
      "deleteBoard(uint256)": {
        "details": "Delete an existing board",
        "params": {
          "boardId": "ID of the board to delete Requirements: - Only the board owner can delete the board"
        }
      },
      "deleteSavedPin(uint256,uint256)": {
        "details": "Delete a saved pin",
        "params": {
          "boardId": "ID of the board the pin is saved to Requirements: - Board with the given ID must exist - Pin with the given ID must exist in the board's pins array",
          "pinId": "ID of the pin to delete"
        }
      },
      "editBoard(uint256,string)": {
        "details": "Edit board information",
        "params": {
          "boardId": "ID of the board to edit",
          "newName": "New name for the board Requirements: - Only the board owner can edit the board - Board with the given ID must exist"
        }
      },
      "editSavedPin(uint256,uint256,uint256)": {
        "details": "Edit a saved pin",
        "params": {
          "boardId": "ID of the board the pin is saved to",
          "newBoardId": "ID of the new board to save the pin to Requirements: - Board with the given ID must exist - Pin ID must be unique within the board",
          "pinId": "ID of the pin to edit"
        }
      },
      "getBoardById(uint256)": {
        "details": "Get board information by its ID",
        "params": {
          "boardId": "ID of the board to get"
        },
        "returns": {
          "_0": "Board struct containing board information Requirements: - Board ID cannot be zero - Board with the given ID must exist"
        }
      },
      "getBoardsByOwner(address)": {
        "details": "Get boards owned by a specific address",
        "params": {
          "owner": "Address of the board owner"
        },
        "returns": {
          "_0": "Board[] array containing the boards owned by the specified address"
        }
      }
    },
    "stateVariables": {
      "boards": {
        "details": "Mapping to store boards by their ID"
      },
      "currentBoardId": {
        "details": "Number of boards created"
      }
    },
    "title": "BoardManager",
    "version": 1
  },
  "userdoc": {
    "kind": "user",
    "methods": {},
    "version": 1
  }
}