{
  "contractName": "BoardManager",
  "abi": [
    {
      "anonymous": false,
      "inputs": [
        {
          "indexed": false,
          "internalType": "uint256",
          "name": "boardId",
          "type": "uint256"
        },
        {
          "indexed": false,
          "internalType": "string",
          "name": "boardName",
          "type": "string"
        },
        {
          "indexed": true,
          "internalType": "address",
          "name": "owner",
          "type": "address"
        }
      ],
      "name": "BoardCreated",
      "type": "event"
    },
    {
      "anonymous": false,
      "inputs": [
        {
          "indexed": false,
          "internalType": "uint256",
          "name": "boardId",
          "type": "uint256"
        }
      ],
      "name": "BoardDeleted",
      "type": "event"
    },
    {
      "anonymous": false,
      "inputs": [
        {
          "indexed": false,
          "internalType": "uint256",
          "name": "boardId",
          "type": "uint256"
        },
        {
          "indexed": false,
          "internalType": "string",
          "name": "newName",
          "type": "string"
        }
      ],
      "name": "BoardEdited",
      "type": "event"
    },
    {
      "inputs": [
        {
          "internalType": "uint256",
          "name": "",
          "type": "uint256"
        }
      ],
      "name": "boards",
      "outputs": [
        {
          "internalType": "uint256",
          "name": "id",
          "type": "uint256"
        },
        {
          "internalType": "string",
          "name": "name",
          "type": "string"
        },
        {
          "internalType": "address",
          "name": "owner",
          "type": "address"
        }
      ],
      "stateMutability": "view",
      "type": "function"
    },
    {
      "inputs": [],
      "name": "currentBoardId",
      "outputs": [
        {
          "internalType": "uint256",
          "name": "",
          "type": "uint256"
        }
      ],
      "stateMutability": "view",
      "type": "function"
    },
    {
      "inputs": [
        {
          "internalType": "string",
          "name": "boardName",
          "type": "string"
        }
      ],
      "name": "createBoard",
      "outputs": [
        {
          "internalType": "uint256",
          "name": "",
          "type": "uint256"
        }
      ],
      "stateMutability": "nonpayable",
      "type": "function"
    },
    {
      "inputs": [
        {
          "internalType": "uint256",
          "name": "boardId",
          "type": "uint256"
        }
      ],
      "name": "deleteBoard",
      "outputs": [],
      "stateMutability": "nonpayable",
      "type": "function"
    },
    {
      "inputs": [
        {
          "internalType": "uint256",
          "name": "boardId",
          "type": "uint256"
        }
      ],
      "name": "getBoardById",
      "outputs": [
        {
          "components": [
            {
              "internalType": "uint256",
              "name": "id",
              "type": "uint256"
            },
            {
              "internalType": "string",
              "name": "name",
              "type": "string"
            },
            {
              "internalType": "address",
              "name": "owner",
              "type": "address"
            },
            {
              "internalType": "uint256[]",
              "name": "pins",
              "type": "uint256[]"
            }
          ],
          "internalType": "struct Board",
          "name": "",
          "type": "tuple"
        }
      ],
      "stateMutability": "view",
      "type": "function"
    },
    {
      "inputs": [],
      "name": "getAllBoards",
      "outputs": [
        {
          "components": [
            {
              "internalType": "uint256",
              "name": "id",
              "type": "uint256"
            },
            {
              "internalType": "string",
              "name": "name",
              "type": "string"
            },
            {
              "internalType": "address",
              "name": "owner",
              "type": "address"
            },
            {
              "internalType": "uint256[]",
              "name": "pins",
              "type": "uint256[]"
            }
          ],
          "internalType": "struct Board[]",
          "name": "",
          "type": "tuple[]"
        }
      ],
      "stateMutability": "view",
      "type": "function"
    },
    {
      "inputs": [
        {
          "internalType": "uint256",
          "name": "boardId",
          "type": "uint256"
        },
        {
          "internalType": "string",
          "name": "newName",
          "type": "string"
        }
      ],
      "name": "editBoard",
      "outputs": [],
      "stateMutability": "nonpayable",
      "type": "function"
    }
  ],
  "bytecode": "0x608060405234801561001057600080fd5b506117e5806100206000396000f3fe608060405234801561001057600080fd5b506004361061007d5760003560e01c8063871597461161005b57806387159746146100da5780639a7083f91461010a578063f47810a11461013c578063fb72d200146101585761007d565b80631872cd4c1461008257806326d51258146100a057806333942a48146100bc575b600080fd5b61008a610188565b604051610097919061105b565b60405180910390f35b6100ba60048036038101906100b591906111f2565b610411565b005b6100c46105a4565b6040516100d1919061125d565b60405180910390f35b6100f460048036038101906100ef9190611278565b6105aa565b604051610101919061125d565b60405180910390f35b610124600480360381019061011f91906112c1565b610747565b60405161013393929190611347565b60405180910390f35b610156600480360381019061015191906112c1565b610819565b005b610172600480360381019061016d91906112c1565b61099f565b60405161017f91906113ef565b60405180910390f35b6060600060015467ffffffffffffffff8111156101a8576101a76110c7565b5b6040519080825280602002602001820160405280156101e157816020015b6101ce610bfe565b8152602001906001900390816101c65790505b509050600080600190505b600154811161040557600073ffffffffffffffffffffffffffffffffffffffff1660008083815260200190815260200160002060020160009054906101000a900473ffffffffffffffffffffffffffffffffffffffff1673ffffffffffffffffffffffffffffffffffffffff16146103f2576000808281526020019081526020016000206040518060800160405290816000820154815260200160018201805461029590611440565b80601f01602080910402602001604051908101604052809291908181526020018280546102c190611440565b801561030e5780601f106102e35761010080835404028352916020019161030e565b820191906000526020600020905b8154815290600101906020018083116102f157829003601f168201915b505050505081526020016002820160009054906101000a900473ffffffffffffffffffffffffffffffffffffffff1673ffffffffffffffffffffffffffffffffffffffff1673ffffffffffffffffffffffffffffffffffffffff168152602001600382018054806020026020016040519081016040528092919081815260200182805480156103bc57602002820191906000526020600020905b8154815260200190600101908083116103a8575b5050505050815250508383815181106103d8576103d7611471565b5b602002602001018190525081806103ee906114cf565b9250505b80806103fd906114cf565b9150506101ec565b50808252819250505090565b600154821115610456576040517f08c379a000000000000000000000000000000000000000000000000000000000815260040161044d90611563565b60405180910390fd5b60008083815260200190815260200160002060020160009054906101000a900473ffffffffffffffffffffffffffffffffffffffff1673ffffffffffffffffffffffffffffffffffffffff163373ffffffffffffffffffffffffffffffffffffffff16146104f9576040517f08c379a00000000000000000000000000000000000000000000000000000000081526004016104f0906115f5565b60405180910390fd5b600081510361053d576040517f08c379a000000000000000000000000000000000000000000000000000000000815260040161053490611661565b60405180910390fd5b7fa480dae974664e5c50091568dd2fbd43a987a1728f702d659b83f74a10ef67c1828260405161056e929190611681565b60405180910390a180600080848152602001908152602001600020600101908051906020019061059f929190610c3c565b505050565b60015481565b6000808251036105ef576040517f08c379a00000000000000000000000000000000000000000000000000000000081526004016105e6906116fd565b60405180910390fd5b60016000815480929190610602906114cf565b919050555060606000604051806080016040528060015481526020018581526020013373ffffffffffffffffffffffffffffffffffffffff168152602001838152509050806000806001548152602001908152602001600020600082015181600001556020820151816001019080519060200190610681929190610c3c565b5060408201518160020160006101000a81548173ffffffffffffffffffffffffffffffffffffffff021916908373ffffffffffffffffffffffffffffffffffffffff16021790555060608201518160030190805190602001906106e5929190610cc2565b509050503373ffffffffffffffffffffffffffffffffffffffff167fac364e15813c225ec404ce90e1d473c41abc7b9bd06ce024a06988906fc7668b60015486604051610733929190611681565b60405180910390a260015492505050919050565b600060205280600052604060002060009150905080600001549080600101805461077090611440565b80601f016020809104026020016040519081016040528092919081815260200182805461079c90611440565b80156107e95780601f106107be576101008083540402835291602001916107e9565b820191906000526020600020905b8154815290600101906020018083116107cc57829003601f168201915b5050505050908060020160009054906101000a900473ffffffffffffffffffffffffffffffffffffffff16905083565b60015481111561085e576040517f08c379a000000000000000000000000000000000000000000000000000000000815260040161085590611563565b60405180910390fd5b60008082815260200190815260200160002060020160009054906101000a900473ffffffffffffffffffffffffffffffffffffffff1673ffffffffffffffffffffffffffffffffffffffff163373ffffffffffffffffffffffffffffffffffffffff1614610901576040517f08c379a00000000000000000000000000000000000000000000000000000000081526004016108f89061178f565b60405180910390fd5b7f4e8a750abb5bc4433f76ccc65ec77d14d55174b068aa54a2d68383fd76601cdb81604051610930919061125d565b60405180910390a16000808281526020019081526020016000206000808201600090556001820160006109639190610d0f565b6002820160006101000a81549073ffffffffffffffffffffffffffffffffffffffff021916905560038201600061099a9190610d4f565b505050565b6109a7610bfe565b6001548211156109ec576040517f08c379a00000000000000000000000000000000000000000000000000000000081526004016109e390611563565b60405180910390fd5b600073ffffffffffffffffffffffffffffffffffffffff1660008084815260200190815260200160002060020160009054906101000a900473ffffffffffffffffffffffffffffffffffffffff1673ffffffffffffffffffffffffffffffffffffffff1603610a90576040517f08c379a0000000000000000000000000000000000000000000000000000000008152600401610a8790611563565b60405180910390fd5b60008083815260200190815260200160002060405180608001604052908160008201548152602001600182018054610ac790611440565b80601f0160208091040260200160405190810160405280929190818152602001828054610af390611440565b8015610b405780601f10610b1557610100808354040283529160200191610b40565b820191906000526020600020905b815481529060010190602001808311610b2357829003601f168201915b505050505081526020016002820160009054906101000a900473ffffffffffffffffffffffffffffffffffffffff1673ffffffffffffffffffffffffffffffffffffffff1673ffffffffffffffffffffffffffffffffffffffff16815260200160038201805480602002602001604051908101604052809291908181526020018280548015610bee57602002820191906000526020600020905b815481526020019060010190808311610bda575b5050505050815250509050919050565b60405180608001604052806000815260200160608152602001600073ffffffffffffffffffffffffffffffffffffffff168152602001606081525090565b828054610c4890611440565b90600052602060002090601f016020900481019282610c6a5760008555610cb1565b82601f10610c8357805160ff1916838001178555610cb1565b82800160010185558215610cb1579182015b82811115610cb0578251825591602001919060010190610c95565b5b509050610cbe9190610d70565b5090565b828054828255906000526020600020908101928215610cfe579160200282015b82811115610cfd578251825591602001919060010190610ce2565b5b509050610d0b9190610d70565b5090565b508054610d1b90611440565b6000825580601f10610d2d5750610d4c565b601f016020900490600052602060002090810190610d4b9190610d70565b5b50565b5080546000825590600052602060002090810190610d6d9190610d70565b50565b5b80821115610d89576000816000905550600101610d71565b5090565b600081519050919050565b600082825260208201905092915050565b6000819050602082019050919050565b6000819050919050565b610dcc81610db9565b82525050565b600081519050919050565b600082825260208201905092915050565b60005b83811015610e0c578082015181840152602081019050610df1565b83811115610e1b576000848401525b50505050565b6000601f19601f8301169050919050565b6000610e3d82610dd2565b610e478185610ddd565b9350610e57818560208601610dee565b610e6081610e21565b840191505092915050565b600073ffffffffffffffffffffffffffffffffffffffff82169050919050565b6000610e9682610e6b565b9050919050565b610ea681610e8b565b82525050565b600081519050919050565b600082825260208201905092915050565b6000819050602082019050919050565b6000610ee48383610dc3565b60208301905092915050565b6000602082019050919050565b6000610f0882610eac565b610f128185610eb7565b9350610f1d83610ec8565b8060005b83811015610f4e578151610f358882610ed8565b9750610f4083610ef0565b925050600181019050610f21565b5085935050505092915050565b6000608083016000830151610f736000860182610dc3565b5060208301518482036020860152610f8b8282610e32565b9150506040830151610fa06040860182610e9d565b5060608301518482036060860152610fb88282610efd565b9150508091505092915050565b6000610fd18383610f5b565b905092915050565b6000602082019050919050565b6000610ff182610d8d565b610ffb8185610d98565b93508360208202850161100d85610da9565b8060005b85811015611049578484038952815161102a8582610fc5565b945061103583610fd9565b925060208a01995050600181019050611011565b50829750879550505050505092915050565b600060208201905081810360008301526110758184610fe6565b905092915050565b6000604051905090565b600080fd5b600080fd5b61109a81610db9565b81146110a557600080fd5b50565b6000813590506110b781611091565b92915050565b600080fd5b600080fd5b7f4e487b7100000000000000000000000000000000000000000000000000000000600052604160045260246000fd5b6110ff82610e21565b810181811067ffffffffffffffff8211171561111e5761111d6110c7565b5b80604052505050565b600061113161107d565b905061113d82826110f6565b919050565b600067ffffffffffffffff82111561115d5761115c6110c7565b5b61116682610e21565b9050602081019050919050565b82818337600083830152505050565b600061119561119084611142565b611127565b9050828152602081018484840111156111b1576111b06110c2565b5b6111bc848285611173565b509392505050565b600082601f8301126111d9576111d86110bd565b5b81356111e9848260208601611182565b91505092915050565b6000806040838503121561120957611208611087565b5b6000611217858286016110a8565b925050602083013567ffffffffffffffff8111156112385761123761108c565b5b611244858286016111c4565b9150509250929050565b61125781610db9565b82525050565b6000602082019050611272600083018461124e565b92915050565b60006020828403121561128e5761128d611087565b5b600082013567ffffffffffffffff8111156112ac576112ab61108c565b5b6112b8848285016111c4565b91505092915050565b6000602082840312156112d7576112d6611087565b5b60006112e5848285016110a8565b91505092915050565b600082825260208201905092915050565b600061130a82610dd2565b61131481856112ee565b9350611324818560208601610dee565b61132d81610e21565b840191505092915050565b61134181610e8b565b82525050565b600060608201905061135c600083018661124e565b818103602083015261136e81856112ff565b905061137d6040830184611338565b949350505050565b600060808301600083015161139d6000860182610dc3565b50602083015184820360208601526113b58282610e32565b91505060408301516113ca6040860182610e9d565b50606083015184820360608601526113e28282610efd565b9150508091505092915050565b600060208201905081810360008301526114098184611385565b905092915050565b7f4e487b7100000000000000000000000000000000000000000000000000000000600052602260045260246000fd5b6000600282049050600182168061145857607f821691505b60208210810361146b5761146a611411565b5b50919050565b7f4e487b7100000000000000000000000000000000000000000000000000000000600052603260045260246000fd5b7f4e487b7100000000000000000000000000000000000000000000000000000000600052601160045260246000fd5b60006114da82610db9565b91507fffffffffffffffffffffffffffffffffffffffffffffffffffffffffffffffff820361150c5761150b6114a0565b5b600182019050919050565b7f426f61726420646f6573206e6f742065786973742e0000000000000000000000600082015250565b600061154d6015836112ee565b915061155882611517565b602082019050919050565b6000602082019050818103600083015261157c81611540565b9050919050565b7f4f6e6c792074686520626f617264206f776e65722063616e206564697420746860008201527f6520626f6172642e000000000000000000000000000000000000000000000000602082015250565b60006115df6028836112ee565b91506115ea82611583565b604082019050919050565b6000602082019050818103600083015261160e816115d2565b9050919050565b7f4e657720626f617264206e616d652063616e6e6f7420626520656d7074792e00600082015250565b600061164b601f836112ee565b915061165682611615565b602082019050919050565b6000602082019050818103600083015261167a8161163e565b9050919050565b6000604082019050611696600083018561124e565b81810360208301526116a881846112ff565b90509392505050565b7f426f617264206e616d652063616e6e6f7420626520656d7074792e0000000000600082015250565b60006116e7601b836112ee565b91506116f2826116b1565b602082019050919050565b60006020820190508181036000830152611716816116da565b9050919050565b7f4f6e6c792074686520626f617264206f776e65722063616e2064656c6574652060008201527f74686520626f6172642e00000000000000000000000000000000000000000000602082015250565b6000611779602a836112ee565b91506117848261171d565b604082019050919050565b600060208201905081810360008301526117a88161176c565b905091905056fea2646970667358221220ac0ff01a15a86d19bfa2245e59510453cf87d1b4a06220c0d3df3a14b07ee5cf64736f6c634300080d0033",
  "immutableReferences": {},
  "source": "// SPDX-License-Identifier: GPL-3.0\n\npragma solidity >=0.7.0 <0.9.0;\n\n//import \"hardhat/console.sol\";\nimport {Board, Pin} from \"./common/types.sol\";\n\n/**\n * @title BoardManager\n * @dev A smart contract for managing boards\n */\ncontract BoardManager {\n    /**\n     * @dev Event emitted when a new board is created\n     * @param boardId ID of the board created\n     * @param boardName Name of the board created\n     * @param owner Owner of the board created\n     */\n    event BoardCreated(\n        uint256 boardId,\n        string boardName,\n        address indexed owner\n    );\n\n    /**\n     * @dev Event emitted when a board is deleted\n     * @param boardId ID of the board deleted\n     */\n    event BoardDeleted(uint256 boardId);\n\n    /**\n     * @dev Event emitted when a board is edited\n     * @param boardId ID of the board edited\n     * @param newName New name of the board edited\n     */\n    event BoardEdited(uint256 boardId, string newName);\n\n    /**\n     * @dev Mapping to store boards by their ID\n     */\n    mapping(uint256 => Board) public boards;\n\n    /**\n     * @dev Number of boards created\n     */\n    uint256 public currentBoardId;\n\n    /**\n     * @dev Create a new board\n     * @param boardName Name of the board to create\n     * Requirements:\n     * - boardName cannot be an empty string\n     */\n    function createBoard(string memory boardName) public returns (uint256) {\n        require(bytes(boardName).length != 0, \"Board name cannot be empty.\");\n        currentBoardId++;\n        uint256[] memory pins;\n        Board memory board = Board(currentBoardId, boardName, msg.sender, pins);\n        boards[currentBoardId] = board;\n        emit BoardCreated(currentBoardId, boardName, msg.sender);\n        return currentBoardId;\n    }\n\n    /**\n     * @dev Delete an existing board\n     * @param boardId ID of the board to delete\n     * Requirements:\n     * - Only the board owner can delete the board\n     */\n    function deleteBoard(uint256 boardId) public {\n        require(boardId <= currentBoardId, \"Board does not exist.\");\n        require(\n            msg.sender == boards[boardId].owner,\n            \"Only the board owner can delete the board.\"\n        );\n        emit BoardDeleted(boardId);\n        delete boards[boardId];\n    }\n\n    /**\n     * @dev Get board information by its ID\n     * @param boardId ID of the board to get\n     * @return Board struct containing board information\n     * Requirements:\n     * - Board with the given ID must exist\n     */\n    function getBoardById(uint256 boardId) public view returns (Board memory) {\n        require(boardId <= currentBoardId, \"Board does not exist.\");\n        require(boards[boardId].owner != address(0), \"Board does not exist.\");\n        return boards[boardId];\n    }\n\n    /**\n     * @dev Get all boards\n     * @return Board[] array containing all the boards\n     */\n    function getAllBoards() public view returns (Board[] memory) {\n        Board[] memory allBoards = new Board[](currentBoardId);\n        uint index = 0;\n\n        for (uint i = 1; i <= currentBoardId; i++) {\n            if (boards[i].owner != address(0)) {\n                allBoards[index] = boards[i];\n                index++;\n            }\n        }\n\n        // Resize the allBoards array to remove any unused elements\n        assembly {\n            mstore(allBoards, index)\n        }\n\n        return allBoards;\n    }\n\n    /**\n     * @dev Edit board information\n     * @param boardId ID of the board to edit\n     * @param newName New name for the board\n     * Requirements:\n     * - Only the board owner can edit the board\n     * - Board with the given ID must exist\n     */\n    function editBoard(uint256 boardId, string memory newName) public {\n        require(boardId <= currentBoardId, \"Board does not exist.\");\n        require(\n            msg.sender == boards[boardId].owner,\n            \"Only the board owner can edit the board.\"\n        );\n        require(bytes(newName).length != 0, \"New board name cannot be empty.\");\n        emit BoardEdited(boardId, newName);\n        boards[boardId].name = newName;\n    }\n}\n",
  "sourcePath": "/Users/lisapolena/Documents/Master_04/Thesis/Prototyp/betterPinterest/src/contracts/boardManager.sol",
  "compiler": {
    "name": "solc",
    "version": "0.8.13+commit.abaa5c0e.Emscripten.clang"
  },
  "schemaVersion": "3.4.14",
  "updatedAt": "2023-06-03T13:23:27.855Z",
  "devdoc": {
    "details": "A smart contract for managing boards",
    "events": {
      "BoardCreated(uint256,string,address)": {
        "details": "Event emitted when a new board is created",
        "params": {
          "boardId": "ID of the board created",
          "boardName": "Name of the board created",
          "owner": "Owner of the board created"
        }
      },
      "BoardDeleted(uint256)": {
        "details": "Event emitted when a board is deleted",
        "params": {
          "boardId": "ID of the board deleted"
        }
      },
      "BoardEdited(uint256,string)": {
        "details": "Event emitted when a board is edited",
        "params": {
          "boardId": "ID of the board edited",
          "newName": "New name of the board edited"
        }
      }
    },
    "kind": "dev",
    "methods": {
      "createBoard(string)": {
        "details": "Create a new board",
        "params": {
          "boardName": "Name of the board to create Requirements: - boardName cannot be an empty string"
        }
      },
      "deleteBoard(uint256)": {
        "details": "Delete an existing board",
        "params": {
          "boardId": "ID of the board to delete Requirements: - Only the board owner can delete the board"
        }
      },
      "editBoard(uint256,string)": {
        "details": "Edit board information",
        "params": {
          "boardId": "ID of the board to edit",
          "newName": "New name for the board Requirements: - Only the board owner can edit the board - Board with the given ID must exist"
        }
      },
      "getAllBoards()": {
        "details": "Get all boards",
        "returns": {
          "_0": "Board[] array containing all the boards"
        }
      },
      "getBoardById(uint256)": {
        "details": "Get board information by its ID",
        "params": {
          "boardId": "ID of the board to get"
        },
        "returns": {
          "_0": "Board struct containing board information Requirements: - Board with the given ID must exist"
        }
      }
    },
    "stateVariables": {
      "boards": {
        "details": "Mapping to store boards by their ID"
      },
      "currentBoardId": {
        "details": "Number of boards created"
      }
    },
    "title": "BoardManager",
    "version": 1
  },
  "userdoc": {
    "kind": "user",
    "methods": {},
    "version": 1
  }
}