{
  "contractName": "BoardManager",
  "abi": [
    {
      "inputs": [],
      "name": "boardCount",
      "outputs": [
        {
          "internalType": "uint256",
          "name": "",
          "type": "uint256"
        }
      ],
      "stateMutability": "view",
      "type": "function"
    },
    {
      "inputs": [
        {
          "internalType": "bytes16",
          "name": "",
          "type": "bytes16"
        }
      ],
      "name": "boards",
      "outputs": [
        {
          "internalType": "bytes16",
          "name": "id",
          "type": "bytes16"
        },
        {
          "internalType": "string",
          "name": "name",
          "type": "string"
        },
        {
          "internalType": "address",
          "name": "owner",
          "type": "address"
        }
      ],
      "stateMutability": "view",
      "type": "function"
    },
    {
      "inputs": [
        {
          "internalType": "string",
          "name": "boardName",
          "type": "string"
        }
      ],
      "name": "createBoard",
      "outputs": [],
      "stateMutability": "nonpayable",
      "type": "function"
    },
    {
      "inputs": [
        {
          "internalType": "bytes16",
          "name": "boardId",
          "type": "bytes16"
        }
      ],
      "name": "deleteBoard",
      "outputs": [],
      "stateMutability": "nonpayable",
      "type": "function"
    },
    {
      "inputs": [
        {
          "internalType": "bytes16",
          "name": "boardId",
          "type": "bytes16"
        }
      ],
      "name": "getBoardById",
      "outputs": [
        {
          "components": [
            {
              "internalType": "bytes16",
              "name": "id",
              "type": "bytes16"
            },
            {
              "internalType": "string",
              "name": "name",
              "type": "string"
            },
            {
              "internalType": "address",
              "name": "owner",
              "type": "address"
            },
            {
              "internalType": "bytes16[]",
              "name": "pins",
              "type": "bytes16[]"
            }
          ],
          "internalType": "struct Board",
          "name": "",
          "type": "tuple"
        }
      ],
      "stateMutability": "view",
      "type": "function"
    }
  ],
  "bytecode": "0x608060405234801561001057600080fd5b50611488806100206000396000f3fe608060405234801561001057600080fd5b50600436106100575760003560e01c806333400cc91461005c5780633c8cb8bb1461008c57806387159746146100a857806390b1de26146100c457806398c1fbb9146100e2575b600080fd5b61007660048036038101906100719190610b0d565b610114565b6040516100839190610d3c565b60405180910390f35b6100a660048036038101906100a19190610b0d565b6103e3565b005b6100c260048036038101906100bd9190610e93565b610554565b005b6100cc61078e565b6040516100d99190610ef5565b60405180910390f35b6100fc60048036038101906100f79190610b0d565b610794565b60405161010b93929190610f78565b60405180910390f35b61011c610873565b600073ffffffffffffffffffffffffffffffffffffffff16600080846fffffffffffffffffffffffffffffffff19166fffffffffffffffffffffffffffffffff1916815260200190815260200160002060020160009054906101000a900473ffffffffffffffffffffffffffffffffffffffff1673ffffffffffffffffffffffffffffffffffffffff16036101e6576040517f08c379a00000000000000000000000000000000000000000000000000000000081526004016101dd90611002565b60405180910390fd5b600080836fffffffffffffffffffffffffffffffff19166fffffffffffffffffffffffffffffffff191681526020019081526020016000206040518060800160405290816000820160009054906101000a900460801b6fffffffffffffffffffffffffffffffff19166fffffffffffffffffffffffffffffffff1916815260200160018201805461027690611051565b80601f01602080910402602001604051908101604052809291908181526020018280546102a290611051565b80156102ef5780601f106102c4576101008083540402835291602001916102ef565b820191906000526020600020905b8154815290600101906020018083116102d257829003601f168201915b505050505081526020016002820160009054906101000a900473ffffffffffffffffffffffffffffffffffffffff1673ffffffffffffffffffffffffffffffffffffffff1673ffffffffffffffffffffffffffffffffffffffff168152602001600382018054806020026020016040519081016040528092919081815260200182805480156103d357602002820191906000526020600020906000905b82829054906101000a900460801b6fffffffffffffffffffffffffffffffff191681526020019060100190602082600f0104928301926001038202915080841161038c5790505b5050505050815250509050919050565b600080826fffffffffffffffffffffffffffffffff19166fffffffffffffffffffffffffffffffff1916815260200190815260200160002060020160009054906101000a900473ffffffffffffffffffffffffffffffffffffffff1673ffffffffffffffffffffffffffffffffffffffff163373ffffffffffffffffffffffffffffffffffffffff16146104ac576040517f08c379a00000000000000000000000000000000000000000000000000000000081526004016104a3906110f4565b60405180910390fd5b600080826fffffffffffffffffffffffffffffffff19166fffffffffffffffffffffffffffffffff19168152602001908152602001600020600080820160006101000a8154906fffffffffffffffffffffffffffffffff021916905560018201600061051891906108c4565b6002820160006101000a81549073ffffffffffffffffffffffffffffffffffffffff021916905560038201600061054f9190610904565b505050565b6000815103610598576040517f08c379a000000000000000000000000000000000000000000000000000000000815260040161058f90611160565b60405180910390fd5b606060006040516105a89061092c565b604051809103906000f0801580156105c4573d6000803e3d6000fd5b5073ffffffffffffffffffffffffffffffffffffffff16636f8dcb3d6040518163ffffffff1660e01b8152600401602060405180830381865afa15801561060f573d6000803e3d6000fd5b505050506040513d601f19601f820116820180604052508101906106339190611195565b905060006040518060800160405280836fffffffffffffffffffffffffffffffff191681526020018581526020013373ffffffffffffffffffffffffffffffffffffffff16815260200184815250905080600080846fffffffffffffffffffffffffffffffff19166fffffffffffffffffffffffffffffffff1916815260200190815260200160002060008201518160000160006101000a8154816fffffffffffffffffffffffffffffffff021916908360801c02179055506020820151816001019080519060200190610708929190610939565b5060408201518160020160006101000a81548173ffffffffffffffffffffffffffffffffffffffff021916908373ffffffffffffffffffffffffffffffffffffffff160217905550606082015181600301908051906020019061076c9291906109bf565b5090505060016000815480929190610783906111f1565b919050555050505050565b60015481565b60006020528060005260406000206000915090508060000160009054906101000a900460801b908060010180546107ca90611051565b80601f01602080910402602001604051908101604052809291908181526020018280546107f690611051565b80156108435780601f1061081857610100808354040283529160200191610843565b820191906000526020600020905b81548152906001019060200180831161082657829003601f168201915b5050505050908060020160009054906101000a900473ffffffffffffffffffffffffffffffffffffffff16905083565b604051806080016040528060006fffffffffffffffffffffffffffffffff1916815260200160608152602001600073ffffffffffffffffffffffffffffffffffffffff168152602001606081525090565b5080546108d090611051565b6000825580601f106108e25750610901565b601f0160209004906000526020600020908101906109009190610a84565b5b50565b5080546000825560010160029004906000526020600020908101906109299190610a84565b50565b6102198061123a83390190565b82805461094590611051565b90600052602060002090601f01602090048101928261096757600085556109ae565b82601f1061098057805160ff19168380011785556109ae565b828001600101855582156109ae579182015b828111156109ad578251825591602001919060010190610992565b5b5090506109bb9190610a84565b5090565b82805482825590600052602060002090600101600290048101928215610a735791602002820160005b83821115610a3557835183826101000a8154816fffffffffffffffffffffffffffffffff021916908360801c02179055509260200192601001602081600f010492830192600103026109e8565b8015610a715782816101000a8154906fffffffffffffffffffffffffffffffff0219169055601001602081600f01049283019260010302610a35565b505b509050610a809190610a84565b5090565b5b80821115610a9d576000816000905550600101610a85565b5090565b6000604051905090565b600080fd5b600080fd5b60007fffffffffffffffffffffffffffffffff0000000000000000000000000000000082169050919050565b610aea81610ab5565b8114610af557600080fd5b50565b600081359050610b0781610ae1565b92915050565b600060208284031215610b2357610b22610aab565b5b6000610b3184828501610af8565b91505092915050565b610b4381610ab5565b82525050565b600081519050919050565b600082825260208201905092915050565b60005b83811015610b83578082015181840152602081019050610b68565b83811115610b92576000848401525b50505050565b6000601f19601f8301169050919050565b6000610bb482610b49565b610bbe8185610b54565b9350610bce818560208601610b65565b610bd781610b98565b840191505092915050565b600073ffffffffffffffffffffffffffffffffffffffff82169050919050565b6000610c0d82610be2565b9050919050565b610c1d81610c02565b82525050565b600081519050919050565b600082825260208201905092915050565b6000819050602082019050919050565b6000610c5b8383610b3a565b60208301905092915050565b6000602082019050919050565b6000610c7f82610c23565b610c898185610c2e565b9350610c9483610c3f565b8060005b83811015610cc5578151610cac8882610c4f565b9750610cb783610c67565b925050600181019050610c98565b5085935050505092915050565b6000608083016000830151610cea6000860182610b3a565b5060208301518482036020860152610d028282610ba9565b9150506040830151610d176040860182610c14565b5060608301518482036060860152610d2f8282610c74565b9150508091505092915050565b60006020820190508181036000830152610d568184610cd2565b905092915050565b600080fd5b600080fd5b7f4e487b7100000000000000000000000000000000000000000000000000000000600052604160045260246000fd5b610da082610b98565b810181811067ffffffffffffffff82111715610dbf57610dbe610d68565b5b80604052505050565b6000610dd2610aa1565b9050610dde8282610d97565b919050565b600067ffffffffffffffff821115610dfe57610dfd610d68565b5b610e0782610b98565b9050602081019050919050565b82818337600083830152505050565b6000610e36610e3184610de3565b610dc8565b905082815260208101848484011115610e5257610e51610d63565b5b610e5d848285610e14565b509392505050565b600082601f830112610e7a57610e79610d5e565b5b8135610e8a848260208601610e23565b91505092915050565b600060208284031215610ea957610ea8610aab565b5b600082013567ffffffffffffffff811115610ec757610ec6610ab0565b5b610ed384828501610e65565b91505092915050565b6000819050919050565b610eef81610edc565b82525050565b6000602082019050610f0a6000830184610ee6565b92915050565b610f1981610ab5565b82525050565b600082825260208201905092915050565b6000610f3b82610b49565b610f458185610f1f565b9350610f55818560208601610b65565b610f5e81610b98565b840191505092915050565b610f7281610c02565b82525050565b6000606082019050610f8d6000830186610f10565b8181036020830152610f9f8185610f30565b9050610fae6040830184610f69565b949350505050565b7f426f61726420646f6573206e6f742065786973742e0000000000000000000000600082015250565b6000610fec601583610f1f565b9150610ff782610fb6565b602082019050919050565b6000602082019050818103600083015261101b81610fdf565b9050919050565b7f4e487b7100000000000000000000000000000000000000000000000000000000600052602260045260246000fd5b6000600282049050600182168061106957607f821691505b60208210810361107c5761107b611022565b5b50919050565b7f4f6e6c792074686520626f617264206f776e65722063616e2064656c6574652060008201527f74686520626f6172642e00000000000000000000000000000000000000000000602082015250565b60006110de602a83610f1f565b91506110e982611082565b604082019050919050565b6000602082019050818103600083015261110d816110d1565b9050919050565b7f426f617264206e616d652063616e6e6f7420626520656d7074792e0000000000600082015250565b600061114a601b83610f1f565b915061115582611114565b602082019050919050565b600060208201905081810360008301526111798161113d565b9050919050565b60008151905061118f81610ae1565b92915050565b6000602082840312156111ab576111aa610aab565b5b60006111b984828501611180565b91505092915050565b7f4e487b7100000000000000000000000000000000000000000000000000000000600052601160045260246000fd5b60006111fc82610edc565b91507fffffffffffffffffffffffffffffffffffffffffffffffffffffffffffffffff820361122e5761122d6111c2565b5b60018201905091905056fe608060405234801561001057600080fd5b506101f9806100206000396000f3fe608060405234801561001057600080fd5b506004361061002b5760003560e01c80636f8dcb3d14610030575b600080fd5b61003861004e565b60405161004591906100c6565b60405180910390f35b60008033424460405160200161006693929190610186565b6040516020818303038152906040528051906020012090506000819050809250505090565b60007fffffffffffffffffffffffffffffffff0000000000000000000000000000000082169050919050565b6100c08161008b565b82525050565b60006020820190506100db60008301846100b7565b92915050565b600073ffffffffffffffffffffffffffffffffffffffff82169050919050565b600061010c826100e1565b9050919050565b60008160601b9050919050565b600061012b82610113565b9050919050565b600061013d82610120565b9050919050565b61015561015082610101565b610132565b82525050565b6000819050919050565b6000819050919050565b61018061017b8261015b565b610165565b82525050565b60006101928286610144565b6014820191506101a2828561016f565b6020820191506101b2828461016f565b60208201915081905094935050505056fea2646970667358221220b181367084fa327f6bf46d5a927842d5b22634f66e1f2e470e985f96dbcec30c64736f6c634300080d0033a2646970667358221220e0325a65a42720b65c78113605332003226d381da30b8446c40ac099c1e1a37b64736f6c634300080d0033",
  "immutableReferences": {},
  "source": "// SPDX-License-Identifier: GPL-3.0\n\npragma solidity >=0.7.0 <0.9.0;\n\n//import \"hardhat/console.sol\";\nimport {Board, Pin} from \"./common/types.sol\";\nimport {Functions} from \"./common/functions.sol\";\n\n/**\n * @title BoardManager\n * @dev A smart contract for managing boards\n */\ncontract BoardManager {\n    /**\n     * @dev Mapping to store boards by their ID\n     */\n    mapping(bytes16 => Board) public boards;\n\n    /**\n     * @dev Number of boards created\n     */\n    uint public boardCount;\n\n    /**\n     * @dev Create a new board\n     * @param boardName Name of the board to create\n     * Requirements:\n     * - boardName cannot be an empty string\n     */\n    function createBoard(string memory boardName) public {\n        require(bytes(boardName).length != 0, \"Board name cannot be empty.\");\n        bytes16[] memory pins;\n        bytes16 id = Functions(new Functions()).generateId();\n        Board memory board = Board(id, boardName, msg.sender, pins);\n        boards[id] = board;\n        boardCount++;\n    }\n\n    /**\n     * @dev Delete an existing board\n     * @param boardId ID of the board to delete\n     * Requirements:\n     * - Only the board owner can delete the board\n     */\n    function deleteBoard(bytes16 boardId) public {\n        require(\n            msg.sender == boards[boardId].owner,\n            \"Only the board owner can delete the board.\"\n        );\n        delete boards[boardId];\n    }\n\n    /**\n     * @dev Get board information by its ID\n     * @param boardId ID of the board to get\n     * @return Board struct containing board information\n     * Requirements:\n     * - Board with the given ID must exist\n     */\n    function getBoardById(bytes16 boardId) public view returns (Board memory) {\n        require(boards[boardId].owner != address(0), \"Board does not exist.\");\n        return boards[boardId];\n    }\n}\n",
  "sourcePath": "/Users/lisapolena/Documents/Master_04/Thesis/Prototyp/betterPinterest/src/contracts/boardManager.sol",
  "compiler": {
    "name": "solc",
    "version": "0.8.13+commit.abaa5c0e.Emscripten.clang"
  },
  "schemaVersion": "3.4.14",
  "updatedAt": "2023-05-26T10:30:27.274Z",
  "devdoc": {
    "details": "A smart contract for managing boards",
    "kind": "dev",
    "methods": {
      "createBoard(string)": {
        "details": "Create a new board",
        "params": {
          "boardName": "Name of the board to create Requirements: - boardName cannot be an empty string"
        }
      },
      "deleteBoard(bytes16)": {
        "details": "Delete an existing board",
        "params": {
          "boardId": "ID of the board to delete Requirements: - Only the board owner can delete the board"
        }
      },
      "getBoardById(bytes16)": {
        "details": "Get board information by its ID",
        "params": {
          "boardId": "ID of the board to get"
        },
        "returns": {
          "_0": "Board struct containing board information Requirements: - Board with the given ID must exist"
        }
      }
    },
    "stateVariables": {
      "boardCount": {
        "details": "Number of boards created"
      },
      "boards": {
        "details": "Mapping to store boards by their ID"
      }
    },
    "title": "BoardManager",
    "version": 1
  },
  "userdoc": {
    "kind": "user",
    "methods": {},
    "version": 1
  }
}