{
  "contractName": "BoardManager",
  "abi": [
    {
      "anonymous": false,
      "inputs": [
        {
          "indexed": false,
          "internalType": "uint256",
          "name": "boardId",
          "type": "uint256"
        },
        {
          "indexed": false,
          "internalType": "string",
          "name": "boardName",
          "type": "string"
        },
        {
          "indexed": true,
          "internalType": "address",
          "name": "owner",
          "type": "address"
        }
      ],
      "name": "BoardCreated",
      "type": "event"
    },
    {
      "anonymous": false,
      "inputs": [
        {
          "indexed": false,
          "internalType": "uint256",
          "name": "boardId",
          "type": "uint256"
        }
      ],
      "name": "BoardDeleted",
      "type": "event"
    },
    {
      "anonymous": false,
      "inputs": [
        {
          "indexed": false,
          "internalType": "uint256",
          "name": "boardId",
          "type": "uint256"
        },
        {
          "indexed": false,
          "internalType": "string",
          "name": "newName",
          "type": "string"
        }
      ],
      "name": "BoardEdited",
      "type": "event"
    },
    {
      "anonymous": false,
      "inputs": [
        {
          "indexed": false,
          "internalType": "uint256",
          "name": "pinId",
          "type": "uint256"
        },
        {
          "indexed": false,
          "internalType": "uint256",
          "name": "boardId",
          "type": "uint256"
        }
      ],
      "name": "PinSaved",
      "type": "event"
    },
    {
      "inputs": [
        {
          "internalType": "uint256",
          "name": "",
          "type": "uint256"
        }
      ],
      "name": "boards",
      "outputs": [
        {
          "internalType": "uint256",
          "name": "id",
          "type": "uint256"
        },
        {
          "internalType": "string",
          "name": "name",
          "type": "string"
        },
        {
          "internalType": "address",
          "name": "owner",
          "type": "address"
        }
      ],
      "stateMutability": "view",
      "type": "function"
    },
    {
      "inputs": [],
      "name": "currentBoardId",
      "outputs": [
        {
          "internalType": "uint256",
          "name": "",
          "type": "uint256"
        }
      ],
      "stateMutability": "view",
      "type": "function"
    },
    {
      "inputs": [
        {
          "internalType": "string",
          "name": "boardName",
          "type": "string"
        }
      ],
      "name": "createBoard",
      "outputs": [
        {
          "internalType": "uint256",
          "name": "",
          "type": "uint256"
        }
      ],
      "stateMutability": "nonpayable",
      "type": "function"
    },
    {
      "inputs": [
        {
          "internalType": "uint256",
          "name": "boardId",
          "type": "uint256"
        }
      ],
      "name": "deleteBoard",
      "outputs": [],
      "stateMutability": "nonpayable",
      "type": "function"
    },
    {
      "inputs": [
        {
          "internalType": "uint256",
          "name": "boardId",
          "type": "uint256"
        }
      ],
      "name": "getBoardById",
      "outputs": [
        {
          "components": [
            {
              "internalType": "uint256",
              "name": "id",
              "type": "uint256"
            },
            {
              "internalType": "string",
              "name": "name",
              "type": "string"
            },
            {
              "internalType": "address",
              "name": "owner",
              "type": "address"
            },
            {
              "internalType": "uint256[]",
              "name": "pins",
              "type": "uint256[]"
            }
          ],
          "internalType": "struct Board",
          "name": "",
          "type": "tuple"
        }
      ],
      "stateMutability": "view",
      "type": "function"
    },
    {
      "inputs": [
        {
          "internalType": "address",
          "name": "owner",
          "type": "address"
        }
      ],
      "name": "getBoardsByOwner",
      "outputs": [
        {
          "components": [
            {
              "internalType": "uint256",
              "name": "id",
              "type": "uint256"
            },
            {
              "internalType": "string",
              "name": "name",
              "type": "string"
            },
            {
              "internalType": "address",
              "name": "owner",
              "type": "address"
            },
            {
              "internalType": "uint256[]",
              "name": "pins",
              "type": "uint256[]"
            }
          ],
          "internalType": "struct Board[]",
          "name": "",
          "type": "tuple[]"
        }
      ],
      "stateMutability": "view",
      "type": "function"
    },
    {
      "inputs": [
        {
          "internalType": "uint256",
          "name": "boardId",
          "type": "uint256"
        },
        {
          "internalType": "uint256",
          "name": "pinId",
          "type": "uint256"
        }
      ],
      "name": "savePinToBoard",
      "outputs": [
        {
          "internalType": "uint256",
          "name": "",
          "type": "uint256"
        }
      ],
      "stateMutability": "nonpayable",
      "type": "function"
    }
  ],
  "bytecode": "0x608060405234801561001057600080fd5b5061181c806100206000396000f3fe608060405234801561001057600080fd5b506004361061007d5760003560e01c8063af2d71561161005b578063af2d715614610102578063b3d55dee14610132578063f47810a114610162578063fb72d2001461017e5761007d565b806333942a481461008257806387159746146100a05780639a7083f9146100d0575b600080fd5b61008a6101ae565b6040516100979190610de3565b60405180910390f35b6100ba60048036038101906100b59190610f58565b6101b4565b6040516100c79190610de3565b60405180910390f35b6100ea60048036038101906100e59190610fcd565b610351565b6040516100f9939291906110c3565b60405180910390f35b61011c6004803603810190610117919061112d565b610423565b604051610129919061139d565b60405180910390f35b61014c600480360381019061014791906113bf565b610748565b6040516101599190610de3565b60405180910390f35b61017c60048036038101906101779190610fcd565b610856565b005b61019860048036038101906101939190610fcd565b6109dc565b6040516101a59190611469565b60405180910390f35b60015481565b6000808251036101f9576040517f08c379a00000000000000000000000000000000000000000000000000000000081526004016101f0906114d7565b60405180910390fd5b6001600081548092919061020c90611526565b919050555060606000604051806080016040528060015481526020018581526020013373ffffffffffffffffffffffffffffffffffffffff16815260200183815250905080600080600154815260200190815260200160002060008201518160000155602082015181600101908051906020019061028b929190610c3b565b5060408201518160020160006101000a81548173ffffffffffffffffffffffffffffffffffffffff021916908373ffffffffffffffffffffffffffffffffffffffff16021790555060608201518160030190805190602001906102ef929190610cc1565b509050503373ffffffffffffffffffffffffffffffffffffffff167fac364e15813c225ec404ce90e1d473c41abc7b9bd06ce024a06988906fc7668b6001548660405161033d92919061156e565b60405180910390a260015492505050919050565b600060205280600052604060002060009150905080600001549080600101805461037a906115cd565b80601f01602080910402602001604051908101604052809291908181526020018280546103a6906115cd565b80156103f35780601f106103c8576101008083540402835291602001916103f3565b820191906000526020600020905b8154815290600101906020018083116103d657829003601f168201915b5050505050908060020160009054906101000a900473ffffffffffffffffffffffffffffffffffffffff16905083565b6060600080600190505b60015481116104c0578373ffffffffffffffffffffffffffffffffffffffff1660008083815260200190815260200160002060020160009054906101000a900473ffffffffffffffffffffffffffffffffffffffff1673ffffffffffffffffffffffffffffffffffffffff16036104ad5781806104a990611526565b9250505b80806104b890611526565b91505061042d565b5060008167ffffffffffffffff8111156104dd576104dc610e2d565b5b60405190808252806020026020018201604052801561051657816020015b610503610d0e565b8152602001906001900390816104fb5790505b509050600080600190505b6001548111610739578573ffffffffffffffffffffffffffffffffffffffff1660008083815260200190815260200160002060020160009054906101000a900473ffffffffffffffffffffffffffffffffffffffff1673ffffffffffffffffffffffffffffffffffffffff160361072657600080828152602001908152602001600020604051806080016040529081600082015481526020016001820180546105c9906115cd565b80601f01602080910402602001604051908101604052809291908181526020018280546105f5906115cd565b80156106425780601f1061061757610100808354040283529160200191610642565b820191906000526020600020905b81548152906001019060200180831161062557829003601f168201915b505050505081526020016002820160009054906101000a900473ffffffffffffffffffffffffffffffffffffffff1673ffffffffffffffffffffffffffffffffffffffff1673ffffffffffffffffffffffffffffffffffffffff168152602001600382018054806020026020016040519081016040528092919081815260200182805480156106f057602002820191906000526020600020905b8154815260200190600101908083116106dc575b50505050508152505083838151811061070c5761070b6115fe565b5b6020026020010181905250818061072290611526565b9250505b808061073190611526565b915050610521565b50808252819350505050919050565b600060015483111561078f576040517f08c379a000000000000000000000000000000000000000000000000000000000815260040161078690611679565b60405180910390fd5b60008060008581526020019081526020016000209050600083116107e8576040517f08c379a00000000000000000000000000000000000000000000000000000000081526004016107df9061170b565b60405180910390fd5b806003018390806001815401808255809150506001900390600052602060002001600090919091909150557f254924bb2e054e39fb8f465854bd69f92a4ef727ef0ebe475a3e394070d1f42b838560405161084492919061172b565b60405180910390a18291505092915050565b60015481111561089b576040517f08c379a000000000000000000000000000000000000000000000000000000000815260040161089290611679565b60405180910390fd5b60008082815260200190815260200160002060020160009054906101000a900473ffffffffffffffffffffffffffffffffffffffff1673ffffffffffffffffffffffffffffffffffffffff163373ffffffffffffffffffffffffffffffffffffffff161461093e576040517f08c379a0000000000000000000000000000000000000000000000000000000008152600401610935906117c6565b60405180910390fd5b7f4e8a750abb5bc4433f76ccc65ec77d14d55174b068aa54a2d68383fd76601cdb8160405161096d9190610de3565b60405180910390a16000808281526020019081526020016000206000808201600090556001820160006109a09190610d4c565b6002820160006101000a81549073ffffffffffffffffffffffffffffffffffffffff02191690556003820160006109d79190610d8c565b505050565b6109e4610d0e565b600154821115610a29576040517f08c379a0000000000000000000000000000000000000000000000000000000008152600401610a2090611679565b60405180910390fd5b600073ffffffffffffffffffffffffffffffffffffffff1660008084815260200190815260200160002060020160009054906101000a900473ffffffffffffffffffffffffffffffffffffffff1673ffffffffffffffffffffffffffffffffffffffff1603610acd576040517f08c379a0000000000000000000000000000000000000000000000000000000008152600401610ac490611679565b60405180910390fd5b60008083815260200190815260200160002060405180608001604052908160008201548152602001600182018054610b04906115cd565b80601f0160208091040260200160405190810160405280929190818152602001828054610b30906115cd565b8015610b7d5780601f10610b5257610100808354040283529160200191610b7d565b820191906000526020600020905b815481529060010190602001808311610b6057829003601f168201915b505050505081526020016002820160009054906101000a900473ffffffffffffffffffffffffffffffffffffffff1673ffffffffffffffffffffffffffffffffffffffff1673ffffffffffffffffffffffffffffffffffffffff16815260200160038201805480602002602001604051908101604052809291908181526020018280548015610c2b57602002820191906000526020600020905b815481526020019060010190808311610c17575b5050505050815250509050919050565b828054610c47906115cd565b90600052602060002090601f016020900481019282610c695760008555610cb0565b82601f10610c8257805160ff1916838001178555610cb0565b82800160010185558215610cb0579182015b82811115610caf578251825591602001919060010190610c94565b5b509050610cbd9190610dad565b5090565b828054828255906000526020600020908101928215610cfd579160200282015b82811115610cfc578251825591602001919060010190610ce1565b5b509050610d0a9190610dad565b5090565b60405180608001604052806000815260200160608152602001600073ffffffffffffffffffffffffffffffffffffffff168152602001606081525090565b508054610d58906115cd565b6000825580601f10610d6a5750610d89565b601f016020900490600052602060002090810190610d889190610dad565b5b50565b5080546000825590600052602060002090810190610daa9190610dad565b50565b5b80821115610dc6576000816000905550600101610dae565b5090565b6000819050919050565b610ddd81610dca565b82525050565b6000602082019050610df86000830184610dd4565b92915050565b6000604051905090565b600080fd5b600080fd5b600080fd5b600080fd5b6000601f19601f8301169050919050565b7f4e487b7100000000000000000000000000000000000000000000000000000000600052604160045260246000fd5b610e6582610e1c565b810181811067ffffffffffffffff82111715610e8457610e83610e2d565b5b80604052505050565b6000610e97610dfe565b9050610ea38282610e5c565b919050565b600067ffffffffffffffff821115610ec357610ec2610e2d565b5b610ecc82610e1c565b9050602081019050919050565b82818337600083830152505050565b6000610efb610ef684610ea8565b610e8d565b905082815260208101848484011115610f1757610f16610e17565b5b610f22848285610ed9565b509392505050565b600082601f830112610f3f57610f3e610e12565b5b8135610f4f848260208601610ee8565b91505092915050565b600060208284031215610f6e57610f6d610e08565b5b600082013567ffffffffffffffff811115610f8c57610f8b610e0d565b5b610f9884828501610f2a565b91505092915050565b610faa81610dca565b8114610fb557600080fd5b50565b600081359050610fc781610fa1565b92915050565b600060208284031215610fe357610fe2610e08565b5b6000610ff184828501610fb8565b91505092915050565b600081519050919050565b600082825260208201905092915050565b60005b83811015611034578082015181840152602081019050611019565b83811115611043576000848401525b50505050565b600061105482610ffa565b61105e8185611005565b935061106e818560208601611016565b61107781610e1c565b840191505092915050565b600073ffffffffffffffffffffffffffffffffffffffff82169050919050565b60006110ad82611082565b9050919050565b6110bd816110a2565b82525050565b60006060820190506110d86000830186610dd4565b81810360208301526110ea8185611049565b90506110f960408301846110b4565b949350505050565b61110a816110a2565b811461111557600080fd5b50565b60008135905061112781611101565b92915050565b60006020828403121561114357611142610e08565b5b600061115184828501611118565b91505092915050565b600081519050919050565b600082825260208201905092915050565b6000819050602082019050919050565b61118f81610dca565b82525050565b600082825260208201905092915050565b60006111b182610ffa565b6111bb8185611195565b93506111cb818560208601611016565b6111d481610e1c565b840191505092915050565b6111e8816110a2565b82525050565b600081519050919050565b600082825260208201905092915050565b6000819050602082019050919050565b60006112268383611186565b60208301905092915050565b6000602082019050919050565b600061124a826111ee565b61125481856111f9565b935061125f8361120a565b8060005b83811015611290578151611277888261121a565b975061128283611232565b925050600181019050611263565b5085935050505092915050565b60006080830160008301516112b56000860182611186565b50602083015184820360208601526112cd82826111a6565b91505060408301516112e260408601826111df565b50606083015184820360608601526112fa828261123f565b9150508091505092915050565b6000611313838361129d565b905092915050565b6000602082019050919050565b60006113338261115a565b61133d8185611165565b93508360208202850161134f85611176565b8060005b8581101561138b578484038952815161136c8582611307565b94506113778361131b565b925060208a01995050600181019050611353565b50829750879550505050505092915050565b600060208201905081810360008301526113b78184611328565b905092915050565b600080604083850312156113d6576113d5610e08565b5b60006113e485828601610fb8565b92505060206113f585828601610fb8565b9150509250929050565b60006080830160008301516114176000860182611186565b506020830151848203602086015261142f82826111a6565b915050604083015161144460408601826111df565b506060830151848203606086015261145c828261123f565b9150508091505092915050565b6000602082019050818103600083015261148381846113ff565b905092915050565b7f426f617264206e616d652063616e6e6f7420626520656d7074792e0000000000600082015250565b60006114c1601b83611005565b91506114cc8261148b565b602082019050919050565b600060208201905081810360008301526114f0816114b4565b9050919050565b7f4e487b7100000000000000000000000000000000000000000000000000000000600052601160045260246000fd5b600061153182610dca565b91507fffffffffffffffffffffffffffffffffffffffffffffffffffffffffffffffff8203611563576115626114f7565b5b600182019050919050565b60006040820190506115836000830185610dd4565b81810360208301526115958184611049565b90509392505050565b7f4e487b7100000000000000000000000000000000000000000000000000000000600052602260045260246000fd5b600060028204905060018216806115e557607f821691505b6020821081036115f8576115f761159e565b5b50919050565b7f4e487b7100000000000000000000000000000000000000000000000000000000600052603260045260246000fd5b7f426f61726420646f6573206e6f742065786973742e0000000000000000000000600082015250565b6000611663601583611005565b915061166e8261162d565b602082019050919050565b6000602082019050818103600083015261169281611656565b9050919050565b7f50696e204944206d7573742062652067726561746572207468616e207a65726f60008201527f2e00000000000000000000000000000000000000000000000000000000000000602082015250565b60006116f5602183611005565b915061170082611699565b604082019050919050565b60006020820190508181036000830152611724816116e8565b9050919050565b60006040820190506117406000830185610dd4565b61174d6020830184610dd4565b9392505050565b7f4f6e6c792074686520626f617264206f776e65722063616e2064656c6574652060008201527f74686520626f6172642e00000000000000000000000000000000000000000000602082015250565b60006117b0602a83611005565b91506117bb82611754565b604082019050919050565b600060208201905081810360008301526117df816117a3565b905091905056fea26469706673582212202bb2e2c8d3aeef9976ceb68156234007a01a4a2f48c003da8f5312d89efbbcc764736f6c634300080d0033",
  "immutableReferences": {},
  "source": "// SPDX-License-Identifier: GPL-3.0\n\npragma solidity >=0.7.0 <0.9.0;\n\n//import \"hardhat/console.sol\";\nimport {Board, Pin} from \"./common/types.sol\";\n\n/**\n * @title BoardManager\n * @dev A smart contract for managing boards\n */\ncontract BoardManager {\n    /**\n     * @dev Event emitted when a new board is created\n     * @param boardId ID of the board created\n     * @param boardName Name of the board created\n     * @param owner Owner of the board created\n     */\n    event BoardCreated(\n        uint256 boardId,\n        string boardName,\n        address indexed owner\n    );\n\n    /**\n     * @dev Event emitted when a board is deleted\n     * @param boardId ID of the board deleted\n     */\n    event BoardDeleted(uint256 boardId);\n\n    /**\n     * @dev Event emitted when a board is edited\n     * @param boardId ID of the board edited\n     * @param newName New name of the board edited\n     */\n    event BoardEdited(uint256 boardId, string newName);\n\n    /**\n     * @dev Event emitted when a pin is saved to a board\n     * @param pinId ID of the saved pin\n     * @param boardId ID of the board the pin is saved to\n     */\n    event PinSaved(uint256 pinId, uint256 boardId);\n\n    /**\n     * @dev Mapping to store boards by their ID\n     */\n    mapping(uint256 => Board) public boards;\n\n    /**\n     * @dev Number of boards created\n     */\n    uint256 public currentBoardId;\n\n    /**\n     * @dev Create a new board\n     * @param boardName Name of the board to create\n     * Requirements:\n     * - boardName cannot be an empty string\n     */\n    function createBoard(string memory boardName) public returns (uint256) {\n        require(bytes(boardName).length != 0, \"Board name cannot be empty.\");\n        currentBoardId++;\n        uint256[] memory pins;\n        Board memory board = Board(currentBoardId, boardName, msg.sender, pins);\n        boards[currentBoardId] = board;\n        emit BoardCreated(currentBoardId, boardName, msg.sender);\n        return currentBoardId;\n    }\n\n    /**\n     * @dev Delete an existing board\n     * @param boardId ID of the board to delete\n     * Requirements:\n     * - Only the board owner can delete the board\n     */\n    function deleteBoard(uint256 boardId) public {\n        require(boardId <= currentBoardId, \"Board does not exist.\");\n        require(\n            msg.sender == boards[boardId].owner,\n            \"Only the board owner can delete the board.\"\n        );\n        emit BoardDeleted(boardId);\n        delete boards[boardId];\n    }\n\n    /**\n     * @dev Get board information by its ID\n     * @param boardId ID of the board to get\n     * @return Board struct containing board information\n     * Requirements:\n     * - Board with the given ID must exist\n     */\n    function getBoardById(uint256 boardId) public view returns (Board memory) {\n        require(boardId <= currentBoardId, \"Board does not exist.\");\n        require(boards[boardId].owner != address(0), \"Board does not exist.\");\n        return boards[boardId];\n    }\n\n    /**\n     * @dev Get boards owned by a specific address\n     * @param owner Address of the board owner\n     * @return Board[] array containing the boards owned by the specified address\n     */\n    function getBoardsByOwner(\n        address owner\n    ) public view returns (Board[] memory) {\n        uint256 count = 0;\n\n        // Count the number of boards owned by the specified address\n        for (uint256 i = 1; i <= currentBoardId; i++) {\n            if (boards[i].owner == owner) {\n                count++;\n            }\n        }\n\n        // Create an array with the count of boards\n        Board[] memory ownerBoards = new Board[](count);\n        uint256 index = 0;\n\n        // Retrieve the boards owned by the specified address\n        for (uint256 i = 1; i <= currentBoardId; i++) {\n            if (boards[i].owner == owner) {\n                ownerBoards[index] = boards[i];\n                index++;\n            }\n        }\n\n        // Resize the ownerBoards array to remove any unused elements\n        assembly {\n            mstore(ownerBoards, index)\n        }\n\n        return ownerBoards;\n    }\n\n    /**\n     * @dev Save a new pin to a board\n     * @param boardId ID of the board to save the pin to\n     * @param pinId ID of the pin to save\n     * @return uint256 ID of the saved pin\n     * Requirements:\n     * - Board with the given ID must exist\n     * - Pin ID must be unique within the board\n     */\n    function savePinToBoard(\n        uint256 boardId,\n        uint256 pinId\n    ) public returns (uint256) {\n        require(boardId <= currentBoardId, \"Board does not exist.\");\n\n        Board storage board = boards[boardId];\n        require(pinId > 0, \"Pin ID must be greater than zero.\");\n\n        board.pins.push(pinId);\n\n        emit PinSaved(pinId, boardId);\n\n        return pinId;\n    }\n}\n",
  "sourcePath": "/Users/lisapolena/Documents/Master_04/Thesis/Prototyp/betterPinterest/src/contracts/boardManager.sol",
  "compiler": {
    "name": "solc",
    "version": "0.8.13+commit.abaa5c0e.Emscripten.clang"
  },
  "schemaVersion": "3.4.14",
  "updatedAt": "2023-06-05T11:36:53.644Z",
  "devdoc": {
    "details": "A smart contract for managing boards",
    "events": {
      "BoardCreated(uint256,string,address)": {
        "details": "Event emitted when a new board is created",
        "params": {
          "boardId": "ID of the board created",
          "boardName": "Name of the board created",
          "owner": "Owner of the board created"
        }
      },
      "BoardDeleted(uint256)": {
        "details": "Event emitted when a board is deleted",
        "params": {
          "boardId": "ID of the board deleted"
        }
      },
      "BoardEdited(uint256,string)": {
        "details": "Event emitted when a board is edited",
        "params": {
          "boardId": "ID of the board edited",
          "newName": "New name of the board edited"
        }
      },
      "PinSaved(uint256,uint256)": {
        "details": "Event emitted when a pin is saved to a board",
        "params": {
          "boardId": "ID of the board the pin is saved to",
          "pinId": "ID of the saved pin"
        }
      }
    },
    "kind": "dev",
    "methods": {
      "createBoard(string)": {
        "details": "Create a new board",
        "params": {
          "boardName": "Name of the board to create Requirements: - boardName cannot be an empty string"
        }
      },
      "deleteBoard(uint256)": {
        "details": "Delete an existing board",
        "params": {
          "boardId": "ID of the board to delete Requirements: - Only the board owner can delete the board"
        }
      },
      "getBoardById(uint256)": {
        "details": "Get board information by its ID",
        "params": {
          "boardId": "ID of the board to get"
        },
        "returns": {
          "_0": "Board struct containing board information Requirements: - Board with the given ID must exist"
        }
      },
      "getBoardsByOwner(address)": {
        "details": "Get boards owned by a specific address",
        "params": {
          "owner": "Address of the board owner"
        },
        "returns": {
          "_0": "Board[] array containing the boards owned by the specified address"
        }
      },
      "savePinToBoard(uint256,uint256)": {
        "details": "Save a new pin to a board",
        "params": {
          "boardId": "ID of the board to save the pin to",
          "pinId": "ID of the pin to save"
        },
        "returns": {
          "_0": "uint256 ID of the saved pin Requirements: - Board with the given ID must exist - Pin ID must be unique within the board"
        }
      }
    },
    "stateVariables": {
      "boards": {
        "details": "Mapping to store boards by their ID"
      },
      "currentBoardId": {
        "details": "Number of boards created"
      }
    },
    "title": "BoardManager",
    "version": 1
  },
  "userdoc": {
    "kind": "user",
    "methods": {},
    "version": 1
  }
}