{
  "contractName": "BoardManager",
  "abi": [
    {
      "anonymous": false,
      "inputs": [
        {
          "indexed": false,
          "internalType": "uint256",
          "name": "boardId",
          "type": "uint256"
        },
        {
          "indexed": false,
          "internalType": "string",
          "name": "boardName",
          "type": "string"
        },
        {
          "indexed": true,
          "internalType": "address",
          "name": "owner",
          "type": "address"
        }
      ],
      "name": "BoardCreated",
      "type": "event"
    },
    {
      "inputs": [
        {
          "internalType": "uint256",
          "name": "",
          "type": "uint256"
        }
      ],
      "name": "boards",
      "outputs": [
        {
          "internalType": "uint256",
          "name": "id",
          "type": "uint256"
        },
        {
          "internalType": "string",
          "name": "name",
          "type": "string"
        },
        {
          "internalType": "address",
          "name": "owner",
          "type": "address"
        }
      ],
      "stateMutability": "view",
      "type": "function"
    },
    {
      "inputs": [],
      "name": "currentBoardId",
      "outputs": [
        {
          "internalType": "uint256",
          "name": "",
          "type": "uint256"
        }
      ],
      "stateMutability": "view",
      "type": "function"
    },
    {
      "inputs": [
        {
          "internalType": "string",
          "name": "boardName",
          "type": "string"
        }
      ],
      "name": "createBoard",
      "outputs": [
        {
          "internalType": "uint256",
          "name": "",
          "type": "uint256"
        }
      ],
      "stateMutability": "nonpayable",
      "type": "function"
    },
    {
      "inputs": [
        {
          "internalType": "uint256",
          "name": "boardId",
          "type": "uint256"
        }
      ],
      "name": "deleteBoard",
      "outputs": [],
      "stateMutability": "nonpayable",
      "type": "function"
    },
    {
      "inputs": [
        {
          "internalType": "uint256",
          "name": "boardId",
          "type": "uint256"
        }
      ],
      "name": "getBoardById",
      "outputs": [
        {
          "components": [
            {
              "internalType": "uint256",
              "name": "id",
              "type": "uint256"
            },
            {
              "internalType": "string",
              "name": "name",
              "type": "string"
            },
            {
              "internalType": "address",
              "name": "owner",
              "type": "address"
            },
            {
              "internalType": "uint256[]",
              "name": "pins",
              "type": "uint256[]"
            }
          ],
          "internalType": "struct Board",
          "name": "",
          "type": "tuple"
        }
      ],
      "stateMutability": "view",
      "type": "function"
    },
    {
      "inputs": [],
      "name": "getAllBoards",
      "outputs": [
        {
          "components": [
            {
              "internalType": "uint256",
              "name": "id",
              "type": "uint256"
            },
            {
              "internalType": "string",
              "name": "name",
              "type": "string"
            },
            {
              "internalType": "address",
              "name": "owner",
              "type": "address"
            },
            {
              "internalType": "uint256[]",
              "name": "pins",
              "type": "uint256[]"
            }
          ],
          "internalType": "struct Board[]",
          "name": "",
          "type": "tuple[]"
        }
      ],
      "stateMutability": "view",
      "type": "function"
    },
    {
      "inputs": [
        {
          "internalType": "uint256",
          "name": "boardId",
          "type": "uint256"
        },
        {
          "internalType": "string",
          "name": "newName",
          "type": "string"
        }
      ],
      "name": "editBoard",
      "outputs": [],
      "stateMutability": "nonpayable",
      "type": "function"
    }
  ],
  "bytecode": "0x608060405234801561001057600080fd5b50611775806100206000396000f3fe608060405234801561001057600080fd5b506004361061007d5760003560e01c8063871597461161005b57806387159746146100da5780639a7083f91461010a578063f47810a11461013c578063fb72d200146101585761007d565b80631872cd4c1461008257806326d51258146100a057806333942a48146100bc575b600080fd5b61008a610188565b6040516100979190610feb565b60405180910390f35b6100ba60048036038101906100b59190611182565b610411565b005b6100c461056b565b6040516100d191906111ed565b60405180910390f35b6100f460048036038101906100ef9190611208565b610571565b60405161010191906111ed565b60405180910390f35b610124600480360381019061011f9190611251565b61070e565b604051610133939291906112d7565b60405180910390f35b61015660048036038101906101519190611251565b6107e0565b005b610172600480360381019061016d9190611251565b61092f565b60405161017f919061137f565b60405180910390f35b6060600060015467ffffffffffffffff8111156101a8576101a7611057565b5b6040519080825280602002602001820160405280156101e157816020015b6101ce610b8e565b8152602001906001900390816101c65790505b509050600080600190505b600154811161040557600073ffffffffffffffffffffffffffffffffffffffff1660008083815260200190815260200160002060020160009054906101000a900473ffffffffffffffffffffffffffffffffffffffff1673ffffffffffffffffffffffffffffffffffffffff16146103f25760008082815260200190815260200160002060405180608001604052908160008201548152602001600182018054610295906113d0565b80601f01602080910402602001604051908101604052809291908181526020018280546102c1906113d0565b801561030e5780601f106102e35761010080835404028352916020019161030e565b820191906000526020600020905b8154815290600101906020018083116102f157829003601f168201915b505050505081526020016002820160009054906101000a900473ffffffffffffffffffffffffffffffffffffffff1673ffffffffffffffffffffffffffffffffffffffff1673ffffffffffffffffffffffffffffffffffffffff168152602001600382018054806020026020016040519081016040528092919081815260200182805480156103bc57602002820191906000526020600020905b8154815260200190600101908083116103a8575b5050505050815250508383815181106103d8576103d7611401565b5b602002602001018190525081806103ee9061145f565b9250505b80806103fd9061145f565b9150506101ec565b50808252819250505090565b600154821115610456576040517f08c379a000000000000000000000000000000000000000000000000000000000815260040161044d906114f3565b60405180910390fd5b60008083815260200190815260200160002060020160009054906101000a900473ffffffffffffffffffffffffffffffffffffffff1673ffffffffffffffffffffffffffffffffffffffff163373ffffffffffffffffffffffffffffffffffffffff16146104f9576040517f08c379a00000000000000000000000000000000000000000000000000000000081526004016104f090611585565b60405180910390fd5b600081510361053d576040517f08c379a0000000000000000000000000000000000000000000000000000000008152600401610534906115f1565b60405180910390fd5b806000808481526020019081526020016000206001019080519060200190610566929190610bcc565b505050565b60015481565b6000808251036105b6576040517f08c379a00000000000000000000000000000000000000000000000000000000081526004016105ad9061165d565b60405180910390fd5b600160008154809291906105c99061145f565b919050555060606000604051806080016040528060015481526020018581526020013373ffffffffffffffffffffffffffffffffffffffff168152602001838152509050806000806001548152602001908152602001600020600082015181600001556020820151816001019080519060200190610648929190610bcc565b5060408201518160020160006101000a81548173ffffffffffffffffffffffffffffffffffffffff021916908373ffffffffffffffffffffffffffffffffffffffff16021790555060608201518160030190805190602001906106ac929190610c52565b509050503373ffffffffffffffffffffffffffffffffffffffff167fac364e15813c225ec404ce90e1d473c41abc7b9bd06ce024a06988906fc7668b600154866040516106fa92919061167d565b60405180910390a260015492505050919050565b6000602052806000526040600020600091509050806000015490806001018054610737906113d0565b80601f0160208091040260200160405190810160405280929190818152602001828054610763906113d0565b80156107b05780601f10610785576101008083540402835291602001916107b0565b820191906000526020600020905b81548152906001019060200180831161079357829003601f168201915b5050505050908060020160009054906101000a900473ffffffffffffffffffffffffffffffffffffffff16905083565b600154811115610825576040517f08c379a000000000000000000000000000000000000000000000000000000000815260040161081c906114f3565b60405180910390fd5b60008082815260200190815260200160002060020160009054906101000a900473ffffffffffffffffffffffffffffffffffffffff1673ffffffffffffffffffffffffffffffffffffffff163373ffffffffffffffffffffffffffffffffffffffff16146108c8576040517f08c379a00000000000000000000000000000000000000000000000000000000081526004016108bf9061171f565b60405180910390fd5b6000808281526020019081526020016000206000808201600090556001820160006108f39190610c9f565b6002820160006101000a81549073ffffffffffffffffffffffffffffffffffffffff021916905560038201600061092a9190610cdf565b505050565b610937610b8e565b60015482111561097c576040517f08c379a0000000000000000000000000000000000000000000000000000000008152600401610973906114f3565b60405180910390fd5b600073ffffffffffffffffffffffffffffffffffffffff1660008084815260200190815260200160002060020160009054906101000a900473ffffffffffffffffffffffffffffffffffffffff1673ffffffffffffffffffffffffffffffffffffffff1603610a20576040517f08c379a0000000000000000000000000000000000000000000000000000000008152600401610a17906114f3565b60405180910390fd5b60008083815260200190815260200160002060405180608001604052908160008201548152602001600182018054610a57906113d0565b80601f0160208091040260200160405190810160405280929190818152602001828054610a83906113d0565b8015610ad05780601f10610aa557610100808354040283529160200191610ad0565b820191906000526020600020905b815481529060010190602001808311610ab357829003601f168201915b505050505081526020016002820160009054906101000a900473ffffffffffffffffffffffffffffffffffffffff1673ffffffffffffffffffffffffffffffffffffffff1673ffffffffffffffffffffffffffffffffffffffff16815260200160038201805480602002602001604051908101604052809291908181526020018280548015610b7e57602002820191906000526020600020905b815481526020019060010190808311610b6a575b5050505050815250509050919050565b60405180608001604052806000815260200160608152602001600073ffffffffffffffffffffffffffffffffffffffff168152602001606081525090565b828054610bd8906113d0565b90600052602060002090601f016020900481019282610bfa5760008555610c41565b82601f10610c1357805160ff1916838001178555610c41565b82800160010185558215610c41579182015b82811115610c40578251825591602001919060010190610c25565b5b509050610c4e9190610d00565b5090565b828054828255906000526020600020908101928215610c8e579160200282015b82811115610c8d578251825591602001919060010190610c72565b5b509050610c9b9190610d00565b5090565b508054610cab906113d0565b6000825580601f10610cbd5750610cdc565b601f016020900490600052602060002090810190610cdb9190610d00565b5b50565b5080546000825590600052602060002090810190610cfd9190610d00565b50565b5b80821115610d19576000816000905550600101610d01565b5090565b600081519050919050565b600082825260208201905092915050565b6000819050602082019050919050565b6000819050919050565b610d5c81610d49565b82525050565b600081519050919050565b600082825260208201905092915050565b60005b83811015610d9c578082015181840152602081019050610d81565b83811115610dab576000848401525b50505050565b6000601f19601f8301169050919050565b6000610dcd82610d62565b610dd78185610d6d565b9350610de7818560208601610d7e565b610df081610db1565b840191505092915050565b600073ffffffffffffffffffffffffffffffffffffffff82169050919050565b6000610e2682610dfb565b9050919050565b610e3681610e1b565b82525050565b600081519050919050565b600082825260208201905092915050565b6000819050602082019050919050565b6000610e748383610d53565b60208301905092915050565b6000602082019050919050565b6000610e9882610e3c565b610ea28185610e47565b9350610ead83610e58565b8060005b83811015610ede578151610ec58882610e68565b9750610ed083610e80565b925050600181019050610eb1565b5085935050505092915050565b6000608083016000830151610f036000860182610d53565b5060208301518482036020860152610f1b8282610dc2565b9150506040830151610f306040860182610e2d565b5060608301518482036060860152610f488282610e8d565b9150508091505092915050565b6000610f618383610eeb565b905092915050565b6000602082019050919050565b6000610f8182610d1d565b610f8b8185610d28565b935083602082028501610f9d85610d39565b8060005b85811015610fd95784840389528151610fba8582610f55565b9450610fc583610f69565b925060208a01995050600181019050610fa1565b50829750879550505050505092915050565b600060208201905081810360008301526110058184610f76565b905092915050565b6000604051905090565b600080fd5b600080fd5b61102a81610d49565b811461103557600080fd5b50565b60008135905061104781611021565b92915050565b600080fd5b600080fd5b7f4e487b7100000000000000000000000000000000000000000000000000000000600052604160045260246000fd5b61108f82610db1565b810181811067ffffffffffffffff821117156110ae576110ad611057565b5b80604052505050565b60006110c161100d565b90506110cd8282611086565b919050565b600067ffffffffffffffff8211156110ed576110ec611057565b5b6110f682610db1565b9050602081019050919050565b82818337600083830152505050565b6000611125611120846110d2565b6110b7565b90508281526020810184848401111561114157611140611052565b5b61114c848285611103565b509392505050565b600082601f8301126111695761116861104d565b5b8135611179848260208601611112565b91505092915050565b6000806040838503121561119957611198611017565b5b60006111a785828601611038565b925050602083013567ffffffffffffffff8111156111c8576111c761101c565b5b6111d485828601611154565b9150509250929050565b6111e781610d49565b82525050565b600060208201905061120260008301846111de565b92915050565b60006020828403121561121e5761121d611017565b5b600082013567ffffffffffffffff81111561123c5761123b61101c565b5b61124884828501611154565b91505092915050565b60006020828403121561126757611266611017565b5b600061127584828501611038565b91505092915050565b600082825260208201905092915050565b600061129a82610d62565b6112a4818561127e565b93506112b4818560208601610d7e565b6112bd81610db1565b840191505092915050565b6112d181610e1b565b82525050565b60006060820190506112ec60008301866111de565b81810360208301526112fe818561128f565b905061130d60408301846112c8565b949350505050565b600060808301600083015161132d6000860182610d53565b50602083015184820360208601526113458282610dc2565b915050604083015161135a6040860182610e2d565b50606083015184820360608601526113728282610e8d565b9150508091505092915050565b600060208201905081810360008301526113998184611315565b905092915050565b7f4e487b7100000000000000000000000000000000000000000000000000000000600052602260045260246000fd5b600060028204905060018216806113e857607f821691505b6020821081036113fb576113fa6113a1565b5b50919050565b7f4e487b7100000000000000000000000000000000000000000000000000000000600052603260045260246000fd5b7f4e487b7100000000000000000000000000000000000000000000000000000000600052601160045260246000fd5b600061146a82610d49565b91507fffffffffffffffffffffffffffffffffffffffffffffffffffffffffffffffff820361149c5761149b611430565b5b600182019050919050565b7f426f61726420646f6573206e6f742065786973742e0000000000000000000000600082015250565b60006114dd60158361127e565b91506114e8826114a7565b602082019050919050565b6000602082019050818103600083015261150c816114d0565b9050919050565b7f4f6e6c792074686520626f617264206f776e65722063616e206564697420746860008201527f6520626f6172642e000000000000000000000000000000000000000000000000602082015250565b600061156f60288361127e565b915061157a82611513565b604082019050919050565b6000602082019050818103600083015261159e81611562565b9050919050565b7f4e657720626f617264206e616d652063616e6e6f7420626520656d7074792e00600082015250565b60006115db601f8361127e565b91506115e6826115a5565b602082019050919050565b6000602082019050818103600083015261160a816115ce565b9050919050565b7f426f617264206e616d652063616e6e6f7420626520656d7074792e0000000000600082015250565b6000611647601b8361127e565b915061165282611611565b602082019050919050565b600060208201905081810360008301526116768161163a565b9050919050565b600060408201905061169260008301856111de565b81810360208301526116a4818461128f565b90509392505050565b7f4f6e6c792074686520626f617264206f776e65722063616e2064656c6574652060008201527f74686520626f6172642e00000000000000000000000000000000000000000000602082015250565b6000611709602a8361127e565b9150611714826116ad565b604082019050919050565b60006020820190508181036000830152611738816116fc565b905091905056fea2646970667358221220dcb30eaefeea85d145dd3f530d4c5caae2f7cbfa0689f1f05c598496c13b97b364736f6c634300080d0033",
  "immutableReferences": {},
  "source": "// SPDX-License-Identifier: GPL-3.0\n\npragma solidity >=0.7.0 <0.9.0;\n\n//import \"hardhat/console.sol\";\nimport {Board, Pin} from \"./common/types.sol\";\nimport \"./common/functions.sol\";\n\n/**\n * @title BoardManager\n * @dev A smart contract for managing boards\n */\ncontract BoardManager {\n    event BoardCreated(\n        uint256 boardId,\n        string boardName,\n        address indexed owner\n    );\n\n    /**\n     * @dev Mapping to store boards by their ID\n     */\n    mapping(uint256 => Board) public boards;\n\n    /**\n     * @dev Number of boards created\n     */\n    uint256 public currentBoardId;\n\n    /**\n     * @dev Create a new board\n     * @param boardName Name of the board to create\n     * Requirements:\n     * - boardName cannot be an empty string\n     */\n    function createBoard(string memory boardName) public returns (uint256) {\n        require(bytes(boardName).length != 0, \"Board name cannot be empty.\");\n        currentBoardId++;\n        uint256[] memory pins;\n        Board memory board = Board(currentBoardId, boardName, msg.sender, pins);\n        boards[currentBoardId] = board;\n        emit BoardCreated(currentBoardId, boardName, msg.sender);\n        return currentBoardId;\n    }\n\n    /**\n     * @dev Delete an existing board\n     * @param boardId ID of the board to delete\n     * Requirements:\n     * - Only the board owner can delete the board\n     */\n    function deleteBoard(uint256 boardId) public {\n        require(boardId <= currentBoardId, \"Board does not exist.\");\n        require(\n            msg.sender == boards[boardId].owner,\n            \"Only the board owner can delete the board.\"\n        );\n        delete boards[boardId];\n    }\n\n    /**\n     * @dev Get board information by its ID\n     * @param boardId ID of the board to get\n     * @return Board struct containing board information\n     * Requirements:\n     * - Board with the given ID must exist\n     */\n    function getBoardById(uint256 boardId) public view returns (Board memory) {\n        require(boardId <= currentBoardId, \"Board does not exist.\");\n        require(boards[boardId].owner != address(0), \"Board does not exist.\");\n        return boards[boardId];\n    }\n\n    /**\n     * @dev Get all boards\n     * @return Board[] array containing all the boards\n     */\n    function getAllBoards() public view returns (Board[] memory) {\n        Board[] memory allBoards = new Board[](currentBoardId);\n        uint index = 0;\n\n        for (uint i = 1; i <= currentBoardId; i++) {\n            if (boards[i].owner != address(0)) {\n                allBoards[index] = boards[i];\n                index++;\n            }\n        }\n\n        // Resize the allBoards array to remove any unused elements\n        assembly {\n            mstore(allBoards, index)\n        }\n\n        return allBoards;\n    }\n\n    /**\n     * @dev Edit board information\n     * @param boardId ID of the board to edit\n     * @param newName New name for the board\n     * Requirements:\n     * - Only the board owner can edit the board\n     * - Board with the given ID must exist\n     */\n    function editBoard(uint256 boardId, string memory newName) public {\n        require(boardId <= currentBoardId, \"Board does not exist.\");\n        require(\n            msg.sender == boards[boardId].owner,\n            \"Only the board owner can edit the board.\"\n        );\n        require(bytes(newName).length != 0, \"New board name cannot be empty.\");\n\n        boards[boardId].name = newName;\n    }\n}\n",
  "sourcePath": "/Users/lisapolena/Documents/Master_04/Thesis/Prototyp/betterPinterest/src/contracts/boardManager.sol",
  "compiler": {
    "name": "solc",
    "version": "0.8.13+commit.abaa5c0e.Emscripten.clang"
  },
  "schemaVersion": "3.4.14",
  "updatedAt": "2023-06-01T20:20:37.938Z",
  "devdoc": {
    "details": "A smart contract for managing boards",
    "kind": "dev",
    "methods": {
      "createBoard(string)": {
        "details": "Create a new board",
        "params": {
          "boardName": "Name of the board to create Requirements: - boardName cannot be an empty string"
        }
      },
      "deleteBoard(uint256)": {
        "details": "Delete an existing board",
        "params": {
          "boardId": "ID of the board to delete Requirements: - Only the board owner can delete the board"
        }
      },
      "editBoard(uint256,string)": {
        "details": "Edit board information",
        "params": {
          "boardId": "ID of the board to edit",
          "newName": "New name for the board Requirements: - Only the board owner can edit the board - Board with the given ID must exist"
        }
      },
      "getAllBoards()": {
        "details": "Get all boards",
        "returns": {
          "_0": "Board[] array containing all the boards"
        }
      },
      "getBoardById(uint256)": {
        "details": "Get board information by its ID",
        "params": {
          "boardId": "ID of the board to get"
        },
        "returns": {
          "_0": "Board struct containing board information Requirements: - Board with the given ID must exist"
        }
      }
    },
    "stateVariables": {
      "boards": {
        "details": "Mapping to store boards by their ID"
      },
      "currentBoardId": {
        "details": "Number of boards created"
      }
    },
    "title": "BoardManager",
    "version": 1
  },
  "userdoc": {
    "kind": "user",
    "methods": {},
    "version": 1
  }
}