{
  "contractName": "BoardManager",
  "abi": [
    {
      "anonymous": false,
      "inputs": [
        {
          "indexed": false,
          "internalType": "uint256",
          "name": "boardId",
          "type": "uint256"
        },
        {
          "indexed": false,
          "internalType": "string",
          "name": "boardName",
          "type": "string"
        },
        {
          "indexed": true,
          "internalType": "address",
          "name": "owner",
          "type": "address"
        }
      ],
      "name": "BoardCreated",
      "type": "event"
    },
    {
      "anonymous": false,
      "inputs": [
        {
          "indexed": false,
          "internalType": "uint256",
          "name": "boardId",
          "type": "uint256"
        }
      ],
      "name": "BoardDeleted",
      "type": "event"
    },
    {
      "anonymous": false,
      "inputs": [
        {
          "indexed": false,
          "internalType": "uint256",
          "name": "boardId",
          "type": "uint256"
        },
        {
          "indexed": false,
          "internalType": "string",
          "name": "newName",
          "type": "string"
        }
      ],
      "name": "BoardEdited",
      "type": "event"
    },
    {
      "anonymous": false,
      "inputs": [
        {
          "indexed": false,
          "internalType": "uint256",
          "name": "pinId",
          "type": "uint256"
        },
        {
          "indexed": false,
          "internalType": "uint256",
          "name": "boardId",
          "type": "uint256"
        }
      ],
      "name": "PinSaved",
      "type": "event"
    },
    {
      "anonymous": false,
      "inputs": [
        {
          "indexed": false,
          "internalType": "uint256",
          "name": "pinId",
          "type": "uint256"
        },
        {
          "indexed": false,
          "internalType": "uint256",
          "name": "boardId",
          "type": "uint256"
        }
      ],
      "name": "SavedPinDeleted",
      "type": "event"
    },
    {
      "anonymous": false,
      "inputs": [
        {
          "indexed": false,
          "internalType": "uint256",
          "name": "pinId",
          "type": "uint256"
        },
        {
          "indexed": false,
          "internalType": "uint256",
          "name": "boardId",
          "type": "uint256"
        }
      ],
      "name": "SavedPinEdited",
      "type": "event"
    },
    {
      "inputs": [
        {
          "internalType": "uint256",
          "name": "",
          "type": "uint256"
        }
      ],
      "name": "boards",
      "outputs": [
        {
          "internalType": "uint256",
          "name": "id",
          "type": "uint256"
        },
        {
          "internalType": "string",
          "name": "name",
          "type": "string"
        },
        {
          "internalType": "address",
          "name": "owner",
          "type": "address"
        }
      ],
      "stateMutability": "view",
      "type": "function"
    },
    {
      "inputs": [],
      "name": "currentBoardId",
      "outputs": [
        {
          "internalType": "uint256",
          "name": "",
          "type": "uint256"
        }
      ],
      "stateMutability": "view",
      "type": "function"
    },
    {
      "inputs": [
        {
          "internalType": "string",
          "name": "boardName",
          "type": "string"
        }
      ],
      "name": "createBoard",
      "outputs": [
        {
          "internalType": "uint256",
          "name": "",
          "type": "uint256"
        }
      ],
      "stateMutability": "nonpayable",
      "type": "function"
    },
    {
      "inputs": [
        {
          "internalType": "uint256",
          "name": "boardId",
          "type": "uint256"
        },
        {
          "internalType": "string",
          "name": "newName",
          "type": "string"
        }
      ],
      "name": "editBoard",
      "outputs": [],
      "stateMutability": "nonpayable",
      "type": "function"
    },
    {
      "inputs": [
        {
          "internalType": "uint256",
          "name": "boardId",
          "type": "uint256"
        }
      ],
      "name": "deleteBoard",
      "outputs": [],
      "stateMutability": "nonpayable",
      "type": "function"
    },
    {
      "inputs": [
        {
          "internalType": "uint256",
          "name": "boardId",
          "type": "uint256"
        }
      ],
      "name": "getBoardById",
      "outputs": [
        {
          "components": [
            {
              "internalType": "uint256",
              "name": "id",
              "type": "uint256"
            },
            {
              "internalType": "string",
              "name": "name",
              "type": "string"
            },
            {
              "internalType": "address",
              "name": "owner",
              "type": "address"
            },
            {
              "internalType": "uint256[]",
              "name": "pins",
              "type": "uint256[]"
            }
          ],
          "internalType": "struct Board",
          "name": "",
          "type": "tuple"
        }
      ],
      "stateMutability": "view",
      "type": "function"
    },
    {
      "inputs": [
        {
          "internalType": "address",
          "name": "owner",
          "type": "address"
        }
      ],
      "name": "getBoardsByOwner",
      "outputs": [
        {
          "components": [
            {
              "internalType": "uint256",
              "name": "id",
              "type": "uint256"
            },
            {
              "internalType": "string",
              "name": "name",
              "type": "string"
            },
            {
              "internalType": "address",
              "name": "owner",
              "type": "address"
            },
            {
              "internalType": "uint256[]",
              "name": "pins",
              "type": "uint256[]"
            }
          ],
          "internalType": "struct Board[]",
          "name": "",
          "type": "tuple[]"
        }
      ],
      "stateMutability": "view",
      "type": "function"
    },
    {
      "inputs": [
        {
          "internalType": "uint256",
          "name": "boardId",
          "type": "uint256"
        },
        {
          "internalType": "uint256",
          "name": "pinId",
          "type": "uint256"
        }
      ],
      "name": "savePinToBoard",
      "outputs": [],
      "stateMutability": "nonpayable",
      "type": "function"
    },
    {
      "inputs": [
        {
          "internalType": "uint256",
          "name": "pinId",
          "type": "uint256"
        },
        {
          "internalType": "uint256",
          "name": "boardId",
          "type": "uint256"
        },
        {
          "internalType": "uint256",
          "name": "newBoardId",
          "type": "uint256"
        }
      ],
      "name": "editSavedPin",
      "outputs": [],
      "stateMutability": "nonpayable",
      "type": "function"
    },
    {
      "inputs": [
        {
          "internalType": "uint256",
          "name": "pinId",
          "type": "uint256"
        },
        {
          "internalType": "uint256",
          "name": "boardId",
          "type": "uint256"
        }
      ],
      "name": "deleteSavedPin",
      "outputs": [],
      "stateMutability": "nonpayable",
      "type": "function"
    }
  ],
  "bytecode": "0x608060405234801561001057600080fd5b50612006806100206000396000f3fe608060405234801561001057600080fd5b506004361061009e5760003560e01c8063a778b81a11610066578063a778b81a1461015b578063af2d715614610177578063b3d55dee146101a7578063f47810a1146101c3578063fb72d200146101df5761009e565b806326d51258146100a357806333942a48146100bf5780636a211e87146100dd57806387159746146100f95780639a7083f914610129575b600080fd5b6100bd60048036038101906100b8919061145c565b61020f565b005b6100c7610324565b6040516100d491906114c7565b60405180910390f35b6100f760048036038101906100f291906114e2565b61032a565b005b610113600480360381019061010e9190611535565b610559565b60405161012091906114c7565b60405180910390f35b610143600480360381019061013e919061157e565b6106f6565b60405161015293929190611674565b60405180910390f35b610175600480360381019061017091906116b2565b6107c8565b005b610191600480360381019061018c919061171e565b61092c565b60405161019e919061198e565b60405180910390f35b6101c160048036038101906101bc91906116b2565b610c51565b005b6101dd60048036038101906101d8919061157e565b610d58565b005b6101f960048036038101906101f4919061157e565b610ede565b6040516102069190611a1a565b60405180910390f35b60008083815260200190815260200160002060020160009054906101000a900473ffffffffffffffffffffffffffffffffffffffff1673ffffffffffffffffffffffffffffffffffffffff163373ffffffffffffffffffffffffffffffffffffffff16146102b2576040517f08c379a00000000000000000000000000000000000000000000000000000000081526004016102a990611aae565b60405180910390fd5b60008151036102f6576040517f08c379a00000000000000000000000000000000000000000000000000000000081526004016102ed90611b1a565b60405180910390fd5b80600080848152602001908152602001600020600101908051906020019061031f92919061113d565b505050565b60015481565b60015481111561036f576040517f08c379a000000000000000000000000000000000000000000000000000000000815260040161036690611b86565b60405180910390fd5b6001548211156103b4576040517f08c379a00000000000000000000000000000000000000000000000000000000081526004016103ab90611bf2565b60405180910390fd5b600080600084815260200190815260200160002090506000806000848152602001908152602001600020905060008511610423576040517f08c379a000000000000000000000000000000000000000000000000000000000815260040161041a90611c84565b60405180910390fd5b600082600301905060005b81805490508110156104ec578682828154811061044e5761044d611ca4565b5b9060005260206000200154036104d95781600183805490506104709190611d02565b8154811061048157610480611ca4565b5b906000526020600020015482828154811061049f5761049e611ca4565b5b9060005260206000200181905550818054806104be576104bd611d36565b5b600190038181906000526020600020016000905590556104ec565b80806104e490611d65565b91505061042e565b50816003018690806001815401808255809150506001900390600052602060002001600090919091909150557f04475d7e28f4cdb7ac10e432ee2c6c6ca8af04441f239b8b43780f259566af118685604051610549929190611dad565b60405180910390a1505050505050565b60008082510361059e576040517f08c379a000000000000000000000000000000000000000000000000000000000815260040161059590611e22565b60405180910390fd5b600160008154809291906105b190611d65565b919050555060606000604051806080016040528060015481526020018581526020013373ffffffffffffffffffffffffffffffffffffffff16815260200183815250905080600080600154815260200190815260200160002060008201518160000155602082015181600101908051906020019061063092919061113d565b5060408201518160020160006101000a81548173ffffffffffffffffffffffffffffffffffffffff021916908373ffffffffffffffffffffffffffffffffffffffff16021790555060608201518160030190805190602001906106949291906111c3565b509050503373ffffffffffffffffffffffffffffffffffffffff167fac364e15813c225ec404ce90e1d473c41abc7b9bd06ce024a06988906fc7668b600154866040516106e2929190611e42565b60405180910390a260015492505050919050565b600060205280600052604060002060009150905080600001549080600101805461071f90611ea1565b80601f016020809104026020016040519081016040528092919081815260200182805461074b90611ea1565b80156107985780601f1061076d57610100808354040283529160200191610798565b820191906000526020600020905b81548152906001019060200180831161077b57829003601f168201915b5050505050908060020160009054906101000a900473ffffffffffffffffffffffffffffffffffffffff16905083565b60015481111561080d576040517f08c379a000000000000000000000000000000000000000000000000000000000815260040161080490611f1e565b60405180910390fd5b60008060008381526020019081526020016000209050600081600301905060005b81805490508110156108ec578482828154811061084e5761084d611ca4565b5b9060005260206000200154036108d95781600183805490506108709190611d02565b8154811061088157610880611ca4565b5b906000526020600020015482828154811061089f5761089e611ca4565b5b9060005260206000200181905550818054806108be576108bd611d36565b5b600190038181906000526020600020016000905590556108ec565b80806108e490611d65565b91505061082e565b507f50aa957e57c079bfd9bc0b2ce096427029f577f3c2e8bc010485679d09bd279e848460405161091e929190611dad565b60405180910390a150505050565b6060600080600190505b60015481116109c9578373ffffffffffffffffffffffffffffffffffffffff1660008083815260200190815260200160002060020160009054906101000a900473ffffffffffffffffffffffffffffffffffffffff1673ffffffffffffffffffffffffffffffffffffffff16036109b65781806109b290611d65565b9250505b80806109c190611d65565b915050610936565b5060008167ffffffffffffffff8111156109e6576109e5611331565b5b604051908082528060200260200182016040528015610a1f57816020015b610a0c611210565b815260200190600190039081610a045790505b509050600080600190505b6001548111610c42578573ffffffffffffffffffffffffffffffffffffffff1660008083815260200190815260200160002060020160009054906101000a900473ffffffffffffffffffffffffffffffffffffffff1673ffffffffffffffffffffffffffffffffffffffff1603610c2f5760008082815260200190815260200160002060405180608001604052908160008201548152602001600182018054610ad290611ea1565b80601f0160208091040260200160405190810160405280929190818152602001828054610afe90611ea1565b8015610b4b5780601f10610b2057610100808354040283529160200191610b4b565b820191906000526020600020905b815481529060010190602001808311610b2e57829003601f168201915b505050505081526020016002820160009054906101000a900473ffffffffffffffffffffffffffffffffffffffff1673ffffffffffffffffffffffffffffffffffffffff1673ffffffffffffffffffffffffffffffffffffffff16815260200160038201805480602002602001604051908101604052809291908181526020018280548015610bf957602002820191906000526020600020905b815481526020019060010190808311610be5575b505050505081525050838381518110610c1557610c14611ca4565b5b60200260200101819052508180610c2b90611d65565b9250505b8080610c3a90611d65565b915050610a2a565b50808252819350505050919050565b600154821115610c96576040517f08c379a0000000000000000000000000000000000000000000000000000000008152600401610c8d90611f1e565b60405180910390fd5b60008111610cd9576040517f08c379a0000000000000000000000000000000000000000000000000000000008152600401610cd090611c84565b60405180910390fd5b60008060008481526020019081526020016000209050806003018290806001815401808255809150506001900390600052602060002001600090919091909150557f254924bb2e054e39fb8f465854bd69f92a4ef727ef0ebe475a3e394070d1f42b8284604051610d4b929190611dad565b60405180910390a1505050565b600154811115610d9d576040517f08c379a0000000000000000000000000000000000000000000000000000000008152600401610d9490611f1e565b60405180910390fd5b60008082815260200190815260200160002060020160009054906101000a900473ffffffffffffffffffffffffffffffffffffffff1673ffffffffffffffffffffffffffffffffffffffff163373ffffffffffffffffffffffffffffffffffffffff1614610e40576040517f08c379a0000000000000000000000000000000000000000000000000000000008152600401610e3790611fb0565b60405180910390fd5b7f4e8a750abb5bc4433f76ccc65ec77d14d55174b068aa54a2d68383fd76601cdb81604051610e6f91906114c7565b60405180910390a1600080828152602001908152602001600020600080820160009055600182016000610ea2919061124e565b6002820160006101000a81549073ffffffffffffffffffffffffffffffffffffffff0219169055600382016000610ed9919061128e565b505050565b610ee6611210565b600154821115610f2b576040517f08c379a0000000000000000000000000000000000000000000000000000000008152600401610f2290611f1e565b60405180910390fd5b600073ffffffffffffffffffffffffffffffffffffffff1660008084815260200190815260200160002060020160009054906101000a900473ffffffffffffffffffffffffffffffffffffffff1673ffffffffffffffffffffffffffffffffffffffff1603610fcf576040517f08c379a0000000000000000000000000000000000000000000000000000000008152600401610fc690611f1e565b60405180910390fd5b6000808381526020019081526020016000206040518060800160405290816000820154815260200160018201805461100690611ea1565b80601f016020809104026020016040519081016040528092919081815260200182805461103290611ea1565b801561107f5780601f106110545761010080835404028352916020019161107f565b820191906000526020600020905b81548152906001019060200180831161106257829003601f168201915b505050505081526020016002820160009054906101000a900473ffffffffffffffffffffffffffffffffffffffff1673ffffffffffffffffffffffffffffffffffffffff1673ffffffffffffffffffffffffffffffffffffffff1681526020016003820180548060200260200160405190810160405280929190818152602001828054801561112d57602002820191906000526020600020905b815481526020019060010190808311611119575b5050505050815250509050919050565b82805461114990611ea1565b90600052602060002090601f01602090048101928261116b57600085556111b2565b82601f1061118457805160ff19168380011785556111b2565b828001600101855582156111b2579182015b828111156111b1578251825591602001919060010190611196565b5b5090506111bf91906112af565b5090565b8280548282559060005260206000209081019282156111ff579160200282015b828111156111fe5782518255916020019190600101906111e3565b5b50905061120c91906112af565b5090565b60405180608001604052806000815260200160608152602001600073ffffffffffffffffffffffffffffffffffffffff168152602001606081525090565b50805461125a90611ea1565b6000825580601f1061126c575061128b565b601f01602090049060005260206000209081019061128a91906112af565b5b50565b50805460008255906000526020600020908101906112ac91906112af565b50565b5b808211156112c85760008160009055506001016112b0565b5090565b6000604051905090565b600080fd5b600080fd5b6000819050919050565b6112f3816112e0565b81146112fe57600080fd5b50565b600081359050611310816112ea565b92915050565b600080fd5b600080fd5b6000601f19601f8301169050919050565b7f4e487b7100000000000000000000000000000000000000000000000000000000600052604160045260246000fd5b61136982611320565b810181811067ffffffffffffffff8211171561138857611387611331565b5b80604052505050565b600061139b6112cc565b90506113a78282611360565b919050565b600067ffffffffffffffff8211156113c7576113c6611331565b5b6113d082611320565b9050602081019050919050565b82818337600083830152505050565b60006113ff6113fa846113ac565b611391565b90508281526020810184848401111561141b5761141a61131b565b5b6114268482856113dd565b509392505050565b600082601f83011261144357611442611316565b5b81356114538482602086016113ec565b91505092915050565b60008060408385031215611473576114726112d6565b5b600061148185828601611301565b925050602083013567ffffffffffffffff8111156114a2576114a16112db565b5b6114ae8582860161142e565b9150509250929050565b6114c1816112e0565b82525050565b60006020820190506114dc60008301846114b8565b92915050565b6000806000606084860312156114fb576114fa6112d6565b5b600061150986828701611301565b935050602061151a86828701611301565b925050604061152b86828701611301565b9150509250925092565b60006020828403121561154b5761154a6112d6565b5b600082013567ffffffffffffffff811115611569576115686112db565b5b6115758482850161142e565b91505092915050565b600060208284031215611594576115936112d6565b5b60006115a284828501611301565b91505092915050565b600081519050919050565b600082825260208201905092915050565b60005b838110156115e55780820151818401526020810190506115ca565b838111156115f4576000848401525b50505050565b6000611605826115ab565b61160f81856115b6565b935061161f8185602086016115c7565b61162881611320565b840191505092915050565b600073ffffffffffffffffffffffffffffffffffffffff82169050919050565b600061165e82611633565b9050919050565b61166e81611653565b82525050565b600060608201905061168960008301866114b8565b818103602083015261169b81856115fa565b90506116aa6040830184611665565b949350505050565b600080604083850312156116c9576116c86112d6565b5b60006116d785828601611301565b92505060206116e885828601611301565b9150509250929050565b6116fb81611653565b811461170657600080fd5b50565b600081359050611718816116f2565b92915050565b600060208284031215611734576117336112d6565b5b600061174284828501611709565b91505092915050565b600081519050919050565b600082825260208201905092915050565b6000819050602082019050919050565b611780816112e0565b82525050565b600082825260208201905092915050565b60006117a2826115ab565b6117ac8185611786565b93506117bc8185602086016115c7565b6117c581611320565b840191505092915050565b6117d981611653565b82525050565b600081519050919050565b600082825260208201905092915050565b6000819050602082019050919050565b60006118178383611777565b60208301905092915050565b6000602082019050919050565b600061183b826117df565b61184581856117ea565b9350611850836117fb565b8060005b83811015611881578151611868888261180b565b975061187383611823565b925050600181019050611854565b5085935050505092915050565b60006080830160008301516118a66000860182611777565b50602083015184820360208601526118be8282611797565b91505060408301516118d360408601826117d0565b50606083015184820360608601526118eb8282611830565b9150508091505092915050565b6000611904838361188e565b905092915050565b6000602082019050919050565b60006119248261174b565b61192e8185611756565b93508360208202850161194085611767565b8060005b8581101561197c578484038952815161195d85826118f8565b94506119688361190c565b925060208a01995050600181019050611944565b50829750879550505050505092915050565b600060208201905081810360008301526119a88184611919565b905092915050565b60006080830160008301516119c86000860182611777565b50602083015184820360208601526119e08282611797565b91505060408301516119f560408601826117d0565b5060608301518482036060860152611a0d8282611830565b9150508091505092915050565b60006020820190508181036000830152611a3481846119b0565b905092915050565b7f4f6e6c792074686520626f617264206f776e65722063616e206564697420746860008201527f6520626f6172642e000000000000000000000000000000000000000000000000602082015250565b6000611a986028836115b6565b9150611aa382611a3c565b604082019050919050565b60006020820190508181036000830152611ac781611a8b565b9050919050565b7f4e657720626f617264206e616d652063616e6e6f7420626520656d7074792e00600082015250565b6000611b04601f836115b6565b9150611b0f82611ace565b602082019050919050565b60006020820190508181036000830152611b3381611af7565b9050919050565b7f4e657720426f61726420646f6573206e6f742065786973742e00000000000000600082015250565b6000611b706019836115b6565b9150611b7b82611b3a565b602082019050919050565b60006020820190508181036000830152611b9f81611b63565b9050919050565b7f4f6c6420426f61726420646f6573206e6f742065786973742e00000000000000600082015250565b6000611bdc6019836115b6565b9150611be782611ba6565b602082019050919050565b60006020820190508181036000830152611c0b81611bcf565b9050919050565b7f50696e204944206d7573742062652067726561746572207468616e207a65726f60008201527f2e00000000000000000000000000000000000000000000000000000000000000602082015250565b6000611c6e6021836115b6565b9150611c7982611c12565b604082019050919050565b60006020820190508181036000830152611c9d81611c61565b9050919050565b7f4e487b7100000000000000000000000000000000000000000000000000000000600052603260045260246000fd5b7f4e487b7100000000000000000000000000000000000000000000000000000000600052601160045260246000fd5b6000611d0d826112e0565b9150611d18836112e0565b925082821015611d2b57611d2a611cd3565b5b828203905092915050565b7f4e487b7100000000000000000000000000000000000000000000000000000000600052603160045260246000fd5b6000611d70826112e0565b91507fffffffffffffffffffffffffffffffffffffffffffffffffffffffffffffffff8203611da257611da1611cd3565b5b600182019050919050565b6000604082019050611dc260008301856114b8565b611dcf60208301846114b8565b9392505050565b7f426f617264206e616d652063616e6e6f7420626520656d7074792e0000000000600082015250565b6000611e0c601b836115b6565b9150611e1782611dd6565b602082019050919050565b60006020820190508181036000830152611e3b81611dff565b9050919050565b6000604082019050611e5760008301856114b8565b8181036020830152611e6981846115fa565b90509392505050565b7f4e487b7100000000000000000000000000000000000000000000000000000000600052602260045260246000fd5b60006002820490506001821680611eb957607f821691505b602082108103611ecc57611ecb611e72565b5b50919050565b7f426f61726420646f6573206e6f742065786973742e0000000000000000000000600082015250565b6000611f086015836115b6565b9150611f1382611ed2565b602082019050919050565b60006020820190508181036000830152611f3781611efb565b9050919050565b7f4f6e6c792074686520626f617264206f776e65722063616e2064656c6574652060008201527f74686520626f6172642e00000000000000000000000000000000000000000000602082015250565b6000611f9a602a836115b6565b9150611fa582611f3e565b604082019050919050565b60006020820190508181036000830152611fc981611f8d565b905091905056fea26469706673582212208bf07985cc089eaff1e78246fb04f41b359dd09d434508d5ef4402b8905703a864736f6c634300080d0033",
  "immutableReferences": {},
  "source": "// SPDX-License-Identifier: GPL-3.0\n\npragma solidity >=0.7.0 <0.9.0;\n\n//import \"hardhat/console.sol\";\nimport {Board, Pin} from \"./common/types.sol\";\n\n/**\n * @title BoardManager\n * @dev A smart contract for managing boards\n */\ncontract BoardManager {\n    /**\n     * @dev Event emitted when a new board is created\n     * @param boardId ID of the board created\n     * @param boardName Name of the board created\n     * @param owner Owner of the board created\n     */\n    event BoardCreated(\n        uint256 boardId,\n        string boardName,\n        address indexed owner\n    );\n\n    /**\n     * @dev Event emitted when a board is deleted\n     * @param boardId ID of the board deleted\n     */\n    event BoardDeleted(uint256 boardId);\n\n    /**\n     * @dev Event emitted when a board is edited\n     * @param boardId ID of the board edited\n     * @param newName New name of the board edited\n     */\n    event BoardEdited(uint256 boardId, string newName);\n\n    /**\n     * @dev Event emitted when a pin is saved to a board\n     * @param pinId ID of the saved pin\n     * @param boardId ID of the board the pin is saved to\n     */\n    event PinSaved(uint256 pinId, uint256 boardId);\n\n    /**\n     * @dev Event emitted when a saved pin is edited\n     * @param pinId ID of the pin edited\n     * @param boardId ID of the new board\n     */\n    event SavedPinEdited(uint256 pinId, uint256 boardId);\n\n    /**\n     * @dev Event emitted when a saved pin is deleted\n     * @param pinId ID of the pin edited\n     * @param boardId ID of the board\n     */\n    event SavedPinDeleted(uint256 pinId, uint256 boardId);\n\n    /**\n     * @dev Mapping to store boards by their ID\n     */\n    mapping(uint256 => Board) public boards;\n\n    /**\n     * @dev Number of boards created\n     */\n    uint256 public currentBoardId;\n\n    /**\n     * @dev Create a new board\n     * @param boardName Name of the board to create\n     * Requirements:\n     * - boardName cannot be an empty string\n     */\n    function createBoard(string memory boardName) public returns (uint256) {\n        require(bytes(boardName).length != 0, \"Board name cannot be empty.\");\n        currentBoardId++;\n        uint256[] memory pins;\n        Board memory board = Board(currentBoardId, boardName, msg.sender, pins);\n        boards[currentBoardId] = board;\n        emit BoardCreated(currentBoardId, boardName, msg.sender);\n        return currentBoardId;\n    }\n\n    /**\n     * @dev Edit board information\n     * @param boardId ID of the board to edit\n     * @param newName New name for the board\n     * Requirements:\n     * - Only the board owner can edit the board\n     * - Board with the given ID must exist\n     */\n    function editBoard(uint256 boardId, string memory newName) public {\n        require(\n            msg.sender == boards[boardId].owner,\n            \"Only the board owner can edit the board.\"\n        );\n        require(bytes(newName).length != 0, \"New board name cannot be empty.\");\n\n        boards[boardId].name = newName;\n    }\n\n    /**\n     * @dev Delete an existing board\n     * @param boardId ID of the board to delete\n     * Requirements:\n     * - Only the board owner can delete the board\n     */\n    function deleteBoard(uint256 boardId) public {\n        require(boardId <= currentBoardId, \"Board does not exist.\");\n        require(\n            msg.sender == boards[boardId].owner,\n            \"Only the board owner can delete the board.\"\n        );\n        emit BoardDeleted(boardId);\n        delete boards[boardId];\n    }\n\n    /**\n     * @dev Get board information by its ID\n     * @param boardId ID of the board to get\n     * @return Board struct containing board information\n     * Requirements:\n     * - Board with the given ID must exist\n     */\n    function getBoardById(uint256 boardId) public view returns (Board memory) {\n        require(boardId <= currentBoardId, \"Board does not exist.\");\n        require(boards[boardId].owner != address(0), \"Board does not exist.\");\n        return boards[boardId];\n    }\n\n    /**\n     * @dev Get boards owned by a specific address\n     * @param owner Address of the board owner\n     * @return Board[] array containing the boards owned by the specified address\n     */\n    function getBoardsByOwner(\n        address owner\n    ) public view returns (Board[] memory) {\n        uint256 count = 0;\n\n        // Count the number of boards owned by the specified address\n        for (uint256 i = 1; i <= currentBoardId; i++) {\n            if (boards[i].owner == owner) {\n                count++;\n            }\n        }\n\n        // Create an array with the count of boards\n        Board[] memory ownerBoards = new Board[](count);\n        uint256 index = 0;\n\n        // Retrieve the boards owned by the specified address\n        for (uint256 i = 1; i <= currentBoardId; i++) {\n            if (boards[i].owner == owner) {\n                ownerBoards[index] = boards[i];\n                index++;\n            }\n        }\n\n        // Resize the ownerBoards array to remove any unused elements\n        assembly {\n            mstore(ownerBoards, index)\n        }\n\n        return ownerBoards;\n    }\n\n    /* @dev Save a new pin to a board\n     * @param boardId ID of the board to save the pin to\n     * @param pinId ID of the pin to save\n     * Requirements:\n     * - Board with the given ID must exist\n     * - Pin ID must be unique within the board\n     */\n    function savePinToBoard(uint256 boardId, uint256 pinId) public {\n        require(boardId <= currentBoardId, \"Board does not exist.\");\n        require(pinId > 0, \"Pin ID must be greater than zero.\");\n\n        Board storage board = boards[boardId];\n        board.pins.push(pinId);\n\n        emit PinSaved(pinId, boardId);\n    }\n\n    /**\n     * @dev Edit a saved pin\n     * @param pinId ID of the pin to edit\n     * @param boardId ID of the board the pin is saved to\n     * @param newBoardId ID of the new board to save the pin to\n     * Requirements:\n     * - Board with the given ID must exist\n     * - Pin ID must be unique within the board\n     */\n    function editSavedPin(\n        uint256 pinId,\n        uint256 boardId,\n        uint256 newBoardId\n    ) public {\n        require(newBoardId <= currentBoardId, \"New Board does not exist.\");\n        require(boardId <= currentBoardId, \"Old Board does not exist.\");\n\n        Board storage oldBoard = boards[boardId];\n        Board storage newBoard = boards[newBoardId];\n        require(pinId > 0, \"Pin ID must be greater than zero.\");\n\n        // Delete pin from the old board\n        uint256[] storage oldBoardPins = oldBoard.pins;\n        for (uint256 i = 0; i < oldBoardPins.length; i++) {\n            if (oldBoardPins[i] == pinId) {\n                // Move the last element to the deleted position\n                oldBoardPins[i] = oldBoardPins[oldBoardPins.length - 1];\n                // Decrease the length of the array by 1\n                oldBoardPins.pop();\n                break;\n            }\n        }\n\n        // Save pin to the new board\n        newBoard.pins.push(pinId);\n\n        emit SavedPinEdited(pinId, newBoardId);\n    }\n\n    /**\n     * @dev Delete a saved pin\n     * @param pinId ID of the pin to delete\n     * @param boardId ID of the board the pin is saved to\n     * Requirements:\n     * - Board with the given ID must exist\n     * - Pin with the given ID must exist in the board's pins array\n     */\n    function deleteSavedPin(uint256 pinId, uint256 boardId) public {\n        require(boardId <= currentBoardId, \"Board does not exist.\");\n\n        Board storage board = boards[boardId];\n        uint256[] storage pins = board.pins;\n\n        for (uint256 i = 0; i < pins.length; i++) {\n            if (pins[i] == pinId) {\n                // Move the last element to the deleted position\n                pins[i] = pins[pins.length - 1];\n                // Decrease the length of the array by 1\n                pins.pop();\n                break;\n            }\n        }\n\n        emit SavedPinDeleted(pinId, boardId);\n    }\n}\n",
  "sourcePath": "/Users/lisapolena/Documents/Master_04/Thesis/Prototyp/betterPinterest/src/contracts/boardManager.sol",
  "compiler": {
    "name": "solc",
    "version": "0.8.13+commit.abaa5c0e.Emscripten.clang"
  },
  "schemaVersion": "3.4.14",
  "updatedAt": "2023-06-05T19:03:52.491Z",
  "devdoc": {
    "details": "A smart contract for managing boards",
    "events": {
      "BoardCreated(uint256,string,address)": {
        "details": "Event emitted when a new board is created",
        "params": {
          "boardId": "ID of the board created",
          "boardName": "Name of the board created",
          "owner": "Owner of the board created"
        }
      },
      "BoardDeleted(uint256)": {
        "details": "Event emitted when a board is deleted",
        "params": {
          "boardId": "ID of the board deleted"
        }
      },
      "BoardEdited(uint256,string)": {
        "details": "Event emitted when a board is edited",
        "params": {
          "boardId": "ID of the board edited",
          "newName": "New name of the board edited"
        }
      },
      "PinSaved(uint256,uint256)": {
        "details": "Event emitted when a pin is saved to a board",
        "params": {
          "boardId": "ID of the board the pin is saved to",
          "pinId": "ID of the saved pin"
        }
      },
      "SavedPinDeleted(uint256,uint256)": {
        "details": "Event emitted when a saved pin is deleted",
        "params": {
          "boardId": "ID of the board",
          "pinId": "ID of the pin edited"
        }
      },
      "SavedPinEdited(uint256,uint256)": {
        "details": "Event emitted when a saved pin is edited",
        "params": {
          "boardId": "ID of the new board",
          "pinId": "ID of the pin edited"
        }
      }
    },
    "kind": "dev",
    "methods": {
      "createBoard(string)": {
        "details": "Create a new board",
        "params": {
          "boardName": "Name of the board to create Requirements: - boardName cannot be an empty string"
        }
      },
      "deleteBoard(uint256)": {
        "details": "Delete an existing board",
        "params": {
          "boardId": "ID of the board to delete Requirements: - Only the board owner can delete the board"
        }
      },
      "deleteSavedPin(uint256,uint256)": {
        "details": "Delete a saved pin",
        "params": {
          "boardId": "ID of the board the pin is saved to Requirements: - Board with the given ID must exist - Pin with the given ID must exist in the board's pins array",
          "pinId": "ID of the pin to delete"
        }
      },
      "editBoard(uint256,string)": {
        "details": "Edit board information",
        "params": {
          "boardId": "ID of the board to edit",
          "newName": "New name for the board Requirements: - Only the board owner can edit the board - Board with the given ID must exist"
        }
      },
      "editSavedPin(uint256,uint256,uint256)": {
        "details": "Edit a saved pin",
        "params": {
          "boardId": "ID of the board the pin is saved to",
          "newBoardId": "ID of the new board to save the pin to Requirements: - Board with the given ID must exist - Pin ID must be unique within the board",
          "pinId": "ID of the pin to edit"
        }
      },
      "getBoardById(uint256)": {
        "details": "Get board information by its ID",
        "params": {
          "boardId": "ID of the board to get"
        },
        "returns": {
          "_0": "Board struct containing board information Requirements: - Board with the given ID must exist"
        }
      },
      "getBoardsByOwner(address)": {
        "details": "Get boards owned by a specific address",
        "params": {
          "owner": "Address of the board owner"
        },
        "returns": {
          "_0": "Board[] array containing the boards owned by the specified address"
        }
      }
    },
    "stateVariables": {
      "boards": {
        "details": "Mapping to store boards by their ID"
      },
      "currentBoardId": {
        "details": "Number of boards created"
      }
    },
    "title": "BoardManager",
    "version": 1
  },
  "userdoc": {
    "kind": "user",
    "methods": {},
    "version": 1
  }
}