{
  "contractName": "Functions",
  "abi": [
    {
      "inputs": [],
      "name": "generateId",
      "outputs": [
        {
          "internalType": "bytes16",
          "name": "",
          "type": "bytes16"
        }
      ],
      "stateMutability": "view",
      "type": "function"
    },
    {
      "inputs": [
        {
          "internalType": "uint256",
          "name": "x",
          "type": "uint256"
        }
      ],
      "name": "uintToBytes16",
      "outputs": [
        {
          "internalType": "bytes16",
          "name": "",
          "type": "bytes16"
        }
      ],
      "stateMutability": "pure",
      "type": "function"
    }
  ],
  "bytecode": "0x6102ab610053600b82828239805160001a607314610046577f4e487b7100000000000000000000000000000000000000000000000000000000600052600060045260246000fd5b30600052607381538281f3fe73000000000000000000000000000000000000000030146080604052600436106100405760003560e01c80636f8dcb3d146100455780637e60094f14610063575b600080fd5b61004d610093565b60405161005a919061011a565b60405180910390f35b61007d60048036038101906100789190610170565b6100d0565b60405161008a919061011a565b60405180910390f35b6000803342446040516020016100ab93929190610238565b6040516020818303038152906040528051906020012090506000819050809250505090565b60008082905080915050919050565b60007fffffffffffffffffffffffffffffffff0000000000000000000000000000000082169050919050565b610114816100df565b82525050565b600060208201905061012f600083018461010b565b92915050565b600080fd5b6000819050919050565b61014d8161013a565b811461015857600080fd5b50565b60008135905061016a81610144565b92915050565b60006020828403121561018657610185610135565b5b60006101948482850161015b565b91505092915050565b600073ffffffffffffffffffffffffffffffffffffffff82169050919050565b60006101c88261019d565b9050919050565b60008160601b9050919050565b60006101e7826101cf565b9050919050565b60006101f9826101dc565b9050919050565b61021161020c826101bd565b6101ee565b82525050565b6000819050919050565b61023261022d8261013a565b610217565b82525050565b60006102448286610200565b6014820191506102548285610221565b6020820191506102648284610221565b60208201915081905094935050505056fea2646970667358221220df98c8026f1bdbdc1ed540f0be1a2a3b827d6b048aa3390315d8a1406a657c7964736f6c634300080d0033",
  "immutableReferences": {},
  "source": "// SPDX-License-Identifier: GPL-3.0\n\npragma solidity >=0.7.0 <0.9.0;\n\nlibrary Functions {\n    /**\n     * @dev Generate a unique ID for a board\n     * @return Unique bytes16 ID\n     * Note: This implementation uses a hash of the sender's address, current block timestamp, and previous block's random number as the ID\n     */\n    function generateId() public view returns (bytes16) {\n        bytes32 uuid = keccak256(\n            abi.encodePacked(msg.sender, block.timestamp, block.difficulty)\n        );\n        bytes16 id;\n        assembly {\n            id := uuid\n        }\n        return id;\n    }\n\n    /**\n     * @dev Helper function to convert a uint256 to bytes16\n     * @param x The uint256 value to convert\n     * @return bytes16 representation of the input\n     */\n    function uintToBytes16(uint256 x) public pure returns (bytes16) {\n        bytes16 b;\n        assembly {\n            b := x\n        }\n        return b;\n    }\n}\n",
  "sourcePath": "/Users/lisapolena/Documents/Master_04/Thesis/Prototyp/betterPinterest/src/contracts/common/functions.sol",
  "compiler": {
    "name": "solc",
    "version": "0.8.13+commit.abaa5c0e.Emscripten.clang"
  },
  "schemaVersion": "3.4.14",
  "updatedAt": "2023-06-01T19:40:59.748Z",
  "devdoc": {
    "kind": "dev",
    "methods": {
      "generateId()": {
        "details": "Generate a unique ID for a board",
        "returns": {
          "_0": "Unique bytes16 ID Note: This implementation uses a hash of the sender's address, current block timestamp, and previous block's random number as the ID"
        }
      },
      "uintToBytes16(uint256)": {
        "details": "Helper function to convert a uint256 to bytes16",
        "params": {
          "x": "The uint256 value to convert"
        },
        "returns": {
          "_0": "bytes16 representation of the input"
        }
      }
    },
    "version": 1
  },
  "userdoc": {
    "kind": "user",
    "methods": {},
    "version": 1
  }
}