{
  "contractName": "Functions",
  "abi": [
    {
      "inputs": [],
      "name": "generateId",
      "outputs": [
        {
          "internalType": "bytes16",
          "name": "",
          "type": "bytes16"
        }
      ],
      "stateMutability": "view",
      "type": "function"
    }
  ],
  "bytecode": "0x608060405234801561001057600080fd5b506101f9806100206000396000f3fe608060405234801561001057600080fd5b506004361061002b5760003560e01c80636f8dcb3d14610030575b600080fd5b61003861004e565b60405161004591906100c6565b60405180910390f35b60008033424460405160200161006693929190610186565b6040516020818303038152906040528051906020012090506000819050809250505090565b60007fffffffffffffffffffffffffffffffff0000000000000000000000000000000082169050919050565b6100c08161008b565b82525050565b60006020820190506100db60008301846100b7565b92915050565b600073ffffffffffffffffffffffffffffffffffffffff82169050919050565b600061010c826100e1565b9050919050565b60008160601b9050919050565b600061012b82610113565b9050919050565b600061013d82610120565b9050919050565b61015561015082610101565b610132565b82525050565b6000819050919050565b6000819050919050565b61018061017b8261015b565b610165565b82525050565b60006101928286610144565b6014820191506101a2828561016f565b6020820191506101b2828461016f565b60208201915081905094935050505056fea2646970667358221220b181367084fa327f6bf46d5a927842d5b22634f66e1f2e470e985f96dbcec30c64736f6c634300080d0033",
  "immutableReferences": {},
  "source": "// SPDX-License-Identifier: GPL-3.0\n\npragma solidity >=0.7.0 <0.9.0;\n\ncontract Functions {\n    /**\n     * @dev Generate a unique ID for a board\n     * @return Unique bytes16 ID\n     * Note: This implementation uses a hash of the sender's address, current block timestamp, and previous block's random number as the ID\n     */\n    function generateId() public view returns (bytes16) {\n        bytes32 uuid = keccak256(\n            abi.encodePacked(msg.sender, block.timestamp, block.difficulty)\n        );\n        bytes16 id;\n        assembly {\n            id := uuid\n        }\n        return id;\n    }\n}\n",
  "sourcePath": "/Users/lisapolena/Documents/Master_04/Thesis/Prototyp/betterPinterest/src/contracts/common/functions.sol",
  "compiler": {
    "name": "solc",
    "version": "0.8.13+commit.abaa5c0e.Emscripten.clang"
  },
  "schemaVersion": "3.4.14",
  "updatedAt": "2023-05-26T10:30:27.279Z",
  "devdoc": {
    "kind": "dev",
    "methods": {
      "generateId()": {
        "details": "Generate a unique ID for a board",
        "returns": {
          "_0": "Unique bytes16 ID Note: This implementation uses a hash of the sender's address, current block timestamp, and previous block's random number as the ID"
        }
      }
    },
    "version": 1
  },
  "userdoc": {
    "kind": "user",
    "methods": {},
    "version": 1
  }
}