{
  "contractName": "PinManager",
  "abi": [
    {
      "anonymous": false,
      "inputs": [
        {
          "indexed": false,
          "internalType": "uint256",
          "name": "pinId",
          "type": "uint256"
        },
        {
          "indexed": false,
          "internalType": "string",
          "name": "newTitle",
          "type": "string"
        },
        {
          "indexed": false,
          "internalType": "string",
          "name": "newDescription",
          "type": "string"
        },
        {
          "indexed": false,
          "internalType": "uint256",
          "name": "boardId",
          "type": "uint256"
        }
      ],
      "name": "CreatedPinEdited",
      "type": "event"
    },
    {
      "anonymous": false,
      "inputs": [
        {
          "indexed": false,
          "internalType": "uint256",
          "name": "pinId",
          "type": "uint256"
        },
        {
          "indexed": false,
          "internalType": "string",
          "name": "title",
          "type": "string"
        },
        {
          "indexed": false,
          "internalType": "string",
          "name": "description",
          "type": "string"
        },
        {
          "indexed": false,
          "internalType": "string",
          "name": "imageHash",
          "type": "string"
        },
        {
          "indexed": true,
          "internalType": "uint256",
          "name": "boardId",
          "type": "uint256"
        },
        {
          "indexed": true,
          "internalType": "address",
          "name": "owner",
          "type": "address"
        }
      ],
      "name": "PinCreated",
      "type": "event"
    },
    {
      "anonymous": false,
      "inputs": [
        {
          "indexed": false,
          "internalType": "uint256",
          "name": "pinId",
          "type": "uint256"
        }
      ],
      "name": "PinDeleted",
      "type": "event"
    },
    {
      "inputs": [],
      "name": "currentPinId",
      "outputs": [
        {
          "internalType": "uint256",
          "name": "",
          "type": "uint256"
        }
      ],
      "stateMutability": "view",
      "type": "function"
    },
    {
      "inputs": [
        {
          "internalType": "uint256",
          "name": "",
          "type": "uint256"
        }
      ],
      "name": "pins",
      "outputs": [
        {
          "internalType": "uint256",
          "name": "id",
          "type": "uint256"
        },
        {
          "internalType": "string",
          "name": "title",
          "type": "string"
        },
        {
          "internalType": "string",
          "name": "description",
          "type": "string"
        },
        {
          "internalType": "string",
          "name": "imageHash",
          "type": "string"
        },
        {
          "internalType": "address",
          "name": "owner",
          "type": "address"
        },
        {
          "internalType": "uint256",
          "name": "boardId",
          "type": "uint256"
        }
      ],
      "stateMutability": "view",
      "type": "function"
    },
    {
      "inputs": [
        {
          "internalType": "string",
          "name": "title",
          "type": "string"
        },
        {
          "internalType": "string",
          "name": "description",
          "type": "string"
        },
        {
          "internalType": "string",
          "name": "imageHash",
          "type": "string"
        },
        {
          "internalType": "uint256",
          "name": "boardId",
          "type": "uint256"
        }
      ],
      "name": "createPin",
      "outputs": [
        {
          "internalType": "uint256",
          "name": "",
          "type": "uint256"
        }
      ],
      "stateMutability": "nonpayable",
      "type": "function"
    },
    {
      "inputs": [
        {
          "internalType": "uint256",
          "name": "pinId",
          "type": "uint256"
        }
      ],
      "name": "deletePin",
      "outputs": [],
      "stateMutability": "nonpayable",
      "type": "function"
    },
    {
      "inputs": [
        {
          "internalType": "uint256",
          "name": "pinId",
          "type": "uint256"
        }
      ],
      "name": "getPinById",
      "outputs": [
        {
          "components": [
            {
              "internalType": "uint256",
              "name": "id",
              "type": "uint256"
            },
            {
              "internalType": "string",
              "name": "title",
              "type": "string"
            },
            {
              "internalType": "string",
              "name": "description",
              "type": "string"
            },
            {
              "internalType": "string",
              "name": "imageHash",
              "type": "string"
            },
            {
              "internalType": "address",
              "name": "owner",
              "type": "address"
            },
            {
              "internalType": "uint256",
              "name": "boardId",
              "type": "uint256"
            }
          ],
          "internalType": "struct Pin",
          "name": "",
          "type": "tuple"
        }
      ],
      "stateMutability": "view",
      "type": "function"
    },
    {
      "inputs": [
        {
          "internalType": "uint256",
          "name": "pinId",
          "type": "uint256"
        },
        {
          "internalType": "string",
          "name": "newTitle",
          "type": "string"
        },
        {
          "internalType": "string",
          "name": "newDescription",
          "type": "string"
        },
        {
          "internalType": "uint256",
          "name": "newBoardId",
          "type": "uint256"
        }
      ],
      "name": "editCreatedPin",
      "outputs": [],
      "stateMutability": "nonpayable",
      "type": "function"
    },
    {
      "inputs": [
        {
          "internalType": "uint256",
          "name": "boardId",
          "type": "uint256"
        }
      ],
      "name": "getPinsByBoardId",
      "outputs": [
        {
          "components": [
            {
              "internalType": "uint256",
              "name": "id",
              "type": "uint256"
            },
            {
              "internalType": "string",
              "name": "title",
              "type": "string"
            },
            {
              "internalType": "string",
              "name": "description",
              "type": "string"
            },
            {
              "internalType": "string",
              "name": "imageHash",
              "type": "string"
            },
            {
              "internalType": "address",
              "name": "owner",
              "type": "address"
            },
            {
              "internalType": "uint256",
              "name": "boardId",
              "type": "uint256"
            }
          ],
          "internalType": "struct Pin[]",
          "name": "",
          "type": "tuple[]"
        }
      ],
      "stateMutability": "view",
      "type": "function"
    },
    {
      "inputs": [],
      "name": "getAllPins",
      "outputs": [
        {
          "components": [
            {
              "internalType": "uint256",
              "name": "id",
              "type": "uint256"
            },
            {
              "internalType": "string",
              "name": "title",
              "type": "string"
            },
            {
              "internalType": "string",
              "name": "description",
              "type": "string"
            },
            {
              "internalType": "string",
              "name": "imageHash",
              "type": "string"
            },
            {
              "internalType": "address",
              "name": "owner",
              "type": "address"
            },
            {
              "internalType": "uint256",
              "name": "boardId",
              "type": "uint256"
            }
          ],
          "internalType": "struct Pin[]",
          "name": "",
          "type": "tuple[]"
        }
      ],
      "stateMutability": "view",
      "type": "function"
    }
  ],
  "bytecode": "0x608060405234801561001057600080fd5b50611e41806100206000396000f3fe608060405234801561001057600080fd5b50600436106100885760003560e01c8063a4e593321161005b578063a4e5933214610115578063cf7bf44014610145578063ead13f3a14610161578063fd08cbb41461019157610088565b8063121574071461008d5780634c9bffbb146100ab5780637492e09b146100db5780637f97d9be146100f9575b600080fd5b6100956101c6565b6040516100a291906113c5565b60405180910390f35b6100c560048036038101906100c09190611420565b6101cc565b6040516100d2919061168f565b60405180910390f35b6100e361052c565b6040516100f0919061168f565b60405180910390f35b610113600480360381019061010e9190611420565b61088b565b005b61012f600480360381019061012a9190611420565b610a29565b60405161013c9190611748565b60405180910390f35b61015f600480360381019061015a919061189f565b610d5e565b005b61017b6004803603810190610176919061193e565b610ef7565b60405161018891906113c5565b60405180910390f35b6101ab60048036038101906101a69190611420565b611089565b6040516101bd96959493929190611a52565b60405180910390f35b60015481565b6060600080600190505b600154811161021d5783600080838152602001908152602001600020600501540361020a57818061020690611af7565b9250505b808061021590611af7565b9150506101d6565b5060008167ffffffffffffffff81111561023a57610239611774565b5b60405190808252806020026020018201604052801561027357816020015b61026061127d565b8152602001906001900390816102585790505b509050600080600190505b60015481116105205785600080838152602001908152602001600020600501540361050d576000808281526020019081526020016000206040518060c0016040529081600082015481526020016001820180546102da90611b6e565b80601f016020809104026020016040519081016040528092919081815260200182805461030690611b6e565b80156103535780601f1061032857610100808354040283529160200191610353565b820191906000526020600020905b81548152906001019060200180831161033657829003601f168201915b5050505050815260200160028201805461036c90611b6e565b80601f016020809104026020016040519081016040528092919081815260200182805461039890611b6e565b80156103e55780601f106103ba576101008083540402835291602001916103e5565b820191906000526020600020905b8154815290600101906020018083116103c857829003601f168201915b505050505081526020016003820180546103fe90611b6e565b80601f016020809104026020016040519081016040528092919081815260200182805461042a90611b6e565b80156104775780601f1061044c57610100808354040283529160200191610477565b820191906000526020600020905b81548152906001019060200180831161045a57829003601f168201915b505050505081526020016004820160009054906101000a900473ffffffffffffffffffffffffffffffffffffffff1673ffffffffffffffffffffffffffffffffffffffff1673ffffffffffffffffffffffffffffffffffffffff1681526020016005820154815250508383815181106104f3576104f2611b9f565b5b6020026020010181905250818061050990611af7565b9250505b808061051890611af7565b91505061027e565b50819350505050919050565b6060600060015467ffffffffffffffff81111561054c5761054b611774565b5b60405190808252806020026020018201604052801561058557816020015b61057261127d565b81526020019060019003908161056a5790505b509050600080600190505b600154811161087f57600073ffffffffffffffffffffffffffffffffffffffff1660008083815260200190815260200160002060040160009054906101000a900473ffffffffffffffffffffffffffffffffffffffff1673ffffffffffffffffffffffffffffffffffffffff161461086c576000808281526020019081526020016000206040518060c00160405290816000820154815260200160018201805461063990611b6e565b80601f016020809104026020016040519081016040528092919081815260200182805461066590611b6e565b80156106b25780601f10610687576101008083540402835291602001916106b2565b820191906000526020600020905b81548152906001019060200180831161069557829003601f168201915b505050505081526020016002820180546106cb90611b6e565b80601f01602080910402602001604051908101604052809291908181526020018280546106f790611b6e565b80156107445780601f1061071957610100808354040283529160200191610744565b820191906000526020600020905b81548152906001019060200180831161072757829003601f168201915b5050505050815260200160038201805461075d90611b6e565b80601f016020809104026020016040519081016040528092919081815260200182805461078990611b6e565b80156107d65780601f106107ab576101008083540402835291602001916107d6565b820191906000526020600020905b8154815290600101906020018083116107b957829003601f168201915b505050505081526020016004820160009054906101000a900473ffffffffffffffffffffffffffffffffffffffff1673ffffffffffffffffffffffffffffffffffffffff1673ffffffffffffffffffffffffffffffffffffffff16815260200160058201548152505083838151811061085257610851611b9f565b5b6020026020010181905250818061086890611af7565b9250505b808061087790611af7565b915050610590565b50808252819250505090565b6001548111156108d0576040517f08c379a00000000000000000000000000000000000000000000000000000000081526004016108c790611c1a565b60405180910390fd5b60008082815260200190815260200160002060040160009054906101000a900473ffffffffffffffffffffffffffffffffffffffff1673ffffffffffffffffffffffffffffffffffffffff163373ffffffffffffffffffffffffffffffffffffffff1614610973576040517f08c379a000000000000000000000000000000000000000000000000000000000815260040161096a90611cac565b60405180910390fd5b7f5471698f6e03cee873b1c1f673ae33b2945702804b34ed7c8e241c2724102232816040516109a291906113c5565b60405180910390a16000808281526020019081526020016000206000808201600090556001820160006109d591906112c9565b6002820160006109e591906112c9565b6003820160006109f591906112c9565b6004820160006101000a81549073ffffffffffffffffffffffffffffffffffffffff02191690556005820160009055505050565b610a3161127d565b600154821115610a76576040517f08c379a0000000000000000000000000000000000000000000000000000000008152600401610a6d90611c1a565b60405180910390fd5b600073ffffffffffffffffffffffffffffffffffffffff1660008084815260200190815260200160002060040160009054906101000a900473ffffffffffffffffffffffffffffffffffffffff1673ffffffffffffffffffffffffffffffffffffffff1603610b1a576040517f08c379a0000000000000000000000000000000000000000000000000000000008152600401610b1190611c1a565b60405180910390fd5b6000808381526020019081526020016000206040518060c001604052908160008201548152602001600182018054610b5190611b6e565b80601f0160208091040260200160405190810160405280929190818152602001828054610b7d90611b6e565b8015610bca5780601f10610b9f57610100808354040283529160200191610bca565b820191906000526020600020905b815481529060010190602001808311610bad57829003601f168201915b50505050508152602001600282018054610be390611b6e565b80601f0160208091040260200160405190810160405280929190818152602001828054610c0f90611b6e565b8015610c5c5780601f10610c3157610100808354040283529160200191610c5c565b820191906000526020600020905b815481529060010190602001808311610c3f57829003601f168201915b50505050508152602001600382018054610c7590611b6e565b80601f0160208091040260200160405190810160405280929190818152602001828054610ca190611b6e565b8015610cee5780601f10610cc357610100808354040283529160200191610cee565b820191906000526020600020905b815481529060010190602001808311610cd157829003601f168201915b505050505081526020016004820160009054906101000a900473ffffffffffffffffffffffffffffffffffffffff1673ffffffffffffffffffffffffffffffffffffffff1673ffffffffffffffffffffffffffffffffffffffff1681526020016005820154815250509050919050565b600154841115610da3576040517f08c379a0000000000000000000000000000000000000000000000000000000008152600401610d9a90611c1a565b60405180910390fd5b60008085815260200190815260200160002060040160009054906101000a900473ffffffffffffffffffffffffffffffffffffffff1673ffffffffffffffffffffffffffffffffffffffff163373ffffffffffffffffffffffffffffffffffffffff1614610e46576040517f08c379a0000000000000000000000000000000000000000000000000000000008152600401610e3d90611d3e565b60405180910390fd5b826000808681526020019081526020016000206001019080519060200190610e6f929190611309565b50816000808681526020019081526020016000206002019080519060200190610e99929190611309565b5080600080868152602001908152602001600020600501819055507f33ed1e4d5b9642fc708784359cd74af89aad67d7a42fb6b609cc412f773381b684848484604051610ee99493929190611d5e565b60405180910390a150505050565b600060016000815480929190610f0c90611af7565b919050555060006040518060c0016040528060015481526020018781526020018681526020018581526020013373ffffffffffffffffffffffffffffffffffffffff168152602001848152509050806000806001548152602001908152602001600020600082015181600001556020820151816001019080519060200190610f95929190611309565b506040820151816002019080519060200190610fb2929190611309565b506060820151816003019080519060200190610fcf929190611309565b5060808201518160040160006101000a81548173ffffffffffffffffffffffffffffffffffffffff021916908373ffffffffffffffffffffffffffffffffffffffff16021790555060a082015181600501559050503373ffffffffffffffffffffffffffffffffffffffff16837f1f445d04705feeb57b1d284a08edf73c89be75aa8365a4cc60f84671623a58166001548989896040516110739493929190611db1565b60405180910390a3600154915050949350505050565b60006020528060005260406000206000915090508060000154908060010180546110b290611b6e565b80601f01602080910402602001604051908101604052809291908181526020018280546110de90611b6e565b801561112b5780601f106111005761010080835404028352916020019161112b565b820191906000526020600020905b81548152906001019060200180831161110e57829003601f168201915b50505050509080600201805461114090611b6e565b80601f016020809104026020016040519081016040528092919081815260200182805461116c90611b6e565b80156111b95780601f1061118e576101008083540402835291602001916111b9565b820191906000526020600020905b81548152906001019060200180831161119c57829003601f168201915b5050505050908060030180546111ce90611b6e565b80601f01602080910402602001604051908101604052809291908181526020018280546111fa90611b6e565b80156112475780601f1061121c57610100808354040283529160200191611247565b820191906000526020600020905b81548152906001019060200180831161122a57829003601f168201915b5050505050908060040160009054906101000a900473ffffffffffffffffffffffffffffffffffffffff16908060050154905086565b6040518060c0016040528060008152602001606081526020016060815260200160608152602001600073ffffffffffffffffffffffffffffffffffffffff168152602001600081525090565b5080546112d590611b6e565b6000825580601f106112e75750611306565b601f016020900490600052602060002090810190611305919061138f565b5b50565b82805461131590611b6e565b90600052602060002090601f016020900481019282611337576000855561137e565b82601f1061135057805160ff191683800117855561137e565b8280016001018555821561137e579182015b8281111561137d578251825591602001919060010190611362565b5b50905061138b919061138f565b5090565b5b808211156113a8576000816000905550600101611390565b5090565b6000819050919050565b6113bf816113ac565b82525050565b60006020820190506113da60008301846113b6565b92915050565b6000604051905090565b600080fd5b600080fd5b6113fd816113ac565b811461140857600080fd5b50565b60008135905061141a816113f4565b92915050565b600060208284031215611436576114356113ea565b5b60006114448482850161140b565b91505092915050565b600081519050919050565b600082825260208201905092915050565b6000819050602082019050919050565b611482816113ac565b82525050565b600081519050919050565b600082825260208201905092915050565b60005b838110156114c25780820151818401526020810190506114a7565b838111156114d1576000848401525b50505050565b6000601f19601f8301169050919050565b60006114f382611488565b6114fd8185611493565b935061150d8185602086016114a4565b611516816114d7565b840191505092915050565b600073ffffffffffffffffffffffffffffffffffffffff82169050919050565b600061154c82611521565b9050919050565b61155c81611541565b82525050565b600060c08301600083015161157a6000860182611479565b506020830151848203602086015261159282826114e8565b915050604083015184820360408601526115ac82826114e8565b915050606083015184820360608601526115c682826114e8565b91505060808301516115db6080860182611553565b5060a08301516115ee60a0860182611479565b508091505092915050565b60006116058383611562565b905092915050565b6000602082019050919050565b60006116258261144d565b61162f8185611458565b93508360208202850161164185611469565b8060005b8581101561167d578484038952815161165e85826115f9565b94506116698361160d565b925060208a01995050600181019050611645565b50829750879550505050505092915050565b600060208201905081810360008301526116a9818461161a565b905092915050565b600060c0830160008301516116c96000860182611479565b50602083015184820360208601526116e182826114e8565b915050604083015184820360408601526116fb82826114e8565b9150506060830151848203606086015261171582826114e8565b915050608083015161172a6080860182611553565b5060a083015161173d60a0860182611479565b508091505092915050565b6000602082019050818103600083015261176281846116b1565b905092915050565b600080fd5b600080fd5b7f4e487b7100000000000000000000000000000000000000000000000000000000600052604160045260246000fd5b6117ac826114d7565b810181811067ffffffffffffffff821117156117cb576117ca611774565b5b80604052505050565b60006117de6113e0565b90506117ea82826117a3565b919050565b600067ffffffffffffffff82111561180a57611809611774565b5b611813826114d7565b9050602081019050919050565b82818337600083830152505050565b600061184261183d846117ef565b6117d4565b90508281526020810184848401111561185e5761185d61176f565b5b611869848285611820565b509392505050565b600082601f8301126118865761188561176a565b5b813561189684826020860161182f565b91505092915050565b600080600080608085870312156118b9576118b86113ea565b5b60006118c78782880161140b565b945050602085013567ffffffffffffffff8111156118e8576118e76113ef565b5b6118f487828801611871565b935050604085013567ffffffffffffffff811115611915576119146113ef565b5b61192187828801611871565b92505060606119328782880161140b565b91505092959194509250565b60008060008060808587031215611958576119576113ea565b5b600085013567ffffffffffffffff811115611976576119756113ef565b5b61198287828801611871565b945050602085013567ffffffffffffffff8111156119a3576119a26113ef565b5b6119af87828801611871565b935050604085013567ffffffffffffffff8111156119d0576119cf6113ef565b5b6119dc87828801611871565b92505060606119ed8782880161140b565b91505092959194509250565b600082825260208201905092915050565b6000611a1582611488565b611a1f81856119f9565b9350611a2f8185602086016114a4565b611a38816114d7565b840191505092915050565b611a4c81611541565b82525050565b600060c082019050611a6760008301896113b6565b8181036020830152611a798188611a0a565b90508181036040830152611a8d8187611a0a565b90508181036060830152611aa18186611a0a565b9050611ab06080830185611a43565b611abd60a08301846113b6565b979650505050505050565b7f4e487b7100000000000000000000000000000000000000000000000000000000600052601160045260246000fd5b6000611b02826113ac565b91507fffffffffffffffffffffffffffffffffffffffffffffffffffffffffffffffff8203611b3457611b33611ac8565b5b600182019050919050565b7f4e487b7100000000000000000000000000000000000000000000000000000000600052602260045260246000fd5b60006002820490506001821680611b8657607f821691505b602082108103611b9957611b98611b3f565b5b50919050565b7f4e487b7100000000000000000000000000000000000000000000000000000000600052603260045260246000fd5b7f50696e20646f6573206e6f742065786973742e00000000000000000000000000600082015250565b6000611c046013836119f9565b9150611c0f82611bce565b602082019050919050565b60006020820190508181036000830152611c3381611bf7565b9050919050565b7f4f6e6c79207468652070696e206f776e65722063616e2064656c65746520746860008201527f652070696e2e0000000000000000000000000000000000000000000000000000602082015250565b6000611c966026836119f9565b9150611ca182611c3a565b604082019050919050565b60006020820190508181036000830152611cc581611c89565b9050919050565b7f4f6e6c79207468652070696e206f776e65722063616e2065646974207468652060008201527f70696e2e00000000000000000000000000000000000000000000000000000000602082015250565b6000611d286024836119f9565b9150611d3382611ccc565b604082019050919050565b60006020820190508181036000830152611d5781611d1b565b9050919050565b6000608082019050611d7360008301876113b6565b8181036020830152611d858186611a0a565b90508181036040830152611d998185611a0a565b9050611da860608301846113b6565b95945050505050565b6000608082019050611dc660008301876113b6565b8181036020830152611dd88186611a0a565b90508181036040830152611dec8185611a0a565b90508181036060830152611e008184611a0a565b90509594505050505056fea26469706673582212208d99cbb0725aacd84b5c23f8a06d58af0fdce3baf7692f97724ab098a9a0311964736f6c634300080d0033",
  "immutableReferences": {},
  "source": "// SPDX-License-Identifier: GPL-3.0\n\npragma solidity >=0.7.0 <0.9.0;\n\nimport {Pin} from \"./common/types.sol\";\n\n/**\n * @title PinManager\n * @dev A smart contract for managing pins\n */\ncontract PinManager {\n    /**\n     * @dev Event emitted when a new pin is created\n     * @param pinId ID of the pin created\n     * @param title Title of the pin created\n     * @param description Description of the pin created\n     * @param imageHash IPFS hash of the pin's image\n     * @param boardId of the board the pin belongs to\n     * @param owner Owner of the pin created\n     */\n    event PinCreated(\n        uint256 pinId,\n        string title,\n        string description,\n        string imageHash,\n        uint256 indexed boardId,\n        address indexed owner\n    );\n\n    /**\n     * @dev Event emitted when a pin is deleted\n     * @param pinId ID of the pin deleted\n     */\n    event PinDeleted(uint256 pinId);\n\n    /**\n     * @dev Event emitted when a created pin is edited\n     * @param pinId ID of the pin edited\n     * @param newTitle New title of the pin edited\n     * @param newDescription New description of the pin edited\n     * @param boardId ID of the new board\n     */\n    event CreatedPinEdited(\n        uint256 pinId,\n        string newTitle,\n        string newDescription,\n        uint256 boardId\n    );\n\n    /**\n     * @dev Mapping to store pins by their ID\n     */\n    mapping(uint256 => Pin) public pins;\n\n    /**\n     * @dev Number of pins created\n     */\n    uint256 public currentPinId;\n\n    /**\n     * @dev Create a new pin\n     * @param title Title of the pin\n     * @param description Description of the pin\n     * @param imageHash IPFS hash of the pin's image\n     * @param boardId ID of the board the pin belongs to\n     * @return uint256 ID of the created pin\n     */\n    function createPin(\n        string memory title,\n        string memory description,\n        string memory imageHash,\n        uint256 boardId\n    ) public returns (uint256) {\n        currentPinId++;\n        Pin memory pin = Pin(\n            currentPinId,\n            title,\n            description,\n            imageHash,\n            msg.sender,\n            boardId\n        );\n        pins[currentPinId] = pin;\n        emit PinCreated(\n            currentPinId,\n            title,\n            description,\n            imageHash,\n            boardId,\n            msg.sender\n        );\n        return currentPinId;\n    }\n\n    /**\n     * @dev Delete an existing pin\n     * @param pinId ID of the pin to delete\n     * Requirements:\n     * - Only the pin owner can delete the pin\n     */\n    function deletePin(uint256 pinId) public {\n        require(pinId <= currentPinId, \"Pin does not exist.\");\n        require(\n            msg.sender == pins[pinId].owner,\n            \"Only the pin owner can delete the pin.\"\n        );\n        emit PinDeleted(pinId);\n        delete pins[pinId];\n    }\n\n    /**\n     * @dev Get pin information by its ID\n     * @param pinId ID of the pin to get\n     * @return Pin struct containing pin information\n     * Requirements:\n     * - Pin with the given ID must exist\n     */\n    function getPinById(uint256 pinId) public view returns (Pin memory) {\n        require(pinId <= currentPinId, \"Pin does not exist.\");\n        require(pins[pinId].owner != address(0), \"Pin does not exist.\");\n        return pins[pinId];\n    }\n\n    /**\n     * @dev Edit created pin information\n     * @param pinId ID of the pin to edit\n     * @param newTitle New title for the pin\n     * @param newDescription New description for the pin\n     * @param newBoardId New Id of the board\n     * Requirements:\n     * - Only the pin owner can edit the pin\n     * - Pin with the given ID must exist\n     */\n    function editCreatedPin(\n        uint256 pinId,\n        string memory newTitle,\n        string memory newDescription,\n        uint256 newBoardId\n    ) public {\n        require(pinId <= currentPinId, \"Pin does not exist.\");\n        require(\n            msg.sender == pins[pinId].owner,\n            \"Only the pin owner can edit the pin.\"\n        );\n        pins[pinId].title = newTitle;\n        pins[pinId].description = newDescription;\n        pins[pinId].boardId = newBoardId;\n        emit CreatedPinEdited(pinId, newTitle, newDescription, newBoardId);\n    }\n\n    /**\n     * @dev Get all pins from a specific board\n     * @param boardId ID of the board\n     * @return Pin[] array containing all the pins from the board\n     */\n    function getPinsByBoardId(\n        uint256 boardId\n    ) public view returns (Pin[] memory) {\n        uint256 count = 0;\n\n        // Count the number of pins in the board\n        for (uint256 i = 1; i <= currentPinId; i++) {\n            if (pins[i].boardId == boardId) {\n                count++;\n            }\n        }\n\n        // Create an array with the count of pins\n        Pin[] memory boardPins = new Pin[](count);\n        uint256 index = 0;\n\n        // Retrieve the pins from the board\n        for (uint256 i = 1; i <= currentPinId; i++) {\n            if (pins[i].boardId == boardId) {\n                boardPins[index] = pins[i];\n                index++;\n            }\n        }\n\n        return boardPins;\n    }\n\n    /**\n     * @dev Get all pins\n     * @return Pin[] array containing all the pins\n     */\n    function getAllPins() public view returns (Pin[] memory) {\n        Pin[] memory allPins = new Pin[](currentPinId);\n        uint256 index = 0;\n\n        for (uint256 i = 1; i <= currentPinId; i++) {\n            if (pins[i].owner != address(0)) {\n                allPins[index] = pins[i];\n                index++;\n            }\n        }\n\n        // Resize the allPins array to remove any unused elements\n        assembly {\n            mstore(allPins, index)\n        }\n\n        return allPins;\n    }\n}\n",
  "sourcePath": "/Users/lisapolena/Documents/Master_04/Thesis/Prototyp/betterPinterest/src/contracts/pinManager.sol",
  "compiler": {
    "name": "solc",
    "version": "0.8.13+commit.abaa5c0e.Emscripten.clang"
  },
  "schemaVersion": "3.4.14",
  "updatedAt": "2023-06-05T19:03:52.503Z",
  "devdoc": {
    "details": "A smart contract for managing pins",
    "events": {
      "CreatedPinEdited(uint256,string,string,uint256)": {
        "details": "Event emitted when a created pin is edited",
        "params": {
          "boardId": "ID of the new board",
          "newDescription": "New description of the pin edited",
          "newTitle": "New title of the pin edited",
          "pinId": "ID of the pin edited"
        }
      },
      "PinCreated(uint256,string,string,string,uint256,address)": {
        "details": "Event emitted when a new pin is created",
        "params": {
          "boardId": "of the board the pin belongs to",
          "description": "Description of the pin created",
          "imageHash": "IPFS hash of the pin's image",
          "owner": "Owner of the pin created",
          "pinId": "ID of the pin created",
          "title": "Title of the pin created"
        }
      },
      "PinDeleted(uint256)": {
        "details": "Event emitted when a pin is deleted",
        "params": {
          "pinId": "ID of the pin deleted"
        }
      }
    },
    "kind": "dev",
    "methods": {
      "createPin(string,string,string,uint256)": {
        "details": "Create a new pin",
        "params": {
          "boardId": "ID of the board the pin belongs to",
          "description": "Description of the pin",
          "imageHash": "IPFS hash of the pin's image",
          "title": "Title of the pin"
        },
        "returns": {
          "_0": "uint256 ID of the created pin"
        }
      },
      "deletePin(uint256)": {
        "details": "Delete an existing pin",
        "params": {
          "pinId": "ID of the pin to delete Requirements: - Only the pin owner can delete the pin"
        }
      },
      "editCreatedPin(uint256,string,string,uint256)": {
        "details": "Edit created pin information",
        "params": {
          "newBoardId": "New Id of the board Requirements: - Only the pin owner can edit the pin - Pin with the given ID must exist",
          "newDescription": "New description for the pin",
          "newTitle": "New title for the pin",
          "pinId": "ID of the pin to edit"
        }
      },
      "getAllPins()": {
        "details": "Get all pins",
        "returns": {
          "_0": "Pin[] array containing all the pins"
        }
      },
      "getPinById(uint256)": {
        "details": "Get pin information by its ID",
        "params": {
          "pinId": "ID of the pin to get"
        },
        "returns": {
          "_0": "Pin struct containing pin information Requirements: - Pin with the given ID must exist"
        }
      },
      "getPinsByBoardId(uint256)": {
        "details": "Get all pins from a specific board",
        "params": {
          "boardId": "ID of the board"
        },
        "returns": {
          "_0": "Pin[] array containing all the pins from the board"
        }
      }
    },
    "stateVariables": {
      "currentPinId": {
        "details": "Number of pins created"
      },
      "pins": {
        "details": "Mapping to store pins by their ID"
      }
    },
    "title": "PinManager",
    "version": 1
  },
  "userdoc": {
    "kind": "user",
    "methods": {},
    "version": 1
  }
}