{
  "contractName": "PinManager",
  "abi": [
    {
      "inputs": [
        {
          "internalType": "bytes16",
          "name": "",
          "type": "bytes16"
        }
      ],
      "name": "boards",
      "outputs": [
        {
          "internalType": "bytes16",
          "name": "id",
          "type": "bytes16"
        },
        {
          "internalType": "string",
          "name": "name",
          "type": "string"
        },
        {
          "internalType": "address",
          "name": "owner",
          "type": "address"
        }
      ],
      "stateMutability": "view",
      "type": "function"
    },
    {
      "inputs": [],
      "name": "pinCount",
      "outputs": [
        {
          "internalType": "uint256",
          "name": "",
          "type": "uint256"
        }
      ],
      "stateMutability": "view",
      "type": "function"
    },
    {
      "inputs": [
        {
          "internalType": "bytes16",
          "name": "",
          "type": "bytes16"
        }
      ],
      "name": "pins",
      "outputs": [
        {
          "internalType": "bytes16",
          "name": "id",
          "type": "bytes16"
        },
        {
          "internalType": "string",
          "name": "imageHash",
          "type": "string"
        },
        {
          "internalType": "string",
          "name": "title",
          "type": "string"
        },
        {
          "internalType": "string",
          "name": "description",
          "type": "string"
        },
        {
          "internalType": "address",
          "name": "owner",
          "type": "address"
        },
        {
          "internalType": "bytes16",
          "name": "boardId",
          "type": "bytes16"
        }
      ],
      "stateMutability": "view",
      "type": "function"
    },
    {
      "inputs": [
        {
          "internalType": "string",
          "name": "imageHash",
          "type": "string"
        },
        {
          "internalType": "string",
          "name": "title",
          "type": "string"
        },
        {
          "internalType": "string",
          "name": "description",
          "type": "string"
        },
        {
          "internalType": "bytes16",
          "name": "boardId",
          "type": "bytes16"
        }
      ],
      "name": "createPin",
      "outputs": [],
      "stateMutability": "nonpayable",
      "type": "function"
    },
    {
      "inputs": [
        {
          "internalType": "bytes16",
          "name": "pinId",
          "type": "bytes16"
        }
      ],
      "name": "deletePin",
      "outputs": [],
      "stateMutability": "nonpayable",
      "type": "function"
    },
    {
      "inputs": [
        {
          "internalType": "bytes16",
          "name": "pinId",
          "type": "bytes16"
        }
      ],
      "name": "getPin",
      "outputs": [
        {
          "components": [
            {
              "internalType": "bytes16",
              "name": "id",
              "type": "bytes16"
            },
            {
              "internalType": "string",
              "name": "imageHash",
              "type": "string"
            },
            {
              "internalType": "string",
              "name": "title",
              "type": "string"
            },
            {
              "internalType": "string",
              "name": "description",
              "type": "string"
            },
            {
              "internalType": "address",
              "name": "owner",
              "type": "address"
            },
            {
              "internalType": "bytes16",
              "name": "boardId",
              "type": "bytes16"
            }
          ],
          "internalType": "struct Pin",
          "name": "",
          "type": "tuple"
        }
      ],
      "stateMutability": "view",
      "type": "function"
    },
    {
      "inputs": [
        {
          "internalType": "bytes16",
          "name": "pinId",
          "type": "bytes16"
        },
        {
          "internalType": "bytes16",
          "name": "boardId",
          "type": "bytes16"
        }
      ],
      "name": "savePinToBoard",
      "outputs": [],
      "stateMutability": "nonpayable",
      "type": "function"
    },
    {
      "inputs": [
        {
          "internalType": "bytes16",
          "name": "boardId",
          "type": "bytes16"
        },
        {
          "internalType": "bytes16",
          "name": "pinId",
          "type": "bytes16"
        }
      ],
      "name": "removePinFromBoard",
      "outputs": [],
      "stateMutability": "nonpayable",
      "type": "function"
    }
  ],
  "bytecode": "0x608060405234801561001057600080fd5b5061253d806100206000396000f3fe608060405234801561001057600080fd5b50600436106100885760003560e01c806398c1fbb91161005b57806398c1fbb9146101115780639d3fbb3414610143578063a9a9b2e21461015f578063fbcbb0721461017d57610088565b8063655915d01461008d5780636aa51683146100a95780636bf5b5d8146100c5578063844bcefa146100f5575b600080fd5b6100a760048036038101906100a291906116a8565b6101b2565b005b6100c360048036038101906100be91906116e8565b61061c565b005b6100df60048036038101906100da91906116e8565b6107c0565b6040516100ec9190611895565b60405180910390f35b61010f600480360381019061010a91906116a8565b610b62565b005b61012b600480360381019061012691906116e8565b610dee565b60405161013a9392919061191f565b60405180910390f35b61015d60048036038101906101589190611a92565b610ecd565b005b6101676112c6565b6040516101749190611b66565b60405180910390f35b610197600480360381019061019291906116e8565b6112cc565b6040516101a996959493929190611b81565b60405180910390f35b600060016000846fffffffffffffffffffffffffffffffff19166fffffffffffffffffffffffffffffffff1916815260200190815260200160002090503373ffffffffffffffffffffffffffffffffffffffff168160020160009054906101000a900473ffffffffffffffffffffffffffffffffffffffff1673ffffffffffffffffffffffffffffffffffffffff1614610281576040517f08c379a000000000000000000000000000000000000000000000000000000000815260040161027890611c69565b60405180910390fd5b600073ffffffffffffffffffffffffffffffffffffffff16600080846fffffffffffffffffffffffffffffffff19166fffffffffffffffffffffffffffffffff1916815260200190815260200160002060040160009054906101000a900473ffffffffffffffffffffffffffffffffffffffff1673ffffffffffffffffffffffffffffffffffffffff160361034b576040517f08c379a000000000000000000000000000000000000000000000000000000000815260040161034290611cfb565b60405180910390fd5b826fffffffffffffffffffffffffffffffff1916600080846fffffffffffffffffffffffffffffffff19166fffffffffffffffffffffffffffffffff1916815260200190815260200160002060050160009054906101000a900460801b6fffffffffffffffffffffffffffffffff1916146103fb576040517f08c379a00000000000000000000000000000000000000000000000000000000081526004016103f290611d8d565b60405180910390fd5b600080600090505b826003018054905081101561049257836fffffffffffffffffffffffffffffffff191683600301828154811061043c5761043b611dad565b5b90600052602060002090600291828204019190066010029054906101000a900460801b6fffffffffffffffffffffffffffffffff19160361047f57809150610492565b808061048a90611e0b565b915050610403565b5060008190505b600183600301805490506104ad9190611e53565b81101561055e57826003016001826104c59190611e87565b815481106104d6576104d5611dad565b5b90600052602060002090600291828204019190066010029054906101000a900460801b83600301828154811061050f5761050e611dad565b5b90600052602060002090600291828204019190066010026101000a8154816fffffffffffffffffffffffffffffffff021916908360801c0217905550808061055690611e0b565b915050610499565b508160030180548061057357610572611edd565b5b60019003818190600052602060002090600291828204019190066010026101000a8154906fffffffffffffffffffffffffffffffff02191690559055600060801b600080856fffffffffffffffffffffffffffffffff19166fffffffffffffffffffffffffffffffff1916815260200190815260200160002060050160006101000a8154816fffffffffffffffffffffffffffffffff021916908360801c021790555050505050565b600080826fffffffffffffffffffffffffffffffff19166fffffffffffffffffffffffffffffffff1916815260200190815260200160002060040160009054906101000a900473ffffffffffffffffffffffffffffffffffffffff1673ffffffffffffffffffffffffffffffffffffffff163373ffffffffffffffffffffffffffffffffffffffff16146106e5576040517f08c379a00000000000000000000000000000000000000000000000000000000081526004016106dc90611f7e565b60405180910390fd5b600080826fffffffffffffffffffffffffffffffff19166fffffffffffffffffffffffffffffffff19168152602001908152602001600020600080820160006101000a8154906fffffffffffffffffffffffffffffffff021916905560018201600061075191906114da565b60028201600061076191906114da565b60038201600061077191906114da565b6004820160006101000a81549073ffffffffffffffffffffffffffffffffffffffff02191690556005820160006101000a8154906fffffffffffffffffffffffffffffffff0219169055505050565b6107c861151a565b600073ffffffffffffffffffffffffffffffffffffffff16600080846fffffffffffffffffffffffffffffffff19166fffffffffffffffffffffffffffffffff1916815260200190815260200160002060040160009054906101000a900473ffffffffffffffffffffffffffffffffffffffff1673ffffffffffffffffffffffffffffffffffffffff1603610892576040517f08c379a000000000000000000000000000000000000000000000000000000000815260040161088990611fea565b60405180910390fd5b600080836fffffffffffffffffffffffffffffffff19166fffffffffffffffffffffffffffffffff191681526020019081526020016000206040518060c00160405290816000820160009054906101000a900460801b6fffffffffffffffffffffffffffffffff19166fffffffffffffffffffffffffffffffff1916815260200160018201805461092290612039565b80601f016020809104026020016040519081016040528092919081815260200182805461094e90612039565b801561099b5780601f106109705761010080835404028352916020019161099b565b820191906000526020600020905b81548152906001019060200180831161097e57829003601f168201915b505050505081526020016002820180546109b490612039565b80601f01602080910402602001604051908101604052809291908181526020018280546109e090612039565b8015610a2d5780601f10610a0257610100808354040283529160200191610a2d565b820191906000526020600020905b815481529060010190602001808311610a1057829003601f168201915b50505050508152602001600382018054610a4690612039565b80601f0160208091040260200160405190810160405280929190818152602001828054610a7290612039565b8015610abf5780601f10610a9457610100808354040283529160200191610abf565b820191906000526020600020905b815481529060010190602001808311610aa257829003601f168201915b505050505081526020016004820160009054906101000a900473ffffffffffffffffffffffffffffffffffffffff1673ffffffffffffffffffffffffffffffffffffffff1673ffffffffffffffffffffffffffffffffffffffff1681526020016005820160009054906101000a900460801b6fffffffffffffffffffffffffffffffff19166fffffffffffffffffffffffffffffffff1916815250509050919050565b3373ffffffffffffffffffffffffffffffffffffffff16600080846fffffffffffffffffffffffffffffffff19166fffffffffffffffffffffffffffffffff1916815260200190815260200160002060040160009054906101000a900473ffffffffffffffffffffffffffffffffffffffff1673ffffffffffffffffffffffffffffffffffffffff1614610c2b576040517f08c379a0000000000000000000000000000000000000000000000000000000008152600401610c22906120dc565b60405180910390fd5b600073ffffffffffffffffffffffffffffffffffffffff1660016000836fffffffffffffffffffffffffffffffff19166fffffffffffffffffffffffffffffffff1916815260200190815260200160002060020160009054906101000a900473ffffffffffffffffffffffffffffffffffffffff1673ffffffffffffffffffffffffffffffffffffffff1603610cf6576040517f08c379a0000000000000000000000000000000000000000000000000000000008152600401610ced90612148565b60405180910390fd5b80600080846fffffffffffffffffffffffffffffffff19166fffffffffffffffffffffffffffffffff1916815260200190815260200160002060050160006101000a8154816fffffffffffffffffffffffffffffffff021916908360801c021790555060016000826fffffffffffffffffffffffffffffffff19166fffffffffffffffffffffffffffffffff191681526020019081526020016000206003018290806001815401808255809150506001900390600052602060002090600291828204019190066010029091909190916101000a8154816fffffffffffffffffffffffffffffffff021916908360801c02179055505050565b60016020528060005260406000206000915090508060000160009054906101000a900460801b90806001018054610e2490612039565b80601f0160208091040260200160405190810160405280929190818152602001828054610e5090612039565b8015610e9d5780601f10610e7257610100808354040283529160200191610e9d565b820191906000526020600020905b815481529060010190602001808311610e8057829003601f168201915b5050505050908060020160009054906101000a900473ffffffffffffffffffffffffffffffffffffffff16905083565b6000845103610f11576040517f08c379a0000000000000000000000000000000000000000000000000000000008152600401610f08906121b4565b60405180910390fd5b6000835103610f55576040517f08c379a0000000000000000000000000000000000000000000000000000000008152600401610f4c90612220565b60405180910390fd5b6000825103610f99576040517f08c379a0000000000000000000000000000000000000000000000000000000008152600401610f909061228c565b60405180910390fd5b600073ffffffffffffffffffffffffffffffffffffffff1660016000836fffffffffffffffffffffffffffffffff19166fffffffffffffffffffffffffffffffff1916815260200190815260200160002060020160009054906101000a900473ffffffffffffffffffffffffffffffffffffffff1673ffffffffffffffffffffffffffffffffffffffff1603611064576040517f08c379a000000000000000000000000000000000000000000000000000000000815260040161105b90612148565b60405180910390fd5b60006040516110729061158c565b604051809103906000f08015801561108e573d6000803e3d6000fd5b5073ffffffffffffffffffffffffffffffffffffffff16636f8dcb3d6040518163ffffffff1660e01b8152600401602060405180830381865afa1580156110d9573d6000803e3d6000fd5b505050506040513d601f19601f820116820180604052508101906110fd91906122c1565b905060006040518060c00160405280836fffffffffffffffffffffffffffffffff191681526020018781526020018681526020018581526020013373ffffffffffffffffffffffffffffffffffffffff168152602001846fffffffffffffffffffffffffffffffff1916815250905080600080846fffffffffffffffffffffffffffffffff19166fffffffffffffffffffffffffffffffff1916815260200190815260200160002060008201518160000160006101000a8154816fffffffffffffffffffffffffffffffff021916908360801c021790555060208201518160010190805190602001906111f1929190611599565b50604082015181600201908051906020019061120e929190611599565b50606082015181600301908051906020019061122b929190611599565b5060808201518160040160006101000a81548173ffffffffffffffffffffffffffffffffffffffff021916908373ffffffffffffffffffffffffffffffffffffffff16021790555060a08201518160050160006101000a8154816fffffffffffffffffffffffffffffffff021916908360801c0217905550905050600260008154809291906112b990611e0b565b9190505550505050505050565b60025481565b60006020528060005260406000206000915090508060000160009054906101000a900460801b9080600101805461130290612039565b80601f016020809104026020016040519081016040528092919081815260200182805461132e90612039565b801561137b5780601f106113505761010080835404028352916020019161137b565b820191906000526020600020905b81548152906001019060200180831161135e57829003601f168201915b50505050509080600201805461139090612039565b80601f01602080910402602001604051908101604052809291908181526020018280546113bc90612039565b80156114095780601f106113de57610100808354040283529160200191611409565b820191906000526020600020905b8154815290600101906020018083116113ec57829003601f168201915b50505050509080600301805461141e90612039565b80601f016020809104026020016040519081016040528092919081815260200182805461144a90612039565b80156114975780601f1061146c57610100808354040283529160200191611497565b820191906000526020600020905b81548152906001019060200180831161147a57829003601f168201915b5050505050908060040160009054906101000a900473ffffffffffffffffffffffffffffffffffffffff16908060050160009054906101000a900460801b905086565b5080546114e690612039565b6000825580601f106114f85750611517565b601f016020900490600052602060002090810190611516919061161f565b5b50565b6040518060c0016040528060006fffffffffffffffffffffffffffffffff19168152602001606081526020016060815260200160608152602001600073ffffffffffffffffffffffffffffffffffffffff16815260200160006fffffffffffffffffffffffffffffffff191681525090565b610219806122ef83390190565b8280546115a590612039565b90600052602060002090601f0160209004810192826115c7576000855561160e565b82601f106115e057805160ff191683800117855561160e565b8280016001018555821561160e579182015b8281111561160d5782518255916020019190600101906115f2565b5b50905061161b919061161f565b5090565b5b80821115611638576000816000905550600101611620565b5090565b6000604051905090565b600080fd5b600080fd5b60007fffffffffffffffffffffffffffffffff0000000000000000000000000000000082169050919050565b61168581611650565b811461169057600080fd5b50565b6000813590506116a28161167c565b92915050565b600080604083850312156116bf576116be611646565b5b60006116cd85828601611693565b92505060206116de85828601611693565b9150509250929050565b6000602082840312156116fe576116fd611646565b5b600061170c84828501611693565b91505092915050565b61171e81611650565b82525050565b600081519050919050565b600082825260208201905092915050565b60005b8381101561175e578082015181840152602081019050611743565b8381111561176d576000848401525b50505050565b6000601f19601f8301169050919050565b600061178f82611724565b611799818561172f565b93506117a9818560208601611740565b6117b281611773565b840191505092915050565b600073ffffffffffffffffffffffffffffffffffffffff82169050919050565b60006117e8826117bd565b9050919050565b6117f8816117dd565b82525050565b600060c0830160008301516118166000860182611715565b506020830151848203602086015261182e8282611784565b915050604083015184820360408601526118488282611784565b915050606083015184820360608601526118628282611784565b915050608083015161187760808601826117ef565b5060a083015161188a60a0860182611715565b508091505092915050565b600060208201905081810360008301526118af81846117fe565b905092915050565b6118c081611650565b82525050565b600082825260208201905092915050565b60006118e282611724565b6118ec81856118c6565b93506118fc818560208601611740565b61190581611773565b840191505092915050565b611919816117dd565b82525050565b600060608201905061193460008301866118b7565b818103602083015261194681856118d7565b90506119556040830184611910565b949350505050565b600080fd5b600080fd5b7f4e487b7100000000000000000000000000000000000000000000000000000000600052604160045260246000fd5b61199f82611773565b810181811067ffffffffffffffff821117156119be576119bd611967565b5b80604052505050565b60006119d161163c565b90506119dd8282611996565b919050565b600067ffffffffffffffff8211156119fd576119fc611967565b5b611a0682611773565b9050602081019050919050565b82818337600083830152505050565b6000611a35611a30846119e2565b6119c7565b905082815260208101848484011115611a5157611a50611962565b5b611a5c848285611a13565b509392505050565b600082601f830112611a7957611a7861195d565b5b8135611a89848260208601611a22565b91505092915050565b60008060008060808587031215611aac57611aab611646565b5b600085013567ffffffffffffffff811115611aca57611ac961164b565b5b611ad687828801611a64565b945050602085013567ffffffffffffffff811115611af757611af661164b565b5b611b0387828801611a64565b935050604085013567ffffffffffffffff811115611b2457611b2361164b565b5b611b3087828801611a64565b9250506060611b4187828801611693565b91505092959194509250565b6000819050919050565b611b6081611b4d565b82525050565b6000602082019050611b7b6000830184611b57565b92915050565b600060c082019050611b9660008301896118b7565b8181036020830152611ba881886118d7565b90508181036040830152611bbc81876118d7565b90508181036060830152611bd081866118d7565b9050611bdf6080830185611910565b611bec60a08301846118b7565b979650505050505050565b7f4f6e6c792074686520626f617264206f776e65722063616e2072656d6f76652060008201527f70696e732066726f6d2074686520626f6172642e000000000000000000000000602082015250565b6000611c536034836118c6565b9150611c5e82611bf7565b604082019050919050565b60006020820190508181036000830152611c8281611c46565b9050919050565b7f50696e20776974682074686520676976656e20494420646f6573206e6f74206560008201527f786973742e000000000000000000000000000000000000000000000000000000602082015250565b6000611ce56025836118c6565b9150611cf082611c89565b604082019050919050565b60006020820190508181036000830152611d1481611cd8565b9050919050565b7f50696e20776974682074686520676976656e204944206973206e6f74206f6e2060008201527f7468652073706563696669656420626f6172642e000000000000000000000000602082015250565b6000611d776034836118c6565b9150611d8282611d1b565b604082019050919050565b60006020820190508181036000830152611da681611d6a565b9050919050565b7f4e487b7100000000000000000000000000000000000000000000000000000000600052603260045260246000fd5b7f4e487b7100000000000000000000000000000000000000000000000000000000600052601160045260246000fd5b6000611e1682611b4d565b91507fffffffffffffffffffffffffffffffffffffffffffffffffffffffffffffffff8203611e4857611e47611ddc565b5b600182019050919050565b6000611e5e82611b4d565b9150611e6983611b4d565b925082821015611e7c57611e7b611ddc565b5b828203905092915050565b6000611e9282611b4d565b9150611e9d83611b4d565b9250827fffffffffffffffffffffffffffffffffffffffffffffffffffffffffffffffff03821115611ed257611ed1611ddc565b5b828201905092915050565b7f4e487b7100000000000000000000000000000000000000000000000000000000600052603160045260246000fd5b7f4f6e6c79207468652070696e206f776e65722063616e2064656c65746520746860008201527f652070696e2e0000000000000000000000000000000000000000000000000000602082015250565b6000611f686026836118c6565b9150611f7382611f0c565b604082019050919050565b60006020820190508181036000830152611f9781611f5b565b9050919050565b7f50696e20646f6573206e6f742065786973742e00000000000000000000000000600082015250565b6000611fd46013836118c6565b9150611fdf82611f9e565b602082019050919050565b6000602082019050818103600083015261200381611fc7565b9050919050565b7f4e487b7100000000000000000000000000000000000000000000000000000000600052602260045260246000fd5b6000600282049050600182168061205157607f821691505b6020821081036120645761206361200a565b5b50919050565b7f4f6e6c79207468652070696e206f776e65722063616e2073617665207468652060008201527f70696e20746f206120626f6172642e0000000000000000000000000000000000602082015250565b60006120c6602f836118c6565b91506120d18261206a565b604082019050919050565b600060208201905081810360008301526120f5816120b9565b9050919050565b7f426f61726420646f6573206e6f742065786973742e0000000000000000000000600082015250565b60006121326015836118c6565b915061213d826120fc565b602082019050919050565b6000602082019050818103600083015261216181612125565b9050919050565b7f496d61676520686173682063616e6e6f7420626520656d7074792e0000000000600082015250565b600061219e601b836118c6565b91506121a982612168565b602082019050919050565b600060208201905081810360008301526121cd81612191565b9050919050565b7f5469746c652063616e6e6f7420626520656d7074792e00000000000000000000600082015250565b600061220a6016836118c6565b9150612215826121d4565b602082019050919050565b60006020820190508181036000830152612239816121fd565b9050919050565b7f4465736372697074696f6e2063616e6e6f7420626520656d7074792e00000000600082015250565b6000612276601c836118c6565b915061228182612240565b602082019050919050565b600060208201905081810360008301526122a581612269565b9050919050565b6000815190506122bb8161167c565b92915050565b6000602082840312156122d7576122d6611646565b5b60006122e5848285016122ac565b9150509291505056fe608060405234801561001057600080fd5b506101f9806100206000396000f3fe608060405234801561001057600080fd5b506004361061002b5760003560e01c80636f8dcb3d14610030575b600080fd5b61003861004e565b60405161004591906100c6565b60405180910390f35b60008033424460405160200161006693929190610186565b6040516020818303038152906040528051906020012090506000819050809250505090565b60007fffffffffffffffffffffffffffffffff0000000000000000000000000000000082169050919050565b6100c08161008b565b82525050565b60006020820190506100db60008301846100b7565b92915050565b600073ffffffffffffffffffffffffffffffffffffffff82169050919050565b600061010c826100e1565b9050919050565b60008160601b9050919050565b600061012b82610113565b9050919050565b600061013d82610120565b9050919050565b61015561015082610101565b610132565b82525050565b6000819050919050565b6000819050919050565b61018061017b8261015b565b610165565b82525050565b60006101928286610144565b6014820191506101a2828561016f565b6020820191506101b2828461016f565b60208201915081905094935050505056fea2646970667358221220b181367084fa327f6bf46d5a927842d5b22634f66e1f2e470e985f96dbcec30c64736f6c634300080d0033a26469706673582212204e215fef3939ace0455a873099ec091ec85109d4ea7d4c2080f4b32c62cfddae64736f6c634300080d0033",
  "immutableReferences": {},
  "source": "// SPDX-License-Identifier: GPL-3.0\n\npragma solidity >=0.7.0 <0.9.0;\n\nimport {Board, Pin} from \"./common/types.sol\";\nimport {Functions} from \"./common/functions.sol\";\n\n/**\n * @title PinManager\n * @dev A smart contract for managing pins\n */\ncontract PinManager {\n    /**\n     * @dev Mapping to store pins by their ID\n     */\n    mapping(bytes16 => Pin) public pins;\n    mapping(bytes16 => Board) public boards;\n\n    /**\n     * @dev Number of pins created\n     */\n    uint public pinCount;\n\n    /**\n     * @dev Create a new pin\n     * @param imageHash Hash for the image of the pin\n     * @param title Title of the pin\n     * @param description Description of the pin\n     * @param boardId ID of the board where the pin will be saved\n     * Requirements:\n     * - imageHash, title, and description cannot be empty strings\n     * - Board with the given ID must exist\n     */\n    function createPin(\n        string memory imageHash,\n        string memory title,\n        string memory description,\n        bytes16 boardId\n    ) public {\n        require(bytes(imageHash).length != 0, \"Image hash cannot be empty.\");\n        require(bytes(title).length != 0, \"Title cannot be empty.\");\n        require(bytes(description).length != 0, \"Description cannot be empty.\");\n        require(boards[boardId].owner != address(0), \"Board does not exist.\");\n        bytes16 id = Functions(new Functions()).generateId();\n        Pin memory pin = Pin(\n            id,\n            imageHash,\n            title,\n            description,\n            msg.sender,\n            boardId\n        );\n        pins[id] = pin;\n        pinCount++;\n    }\n\n    /**\n     * @dev Delete an existing pin\n     * @param pinId ID of the pin to delete\n     * Requirements:\n     * - Only the pin owner can delete the pin\n     */\n    function deletePin(bytes16 pinId) public {\n        require(\n            msg.sender == pins[pinId].owner,\n            \"Only the pin owner can delete the pin.\"\n        );\n        delete pins[pinId];\n    }\n\n    /**\n     * @dev Get pin information by its ID\n     * @param pinId ID of the pin to get\n     * @return Pin struct containing pin information\n     * Requirements:\n     * - Pin with the given ID must exist\n     */\n    function getPin(bytes16 pinId) public view returns (Pin memory) {\n        require(pins[pinId].owner != address(0), \"Pin does not exist.\");\n        return pins[pinId];\n    }\n\n    /**\n     * @dev Save a pin to a board\n     * @param pinId ID of the pin to save\n     * @param boardId ID of the board to save the pin to\n     * Requirements:\n     * - Pin with the given ID must exist\n     * - Board with the given ID must exist\n     * - Only the pin owner can save the pin to the board\n     */\n    function savePinToBoard(bytes16 pinId, bytes16 boardId) public {\n        require(\n            pins[pinId].owner == msg.sender,\n            \"Only the pin owner can save the pin to a board.\"\n        );\n        require(boards[boardId].owner != address(0), \"Board does not exist.\");\n        pins[pinId].boardId = boardId;\n        boards[boardId].pins.push(pinId);\n    }\n\n    /**\n     * @dev Remove a pin from a board\n     * @param boardId ID of the board from which to remove the pin\n     * @param pinId ID of the pin to remove\n     * Requirements:\n     * - Only the board owner can remove pins from the board\n     * - Board and pin with the given IDs must exist\n     */\n    function removePinFromBoard(bytes16 boardId, bytes16 pinId) public {\n        Board storage board = boards[boardId];\n        require(\n            board.owner == msg.sender,\n            \"Only the board owner can remove pins from the board.\"\n        );\n        require(\n            pins[pinId].owner != address(0),\n            \"Pin with the given ID does not exist.\"\n        );\n        require(\n            pins[pinId].boardId == boardId,\n            \"Pin with the given ID is not on the specified board.\"\n        );\n        uint indexToDelete;\n        for (uint i = 0; i < board.pins.length; i++) {\n            if (board.pins[i] == pinId) {\n                indexToDelete = i;\n                break;\n            }\n        }\n        for (uint i = indexToDelete; i < board.pins.length - 1; i++) {\n            board.pins[i] = board.pins[i + 1];\n        }\n        board.pins.pop();\n        pins[pinId].boardId = 0;\n    }\n}\n",
  "sourcePath": "/Users/lisapolena/Documents/Master_04/Thesis/Prototyp/betterPinterest/src/contracts/pinManager.sol",
  "compiler": {
    "name": "solc",
    "version": "0.8.13+commit.abaa5c0e.Emscripten.clang"
  },
  "schemaVersion": "3.4.14",
  "updatedAt": "2023-05-26T10:30:27.279Z",
  "devdoc": {
    "details": "A smart contract for managing pins",
    "kind": "dev",
    "methods": {
      "createPin(string,string,string,bytes16)": {
        "details": "Create a new pin",
        "params": {
          "boardId": "ID of the board where the pin will be saved Requirements: - imageHash, title, and description cannot be empty strings - Board with the given ID must exist",
          "description": "Description of the pin",
          "imageHash": "Hash for the image of the pin",
          "title": "Title of the pin"
        }
      },
      "deletePin(bytes16)": {
        "details": "Delete an existing pin",
        "params": {
          "pinId": "ID of the pin to delete Requirements: - Only the pin owner can delete the pin"
        }
      },
      "getPin(bytes16)": {
        "details": "Get pin information by its ID",
        "params": {
          "pinId": "ID of the pin to get"
        },
        "returns": {
          "_0": "Pin struct containing pin information Requirements: - Pin with the given ID must exist"
        }
      },
      "removePinFromBoard(bytes16,bytes16)": {
        "details": "Remove a pin from a board",
        "params": {
          "boardId": "ID of the board from which to remove the pin",
          "pinId": "ID of the pin to remove Requirements: - Only the board owner can remove pins from the board - Board and pin with the given IDs must exist"
        }
      },
      "savePinToBoard(bytes16,bytes16)": {
        "details": "Save a pin to a board",
        "params": {
          "boardId": "ID of the board to save the pin to Requirements: - Pin with the given ID must exist - Board with the given ID must exist - Only the pin owner can save the pin to the board",
          "pinId": "ID of the pin to save"
        }
      }
    },
    "stateVariables": {
      "pinCount": {
        "details": "Number of pins created"
      },
      "pins": {
        "details": "Mapping to store pins by their ID"
      }
    },
    "title": "PinManager",
    "version": 1
  },
  "userdoc": {
    "kind": "user",
    "methods": {},
    "version": 1
  }
}