{
  "contractName": "PinManager",
  "abi": [
    {
      "anonymous": false,
      "inputs": [
        {
          "indexed": false,
          "internalType": "uint256",
          "name": "pinId",
          "type": "uint256"
        },
        {
          "indexed": false,
          "internalType": "string",
          "name": "newTitle",
          "type": "string"
        },
        {
          "indexed": false,
          "internalType": "string",
          "name": "newDescription",
          "type": "string"
        },
        {
          "indexed": false,
          "internalType": "string",
          "name": "imageHash",
          "type": "string"
        },
        {
          "indexed": false,
          "internalType": "uint256",
          "name": "newBoardId",
          "type": "uint256"
        },
        {
          "indexed": false,
          "internalType": "uint256",
          "name": "oldBoardId",
          "type": "uint256"
        },
        {
          "indexed": false,
          "internalType": "address",
          "name": "owner",
          "type": "address"
        }
      ],
      "name": "CreatedPinEdited",
      "type": "event"
    },
    {
      "anonymous": false,
      "inputs": [
        {
          "indexed": false,
          "internalType": "uint256",
          "name": "pinId",
          "type": "uint256"
        },
        {
          "indexed": false,
          "internalType": "string",
          "name": "title",
          "type": "string"
        },
        {
          "indexed": false,
          "internalType": "string",
          "name": "description",
          "type": "string"
        },
        {
          "indexed": false,
          "internalType": "string",
          "name": "imageHash",
          "type": "string"
        },
        {
          "indexed": true,
          "internalType": "uint256",
          "name": "boardId",
          "type": "uint256"
        },
        {
          "indexed": true,
          "internalType": "address",
          "name": "owner",
          "type": "address"
        }
      ],
      "name": "PinCreated",
      "type": "event"
    },
    {
      "anonymous": false,
      "inputs": [
        {
          "indexed": false,
          "internalType": "uint256",
          "name": "pinId",
          "type": "uint256"
        },
        {
          "indexed": false,
          "internalType": "uint256",
          "name": "boardId",
          "type": "uint256"
        }
      ],
      "name": "PinDeleted",
      "type": "event"
    },
    {
      "inputs": [],
      "name": "currentPinId",
      "outputs": [
        {
          "internalType": "uint256",
          "name": "",
          "type": "uint256"
        }
      ],
      "stateMutability": "view",
      "type": "function"
    },
    {
      "inputs": [
        {
          "internalType": "uint256",
          "name": "",
          "type": "uint256"
        }
      ],
      "name": "pins",
      "outputs": [
        {
          "internalType": "uint256",
          "name": "id",
          "type": "uint256"
        },
        {
          "internalType": "string",
          "name": "title",
          "type": "string"
        },
        {
          "internalType": "string",
          "name": "description",
          "type": "string"
        },
        {
          "internalType": "string",
          "name": "imageHash",
          "type": "string"
        },
        {
          "internalType": "address",
          "name": "owner",
          "type": "address"
        },
        {
          "internalType": "uint256",
          "name": "boardId",
          "type": "uint256"
        }
      ],
      "stateMutability": "view",
      "type": "function"
    },
    {
      "inputs": [
        {
          "internalType": "string",
          "name": "title",
          "type": "string"
        },
        {
          "internalType": "string",
          "name": "description",
          "type": "string"
        },
        {
          "internalType": "string",
          "name": "imageHash",
          "type": "string"
        },
        {
          "internalType": "uint256",
          "name": "boardId",
          "type": "uint256"
        }
      ],
      "name": "createPin",
      "outputs": [
        {
          "internalType": "uint256",
          "name": "",
          "type": "uint256"
        }
      ],
      "stateMutability": "nonpayable",
      "type": "function"
    },
    {
      "inputs": [
        {
          "internalType": "uint256",
          "name": "pinId",
          "type": "uint256"
        }
      ],
      "name": "deletePin",
      "outputs": [],
      "stateMutability": "nonpayable",
      "type": "function"
    },
    {
      "inputs": [
        {
          "internalType": "uint256",
          "name": "pinId",
          "type": "uint256"
        }
      ],
      "name": "getPinById",
      "outputs": [
        {
          "components": [
            {
              "internalType": "uint256",
              "name": "id",
              "type": "uint256"
            },
            {
              "internalType": "string",
              "name": "title",
              "type": "string"
            },
            {
              "internalType": "string",
              "name": "description",
              "type": "string"
            },
            {
              "internalType": "string",
              "name": "imageHash",
              "type": "string"
            },
            {
              "internalType": "address",
              "name": "owner",
              "type": "address"
            },
            {
              "internalType": "uint256",
              "name": "boardId",
              "type": "uint256"
            }
          ],
          "internalType": "struct Pin",
          "name": "",
          "type": "tuple"
        }
      ],
      "stateMutability": "view",
      "type": "function"
    },
    {
      "inputs": [
        {
          "internalType": "uint256",
          "name": "pinId",
          "type": "uint256"
        },
        {
          "internalType": "string",
          "name": "newTitle",
          "type": "string"
        },
        {
          "internalType": "string",
          "name": "newDescription",
          "type": "string"
        },
        {
          "internalType": "uint256",
          "name": "newBoardId",
          "type": "uint256"
        }
      ],
      "name": "editCreatedPin",
      "outputs": [],
      "stateMutability": "nonpayable",
      "type": "function"
    },
    {
      "inputs": [
        {
          "internalType": "uint256",
          "name": "boardId",
          "type": "uint256"
        }
      ],
      "name": "getPinsByBoardId",
      "outputs": [
        {
          "components": [
            {
              "internalType": "uint256",
              "name": "id",
              "type": "uint256"
            },
            {
              "internalType": "string",
              "name": "title",
              "type": "string"
            },
            {
              "internalType": "string",
              "name": "description",
              "type": "string"
            },
            {
              "internalType": "string",
              "name": "imageHash",
              "type": "string"
            },
            {
              "internalType": "address",
              "name": "owner",
              "type": "address"
            },
            {
              "internalType": "uint256",
              "name": "boardId",
              "type": "uint256"
            }
          ],
          "internalType": "struct Pin[]",
          "name": "",
          "type": "tuple[]"
        }
      ],
      "stateMutability": "view",
      "type": "function"
    },
    {
      "inputs": [],
      "name": "getAllPins",
      "outputs": [
        {
          "components": [
            {
              "internalType": "uint256",
              "name": "id",
              "type": "uint256"
            },
            {
              "internalType": "string",
              "name": "title",
              "type": "string"
            },
            {
              "internalType": "string",
              "name": "description",
              "type": "string"
            },
            {
              "internalType": "string",
              "name": "imageHash",
              "type": "string"
            },
            {
              "internalType": "address",
              "name": "owner",
              "type": "address"
            },
            {
              "internalType": "uint256",
              "name": "boardId",
              "type": "uint256"
            }
          ],
          "internalType": "struct Pin[]",
          "name": "",
          "type": "tuple[]"
        }
      ],
      "stateMutability": "view",
      "type": "function"
    }
  ],
  "bytecode": "0x608060405234801561001057600080fd5b50612060806100206000396000f3fe608060405234801561001057600080fd5b50600436106100885760003560e01c8063a4e593321161005b578063a4e5933214610115578063cf7bf44014610145578063ead13f3a14610161578063fd08cbb41461019157610088565b8063121574071461008d5780634c9bffbb146100ab5780637492e09b146100db5780637f97d9be146100f9575b600080fd5b6100956101c6565b6040516100a29190611489565b60405180910390f35b6100c560048036038101906100c091906114e4565b6101cc565b6040516100d29190611753565b60405180910390f35b6100e361052c565b6040516100f09190611753565b60405180910390f35b610113600480360381019061010e91906114e4565b61088b565b005b61012f600480360381019061012a91906114e4565b610a40565b60405161013c919061180c565b60405180910390f35b61015f600480360381019061015a9190611963565b610db8565b005b61017b60048036038101906101769190611a02565b610fbb565b6040516101889190611489565b60405180910390f35b6101ab60048036038101906101a691906114e4565b61114d565b6040516101bd96959493929190611b16565b60405180910390f35b60015481565b6060600080600190505b600154811161021d5783600080838152602001908152602001600020600501540361020a57818061020690611bbb565b9250505b808061021590611bbb565b9150506101d6565b5060008167ffffffffffffffff81111561023a57610239611838565b5b60405190808252806020026020018201604052801561027357816020015b610260611341565b8152602001906001900390816102585790505b509050600080600190505b60015481116105205785600080838152602001908152602001600020600501540361050d576000808281526020019081526020016000206040518060c0016040529081600082015481526020016001820180546102da90611c32565b80601f016020809104026020016040519081016040528092919081815260200182805461030690611c32565b80156103535780601f1061032857610100808354040283529160200191610353565b820191906000526020600020905b81548152906001019060200180831161033657829003601f168201915b5050505050815260200160028201805461036c90611c32565b80601f016020809104026020016040519081016040528092919081815260200182805461039890611c32565b80156103e55780601f106103ba576101008083540402835291602001916103e5565b820191906000526020600020905b8154815290600101906020018083116103c857829003601f168201915b505050505081526020016003820180546103fe90611c32565b80601f016020809104026020016040519081016040528092919081815260200182805461042a90611c32565b80156104775780601f1061044c57610100808354040283529160200191610477565b820191906000526020600020905b81548152906001019060200180831161045a57829003601f168201915b505050505081526020016004820160009054906101000a900473ffffffffffffffffffffffffffffffffffffffff1673ffffffffffffffffffffffffffffffffffffffff1673ffffffffffffffffffffffffffffffffffffffff1681526020016005820154815250508383815181106104f3576104f2611c63565b5b6020026020010181905250818061050990611bbb565b9250505b808061051890611bbb565b91505061027e565b50819350505050919050565b6060600060015467ffffffffffffffff81111561054c5761054b611838565b5b60405190808252806020026020018201604052801561058557816020015b610572611341565b81526020019060019003908161056a5790505b509050600080600190505b600154811161087f57600073ffffffffffffffffffffffffffffffffffffffff1660008083815260200190815260200160002060040160009054906101000a900473ffffffffffffffffffffffffffffffffffffffff1673ffffffffffffffffffffffffffffffffffffffff161461086c576000808281526020019081526020016000206040518060c00160405290816000820154815260200160018201805461063990611c32565b80601f016020809104026020016040519081016040528092919081815260200182805461066590611c32565b80156106b25780601f10610687576101008083540402835291602001916106b2565b820191906000526020600020905b81548152906001019060200180831161069557829003601f168201915b505050505081526020016002820180546106cb90611c32565b80601f01602080910402602001604051908101604052809291908181526020018280546106f790611c32565b80156107445780601f1061071957610100808354040283529160200191610744565b820191906000526020600020905b81548152906001019060200180831161072757829003601f168201915b5050505050815260200160038201805461075d90611c32565b80601f016020809104026020016040519081016040528092919081815260200182805461078990611c32565b80156107d65780601f106107ab576101008083540402835291602001916107d6565b820191906000526020600020905b8154815290600101906020018083116107b957829003601f168201915b505050505081526020016004820160009054906101000a900473ffffffffffffffffffffffffffffffffffffffff1673ffffffffffffffffffffffffffffffffffffffff1673ffffffffffffffffffffffffffffffffffffffff16815260200160058201548152505083838151811061085257610851611c63565b5b6020026020010181905250818061086890611bbb565b9250505b808061087790611bbb565b915050610590565b50808252819250505090565b6001548111156108d0576040517f08c379a00000000000000000000000000000000000000000000000000000000081526004016108c790611cde565b60405180910390fd5b60008082815260200190815260200160002060040160009054906101000a900473ffffffffffffffffffffffffffffffffffffffff1673ffffffffffffffffffffffffffffffffffffffff163373ffffffffffffffffffffffffffffffffffffffff1614610973576040517f08c379a000000000000000000000000000000000000000000000000000000000815260040161096a90611d70565b60405180910390fd5b7ff33f301870f20c2876ea130fb163476bfc8d3476c8a82579b694f2db2afcb02081600080848152602001908152602001600020600501546040516109b9929190611d90565b60405180910390a16000808281526020019081526020016000206000808201600090556001820160006109ec919061138d565b6002820160006109fc919061138d565b600382016000610a0c919061138d565b6004820160006101000a81549073ffffffffffffffffffffffffffffffffffffffff02191690556005820160009055505050565b610a48611341565b60008203610a8b576040517f08c379a0000000000000000000000000000000000000000000000000000000008152600401610a8290611e05565b60405180910390fd5b600154821115610ad0576040517f08c379a0000000000000000000000000000000000000000000000000000000008152600401610ac790611cde565b60405180910390fd5b600073ffffffffffffffffffffffffffffffffffffffff1660008084815260200190815260200160002060040160009054906101000a900473ffffffffffffffffffffffffffffffffffffffff1673ffffffffffffffffffffffffffffffffffffffff1603610b74576040517f08c379a0000000000000000000000000000000000000000000000000000000008152600401610b6b90611cde565b60405180910390fd5b6000808381526020019081526020016000206040518060c001604052908160008201548152602001600182018054610bab90611c32565b80601f0160208091040260200160405190810160405280929190818152602001828054610bd790611c32565b8015610c245780601f10610bf957610100808354040283529160200191610c24565b820191906000526020600020905b815481529060010190602001808311610c0757829003601f168201915b50505050508152602001600282018054610c3d90611c32565b80601f0160208091040260200160405190810160405280929190818152602001828054610c6990611c32565b8015610cb65780601f10610c8b57610100808354040283529160200191610cb6565b820191906000526020600020905b815481529060010190602001808311610c9957829003601f168201915b50505050508152602001600382018054610ccf90611c32565b80601f0160208091040260200160405190810160405280929190818152602001828054610cfb90611c32565b8015610d485780601f10610d1d57610100808354040283529160200191610d48565b820191906000526020600020905b815481529060010190602001808311610d2b57829003601f168201915b505050505081526020016004820160009054906101000a900473ffffffffffffffffffffffffffffffffffffffff1673ffffffffffffffffffffffffffffffffffffffff1673ffffffffffffffffffffffffffffffffffffffff1681526020016005820154815250509050919050565b600154841115610dfd576040517f08c379a0000000000000000000000000000000000000000000000000000000008152600401610df490611cde565b60405180910390fd5b60008085815260200190815260200160002060040160009054906101000a900473ffffffffffffffffffffffffffffffffffffffff1673ffffffffffffffffffffffffffffffffffffffff163373ffffffffffffffffffffffffffffffffffffffff1614610ea0576040517f08c379a0000000000000000000000000000000000000000000000000000000008152600401610e9790611e97565b60405180910390fd5b6000806000868152602001908152602001600020600501549050836000808781526020019081526020016000206001019080519060200190610ee39291906113cd565b50826000808781526020019081526020016000206002019080519060200190610f0d9291906113cd565b5081600080878152602001908152602001600020600501819055507f3ca00a7395e6a87fce38304811d1ecb55a6d3c75e58d9946c3f1c338066061ab8585856000808a815260200190815260200160002060030186866000808d815260200190815260200160002060040160009054906101000a900473ffffffffffffffffffffffffffffffffffffffff16604051610fac9796959493929190611f4c565b60405180910390a15050505050565b600060016000815480929190610fd090611bbb565b919050555060006040518060c0016040528060015481526020018781526020018681526020018581526020013373ffffffffffffffffffffffffffffffffffffffff1681526020018481525090508060008060015481526020019081526020016000206000820151816000015560208201518160010190805190602001906110599291906113cd565b5060408201518160020190805190602001906110769291906113cd565b5060608201518160030190805190602001906110939291906113cd565b5060808201518160040160006101000a81548173ffffffffffffffffffffffffffffffffffffffff021916908373ffffffffffffffffffffffffffffffffffffffff16021790555060a082015181600501559050503373ffffffffffffffffffffffffffffffffffffffff16837f1f445d04705feeb57b1d284a08edf73c89be75aa8365a4cc60f84671623a58166001548989896040516111379493929190611fd0565b60405180910390a3600154915050949350505050565b600060205280600052604060002060009150905080600001549080600101805461117690611c32565b80601f01602080910402602001604051908101604052809291908181526020018280546111a290611c32565b80156111ef5780601f106111c4576101008083540402835291602001916111ef565b820191906000526020600020905b8154815290600101906020018083116111d257829003601f168201915b50505050509080600201805461120490611c32565b80601f016020809104026020016040519081016040528092919081815260200182805461123090611c32565b801561127d5780601f106112525761010080835404028352916020019161127d565b820191906000526020600020905b81548152906001019060200180831161126057829003601f168201915b50505050509080600301805461129290611c32565b80601f01602080910402602001604051908101604052809291908181526020018280546112be90611c32565b801561130b5780601f106112e05761010080835404028352916020019161130b565b820191906000526020600020905b8154815290600101906020018083116112ee57829003601f168201915b5050505050908060040160009054906101000a900473ffffffffffffffffffffffffffffffffffffffff16908060050154905086565b6040518060c0016040528060008152602001606081526020016060815260200160608152602001600073ffffffffffffffffffffffffffffffffffffffff168152602001600081525090565b50805461139990611c32565b6000825580601f106113ab57506113ca565b601f0160209004906000526020600020908101906113c99190611453565b5b50565b8280546113d990611c32565b90600052602060002090601f0160209004810192826113fb5760008555611442565b82601f1061141457805160ff1916838001178555611442565b82800160010185558215611442579182015b82811115611441578251825591602001919060010190611426565b5b50905061144f9190611453565b5090565b5b8082111561146c576000816000905550600101611454565b5090565b6000819050919050565b61148381611470565b82525050565b600060208201905061149e600083018461147a565b92915050565b6000604051905090565b600080fd5b600080fd5b6114c181611470565b81146114cc57600080fd5b50565b6000813590506114de816114b8565b92915050565b6000602082840312156114fa576114f96114ae565b5b6000611508848285016114cf565b91505092915050565b600081519050919050565b600082825260208201905092915050565b6000819050602082019050919050565b61154681611470565b82525050565b600081519050919050565b600082825260208201905092915050565b60005b8381101561158657808201518184015260208101905061156b565b83811115611595576000848401525b50505050565b6000601f19601f8301169050919050565b60006115b78261154c565b6115c18185611557565b93506115d1818560208601611568565b6115da8161159b565b840191505092915050565b600073ffffffffffffffffffffffffffffffffffffffff82169050919050565b6000611610826115e5565b9050919050565b61162081611605565b82525050565b600060c08301600083015161163e600086018261153d565b506020830151848203602086015261165682826115ac565b9150506040830151848203604086015261167082826115ac565b9150506060830151848203606086015261168a82826115ac565b915050608083015161169f6080860182611617565b5060a08301516116b260a086018261153d565b508091505092915050565b60006116c98383611626565b905092915050565b6000602082019050919050565b60006116e982611511565b6116f3818561151c565b9350836020820285016117058561152d565b8060005b85811015611741578484038952815161172285826116bd565b945061172d836116d1565b925060208a01995050600181019050611709565b50829750879550505050505092915050565b6000602082019050818103600083015261176d81846116de565b905092915050565b600060c08301600083015161178d600086018261153d565b50602083015184820360208601526117a582826115ac565b915050604083015184820360408601526117bf82826115ac565b915050606083015184820360608601526117d982826115ac565b91505060808301516117ee6080860182611617565b5060a083015161180160a086018261153d565b508091505092915050565b600060208201905081810360008301526118268184611775565b905092915050565b600080fd5b600080fd5b7f4e487b7100000000000000000000000000000000000000000000000000000000600052604160045260246000fd5b6118708261159b565b810181811067ffffffffffffffff8211171561188f5761188e611838565b5b80604052505050565b60006118a26114a4565b90506118ae8282611867565b919050565b600067ffffffffffffffff8211156118ce576118cd611838565b5b6118d78261159b565b9050602081019050919050565b82818337600083830152505050565b6000611906611901846118b3565b611898565b90508281526020810184848401111561192257611921611833565b5b61192d8482856118e4565b509392505050565b600082601f83011261194a5761194961182e565b5b813561195a8482602086016118f3565b91505092915050565b6000806000806080858703121561197d5761197c6114ae565b5b600061198b878288016114cf565b945050602085013567ffffffffffffffff8111156119ac576119ab6114b3565b5b6119b887828801611935565b935050604085013567ffffffffffffffff8111156119d9576119d86114b3565b5b6119e587828801611935565b92505060606119f6878288016114cf565b91505092959194509250565b60008060008060808587031215611a1c57611a1b6114ae565b5b600085013567ffffffffffffffff811115611a3a57611a396114b3565b5b611a4687828801611935565b945050602085013567ffffffffffffffff811115611a6757611a666114b3565b5b611a7387828801611935565b935050604085013567ffffffffffffffff811115611a9457611a936114b3565b5b611aa087828801611935565b9250506060611ab1878288016114cf565b91505092959194509250565b600082825260208201905092915050565b6000611ad98261154c565b611ae38185611abd565b9350611af3818560208601611568565b611afc8161159b565b840191505092915050565b611b1081611605565b82525050565b600060c082019050611b2b600083018961147a565b8181036020830152611b3d8188611ace565b90508181036040830152611b518187611ace565b90508181036060830152611b658186611ace565b9050611b746080830185611b07565b611b8160a083018461147a565b979650505050505050565b7f4e487b7100000000000000000000000000000000000000000000000000000000600052601160045260246000fd5b6000611bc682611470565b91507fffffffffffffffffffffffffffffffffffffffffffffffffffffffffffffffff8203611bf857611bf7611b8c565b5b600182019050919050565b7f4e487b7100000000000000000000000000000000000000000000000000000000600052602260045260246000fd5b60006002820490506001821680611c4a57607f821691505b602082108103611c5d57611c5c611c03565b5b50919050565b7f4e487b7100000000000000000000000000000000000000000000000000000000600052603260045260246000fd5b7f50696e20646f6573206e6f742065786973742e00000000000000000000000000600082015250565b6000611cc8601383611abd565b9150611cd382611c92565b602082019050919050565b60006020820190508181036000830152611cf781611cbb565b9050919050565b7f4f6e6c79207468652070696e206f776e65722063616e2064656c65746520746860008201527f652070696e2e0000000000000000000000000000000000000000000000000000602082015250565b6000611d5a602683611abd565b9150611d6582611cfe565b604082019050919050565b60006020820190508181036000830152611d8981611d4d565b9050919050565b6000604082019050611da5600083018561147a565b611db2602083018461147a565b9392505050565b7f50696e204944206d7573742062652067726561746572207468616e20302e0000600082015250565b6000611def601e83611abd565b9150611dfa82611db9565b602082019050919050565b60006020820190508181036000830152611e1e81611de2565b9050919050565b7f4f6e6c79207468652070696e206f776e65722063616e2065646974207468652060008201527f70696e2e00000000000000000000000000000000000000000000000000000000602082015250565b6000611e81602483611abd565b9150611e8c82611e25565b604082019050919050565b60006020820190508181036000830152611eb081611e74565b9050919050565b60008190508160005260206000209050919050565b60008154611ed981611c32565b611ee38186611abd565b94506001821660008114611efe5760018114611f1057611f43565b60ff1983168652602086019350611f43565b611f1985611eb7565b60005b83811015611f3b57815481890152600182019150602081019050611f1c565b808801955050505b50505092915050565b600060e082019050611f61600083018a61147a565b8181036020830152611f738189611ace565b90508181036040830152611f878188611ace565b90508181036060830152611f9b8187611ecc565b9050611faa608083018661147a565b611fb760a083018561147a565b611fc460c0830184611b07565b98975050505050505050565b6000608082019050611fe5600083018761147a565b8181036020830152611ff78186611ace565b9050818103604083015261200b8185611ace565b9050818103606083015261201f8184611ace565b90509594505050505056fea26469706673582212204d1cdda9654cd0efe4529c18486a98e11762398d7c7dffdf6c0352e123aee15164736f6c634300080d0033",
  "immutableReferences": {},
  "source": "// SPDX-License-Identifier: GPL-3.0\n\npragma solidity >=0.7.0 <0.9.0;\n\nimport {Pin} from \"./common/types.sol\";\n\n/**\n * @title PinManager\n * @dev A smart contract for managing pins\n */\ncontract PinManager {\n    /**\n     * @dev Event emitted when a new pin is created\n     * @param pinId ID of the pin created\n     * @param title Title of the pin created\n     * @param description Description of the pin created\n     * @param imageHash IPFS hash of the pin's image\n     * @param boardId of the board the pin belongs to\n     * @param owner Owner of the pin created\n     */\n    event PinCreated(\n        uint256 pinId,\n        string title,\n        string description,\n        string imageHash,\n        uint256 indexed boardId,\n        address indexed owner\n    );\n\n    /**\n     * @dev Event emitted when a pin is deleted\n     * @param pinId ID of the pin deleted\n     * @param boardId ID of the board the pin belonged to\n     */\n    event PinDeleted(uint256 pinId, uint256 boardId);\n\n    /**\n     * @dev Event emitted when a created pin is edited\n     * @param pinId ID of the pin edited\n     * @param newTitle New title of the pin edited\n     * @param newDescription New description of the pin edited\n     * @param imageHash IPFS hash of the pin's image\n     * @param newBoardId ID of the new board\n     * @param oldBoardId ID of the old board\n     * @param owner Owner of the pin edited\n     */\n    event CreatedPinEdited(\n        uint256 pinId,\n        string newTitle,\n        string newDescription,\n        string imageHash,\n        uint256 newBoardId,\n        uint256 oldBoardId,\n        address owner\n    );\n\n    /**\n     * @dev Mapping to store pins by their ID\n     */\n    mapping(uint256 => Pin) public pins;\n\n    /**\n     * @dev Number of pins created\n     */\n    uint256 public currentPinId;\n\n    /**\n     * @dev Create a new pin\n     * @param title Title of the pin\n     * @param description Description of the pin\n     * @param imageHash IPFS hash of the pin's image\n     * @param boardId ID of the board the pin belongs to\n     * @return uint256 ID of the created pin\n     */\n    function createPin(\n        string memory title,\n        string memory description,\n        string memory imageHash,\n        uint256 boardId\n    ) public returns (uint256) {\n        currentPinId++;\n        Pin memory pin = Pin(\n            currentPinId,\n            title,\n            description,\n            imageHash,\n            msg.sender,\n            boardId\n        );\n        pins[currentPinId] = pin;\n        emit PinCreated(\n            currentPinId,\n            title,\n            description,\n            imageHash,\n            boardId,\n            msg.sender\n        );\n        return currentPinId;\n    }\n\n    /**\n     * @dev Delete an existing pin\n     * @param pinId ID of the pin to delete\n     * Requirements:\n     * - Only the pin owner can delete the pin\n     */\n    function deletePin(uint256 pinId) public {\n        require(pinId <= currentPinId, \"Pin does not exist.\");\n        require(\n            msg.sender == pins[pinId].owner,\n            \"Only the pin owner can delete the pin.\"\n        );\n        emit PinDeleted(pinId, pins[pinId].boardId);\n        delete pins[pinId];\n    }\n\n    /**\n     * @dev Get pin information by its ID\n     * @param pinId ID of the pin to get\n     * @return Pin struct containing pin information\n     * Requirements:\n     * - Pin ID must be greater than 0\n     * - Pin with the given ID must exist\n     */\n    function getPinById(uint256 pinId) public view returns (Pin memory) {\n        require(pinId != 0, \"Pin ID must be greater than 0.\");\n        require(pinId <= currentPinId, \"Pin does not exist.\");\n        require(pins[pinId].owner != address(0), \"Pin does not exist.\");\n        return pins[pinId];\n    }\n\n    /**\n     * @dev Edit created pin information\n     * @param pinId ID of the pin to edit\n     * @param newTitle New title for the pin\n     * @param newDescription New description for the pin\n     * @param newBoardId New Id of the board\n     * Requirements:\n     * - Only the pin owner can edit the pin\n     * - Pin with the given ID must exist\n     */\n    function editCreatedPin(\n        uint256 pinId,\n        string memory newTitle,\n        string memory newDescription,\n        uint256 newBoardId\n    ) public {\n        require(pinId <= currentPinId, \"Pin does not exist.\");\n        require(\n            msg.sender == pins[pinId].owner,\n            \"Only the pin owner can edit the pin.\"\n        );\n        uint256 oldBoardId = pins[pinId].boardId;\n        pins[pinId].title = newTitle;\n        pins[pinId].description = newDescription;\n        pins[pinId].boardId = newBoardId;\n        emit CreatedPinEdited(\n            pinId,\n            newTitle,\n            newDescription,\n            pins[pinId].imageHash,\n            newBoardId,\n            oldBoardId,\n            pins[pinId].owner\n        );\n    }\n\n    /**\n     * @dev Get all pins from a specific board\n     * @param boardId ID of the board\n     * @return Pin[] array containing all the pins from the board\n     */\n    function getPinsByBoardId(\n        uint256 boardId\n    ) public view returns (Pin[] memory) {\n        uint256 count = 0;\n\n        // Count the number of pins in the board\n        for (uint256 i = 1; i <= currentPinId; i++) {\n            if (pins[i].boardId == boardId) {\n                count++;\n            }\n        }\n\n        // Create an array with the count of pins\n        Pin[] memory boardPins = new Pin[](count);\n        uint256 index = 0;\n\n        // Retrieve the pins from the board\n        for (uint256 i = 1; i <= currentPinId; i++) {\n            if (pins[i].boardId == boardId) {\n                boardPins[index] = pins[i];\n                index++;\n            }\n        }\n\n        return boardPins;\n    }\n\n    /**\n     * @dev Get all pins\n     * @return Pin[] array containing all the pins\n     */\n    function getAllPins() public view returns (Pin[] memory) {\n        Pin[] memory allPins = new Pin[](currentPinId);\n        uint256 index = 0;\n\n        for (uint256 i = 1; i <= currentPinId; i++) {\n            if (pins[i].owner != address(0)) {\n                allPins[index] = pins[i];\n                index++;\n            }\n        }\n\n        // Resize the allPins array to remove any unused elements\n        assembly {\n            mstore(allPins, index)\n        }\n\n        return allPins;\n    }\n}\n",
  "sourcePath": "/Users/lisapolena/Documents/Master_04/Thesis/Prototyp/betterPinterest/src/contracts/pinManager.sol",
  "compiler": {
    "name": "solc",
    "version": "0.8.13+commit.abaa5c0e.Emscripten.clang"
  },
  "schemaVersion": "3.4.14",
  "updatedAt": "2023-06-09T23:23:06.692Z",
  "devdoc": {
    "details": "A smart contract for managing pins",
    "events": {
      "CreatedPinEdited(uint256,string,string,string,uint256,uint256,address)": {
        "details": "Event emitted when a created pin is edited",
        "params": {
          "imageHash": "IPFS hash of the pin's image",
          "newBoardId": "ID of the new board",
          "newDescription": "New description of the pin edited",
          "newTitle": "New title of the pin edited",
          "oldBoardId": "ID of the old board",
          "owner": "Owner of the pin edited",
          "pinId": "ID of the pin edited"
        }
      },
      "PinCreated(uint256,string,string,string,uint256,address)": {
        "details": "Event emitted when a new pin is created",
        "params": {
          "boardId": "of the board the pin belongs to",
          "description": "Description of the pin created",
          "imageHash": "IPFS hash of the pin's image",
          "owner": "Owner of the pin created",
          "pinId": "ID of the pin created",
          "title": "Title of the pin created"
        }
      },
      "PinDeleted(uint256,uint256)": {
        "details": "Event emitted when a pin is deleted",
        "params": {
          "boardId": "ID of the board the pin belonged to",
          "pinId": "ID of the pin deleted"
        }
      }
    },
    "kind": "dev",
    "methods": {
      "createPin(string,string,string,uint256)": {
        "details": "Create a new pin",
        "params": {
          "boardId": "ID of the board the pin belongs to",
          "description": "Description of the pin",
          "imageHash": "IPFS hash of the pin's image",
          "title": "Title of the pin"
        },
        "returns": {
          "_0": "uint256 ID of the created pin"
        }
      },
      "deletePin(uint256)": {
        "details": "Delete an existing pin",
        "params": {
          "pinId": "ID of the pin to delete Requirements: - Only the pin owner can delete the pin"
        }
      },
      "editCreatedPin(uint256,string,string,uint256)": {
        "details": "Edit created pin information",
        "params": {
          "newBoardId": "New Id of the board Requirements: - Only the pin owner can edit the pin - Pin with the given ID must exist",
          "newDescription": "New description for the pin",
          "newTitle": "New title for the pin",
          "pinId": "ID of the pin to edit"
        }
      },
      "getAllPins()": {
        "details": "Get all pins",
        "returns": {
          "_0": "Pin[] array containing all the pins"
        }
      },
      "getPinById(uint256)": {
        "details": "Get pin information by its ID",
        "params": {
          "pinId": "ID of the pin to get"
        },
        "returns": {
          "_0": "Pin struct containing pin information Requirements: - Pin ID must be greater than 0 - Pin with the given ID must exist"
        }
      },
      "getPinsByBoardId(uint256)": {
        "details": "Get all pins from a specific board",
        "params": {
          "boardId": "ID of the board"
        },
        "returns": {
          "_0": "Pin[] array containing all the pins from the board"
        }
      }
    },
    "stateVariables": {
      "currentPinId": {
        "details": "Number of pins created"
      },
      "pins": {
        "details": "Mapping to store pins by their ID"
      }
    },
    "title": "PinManager",
    "version": 1
  },
  "userdoc": {
    "kind": "user",
    "methods": {},
    "version": 1
  }
}