{
  "contractName": "PinManager",
  "abi": [
    {
      "anonymous": false,
      "inputs": [
        {
          "indexed": false,
          "internalType": "uint256",
          "name": "pinId",
          "type": "uint256"
        },
        {
          "indexed": false,
          "internalType": "string",
          "name": "title",
          "type": "string"
        },
        {
          "indexed": false,
          "internalType": "string",
          "name": "description",
          "type": "string"
        },
        {
          "indexed": false,
          "internalType": "string",
          "name": "imageHash",
          "type": "string"
        },
        {
          "indexed": true,
          "internalType": "uint256",
          "name": "boardId",
          "type": "uint256"
        },
        {
          "indexed": true,
          "internalType": "address",
          "name": "owner",
          "type": "address"
        }
      ],
      "name": "PinCreated",
      "type": "event"
    },
    {
      "anonymous": false,
      "inputs": [
        {
          "indexed": false,
          "internalType": "uint256",
          "name": "pinId",
          "type": "uint256"
        }
      ],
      "name": "PinDeleted",
      "type": "event"
    },
    {
      "anonymous": false,
      "inputs": [
        {
          "indexed": false,
          "internalType": "uint256",
          "name": "pinId",
          "type": "uint256"
        },
        {
          "indexed": false,
          "internalType": "string",
          "name": "newTitle",
          "type": "string"
        },
        {
          "indexed": false,
          "internalType": "string",
          "name": "newDescription",
          "type": "string"
        },
        {
          "indexed": false,
          "internalType": "uint256",
          "name": "boardId",
          "type": "uint256"
        }
      ],
      "name": "PinEdited",
      "type": "event"
    },
    {
      "inputs": [],
      "name": "currentPinId",
      "outputs": [
        {
          "internalType": "uint256",
          "name": "",
          "type": "uint256"
        }
      ],
      "stateMutability": "view",
      "type": "function"
    },
    {
      "inputs": [
        {
          "internalType": "uint256",
          "name": "",
          "type": "uint256"
        }
      ],
      "name": "pins",
      "outputs": [
        {
          "internalType": "uint256",
          "name": "id",
          "type": "uint256"
        },
        {
          "internalType": "string",
          "name": "imageHash",
          "type": "string"
        },
        {
          "internalType": "string",
          "name": "title",
          "type": "string"
        },
        {
          "internalType": "string",
          "name": "description",
          "type": "string"
        },
        {
          "internalType": "address",
          "name": "owner",
          "type": "address"
        },
        {
          "internalType": "uint256",
          "name": "boardId",
          "type": "uint256"
        }
      ],
      "stateMutability": "view",
      "type": "function"
    },
    {
      "inputs": [
        {
          "internalType": "string",
          "name": "title",
          "type": "string"
        },
        {
          "internalType": "string",
          "name": "description",
          "type": "string"
        },
        {
          "internalType": "string",
          "name": "imageHash",
          "type": "string"
        },
        {
          "internalType": "uint256",
          "name": "boardId",
          "type": "uint256"
        }
      ],
      "name": "createPin",
      "outputs": [
        {
          "internalType": "uint256",
          "name": "",
          "type": "uint256"
        }
      ],
      "stateMutability": "nonpayable",
      "type": "function"
    },
    {
      "inputs": [
        {
          "internalType": "uint256",
          "name": "pinId",
          "type": "uint256"
        }
      ],
      "name": "deletePin",
      "outputs": [],
      "stateMutability": "nonpayable",
      "type": "function"
    },
    {
      "inputs": [
        {
          "internalType": "uint256",
          "name": "pinId",
          "type": "uint256"
        }
      ],
      "name": "getPinById",
      "outputs": [
        {
          "components": [
            {
              "internalType": "uint256",
              "name": "id",
              "type": "uint256"
            },
            {
              "internalType": "string",
              "name": "imageHash",
              "type": "string"
            },
            {
              "internalType": "string",
              "name": "title",
              "type": "string"
            },
            {
              "internalType": "string",
              "name": "description",
              "type": "string"
            },
            {
              "internalType": "address",
              "name": "owner",
              "type": "address"
            },
            {
              "internalType": "uint256",
              "name": "boardId",
              "type": "uint256"
            }
          ],
          "internalType": "struct Pin",
          "name": "",
          "type": "tuple"
        }
      ],
      "stateMutability": "view",
      "type": "function"
    },
    {
      "inputs": [
        {
          "internalType": "uint256",
          "name": "pinId",
          "type": "uint256"
        },
        {
          "internalType": "string",
          "name": "newTitle",
          "type": "string"
        },
        {
          "internalType": "string",
          "name": "newDescription",
          "type": "string"
        },
        {
          "internalType": "uint256",
          "name": "newBoardId",
          "type": "uint256"
        }
      ],
      "name": "editPin",
      "outputs": [],
      "stateMutability": "nonpayable",
      "type": "function"
    },
    {
      "inputs": [
        {
          "internalType": "uint256",
          "name": "boardId",
          "type": "uint256"
        },
        {
          "internalType": "address",
          "name": "owner",
          "type": "address"
        }
      ],
      "name": "getPinsByBoardId",
      "outputs": [
        {
          "components": [
            {
              "internalType": "uint256",
              "name": "id",
              "type": "uint256"
            },
            {
              "internalType": "string",
              "name": "imageHash",
              "type": "string"
            },
            {
              "internalType": "string",
              "name": "title",
              "type": "string"
            },
            {
              "internalType": "string",
              "name": "description",
              "type": "string"
            },
            {
              "internalType": "address",
              "name": "owner",
              "type": "address"
            },
            {
              "internalType": "uint256",
              "name": "boardId",
              "type": "uint256"
            }
          ],
          "internalType": "struct Pin[]",
          "name": "",
          "type": "tuple[]"
        }
      ],
      "stateMutability": "view",
      "type": "function"
    },
    {
      "inputs": [],
      "name": "getAllPins",
      "outputs": [
        {
          "components": [
            {
              "internalType": "uint256",
              "name": "id",
              "type": "uint256"
            },
            {
              "internalType": "string",
              "name": "imageHash",
              "type": "string"
            },
            {
              "internalType": "string",
              "name": "title",
              "type": "string"
            },
            {
              "internalType": "string",
              "name": "description",
              "type": "string"
            },
            {
              "internalType": "address",
              "name": "owner",
              "type": "address"
            },
            {
              "internalType": "uint256",
              "name": "boardId",
              "type": "uint256"
            }
          ],
          "internalType": "struct Pin[]",
          "name": "",
          "type": "tuple[]"
        }
      ],
      "stateMutability": "view",
      "type": "function"
    }
  ],
  "bytecode": "0x608060405234801561001057600080fd5b50611f88806100206000396000f3fe608060405234801561001057600080fd5b50600436106100885760003560e01c8063905f5c981161005b578063905f5c9814610115578063a4e5933214610131578063ead13f3a14610161578063fd08cbb41461019157610088565b8063121574071461008d578063625c1bb3146100ab5780637492e09b146100db5780637f97d9be146100f9575b600080fd5b6100956101c6565b6040516100a291906114a0565b60405180910390f35b6100c560048036038101906100c09190611559565b6101cc565b6040516100d291906117a9565b60405180910390f35b6100e3610607565b6040516100f091906117a9565b60405180910390f35b610113600480360381019061010e91906117cb565b610966565b005b61012f600480360381019061012a919061192d565b610b04565b005b61014b600480360381019061014691906117cb565b610c9d565b6040516101589190611a63565b60405180910390f35b61017b60048036038101906101769190611a85565b610fd2565b60405161018891906114a0565b60405180910390f35b6101ab60048036038101906101a691906117cb565b611164565b6040516101bd96959493929190611b99565b60405180910390f35b60015481565b6060600080600190505b600154811161028a57846000808381526020019081526020016000206005015414801561026357508373ffffffffffffffffffffffffffffffffffffffff1660008083815260200190815260200160002060040160009054906101000a900473ffffffffffffffffffffffffffffffffffffffff1673ffffffffffffffffffffffffffffffffffffffff16145b1561027757818061027390611c3e565b9250505b808061028290611c3e565b9150506101d6565b5060008167ffffffffffffffff8111156102a7576102a6611802565b5b6040519080825280602002602001820160405280156102e057816020015b6102cd611358565b8152602001906001900390816102c55790505b509050600080600190505b60015481116105fa57866000808381526020019081526020016000206005015414801561037857508573ffffffffffffffffffffffffffffffffffffffff1660008083815260200190815260200160002060040160009054906101000a900473ffffffffffffffffffffffffffffffffffffffff1673ffffffffffffffffffffffffffffffffffffffff16145b156105e7576000808281526020019081526020016000206040518060c0016040529081600082015481526020016001820180546103b490611cb5565b80601f01602080910402602001604051908101604052809291908181526020018280546103e090611cb5565b801561042d5780601f106104025761010080835404028352916020019161042d565b820191906000526020600020905b81548152906001019060200180831161041057829003601f168201915b5050505050815260200160028201805461044690611cb5565b80601f016020809104026020016040519081016040528092919081815260200182805461047290611cb5565b80156104bf5780601f10610494576101008083540402835291602001916104bf565b820191906000526020600020905b8154815290600101906020018083116104a257829003601f168201915b505050505081526020016003820180546104d890611cb5565b80601f016020809104026020016040519081016040528092919081815260200182805461050490611cb5565b80156105515780601f1061052657610100808354040283529160200191610551565b820191906000526020600020905b81548152906001019060200180831161053457829003601f168201915b505050505081526020016004820160009054906101000a900473ffffffffffffffffffffffffffffffffffffffff1673ffffffffffffffffffffffffffffffffffffffff1673ffffffffffffffffffffffffffffffffffffffff1681526020016005820154815250508383815181106105cd576105cc611ce6565b5b602002602001018190525081806105e390611c3e565b9250505b80806105f290611c3e565b9150506102eb565b5081935050505092915050565b6060600060015467ffffffffffffffff81111561062757610626611802565b5b60405190808252806020026020018201604052801561066057816020015b61064d611358565b8152602001906001900390816106455790505b509050600080600190505b600154811161095a57600073ffffffffffffffffffffffffffffffffffffffff1660008083815260200190815260200160002060040160009054906101000a900473ffffffffffffffffffffffffffffffffffffffff1673ffffffffffffffffffffffffffffffffffffffff1614610947576000808281526020019081526020016000206040518060c00160405290816000820154815260200160018201805461071490611cb5565b80601f016020809104026020016040519081016040528092919081815260200182805461074090611cb5565b801561078d5780601f106107625761010080835404028352916020019161078d565b820191906000526020600020905b81548152906001019060200180831161077057829003601f168201915b505050505081526020016002820180546107a690611cb5565b80601f01602080910402602001604051908101604052809291908181526020018280546107d290611cb5565b801561081f5780601f106107f45761010080835404028352916020019161081f565b820191906000526020600020905b81548152906001019060200180831161080257829003601f168201915b5050505050815260200160038201805461083890611cb5565b80601f016020809104026020016040519081016040528092919081815260200182805461086490611cb5565b80156108b15780601f10610886576101008083540402835291602001916108b1565b820191906000526020600020905b81548152906001019060200180831161089457829003601f168201915b505050505081526020016004820160009054906101000a900473ffffffffffffffffffffffffffffffffffffffff1673ffffffffffffffffffffffffffffffffffffffff1673ffffffffffffffffffffffffffffffffffffffff16815260200160058201548152505083838151811061092d5761092c611ce6565b5b6020026020010181905250818061094390611c3e565b9250505b808061095290611c3e565b91505061066b565b50808252819250505090565b6001548111156109ab576040517f08c379a00000000000000000000000000000000000000000000000000000000081526004016109a290611d61565b60405180910390fd5b60008082815260200190815260200160002060040160009054906101000a900473ffffffffffffffffffffffffffffffffffffffff1673ffffffffffffffffffffffffffffffffffffffff163373ffffffffffffffffffffffffffffffffffffffff1614610a4e576040517f08c379a0000000000000000000000000000000000000000000000000000000008152600401610a4590611df3565b60405180910390fd5b7f5471698f6e03cee873b1c1f673ae33b2945702804b34ed7c8e241c272410223281604051610a7d91906114a0565b60405180910390a1600080828152602001908152602001600020600080820160009055600182016000610ab091906113a4565b600282016000610ac091906113a4565b600382016000610ad091906113a4565b6004820160006101000a81549073ffffffffffffffffffffffffffffffffffffffff02191690556005820160009055505050565b600154841115610b49576040517f08c379a0000000000000000000000000000000000000000000000000000000008152600401610b4090611d61565b60405180910390fd5b60008085815260200190815260200160002060040160009054906101000a900473ffffffffffffffffffffffffffffffffffffffff1673ffffffffffffffffffffffffffffffffffffffff163373ffffffffffffffffffffffffffffffffffffffff1614610bec576040517f08c379a0000000000000000000000000000000000000000000000000000000008152600401610be390611e85565b60405180910390fd5b826000808681526020019081526020016000206002019080519060200190610c159291906113e4565b50816000808681526020019081526020016000206003019080519060200190610c3f9291906113e4565b5080600080868152602001908152602001600020600501819055507fa0d3f3add8d744440c4314d8ddca16153bdef2788c331e757fbedb65420ee3e784848484604051610c8f9493929190611ea5565b60405180910390a150505050565b610ca5611358565b600154821115610cea576040517f08c379a0000000000000000000000000000000000000000000000000000000008152600401610ce190611d61565b60405180910390fd5b600073ffffffffffffffffffffffffffffffffffffffff1660008084815260200190815260200160002060040160009054906101000a900473ffffffffffffffffffffffffffffffffffffffff1673ffffffffffffffffffffffffffffffffffffffff1603610d8e576040517f08c379a0000000000000000000000000000000000000000000000000000000008152600401610d8590611d61565b60405180910390fd5b6000808381526020019081526020016000206040518060c001604052908160008201548152602001600182018054610dc590611cb5565b80601f0160208091040260200160405190810160405280929190818152602001828054610df190611cb5565b8015610e3e5780601f10610e1357610100808354040283529160200191610e3e565b820191906000526020600020905b815481529060010190602001808311610e2157829003601f168201915b50505050508152602001600282018054610e5790611cb5565b80601f0160208091040260200160405190810160405280929190818152602001828054610e8390611cb5565b8015610ed05780601f10610ea557610100808354040283529160200191610ed0565b820191906000526020600020905b815481529060010190602001808311610eb357829003601f168201915b50505050508152602001600382018054610ee990611cb5565b80601f0160208091040260200160405190810160405280929190818152602001828054610f1590611cb5565b8015610f625780601f10610f3757610100808354040283529160200191610f62565b820191906000526020600020905b815481529060010190602001808311610f4557829003601f168201915b505050505081526020016004820160009054906101000a900473ffffffffffffffffffffffffffffffffffffffff1673ffffffffffffffffffffffffffffffffffffffff1673ffffffffffffffffffffffffffffffffffffffff1681526020016005820154815250509050919050565b600060016000815480929190610fe790611c3e565b919050555060006040518060c0016040528060015481526020018781526020018681526020018581526020013373ffffffffffffffffffffffffffffffffffffffff1681526020018481525090508060008060015481526020019081526020016000206000820151816000015560208201518160010190805190602001906110709291906113e4565b50604082015181600201908051906020019061108d9291906113e4565b5060608201518160030190805190602001906110aa9291906113e4565b5060808201518160040160006101000a81548173ffffffffffffffffffffffffffffffffffffffff021916908373ffffffffffffffffffffffffffffffffffffffff16021790555060a082015181600501559050503373ffffffffffffffffffffffffffffffffffffffff16837f1f445d04705feeb57b1d284a08edf73c89be75aa8365a4cc60f84671623a581660015489898960405161114e9493929190611ef8565b60405180910390a3600154915050949350505050565b600060205280600052604060002060009150905080600001549080600101805461118d90611cb5565b80601f01602080910402602001604051908101604052809291908181526020018280546111b990611cb5565b80156112065780601f106111db57610100808354040283529160200191611206565b820191906000526020600020905b8154815290600101906020018083116111e957829003601f168201915b50505050509080600201805461121b90611cb5565b80601f016020809104026020016040519081016040528092919081815260200182805461124790611cb5565b80156112945780601f1061126957610100808354040283529160200191611294565b820191906000526020600020905b81548152906001019060200180831161127757829003601f168201915b5050505050908060030180546112a990611cb5565b80601f01602080910402602001604051908101604052809291908181526020018280546112d590611cb5565b80156113225780601f106112f757610100808354040283529160200191611322565b820191906000526020600020905b81548152906001019060200180831161130557829003601f168201915b5050505050908060040160009054906101000a900473ffffffffffffffffffffffffffffffffffffffff16908060050154905086565b6040518060c0016040528060008152602001606081526020016060815260200160608152602001600073ffffffffffffffffffffffffffffffffffffffff168152602001600081525090565b5080546113b090611cb5565b6000825580601f106113c257506113e1565b601f0160209004906000526020600020908101906113e0919061146a565b5b50565b8280546113f090611cb5565b90600052602060002090601f0160209004810192826114125760008555611459565b82601f1061142b57805160ff1916838001178555611459565b82800160010185558215611459579182015b8281111561145857825182559160200191906001019061143d565b5b509050611466919061146a565b5090565b5b8082111561148357600081600090555060010161146b565b5090565b6000819050919050565b61149a81611487565b82525050565b60006020820190506114b56000830184611491565b92915050565b6000604051905090565b600080fd5b600080fd5b6114d881611487565b81146114e357600080fd5b50565b6000813590506114f5816114cf565b92915050565b600073ffffffffffffffffffffffffffffffffffffffff82169050919050565b6000611526826114fb565b9050919050565b6115368161151b565b811461154157600080fd5b50565b6000813590506115538161152d565b92915050565b600080604083850312156115705761156f6114c5565b5b600061157e858286016114e6565b925050602061158f85828601611544565b9150509250929050565b600081519050919050565b600082825260208201905092915050565b6000819050602082019050919050565b6115ce81611487565b82525050565b600081519050919050565b600082825260208201905092915050565b60005b8381101561160e5780820151818401526020810190506115f3565b8381111561161d576000848401525b50505050565b6000601f19601f8301169050919050565b600061163f826115d4565b61164981856115df565b93506116598185602086016115f0565b61166281611623565b840191505092915050565b6116768161151b565b82525050565b600060c08301600083015161169460008601826115c5565b50602083015184820360208601526116ac8282611634565b915050604083015184820360408601526116c68282611634565b915050606083015184820360608601526116e08282611634565b91505060808301516116f5608086018261166d565b5060a083015161170860a08601826115c5565b508091505092915050565b600061171f838361167c565b905092915050565b6000602082019050919050565b600061173f82611599565b61174981856115a4565b93508360208202850161175b856115b5565b8060005b8581101561179757848403895281516117788582611713565b945061178383611727565b925060208a0199505060018101905061175f565b50829750879550505050505092915050565b600060208201905081810360008301526117c38184611734565b905092915050565b6000602082840312156117e1576117e06114c5565b5b60006117ef848285016114e6565b91505092915050565b600080fd5b600080fd5b7f4e487b7100000000000000000000000000000000000000000000000000000000600052604160045260246000fd5b61183a82611623565b810181811067ffffffffffffffff8211171561185957611858611802565b5b80604052505050565b600061186c6114bb565b90506118788282611831565b919050565b600067ffffffffffffffff82111561189857611897611802565b5b6118a182611623565b9050602081019050919050565b82818337600083830152505050565b60006118d06118cb8461187d565b611862565b9050828152602081018484840111156118ec576118eb6117fd565b5b6118f78482856118ae565b509392505050565b600082601f830112611914576119136117f8565b5b81356119248482602086016118bd565b91505092915050565b60008060008060808587031215611947576119466114c5565b5b6000611955878288016114e6565b945050602085013567ffffffffffffffff811115611976576119756114ca565b5b611982878288016118ff565b935050604085013567ffffffffffffffff8111156119a3576119a26114ca565b5b6119af878288016118ff565b92505060606119c0878288016114e6565b91505092959194509250565b600060c0830160008301516119e460008601826115c5565b50602083015184820360208601526119fc8282611634565b91505060408301518482036040860152611a168282611634565b91505060608301518482036060860152611a308282611634565b9150506080830151611a45608086018261166d565b5060a0830151611a5860a08601826115c5565b508091505092915050565b60006020820190508181036000830152611a7d81846119cc565b905092915050565b60008060008060808587031215611a9f57611a9e6114c5565b5b600085013567ffffffffffffffff811115611abd57611abc6114ca565b5b611ac9878288016118ff565b945050602085013567ffffffffffffffff811115611aea57611ae96114ca565b5b611af6878288016118ff565b935050604085013567ffffffffffffffff811115611b1757611b166114ca565b5b611b23878288016118ff565b9250506060611b34878288016114e6565b91505092959194509250565b600082825260208201905092915050565b6000611b5c826115d4565b611b668185611b40565b9350611b768185602086016115f0565b611b7f81611623565b840191505092915050565b611b938161151b565b82525050565b600060c082019050611bae6000830189611491565b8181036020830152611bc08188611b51565b90508181036040830152611bd48187611b51565b90508181036060830152611be88186611b51565b9050611bf76080830185611b8a565b611c0460a0830184611491565b979650505050505050565b7f4e487b7100000000000000000000000000000000000000000000000000000000600052601160045260246000fd5b6000611c4982611487565b91507fffffffffffffffffffffffffffffffffffffffffffffffffffffffffffffffff8203611c7b57611c7a611c0f565b5b600182019050919050565b7f4e487b7100000000000000000000000000000000000000000000000000000000600052602260045260246000fd5b60006002820490506001821680611ccd57607f821691505b602082108103611ce057611cdf611c86565b5b50919050565b7f4e487b7100000000000000000000000000000000000000000000000000000000600052603260045260246000fd5b7f50696e20646f6573206e6f742065786973742e00000000000000000000000000600082015250565b6000611d4b601383611b40565b9150611d5682611d15565b602082019050919050565b60006020820190508181036000830152611d7a81611d3e565b9050919050565b7f4f6e6c79207468652070696e206f776e65722063616e2064656c65746520746860008201527f652070696e2e0000000000000000000000000000000000000000000000000000602082015250565b6000611ddd602683611b40565b9150611de882611d81565b604082019050919050565b60006020820190508181036000830152611e0c81611dd0565b9050919050565b7f4f6e6c79207468652070696e206f776e65722063616e2065646974207468652060008201527f70696e2e00000000000000000000000000000000000000000000000000000000602082015250565b6000611e6f602483611b40565b9150611e7a82611e13565b604082019050919050565b60006020820190508181036000830152611e9e81611e62565b9050919050565b6000608082019050611eba6000830187611491565b8181036020830152611ecc8186611b51565b90508181036040830152611ee08185611b51565b9050611eef6060830184611491565b95945050505050565b6000608082019050611f0d6000830187611491565b8181036020830152611f1f8186611b51565b90508181036040830152611f338185611b51565b90508181036060830152611f478184611b51565b90509594505050505056fea264697066735822122075ac7f0d12bc49dddd8a3d5ad20517011132ea658d85b37e2d051ba28beeb98164736f6c634300080d0033",
  "immutableReferences": {},
  "source": "// SPDX-License-Identifier: GPL-3.0\n\npragma solidity >=0.7.0 <0.9.0;\n\nimport {Pin} from \"./common/types.sol\";\n\n/**\n * @title PinManager\n * @dev A smart contract for managing pins\n */\ncontract PinManager {\n    /**\n     * @dev Event emitted when a new pin is created\n     * @param pinId ID of the pin created\n     * @param title Title of the pin created\n     * @param description Description of the pin created\n     * @param imageHash IPFS hash of the pin's image\n     * @param boardId of the board the pin belongs to\n     * @param owner Owner of the pin created\n     */\n    event PinCreated(\n        uint256 pinId,\n        string title,\n        string description,\n        string imageHash,\n        uint256 indexed boardId,\n        address indexed owner\n    );\n\n    /**\n     * @dev Event emitted when a pin is deleted\n     * @param pinId ID of the pin deleted\n     */\n    event PinDeleted(uint256 pinId);\n\n    /**\n     * @dev Event emitted when a pin is edited\n     * @param pinId ID of the pin edited\n     * @param newTitle New title of the pin edited\n     * @param newDescription New description of the pin edited\n     * @param boardId ID of the new board\n     */\n    event PinEdited(\n        uint256 pinId,\n        string newTitle,\n        string newDescription,\n        uint256 boardId\n    );\n\n    /**\n     * @dev Mapping to store pins by their ID\n     */\n    mapping(uint256 => Pin) public pins;\n\n    /**\n     * @dev Number of pins created\n     */\n    uint256 public currentPinId;\n\n    /**\n     * @dev Create a new pin\n     * @param title Title of the pin\n     * @param description Description of the pin\n     * @param imageHash IPFS hash of the pin's image\n     * @param boardId ID of the board the pin belongs to\n     * @return uint256 ID of the created pin\n     */\n    function createPin(\n        string memory title,\n        string memory description,\n        string memory imageHash,\n        uint256 boardId\n    ) public returns (uint256) {\n        currentPinId++;\n        Pin memory pin = Pin(\n            currentPinId,\n            title,\n            description,\n            imageHash,\n            msg.sender,\n            boardId\n        );\n        pins[currentPinId] = pin;\n        emit PinCreated(\n            currentPinId,\n            title,\n            description,\n            imageHash,\n            boardId,\n            msg.sender\n        );\n        return currentPinId;\n    }\n\n    /**\n     * @dev Delete an existing pin\n     * @param pinId ID of the pin to delete\n     * Requirements:\n     * - Only the pin owner can delete the pin\n     */\n    function deletePin(uint256 pinId) public {\n        require(pinId <= currentPinId, \"Pin does not exist.\");\n        require(\n            msg.sender == pins[pinId].owner,\n            \"Only the pin owner can delete the pin.\"\n        );\n        emit PinDeleted(pinId);\n        delete pins[pinId];\n    }\n\n    /**\n     * @dev Get pin information by its ID\n     * @param pinId ID of the pin to get\n     * @return Pin struct containing pin information\n     * Requirements:\n     * - Pin with the given ID must exist\n     */\n    function getPinById(uint256 pinId) public view returns (Pin memory) {\n        require(pinId <= currentPinId, \"Pin does not exist.\");\n        require(pins[pinId].owner != address(0), \"Pin does not exist.\");\n        return pins[pinId];\n    }\n\n    /**\n     * @dev Edit pin information\n     * @param pinId ID of the pin to edit\n     * @param newTitle New title for the pin\n     * @param newDescription New description for the pin\n     * @param newBoardId New Id if the board\n     * Requirements:\n     * - Only the pin owner can edit the pin\n     * - Pin with the given ID must exist\n     */\n    function editPin(\n        uint256 pinId,\n        string memory newTitle,\n        string memory newDescription,\n        uint256 newBoardId\n    ) public {\n        require(pinId <= currentPinId, \"Pin does not exist.\");\n        require(\n            msg.sender == pins[pinId].owner,\n            \"Only the pin owner can edit the pin.\"\n        );\n        pins[pinId].title = newTitle;\n        pins[pinId].description = newDescription;\n        pins[pinId].boardId = newBoardId;\n        emit PinEdited(pinId, newTitle, newDescription, newBoardId);\n    }\n\n    /**\n     * @dev Get all pins from a specific board owned by a specific address\n     * @param boardId ID of the board\n     * @param owner Address of the pin owner\n     * @return Pin[] array containing all the pins from the board and owner\n     */\n    function getPinsByBoardId(\n        uint256 boardId,\n        address owner\n    ) public view returns (Pin[] memory) {\n        uint256 count = 0;\n\n        // Count the number of pins in the board and owned by the specific address\n        for (uint256 i = 1; i <= currentPinId; i++) {\n            if (pins[i].boardId == boardId && pins[i].owner == owner) {\n                count++;\n            }\n        }\n\n        // Create an array with the count of pins\n        Pin[] memory boardPins = new Pin[](count);\n        uint256 index = 0;\n\n        // Retrieve the pins from the board and owned by the specific address\n        for (uint256 i = 1; i <= currentPinId; i++) {\n            if (pins[i].boardId == boardId && pins[i].owner == owner) {\n                boardPins[index] = pins[i];\n                index++;\n            }\n        }\n\n        return boardPins;\n    }\n\n    /**\n     * @dev Get all pins\n     * @return Pin[] array containing all the pins\n     */\n    function getAllPins() public view returns (Pin[] memory) {\n        Pin[] memory allPins = new Pin[](currentPinId);\n        uint256 index = 0;\n\n        for (uint256 i = 1; i <= currentPinId; i++) {\n            if (pins[i].owner != address(0)) {\n                allPins[index] = pins[i];\n                index++;\n            }\n        }\n\n        // Resize the allPins array to remove any unused elements\n        assembly {\n            mstore(allPins, index)\n        }\n\n        return allPins;\n    }\n}\n",
  "sourcePath": "/Users/lisapolena/Documents/Master_04/Thesis/Prototyp/betterPinterest/src/contracts/pinManager.sol",
  "compiler": {
    "name": "solc",
    "version": "0.8.13+commit.abaa5c0e.Emscripten.clang"
  },
  "schemaVersion": "3.4.14",
  "updatedAt": "2023-06-03T12:28:50.053Z",
  "devdoc": {
    "details": "A smart contract for managing pins",
    "events": {
      "PinCreated(uint256,string,string,string,uint256,address)": {
        "details": "Event emitted when a new pin is created",
        "params": {
          "boardId": "of the board the pin belongs to",
          "description": "Description of the pin created",
          "imageHash": "IPFS hash of the pin's image",
          "owner": "Owner of the pin created",
          "pinId": "ID of the pin created",
          "title": "Title of the pin created"
        }
      },
      "PinDeleted(uint256)": {
        "details": "Event emitted when a pin is deleted",
        "params": {
          "pinId": "ID of the pin deleted"
        }
      },
      "PinEdited(uint256,string,string,uint256)": {
        "details": "Event emitted when a pin is edited",
        "params": {
          "boardId": "ID of the new board",
          "newDescription": "New description of the pin edited",
          "newTitle": "New title of the pin edited",
          "pinId": "ID of the pin edited"
        }
      }
    },
    "kind": "dev",
    "methods": {
      "createPin(string,string,string,uint256)": {
        "details": "Create a new pin",
        "params": {
          "boardId": "ID of the board the pin belongs to",
          "description": "Description of the pin",
          "imageHash": "IPFS hash of the pin's image",
          "title": "Title of the pin"
        },
        "returns": {
          "_0": "uint256 ID of the created pin"
        }
      },
      "deletePin(uint256)": {
        "details": "Delete an existing pin",
        "params": {
          "pinId": "ID of the pin to delete Requirements: - Only the pin owner can delete the pin"
        }
      },
      "editPin(uint256,string,string,uint256)": {
        "details": "Edit pin information",
        "params": {
          "newBoardId": "New Id if the board Requirements: - Only the pin owner can edit the pin - Pin with the given ID must exist",
          "newDescription": "New description for the pin",
          "newTitle": "New title for the pin",
          "pinId": "ID of the pin to edit"
        }
      },
      "getAllPins()": {
        "details": "Get all pins",
        "returns": {
          "_0": "Pin[] array containing all the pins"
        }
      },
      "getPinById(uint256)": {
        "details": "Get pin information by its ID",
        "params": {
          "pinId": "ID of the pin to get"
        },
        "returns": {
          "_0": "Pin struct containing pin information Requirements: - Pin with the given ID must exist"
        }
      },
      "getPinsByBoardId(uint256,address)": {
        "details": "Get all pins from a specific board owned by a specific address",
        "params": {
          "boardId": "ID of the board",
          "owner": "Address of the pin owner"
        },
        "returns": {
          "_0": "Pin[] array containing all the pins from the board and owner"
        }
      }
    },
    "stateVariables": {
      "currentPinId": {
        "details": "Number of pins created"
      },
      "pins": {
        "details": "Mapping to store pins by their ID"
      }
    },
    "title": "PinManager",
    "version": 1
  },
  "userdoc": {
    "kind": "user",
    "methods": {},
    "version": 1
  }
}