{
  "contractName": "UserManager",
  "abi": [
    {
      "anonymous": false,
      "inputs": [
        {
          "indexed": false,
          "internalType": "address",
          "name": "userAddress",
          "type": "address"
        }
      ],
      "name": "UserCreated",
      "type": "event"
    },
    {
      "inputs": [],
      "name": "userCount",
      "outputs": [
        {
          "internalType": "uint256",
          "name": "",
          "type": "uint256"
        }
      ],
      "stateMutability": "view",
      "type": "function"
    },
    {
      "inputs": [
        {
          "internalType": "string",
          "name": "",
          "type": "string"
        }
      ],
      "name": "usernameToUserAddress",
      "outputs": [
        {
          "internalType": "address",
          "name": "",
          "type": "address"
        }
      ],
      "stateMutability": "view",
      "type": "function"
    },
    {
      "inputs": [
        {
          "internalType": "address",
          "name": "",
          "type": "address"
        }
      ],
      "name": "users",
      "outputs": [
        {
          "internalType": "address",
          "name": "userAddress",
          "type": "address"
        },
        {
          "internalType": "string",
          "name": "name",
          "type": "string"
        },
        {
          "internalType": "string",
          "name": "username",
          "type": "string"
        },
        {
          "internalType": "string",
          "name": "profileImageHash",
          "type": "string"
        },
        {
          "internalType": "string",
          "name": "bio",
          "type": "string"
        }
      ],
      "stateMutability": "view",
      "type": "function"
    },
    {
      "inputs": [
        {
          "internalType": "address",
          "name": "userAddress",
          "type": "address"
        }
      ],
      "name": "createUser",
      "outputs": [
        {
          "components": [
            {
              "internalType": "address",
              "name": "userAddress",
              "type": "address"
            },
            {
              "internalType": "string",
              "name": "name",
              "type": "string"
            },
            {
              "internalType": "string",
              "name": "username",
              "type": "string"
            },
            {
              "internalType": "string",
              "name": "profileImageHash",
              "type": "string"
            },
            {
              "internalType": "string",
              "name": "bio",
              "type": "string"
            },
            {
              "internalType": "address[]",
              "name": "following",
              "type": "address[]"
            },
            {
              "internalType": "address[]",
              "name": "followers",
              "type": "address[]"
            }
          ],
          "internalType": "struct User",
          "name": "",
          "type": "tuple"
        }
      ],
      "stateMutability": "nonpayable",
      "type": "function"
    },
    {
      "inputs": [
        {
          "internalType": "address",
          "name": "userAddress",
          "type": "address"
        }
      ],
      "name": "getUserByAddress",
      "outputs": [
        {
          "components": [
            {
              "internalType": "address",
              "name": "userAddress",
              "type": "address"
            },
            {
              "internalType": "string",
              "name": "name",
              "type": "string"
            },
            {
              "internalType": "string",
              "name": "username",
              "type": "string"
            },
            {
              "internalType": "string",
              "name": "profileImageHash",
              "type": "string"
            },
            {
              "internalType": "string",
              "name": "bio",
              "type": "string"
            },
            {
              "internalType": "address[]",
              "name": "following",
              "type": "address[]"
            },
            {
              "internalType": "address[]",
              "name": "followers",
              "type": "address[]"
            }
          ],
          "internalType": "struct User",
          "name": "",
          "type": "tuple"
        }
      ],
      "stateMutability": "view",
      "type": "function"
    }
  ],
  "bytecode": "0x608060405234801561001057600080fd5b50611603806100206000396000f3fe608060405234801561001057600080fd5b50600436106100575760003560e01c806307973ccf1461005c57806369c212f61461007a57806374c910e4146100aa578063a87430ba146100da578063cdd876181461010e575b600080fd5b61006461013e565b6040516100719190610fa3565b60405180910390f35b610094600480360381019061008f9190611030565b610144565b6040516100a19190611273565b60405180910390f35b6100c460048036038101906100bf91906113ca565b610556565b6040516100d19190611422565b60405180910390f35b6100f460048036038101906100ef9190611030565b61059f565b604051610105959493929190611487565b60405180910390f35b61012860048036038101906101239190611030565b610815565b6040516101359190611273565b60405180910390f35b60025481565b61014c610e0a565b6000808373ffffffffffffffffffffffffffffffffffffffff1673ffffffffffffffffffffffffffffffffffffffff1681526020019081526020016000206040518060e00160405290816000820160009054906101000a900473ffffffffffffffffffffffffffffffffffffffff1673ffffffffffffffffffffffffffffffffffffffff1673ffffffffffffffffffffffffffffffffffffffff1681526020016001820180546101fb90611525565b80601f016020809104026020016040519081016040528092919081815260200182805461022790611525565b80156102745780601f1061024957610100808354040283529160200191610274565b820191906000526020600020905b81548152906001019060200180831161025757829003601f168201915b5050505050815260200160028201805461028d90611525565b80601f01602080910402602001604051908101604052809291908181526020018280546102b990611525565b80156103065780601f106102db57610100808354040283529160200191610306565b820191906000526020600020905b8154815290600101906020018083116102e957829003601f168201915b5050505050815260200160038201805461031f90611525565b80601f016020809104026020016040519081016040528092919081815260200182805461034b90611525565b80156103985780601f1061036d57610100808354040283529160200191610398565b820191906000526020600020905b81548152906001019060200180831161037b57829003601f168201915b505050505081526020016004820180546103b190611525565b80601f01602080910402602001604051908101604052809291908181526020018280546103dd90611525565b801561042a5780601f106103ff5761010080835404028352916020019161042a565b820191906000526020600020905b81548152906001019060200180831161040d57829003601f168201915b50505050508152602001600582018054806020026020016040519081016040528092919081815260200182805480156104b857602002820191906000526020600020905b8160009054906101000a900473ffffffffffffffffffffffffffffffffffffffff1673ffffffffffffffffffffffffffffffffffffffff168152602001906001019080831161046e575b505050505081526020016006820180548060200260200160405190810160405280929190818152602001828054801561054657602002820191906000526020600020905b8160009054906101000a900473ffffffffffffffffffffffffffffffffffffffff1673ffffffffffffffffffffffffffffffffffffffff16815260200190600101908083116104fc575b5050505050815250509050919050565b6001818051602081018201805184825260208301602085012081835280955050505050506000915054906101000a900473ffffffffffffffffffffffffffffffffffffffff1681565b60006020528060005260406000206000915090508060000160009054906101000a900473ffffffffffffffffffffffffffffffffffffffff16908060010180546105e890611525565b80601f016020809104026020016040519081016040528092919081815260200182805461061490611525565b80156106615780601f1061063657610100808354040283529160200191610661565b820191906000526020600020905b81548152906001019060200180831161064457829003601f168201915b50505050509080600201805461067690611525565b80601f01602080910402602001604051908101604052809291908181526020018280546106a290611525565b80156106ef5780601f106106c4576101008083540402835291602001916106ef565b820191906000526020600020905b8154815290600101906020018083116106d257829003601f168201915b50505050509080600301805461070490611525565b80601f016020809104026020016040519081016040528092919081815260200182805461073090611525565b801561077d5780601f106107525761010080835404028352916020019161077d565b820191906000526020600020905b81548152906001019060200180831161076057829003601f168201915b50505050509080600401805461079290611525565b80601f01602080910402602001604051908101604052809291908181526020018280546107be90611525565b801561080b5780601f106107e05761010080835404028352916020019161080b565b820191906000526020600020905b8154815290600101906020018083116107ee57829003601f168201915b5050505050905085565b61081d610e0a565b6002600081548092919061083090611585565b919050555060608060608060608060006040518060e001604052808a73ffffffffffffffffffffffffffffffffffffffff168152602001888152602001878152602001868152602001858152602001848152602001838152509050806000808b73ffffffffffffffffffffffffffffffffffffffff1673ffffffffffffffffffffffffffffffffffffffff16815260200190815260200160002060008201518160000160006101000a81548173ffffffffffffffffffffffffffffffffffffffff021916908373ffffffffffffffffffffffffffffffffffffffff160217905550602082015181600101908051906020019061092d929190610e5d565b50604082015181600201908051906020019061094a929190610e5d565b506060820151816003019080519060200190610967929190610e5d565b506080820151816004019080519060200190610984929190610e5d565b5060a08201518160050190805190602001906109a1929190610ee3565b5060c08201518160060190805190602001906109be929190610ee3565b509050507f0b0376a109cbb578b709f85f6a7befcdac3ac1ab251c99ede87f30c9572ac4d3896040516109f19190611422565b60405180910390a16000808a73ffffffffffffffffffffffffffffffffffffffff1673ffffffffffffffffffffffffffffffffffffffff1681526020019081526020016000206040518060e00160405290816000820160009054906101000a900473ffffffffffffffffffffffffffffffffffffffff1673ffffffffffffffffffffffffffffffffffffffff1673ffffffffffffffffffffffffffffffffffffffff168152602001600182018054610aa890611525565b80601f0160208091040260200160405190810160405280929190818152602001828054610ad490611525565b8015610b215780601f10610af657610100808354040283529160200191610b21565b820191906000526020600020905b815481529060010190602001808311610b0457829003601f168201915b50505050508152602001600282018054610b3a90611525565b80601f0160208091040260200160405190810160405280929190818152602001828054610b6690611525565b8015610bb35780601f10610b8857610100808354040283529160200191610bb3565b820191906000526020600020905b815481529060010190602001808311610b9657829003601f168201915b50505050508152602001600382018054610bcc90611525565b80601f0160208091040260200160405190810160405280929190818152602001828054610bf890611525565b8015610c455780601f10610c1a57610100808354040283529160200191610c45565b820191906000526020600020905b815481529060010190602001808311610c2857829003601f168201915b50505050508152602001600482018054610c5e90611525565b80601f0160208091040260200160405190810160405280929190818152602001828054610c8a90611525565b8015610cd75780601f10610cac57610100808354040283529160200191610cd7565b820191906000526020600020905b815481529060010190602001808311610cba57829003601f168201915b5050505050815260200160058201805480602002602001604051908101604052809291908181526020018280548015610d6557602002820191906000526020600020905b8160009054906101000a900473ffffffffffffffffffffffffffffffffffffffff1673ffffffffffffffffffffffffffffffffffffffff1681526020019060010190808311610d1b575b5050505050815260200160068201805480602002602001604051908101604052809291908181526020018280548015610df357602002820191906000526020600020905b8160009054906101000a900473ffffffffffffffffffffffffffffffffffffffff1673ffffffffffffffffffffffffffffffffffffffff1681526020019060010190808311610da9575b505050505081525050975050505050505050919050565b6040518060e00160405280600073ffffffffffffffffffffffffffffffffffffffff1681526020016060815260200160608152602001606081526020016060815260200160608152602001606081525090565b828054610e6990611525565b90600052602060002090601f016020900481019282610e8b5760008555610ed2565b82601f10610ea457805160ff1916838001178555610ed2565b82800160010185558215610ed2579182015b82811115610ed1578251825591602001919060010190610eb6565b5b509050610edf9190610f6d565b5090565b828054828255906000526020600020908101928215610f5c579160200282015b82811115610f5b5782518260006101000a81548173ffffffffffffffffffffffffffffffffffffffff021916908373ffffffffffffffffffffffffffffffffffffffff16021790555091602001919060010190610f03565b5b509050610f699190610f6d565b5090565b5b80821115610f86576000816000905550600101610f6e565b5090565b6000819050919050565b610f9d81610f8a565b82525050565b6000602082019050610fb86000830184610f94565b92915050565b6000604051905090565b600080fd5b600080fd5b600073ffffffffffffffffffffffffffffffffffffffff82169050919050565b6000610ffd82610fd2565b9050919050565b61100d81610ff2565b811461101857600080fd5b50565b60008135905061102a81611004565b92915050565b60006020828403121561104657611045610fc8565b5b60006110548482850161101b565b91505092915050565b61106681610ff2565b82525050565b600081519050919050565b600082825260208201905092915050565b60005b838110156110a657808201518184015260208101905061108b565b838111156110b5576000848401525b50505050565b6000601f19601f8301169050919050565b60006110d78261106c565b6110e18185611077565b93506110f1818560208601611088565b6110fa816110bb565b840191505092915050565b600081519050919050565b600082825260208201905092915050565b6000819050602082019050919050565b600061113d838361105d565b60208301905092915050565b6000602082019050919050565b600061116182611105565b61116b8185611110565b935061117683611121565b8060005b838110156111a757815161118e8882611131565b975061119983611149565b92505060018101905061117a565b5085935050505092915050565b600060e0830160008301516111cc600086018261105d565b50602083015184820360208601526111e482826110cc565b915050604083015184820360408601526111fe82826110cc565b9150506060830151848203606086015261121882826110cc565b9150506080830151848203608086015261123282826110cc565b91505060a083015184820360a086015261124c8282611156565b91505060c083015184820360c08601526112668282611156565b9150508091505092915050565b6000602082019050818103600083015261128d81846111b4565b905092915050565b600080fd5b600080fd5b7f4e487b7100000000000000000000000000000000000000000000000000000000600052604160045260246000fd5b6112d7826110bb565b810181811067ffffffffffffffff821117156112f6576112f561129f565b5b80604052505050565b6000611309610fbe565b905061131582826112ce565b919050565b600067ffffffffffffffff8211156113355761133461129f565b5b61133e826110bb565b9050602081019050919050565b82818337600083830152505050565b600061136d6113688461131a565b6112ff565b9050828152602081018484840111156113895761138861129a565b5b61139484828561134b565b509392505050565b600082601f8301126113b1576113b0611295565b5b81356113c184826020860161135a565b91505092915050565b6000602082840312156113e0576113df610fc8565b5b600082013567ffffffffffffffff8111156113fe576113fd610fcd565b5b61140a8482850161139c565b91505092915050565b61141c81610ff2565b82525050565b60006020820190506114376000830184611413565b92915050565b600082825260208201905092915050565b60006114598261106c565b611463818561143d565b9350611473818560208601611088565b61147c816110bb565b840191505092915050565b600060a08201905061149c6000830188611413565b81810360208301526114ae818761144e565b905081810360408301526114c2818661144e565b905081810360608301526114d6818561144e565b905081810360808301526114ea818461144e565b90509695505050505050565b7f4e487b7100000000000000000000000000000000000000000000000000000000600052602260045260246000fd5b6000600282049050600182168061153d57607f821691505b6020821081036115505761154f6114f6565b5b50919050565b7f4e487b7100000000000000000000000000000000000000000000000000000000600052601160045260246000fd5b600061159082610f8a565b91507fffffffffffffffffffffffffffffffffffffffffffffffffffffffffffffffff82036115c2576115c1611556565b5b60018201905091905056fea26469706673582212206752fd2ead0d244c53ee09cb07f7f72eee430b401183b983e237920defc17a4864736f6c634300080d0033",
  "immutableReferences": {},
  "source": "// SPDX-License-Identifier: GPL-3.0\n\npragma solidity >=0.7.0 <0.9.0;\n\nimport {User} from \"./common/types.sol\";\n\ncontract UserManager {\n    mapping(address => User) public users; // Mapping to store user information by user address\n    mapping(string => address) public usernameToUserAddress; // Mapping to store user address by username\n    uint public userCount; // Total number of users\n\n    event UserCreated(address userAddress); // Event emitted when a new user is created\n\n    /**\n     * @dev Create a new user\n     * @param userAddress Address of the user\n     * @return address Address of the created user\n     */\n    function createUser(address userAddress) public returns (User memory) {\n        userCount++;\n\n        // Initialize user properties\n        string memory name;\n        string memory username;\n        string memory profileImageHash;\n        string memory bio;\n        address[] memory following;\n        address[] memory followers;\n\n        // Create user object\n        User memory user = User(\n            userAddress,\n            name,\n            username,\n            profileImageHash,\n            bio,\n            following,\n            followers\n        );\n\n        // Store user in the mapping\n        users[userAddress] = user;\n\n        // Emit event for user creation\n        emit UserCreated(userAddress);\n\n        return users[userAddress];\n    }\n\n    /**\n     * @dev Get user information by user address\n     * @param userAddress Address of the user\n     * @return User struct containing user information\n     */\n    function getUserByAddress(\n        address userAddress\n    ) public view returns (User memory) {\n        return users[userAddress];\n    }\n}\n",
  "sourcePath": "/Users/lisapolena/Documents/Master_04/Thesis/Prototyp/betterPinterest/src/contracts/userManager.sol",
  "compiler": {
    "name": "solc",
    "version": "0.8.13+commit.abaa5c0e.Emscripten.clang"
  },
  "schemaVersion": "3.4.14",
  "updatedAt": "2023-06-09T14:11:19.748Z",
  "devdoc": {
    "kind": "dev",
    "methods": {
      "createUser(address)": {
        "details": "Create a new user",
        "params": {
          "userAddress": "Address of the user"
        },
        "returns": {
          "_0": "address Address of the created user"
        }
      },
      "getUserByAddress(address)": {
        "details": "Get user information by user address",
        "params": {
          "userAddress": "Address of the user"
        },
        "returns": {
          "_0": "User struct containing user information"
        }
      }
    },
    "version": 1
  },
  "userdoc": {
    "kind": "user",
    "methods": {},
    "version": 1
  }
}