{
  "contractName": "UserManager",
  "abi": [
    {
      "anonymous": false,
      "inputs": [
        {
          "indexed": false,
          "internalType": "address",
          "name": "userAddress",
          "type": "address"
        }
      ],
      "name": "UserCreated",
      "type": "event"
    },
    {
      "anonymous": false,
      "inputs": [
        {
          "indexed": false,
          "internalType": "address",
          "name": "userAddress",
          "type": "address"
        }
      ],
      "name": "UserDeleted",
      "type": "event"
    },
    {
      "anonymous": false,
      "inputs": [
        {
          "indexed": false,
          "internalType": "address",
          "name": "userAddress",
          "type": "address"
        }
      ],
      "name": "UserEdited",
      "type": "event"
    },
    {
      "anonymous": false,
      "inputs": [
        {
          "indexed": false,
          "internalType": "address",
          "name": "follower",
          "type": "address"
        },
        {
          "indexed": false,
          "internalType": "address",
          "name": "followee",
          "type": "address"
        }
      ],
      "name": "UserFollowed",
      "type": "event"
    },
    {
      "anonymous": false,
      "inputs": [
        {
          "indexed": false,
          "internalType": "address",
          "name": "follower",
          "type": "address"
        },
        {
          "indexed": false,
          "internalType": "address",
          "name": "followee",
          "type": "address"
        }
      ],
      "name": "UserUnfollowed",
      "type": "event"
    },
    {
      "inputs": [],
      "name": "userCount",
      "outputs": [
        {
          "internalType": "uint256",
          "name": "",
          "type": "uint256"
        }
      ],
      "stateMutability": "view",
      "type": "function"
    },
    {
      "inputs": [
        {
          "internalType": "string",
          "name": "",
          "type": "string"
        }
      ],
      "name": "usernameToUserAddress",
      "outputs": [
        {
          "internalType": "address",
          "name": "",
          "type": "address"
        }
      ],
      "stateMutability": "view",
      "type": "function"
    },
    {
      "inputs": [
        {
          "internalType": "address",
          "name": "",
          "type": "address"
        }
      ],
      "name": "users",
      "outputs": [
        {
          "internalType": "address",
          "name": "userAddress",
          "type": "address"
        },
        {
          "internalType": "string",
          "name": "name",
          "type": "string"
        },
        {
          "internalType": "string",
          "name": "username",
          "type": "string"
        },
        {
          "internalType": "string",
          "name": "profileImageHash",
          "type": "string"
        },
        {
          "internalType": "string",
          "name": "bio",
          "type": "string"
        }
      ],
      "stateMutability": "view",
      "type": "function"
    },
    {
      "inputs": [
        {
          "internalType": "address",
          "name": "userAddress",
          "type": "address"
        }
      ],
      "name": "createUser",
      "outputs": [
        {
          "components": [
            {
              "internalType": "address",
              "name": "userAddress",
              "type": "address"
            },
            {
              "internalType": "string",
              "name": "name",
              "type": "string"
            },
            {
              "internalType": "string",
              "name": "username",
              "type": "string"
            },
            {
              "internalType": "string",
              "name": "profileImageHash",
              "type": "string"
            },
            {
              "internalType": "string",
              "name": "bio",
              "type": "string"
            },
            {
              "internalType": "address[]",
              "name": "following",
              "type": "address[]"
            },
            {
              "internalType": "address[]",
              "name": "followers",
              "type": "address[]"
            }
          ],
          "internalType": "struct User",
          "name": "",
          "type": "tuple"
        }
      ],
      "stateMutability": "nonpayable",
      "type": "function"
    },
    {
      "inputs": [
        {
          "internalType": "address",
          "name": "userAddress",
          "type": "address"
        }
      ],
      "name": "getUserByAddress",
      "outputs": [
        {
          "components": [
            {
              "internalType": "address",
              "name": "userAddress",
              "type": "address"
            },
            {
              "internalType": "string",
              "name": "name",
              "type": "string"
            },
            {
              "internalType": "string",
              "name": "username",
              "type": "string"
            },
            {
              "internalType": "string",
              "name": "profileImageHash",
              "type": "string"
            },
            {
              "internalType": "string",
              "name": "bio",
              "type": "string"
            },
            {
              "internalType": "address[]",
              "name": "following",
              "type": "address[]"
            },
            {
              "internalType": "address[]",
              "name": "followers",
              "type": "address[]"
            }
          ],
          "internalType": "struct User",
          "name": "",
          "type": "tuple"
        }
      ],
      "stateMutability": "view",
      "type": "function"
    },
    {
      "inputs": [
        {
          "internalType": "address",
          "name": "userAddress",
          "type": "address"
        }
      ],
      "name": "deleteUser",
      "outputs": [],
      "stateMutability": "nonpayable",
      "type": "function"
    },
    {
      "inputs": [],
      "name": "getAllUsers",
      "outputs": [
        {
          "components": [
            {
              "internalType": "address",
              "name": "userAddress",
              "type": "address"
            },
            {
              "internalType": "string",
              "name": "name",
              "type": "string"
            },
            {
              "internalType": "string",
              "name": "username",
              "type": "string"
            },
            {
              "internalType": "string",
              "name": "profileImageHash",
              "type": "string"
            },
            {
              "internalType": "string",
              "name": "bio",
              "type": "string"
            },
            {
              "internalType": "address[]",
              "name": "following",
              "type": "address[]"
            },
            {
              "internalType": "address[]",
              "name": "followers",
              "type": "address[]"
            }
          ],
          "internalType": "struct User[]",
          "name": "",
          "type": "tuple[]"
        }
      ],
      "stateMutability": "view",
      "type": "function"
    },
    {
      "inputs": [
        {
          "internalType": "address",
          "name": "userAddress",
          "type": "address"
        },
        {
          "internalType": "string",
          "name": "name",
          "type": "string"
        },
        {
          "internalType": "string",
          "name": "username",
          "type": "string"
        },
        {
          "internalType": "string",
          "name": "profileImageHash",
          "type": "string"
        },
        {
          "internalType": "string",
          "name": "bio",
          "type": "string"
        }
      ],
      "name": "editUser",
      "outputs": [],
      "stateMutability": "nonpayable",
      "type": "function"
    },
    {
      "inputs": [
        {
          "internalType": "address",
          "name": "follower",
          "type": "address"
        },
        {
          "internalType": "address",
          "name": "followee",
          "type": "address"
        }
      ],
      "name": "followUser",
      "outputs": [],
      "stateMutability": "nonpayable",
      "type": "function"
    },
    {
      "inputs": [
        {
          "internalType": "address",
          "name": "follower",
          "type": "address"
        },
        {
          "internalType": "address",
          "name": "followee",
          "type": "address"
        }
      ],
      "name": "unfollowUser",
      "outputs": [],
      "stateMutability": "nonpayable",
      "type": "function"
    }
  ],
  "bytecode": "0x608060405234801561001057600080fd5b50612d8c806100206000396000f3fe608060405234801561001057600080fd5b506004361061009e5760003560e01c8063a87430ba11610066578063a87430ba14610159578063aeb797821461018d578063cdd87618146101a9578063e2842d79146101d9578063f2b60562146101f75761009e565b806307973ccf146100a35780630c8273e6146100c15780635c60f226146100dd57806369c212f6146100f957806374c910e414610129575b600080fd5b6100ab610213565b6040516100b8919061219e565b60405180910390f35b6100db60048036038101906100d6919061222b565b610219565b005b6100f760048036038101906100f2919061226b565b610546565b005b610113600480360381019061010e919061226b565b610718565b60405161012091906124ae565b60405180910390f35b610143600480360381019061013e9190612605565b610b2a565b604051610150919061265d565b60405180910390f35b610173600480360381019061016e919061226b565b610b73565b6040516101849594939291906126c2565b60405180910390f35b6101a760048036038101906101a29190612731565b610de9565b005b6101c360048036038101906101be919061226b565b610f9e565b6040516101d091906124ae565b60405180910390f35b6101e1611593565b6040516101ee919061299d565b60405180910390f35b610211600480360381019061020c919061222b565b611ae7565b005b60025481565b600073ffffffffffffffffffffffffffffffffffffffff166000808473ffffffffffffffffffffffffffffffffffffffff1673ffffffffffffffffffffffffffffffffffffffff16815260200190815260200160002060000160009054906101000a900473ffffffffffffffffffffffffffffffffffffffff1673ffffffffffffffffffffffffffffffffffffffff16036102e9576040517f08c379a00000000000000000000000000000000000000000000000000000000081526004016102e090612a0b565b60405180910390fd5b600073ffffffffffffffffffffffffffffffffffffffff166000808373ffffffffffffffffffffffffffffffffffffffff1673ffffffffffffffffffffffffffffffffffffffff16815260200190815260200160002060000160009054906101000a900473ffffffffffffffffffffffffffffffffffffffff1673ffffffffffffffffffffffffffffffffffffffff16036103b9576040517f08c379a00000000000000000000000000000000000000000000000000000000081526004016103b090612a77565b60405180910390fd5b60008060008473ffffffffffffffffffffffffffffffffffffffff1673ffffffffffffffffffffffffffffffffffffffff168152602001908152602001600020905060008060008473ffffffffffffffffffffffffffffffffffffffff1673ffffffffffffffffffffffffffffffffffffffff168152602001908152602001600020905081600501839080600181540180825580915050600190039060005260206000200160009091909190916101000a81548173ffffffffffffffffffffffffffffffffffffffff021916908373ffffffffffffffffffffffffffffffffffffffff16021790555080600601849080600181540180825580915050600190039060005260206000200160009091909190916101000a81548173ffffffffffffffffffffffffffffffffffffffff021916908373ffffffffffffffffffffffffffffffffffffffff1602179055507f30b3435b456f45779984ddfa456115ee4c20d9e446979b1b9e90dbb7e12b90b78484604051610538929190612a97565b60405180910390a150505050565b600073ffffffffffffffffffffffffffffffffffffffff166000808373ffffffffffffffffffffffffffffffffffffffff1673ffffffffffffffffffffffffffffffffffffffff16815260200190815260200160002060000160009054906101000a900473ffffffffffffffffffffffffffffffffffffffff1673ffffffffffffffffffffffffffffffffffffffff1603610616576040517f08c379a000000000000000000000000000000000000000000000000000000000815260040161060d90612b0c565b60405180910390fd5b6000808273ffffffffffffffffffffffffffffffffffffffff1673ffffffffffffffffffffffffffffffffffffffff168152602001908152602001600020600080820160006101000a81549073ffffffffffffffffffffffffffffffffffffffff021916905560018201600061068c9190611fa4565b60028201600061069c9190611fa4565b6003820160006106ac9190611fa4565b6004820160006106bc9190611fa4565b6005820160006106cc9190611fe4565b6006820160006106dc9190611fe4565b50507f4bc56f1321288dfb5b416cb3a7fd188723979f9e866c91d88eccf7fca039d0398160405161070d919061265d565b60405180910390a150565b610720612005565b6000808373ffffffffffffffffffffffffffffffffffffffff1673ffffffffffffffffffffffffffffffffffffffff1681526020019081526020016000206040518060e00160405290816000820160009054906101000a900473ffffffffffffffffffffffffffffffffffffffff1673ffffffffffffffffffffffffffffffffffffffff1673ffffffffffffffffffffffffffffffffffffffff1681526020016001820180546107cf90612b5b565b80601f01602080910402602001604051908101604052809291908181526020018280546107fb90612b5b565b80156108485780601f1061081d57610100808354040283529160200191610848565b820191906000526020600020905b81548152906001019060200180831161082b57829003601f168201915b5050505050815260200160028201805461086190612b5b565b80601f016020809104026020016040519081016040528092919081815260200182805461088d90612b5b565b80156108da5780601f106108af576101008083540402835291602001916108da565b820191906000526020600020905b8154815290600101906020018083116108bd57829003601f168201915b505050505081526020016003820180546108f390612b5b565b80601f016020809104026020016040519081016040528092919081815260200182805461091f90612b5b565b801561096c5780601f106109415761010080835404028352916020019161096c565b820191906000526020600020905b81548152906001019060200180831161094f57829003601f168201915b5050505050815260200160048201805461098590612b5b565b80601f01602080910402602001604051908101604052809291908181526020018280546109b190612b5b565b80156109fe5780601f106109d3576101008083540402835291602001916109fe565b820191906000526020600020905b8154815290600101906020018083116109e157829003601f168201915b5050505050815260200160058201805480602002602001604051908101604052809291908181526020018280548015610a8c57602002820191906000526020600020905b8160009054906101000a900473ffffffffffffffffffffffffffffffffffffffff1673ffffffffffffffffffffffffffffffffffffffff1681526020019060010190808311610a42575b5050505050815260200160068201805480602002602001604051908101604052809291908181526020018280548015610b1a57602002820191906000526020600020905b8160009054906101000a900473ffffffffffffffffffffffffffffffffffffffff1673ffffffffffffffffffffffffffffffffffffffff1681526020019060010190808311610ad0575b5050505050815250509050919050565b6001818051602081018201805184825260208301602085012081835280955050505050506000915054906101000a900473ffffffffffffffffffffffffffffffffffffffff1681565b60006020528060005260406000206000915090508060000160009054906101000a900473ffffffffffffffffffffffffffffffffffffffff1690806001018054610bbc90612b5b565b80601f0160208091040260200160405190810160405280929190818152602001828054610be890612b5b565b8015610c355780601f10610c0a57610100808354040283529160200191610c35565b820191906000526020600020905b815481529060010190602001808311610c1857829003601f168201915b505050505090806002018054610c4a90612b5b565b80601f0160208091040260200160405190810160405280929190818152602001828054610c7690612b5b565b8015610cc35780601f10610c9857610100808354040283529160200191610cc3565b820191906000526020600020905b815481529060010190602001808311610ca657829003601f168201915b505050505090806003018054610cd890612b5b565b80601f0160208091040260200160405190810160405280929190818152602001828054610d0490612b5b565b8015610d515780601f10610d2657610100808354040283529160200191610d51565b820191906000526020600020905b815481529060010190602001808311610d3457829003601f168201915b505050505090806004018054610d6690612b5b565b80601f0160208091040260200160405190810160405280929190818152602001828054610d9290612b5b565b8015610ddf5780601f10610db457610100808354040283529160200191610ddf565b820191906000526020600020905b815481529060010190602001808311610dc257829003601f168201915b5050505050905085565b600073ffffffffffffffffffffffffffffffffffffffff166000808773ffffffffffffffffffffffffffffffffffffffff1673ffffffffffffffffffffffffffffffffffffffff16815260200190815260200160002060000160009054906101000a900473ffffffffffffffffffffffffffffffffffffffff1673ffffffffffffffffffffffffffffffffffffffff1603610eb9576040517f08c379a0000000000000000000000000000000000000000000000000000000008152600401610eb090612b0c565b60405180910390fd5b60008060008773ffffffffffffffffffffffffffffffffffffffff1673ffffffffffffffffffffffffffffffffffffffff168152602001908152602001600020905084816001019080519060200190610f13929190612058565b5083816002019080519060200190610f2c929190612058565b5082816003019080519060200190610f45929190612058565b5081816004019080519060200190610f5e929190612058565b507f99572f8a291030fc59069acb038727166d65a1ccaf3e10e36256e7c175f1dd9286604051610f8e919061265d565b60405180910390a1505050505050565b610fa6612005565b60026000815480929190610fb990612bbb565b919050555060608060608060608060006040518060e001604052808a73ffffffffffffffffffffffffffffffffffffffff168152602001888152602001878152602001868152602001858152602001848152602001838152509050806000808b73ffffffffffffffffffffffffffffffffffffffff1673ffffffffffffffffffffffffffffffffffffffff16815260200190815260200160002060008201518160000160006101000a81548173ffffffffffffffffffffffffffffffffffffffff021916908373ffffffffffffffffffffffffffffffffffffffff16021790555060208201518160010190805190602001906110b6929190612058565b5060408201518160020190805190602001906110d3929190612058565b5060608201518160030190805190602001906110f0929190612058565b50608082015181600401908051906020019061110d929190612058565b5060a082015181600501908051906020019061112a9291906120de565b5060c08201518160060190805190602001906111479291906120de565b509050507f0b0376a109cbb578b709f85f6a7befcdac3ac1ab251c99ede87f30c9572ac4d38960405161117a919061265d565b60405180910390a16000808a73ffffffffffffffffffffffffffffffffffffffff1673ffffffffffffffffffffffffffffffffffffffff1681526020019081526020016000206040518060e00160405290816000820160009054906101000a900473ffffffffffffffffffffffffffffffffffffffff1673ffffffffffffffffffffffffffffffffffffffff1673ffffffffffffffffffffffffffffffffffffffff16815260200160018201805461123190612b5b565b80601f016020809104026020016040519081016040528092919081815260200182805461125d90612b5b565b80156112aa5780601f1061127f576101008083540402835291602001916112aa565b820191906000526020600020905b81548152906001019060200180831161128d57829003601f168201915b505050505081526020016002820180546112c390612b5b565b80601f01602080910402602001604051908101604052809291908181526020018280546112ef90612b5b565b801561133c5780601f106113115761010080835404028352916020019161133c565b820191906000526020600020905b81548152906001019060200180831161131f57829003601f168201915b5050505050815260200160038201805461135590612b5b565b80601f016020809104026020016040519081016040528092919081815260200182805461138190612b5b565b80156113ce5780601f106113a3576101008083540402835291602001916113ce565b820191906000526020600020905b8154815290600101906020018083116113b157829003601f168201915b505050505081526020016004820180546113e790612b5b565b80601f016020809104026020016040519081016040528092919081815260200182805461141390612b5b565b80156114605780601f1061143557610100808354040283529160200191611460565b820191906000526020600020905b81548152906001019060200180831161144357829003601f168201915b50505050508152602001600582018054806020026020016040519081016040528092919081815260200182805480156114ee57602002820191906000526020600020905b8160009054906101000a900473ffffffffffffffffffffffffffffffffffffffff1673ffffffffffffffffffffffffffffffffffffffff16815260200190600101908083116114a4575b505050505081526020016006820180548060200260200160405190810160405280929190818152602001828054801561157c57602002820191906000526020600020905b8160009054906101000a900473ffffffffffffffffffffffffffffffffffffffff1673ffffffffffffffffffffffffffffffffffffffff1681526020019060010190808311611532575b505050505081525050975050505050505050919050565b6060600060025467ffffffffffffffff8111156115b3576115b26124da565b5b6040519080825280602002602001820160405280156115ec57816020015b6115d9612005565b8152602001906001900390816115d15790505b5090506000805b600254811015611adb576000819050600073ffffffffffffffffffffffffffffffffffffffff166000808373ffffffffffffffffffffffffffffffffffffffff1673ffffffffffffffffffffffffffffffffffffffff16815260200190815260200160002060000160009054906101000a900473ffffffffffffffffffffffffffffffffffffffff1673ffffffffffffffffffffffffffffffffffffffff1614611ac7576000808273ffffffffffffffffffffffffffffffffffffffff1673ffffffffffffffffffffffffffffffffffffffff1681526020019081526020016000206040518060e00160405290816000820160009054906101000a900473ffffffffffffffffffffffffffffffffffffffff1673ffffffffffffffffffffffffffffffffffffffff1673ffffffffffffffffffffffffffffffffffffffff16815260200160018201805461174690612b5b565b80601f016020809104026020016040519081016040528092919081815260200182805461177290612b5b565b80156117bf5780601f10611794576101008083540402835291602001916117bf565b820191906000526020600020905b8154815290600101906020018083116117a257829003601f168201915b505050505081526020016002820180546117d890612b5b565b80601f016020809104026020016040519081016040528092919081815260200182805461180490612b5b565b80156118515780601f1061182657610100808354040283529160200191611851565b820191906000526020600020905b81548152906001019060200180831161183457829003601f168201915b5050505050815260200160038201805461186a90612b5b565b80601f016020809104026020016040519081016040528092919081815260200182805461189690612b5b565b80156118e35780601f106118b8576101008083540402835291602001916118e3565b820191906000526020600020905b8154815290600101906020018083116118c657829003601f168201915b505050505081526020016004820180546118fc90612b5b565b80601f016020809104026020016040519081016040528092919081815260200182805461192890612b5b565b80156119755780601f1061194a57610100808354040283529160200191611975565b820191906000526020600020905b81548152906001019060200180831161195857829003601f168201915b5050505050815260200160058201805480602002602001604051908101604052809291908181526020018280548015611a0357602002820191906000526020600020905b8160009054906101000a900473ffffffffffffffffffffffffffffffffffffffff1673ffffffffffffffffffffffffffffffffffffffff16815260200190600101908083116119b9575b5050505050815260200160068201805480602002602001604051908101604052809291908181526020018280548015611a9157602002820191906000526020600020905b8160009054906101000a900473ffffffffffffffffffffffffffffffffffffffff1673ffffffffffffffffffffffffffffffffffffffff1681526020019060010190808311611a47575b505050505081525050848481518110611aad57611aac612c03565b5b60200260200101819052508280611ac390612bbb565b9350505b508080611ad390612bbb565b9150506115f3565b50808252819250505090565b600073ffffffffffffffffffffffffffffffffffffffff166000808473ffffffffffffffffffffffffffffffffffffffff1673ffffffffffffffffffffffffffffffffffffffff16815260200190815260200160002060000160009054906101000a900473ffffffffffffffffffffffffffffffffffffffff1673ffffffffffffffffffffffffffffffffffffffff1603611bb7576040517f08c379a0000000000000000000000000000000000000000000000000000000008152600401611bae90612a0b565b60405180910390fd5b600073ffffffffffffffffffffffffffffffffffffffff166000808373ffffffffffffffffffffffffffffffffffffffff1673ffffffffffffffffffffffffffffffffffffffff16815260200190815260200160002060000160009054906101000a900473ffffffffffffffffffffffffffffffffffffffff1673ffffffffffffffffffffffffffffffffffffffff1603611c87576040517f08c379a0000000000000000000000000000000000000000000000000000000008152600401611c7e90612a77565b60405180910390fd5b60008060008473ffffffffffffffffffffffffffffffffffffffff1673ffffffffffffffffffffffffffffffffffffffff168152602001908152602001600020905060008060008473ffffffffffffffffffffffffffffffffffffffff1673ffffffffffffffffffffffffffffffffffffffff168152602001908152602001600020905060008060008060005b8560060180549050811015611db5578873ffffffffffffffffffffffffffffffffffffffff16866006018281548110611d5057611d4f612c03565b5b9060005260206000200160009054906101000a900473ffffffffffffffffffffffffffffffffffffffff1673ffffffffffffffffffffffffffffffffffffffff1603611da25780945060019250611db5565b8080611dad90612bbb565b915050611d14565b5060005b8660050180549050811015611e5a578773ffffffffffffffffffffffffffffffffffffffff16876005018281548110611df557611df4612c03565b5b9060005260206000200160009054906101000a900473ffffffffffffffffffffffffffffffffffffffff1673ffffffffffffffffffffffffffffffffffffffff1603611e475780935060019150611e5a565b8080611e5290612bbb565b915050611db9565b5081611e9b576040517f08c379a0000000000000000000000000000000000000000000000000000000008152600401611e9290612ca4565b60405180910390fd5b80611edb576040517f08c379a0000000000000000000000000000000000000000000000000000000008152600401611ed290612d36565b60405180910390fd5b846006018481548110611ef157611ef0612c03565b5b9060005260206000200160006101000a81549073ffffffffffffffffffffffffffffffffffffffff0219169055856005018381548110611f3457611f33612c03565b5b9060005260206000200160006101000a81549073ffffffffffffffffffffffffffffffffffffffff02191690557fe7339343c6edff57f2d15278c419523844cea30ae5ee2146aa22cb9e3107dab78888604051611f92929190612a97565b60405180910390a15050505050505050565b508054611fb090612b5b565b6000825580601f10611fc25750611fe1565b601f016020900490600052602060002090810190611fe09190612168565b5b50565b50805460008255906000526020600020908101906120029190612168565b50565b6040518060e00160405280600073ffffffffffffffffffffffffffffffffffffffff1681526020016060815260200160608152602001606081526020016060815260200160608152602001606081525090565b82805461206490612b5b565b90600052602060002090601f01602090048101928261208657600085556120cd565b82601f1061209f57805160ff19168380011785556120cd565b828001600101855582156120cd579182015b828111156120cc5782518255916020019190600101906120b1565b5b5090506120da9190612168565b5090565b828054828255906000526020600020908101928215612157579160200282015b828111156121565782518260006101000a81548173ffffffffffffffffffffffffffffffffffffffff021916908373ffffffffffffffffffffffffffffffffffffffff160217905550916020019190600101906120fe565b5b5090506121649190612168565b5090565b5b80821115612181576000816000905550600101612169565b5090565b6000819050919050565b61219881612185565b82525050565b60006020820190506121b3600083018461218f565b92915050565b6000604051905090565b600080fd5b600080fd5b600073ffffffffffffffffffffffffffffffffffffffff82169050919050565b60006121f8826121cd565b9050919050565b612208816121ed565b811461221357600080fd5b50565b600081359050612225816121ff565b92915050565b60008060408385031215612242576122416121c3565b5b600061225085828601612216565b925050602061226185828601612216565b9150509250929050565b600060208284031215612281576122806121c3565b5b600061228f84828501612216565b91505092915050565b6122a1816121ed565b82525050565b600081519050919050565b600082825260208201905092915050565b60005b838110156122e15780820151818401526020810190506122c6565b838111156122f0576000848401525b50505050565b6000601f19601f8301169050919050565b6000612312826122a7565b61231c81856122b2565b935061232c8185602086016122c3565b612335816122f6565b840191505092915050565b600081519050919050565b600082825260208201905092915050565b6000819050602082019050919050565b60006123788383612298565b60208301905092915050565b6000602082019050919050565b600061239c82612340565b6123a6818561234b565b93506123b18361235c565b8060005b838110156123e25781516123c9888261236c565b97506123d483612384565b9250506001810190506123b5565b5085935050505092915050565b600060e0830160008301516124076000860182612298565b506020830151848203602086015261241f8282612307565b915050604083015184820360408601526124398282612307565b915050606083015184820360608601526124538282612307565b9150506080830151848203608086015261246d8282612307565b91505060a083015184820360a08601526124878282612391565b91505060c083015184820360c08601526124a18282612391565b9150508091505092915050565b600060208201905081810360008301526124c881846123ef565b905092915050565b600080fd5b600080fd5b7f4e487b7100000000000000000000000000000000000000000000000000000000600052604160045260246000fd5b612512826122f6565b810181811067ffffffffffffffff82111715612531576125306124da565b5b80604052505050565b60006125446121b9565b90506125508282612509565b919050565b600067ffffffffffffffff8211156125705761256f6124da565b5b612579826122f6565b9050602081019050919050565b82818337600083830152505050565b60006125a86125a384612555565b61253a565b9050828152602081018484840111156125c4576125c36124d5565b5b6125cf848285612586565b509392505050565b600082601f8301126125ec576125eb6124d0565b5b81356125fc848260208601612595565b91505092915050565b60006020828403121561261b5761261a6121c3565b5b600082013567ffffffffffffffff811115612639576126386121c8565b5b612645848285016125d7565b91505092915050565b612657816121ed565b82525050565b6000602082019050612672600083018461264e565b92915050565b600082825260208201905092915050565b6000612694826122a7565b61269e8185612678565b93506126ae8185602086016122c3565b6126b7816122f6565b840191505092915050565b600060a0820190506126d7600083018861264e565b81810360208301526126e98187612689565b905081810360408301526126fd8186612689565b905081810360608301526127118185612689565b905081810360808301526127258184612689565b90509695505050505050565b600080600080600060a0868803121561274d5761274c6121c3565b5b600061275b88828901612216565b955050602086013567ffffffffffffffff81111561277c5761277b6121c8565b5b612788888289016125d7565b945050604086013567ffffffffffffffff8111156127a9576127a86121c8565b5b6127b5888289016125d7565b935050606086013567ffffffffffffffff8111156127d6576127d56121c8565b5b6127e2888289016125d7565b925050608086013567ffffffffffffffff811115612803576128026121c8565b5b61280f888289016125d7565b9150509295509295909350565b600081519050919050565b600082825260208201905092915050565b6000819050602082019050919050565b600060e0830160008301516128606000860182612298565b50602083015184820360208601526128788282612307565b915050604083015184820360408601526128928282612307565b915050606083015184820360608601526128ac8282612307565b915050608083015184820360808601526128c68282612307565b91505060a083015184820360a08601526128e08282612391565b91505060c083015184820360c08601526128fa8282612391565b9150508091505092915050565b60006129138383612848565b905092915050565b6000602082019050919050565b60006129338261281c565b61293d8185612827565b93508360208202850161294f85612838565b8060005b8581101561298b578484038952815161296c8582612907565b94506129778361291b565b925060208a01995050600181019050612953565b50829750879550505050505092915050565b600060208201905081810360008301526129b78184612928565b905092915050565b7f466f6c6c6f77657220646f6573206e6f74206578697374000000000000000000600082015250565b60006129f5601783612678565b9150612a00826129bf565b602082019050919050565b60006020820190508181036000830152612a24816129e8565b9050919050565b7f466f6c6c6f77656520646f6573206e6f74206578697374000000000000000000600082015250565b6000612a61601783612678565b9150612a6c82612a2b565b602082019050919050565b60006020820190508181036000830152612a9081612a54565b9050919050565b6000604082019050612aac600083018561264e565b612ab9602083018461264e565b9392505050565b7f5573657220646f6573206e6f7420657869737400000000000000000000000000600082015250565b6000612af6601383612678565b9150612b0182612ac0565b602082019050919050565b60006020820190508181036000830152612b2581612ae9565b9050919050565b7f4e487b7100000000000000000000000000000000000000000000000000000000600052602260045260246000fd5b60006002820490506001821680612b7357607f821691505b602082108103612b8657612b85612b2c565b5b50919050565b7f4e487b7100000000000000000000000000000000000000000000000000000000600052601160045260246000fd5b6000612bc682612185565b91507fffffffffffffffffffffffffffffffffffffffffffffffffffffffffffffffff8203612bf857612bf7612b8c565b5b600182019050919050565b7f4e487b7100000000000000000000000000000000000000000000000000000000600052603260045260246000fd5b7f466f6c6c6f77657220646f6573206e6f7420666f6c6c6f77207468652073706560008201527f6369666965642075736572000000000000000000000000000000000000000000602082015250565b6000612c8e602b83612678565b9150612c9982612c32565b604082019050919050565b60006020820190508181036000830152612cbd81612c81565b9050919050565b7f466f6c6c6f776565206973206e6f7420666f6c6c6f776564206279207468652060008201527f7370656369666965642075736572000000000000000000000000000000000000602082015250565b6000612d20602e83612678565b9150612d2b82612cc4565b604082019050919050565b60006020820190508181036000830152612d4f81612d13565b905091905056fea26469706673582212208a17b23d1bff16b3186c0fe5b672035664b43b15fe73cd9ebe5e1d92e057aa0064736f6c634300080d0033",
  "immutableReferences": {},
  "source": "// SPDX-License-Identifier: GPL-3.0\n\npragma solidity >=0.7.0 <0.9.0;\n\nimport {User} from \"./common/types.sol\";\n\ncontract UserManager {\n    mapping(address => User) public users; // Mapping to store user information by user address\n    mapping(string => address) public usernameToUserAddress; // Mapping to store user address by username\n    uint public userCount; // Total number of users\n\n    event UserCreated(address userAddress); // Event emitted when a new user is created\n    event UserDeleted(address userAddress); // Event emitted when a user is deleted\n    event UserEdited(address userAddress); // Event emitted when a user is edited\n    event UserFollowed(address follower, address followee); // Event emitted when a user follows another user\n    event UserUnfollowed(address follower, address followee); // Event emitted when a user unfollows another user\n\n    /**\n     * @dev Create a new user\n     * @param userAddress Address of the user\n     * @return address Address of the created user\n     */\n    function createUser(address userAddress) public returns (User memory) {\n        userCount++;\n\n        // Initialize user properties\n        string memory name;\n        string memory username;\n        string memory profileImageHash;\n        string memory bio;\n        address[] memory following;\n        address[] memory followers;\n\n        // Create user object\n        User memory user = User(\n            userAddress,\n            name,\n            username,\n            profileImageHash,\n            bio,\n            following,\n            followers\n        );\n\n        // Store user in the mapping\n        users[userAddress] = user;\n\n        // Emit event for user creation\n        emit UserCreated(userAddress);\n\n        return users[userAddress];\n    }\n\n    /**\n     * @dev Get user information by user address\n     * @param userAddress Address of the user\n     * @return User struct containing user information\n     */\n    function getUserByAddress(\n        address userAddress\n    ) public view returns (User memory) {\n        return users[userAddress];\n    }\n\n    /**\n     * @dev Delete a user\n     * @param userAddress Address of the user to delete\n     */\n    function deleteUser(address userAddress) public {\n        require(\n            users[userAddress].userAddress != address(0),\n            \"User does not exist\"\n        );\n\n        // Remove user from the mapping\n        delete users[userAddress];\n\n        // Emit event for user deletion\n        emit UserDeleted(userAddress);\n    }\n\n    /**\n     * @dev Get all users\n     * @return User[] Array containing all users\n     */\n    function getAllUsers() public view returns (User[] memory) {\n        User[] memory allUsers = new User[](userCount);\n        uint index = 0;\n\n        // Iterate over the users mapping and add each user to the array\n        for (uint i = 0; i < userCount; i++) {\n            address userAddress = address(uint160(i)); // Convert the index to address\n            if (users[userAddress].userAddress != address(0)) {\n                allUsers[index] = users[userAddress];\n                index++;\n            }\n        }\n\n        // Resize the array to remove empty slots\n        assembly {\n            mstore(allUsers, index)\n        }\n\n        return allUsers;\n    }\n\n    /**\n     * @dev Edit user information\n     * @param userAddress Address of the user to edit\n     * @param name New name of the user\n     * @param username New username of the user\n     * @param profileImageHash New profile image hash of the user\n     * @param bio New bio of the user\n     */\n    function editUser(\n        address userAddress,\n        string memory name,\n        string memory username,\n        string memory profileImageHash,\n        string memory bio\n    ) public {\n        require(\n            users[userAddress].userAddress != address(0),\n            \"User does not exist\"\n        );\n\n        User storage user = users[userAddress];\n        user.name = name;\n        user.username = username;\n        user.profileImageHash = profileImageHash;\n        user.bio = bio;\n\n        // Emit event for user edition\n        emit UserEdited(userAddress);\n    }\n\n    /**\n     * @dev Follow a user\n     * @param follower Address of the user who wants to follow\n     * @param followee Address of the user to be followed\n     */\n    function followUser(address follower, address followee) public {\n        require(\n            users[follower].userAddress != address(0),\n            \"Follower does not exist\"\n        );\n        require(\n            users[followee].userAddress != address(0),\n            \"Followee does not exist\"\n        );\n\n        User storage followerUser = users[follower];\n        User storage followeeUser = users[followee];\n\n        followerUser.following.push(followee);\n        followeeUser.followers.push(follower);\n\n        // Emit event for user following\n        emit UserFollowed(follower, followee);\n    }\n\n    /**\n     * @dev Unfollow a user\n     * @param follower Address of the user who wants to unfollow\n     * @param followee Address of the user to be unfollowed\n     */\n    function unfollowUser(address follower, address followee) public {\n        require(\n            users[follower].userAddress != address(0),\n            \"Follower does not exist\"\n        );\n        require(\n            users[followee].userAddress != address(0),\n            \"Followee does not exist\"\n        );\n\n        User storage followerUser = users[follower];\n        User storage followeeUser = users[followee];\n\n        uint followerIndex;\n        uint followeeIndex;\n        bool foundFollower = false;\n        bool foundFollowee = false;\n\n        // Find the index of the follower in the followee's followers array\n        for (uint i = 0; i < followeeUser.followers.length; i++) {\n            if (followeeUser.followers[i] == follower) {\n                followerIndex = i;\n                foundFollower = true;\n                break;\n            }\n        }\n\n        // Find the index of the followee in the follower's following array\n        for (uint i = 0; i < followerUser.following.length; i++) {\n            if (followerUser.following[i] == followee) {\n                followeeIndex = i;\n                foundFollowee = true;\n                break;\n            }\n        }\n\n        require(foundFollower, \"Follower does not follow the specified user\");\n        require(\n            foundFollowee,\n            \"Followee is not followed by the specified user\"\n        );\n\n        // Remove the follower from the followee's followers array\n        delete followeeUser.followers[followerIndex];\n\n        // Remove the followee from the follower's following array\n        delete followerUser.following[followeeIndex];\n\n        // Emit event for user unfollowing\n        emit UserUnfollowed(follower, followee);\n    }\n}\n",
  "sourcePath": "/Users/lisapolena/Documents/Master_04/Thesis/Prototyp/betterPinterest/src/contracts/userManager.sol",
  "compiler": {
    "name": "solc",
    "version": "0.8.13+commit.abaa5c0e.Emscripten.clang"
  },
  "schemaVersion": "3.4.14",
  "updatedAt": "2023-06-09T23:23:06.704Z",
  "devdoc": {
    "kind": "dev",
    "methods": {
      "createUser(address)": {
        "details": "Create a new user",
        "params": {
          "userAddress": "Address of the user"
        },
        "returns": {
          "_0": "address Address of the created user"
        }
      },
      "deleteUser(address)": {
        "details": "Delete a user",
        "params": {
          "userAddress": "Address of the user to delete"
        }
      },
      "editUser(address,string,string,string,string)": {
        "details": "Edit user information",
        "params": {
          "bio": "New bio of the user",
          "name": "New name of the user",
          "profileImageHash": "New profile image hash of the user",
          "userAddress": "Address of the user to edit",
          "username": "New username of the user"
        }
      },
      "followUser(address,address)": {
        "details": "Follow a user",
        "params": {
          "followee": "Address of the user to be followed",
          "follower": "Address of the user who wants to follow"
        }
      },
      "getAllUsers()": {
        "details": "Get all users",
        "returns": {
          "_0": "User[] Array containing all users"
        }
      },
      "getUserByAddress(address)": {
        "details": "Get user information by user address",
        "params": {
          "userAddress": "Address of the user"
        },
        "returns": {
          "_0": "User struct containing user information"
        }
      },
      "unfollowUser(address,address)": {
        "details": "Unfollow a user",
        "params": {
          "followee": "Address of the user to be unfollowed",
          "follower": "Address of the user who wants to unfollow"
        }
      }
    },
    "version": 1
  },
  "userdoc": {
    "kind": "user",
    "methods": {},
    "version": 1
  }
}