{
  "contractName": "UserManager",
  "abi": [
    {
      "inputs": [],
      "name": "userCount",
      "outputs": [
        {
          "internalType": "uint256",
          "name": "",
          "type": "uint256"
        }
      ],
      "stateMutability": "view",
      "type": "function"
    },
    {
      "inputs": [
        {
          "internalType": "string",
          "name": "",
          "type": "string"
        }
      ],
      "name": "usernameToUserId",
      "outputs": [
        {
          "internalType": "uint256",
          "name": "",
          "type": "uint256"
        }
      ],
      "stateMutability": "view",
      "type": "function"
    },
    {
      "inputs": [
        {
          "internalType": "uint256",
          "name": "",
          "type": "uint256"
        }
      ],
      "name": "users",
      "outputs": [
        {
          "internalType": "uint256",
          "name": "id",
          "type": "uint256"
        },
        {
          "internalType": "string",
          "name": "username",
          "type": "string"
        },
        {
          "internalType": "bytes32",
          "name": "passwordHash",
          "type": "bytes32"
        }
      ],
      "stateMutability": "view",
      "type": "function"
    },
    {
      "inputs": [
        {
          "internalType": "string",
          "name": "_username",
          "type": "string"
        },
        {
          "internalType": "bytes32",
          "name": "_passwordHash",
          "type": "bytes32"
        }
      ],
      "name": "registerUser",
      "outputs": [],
      "stateMutability": "nonpayable",
      "type": "function"
    },
    {
      "inputs": [
        {
          "internalType": "string",
          "name": "_username",
          "type": "string"
        },
        {
          "internalType": "bytes32",
          "name": "_passwordHash",
          "type": "bytes32"
        }
      ],
      "name": "authenticateUser",
      "outputs": [
        {
          "internalType": "bool",
          "name": "",
          "type": "bool"
        }
      ],
      "stateMutability": "view",
      "type": "function"
    },
    {
      "inputs": [
        {
          "internalType": "uint256",
          "name": "_id",
          "type": "uint256"
        }
      ],
      "name": "getUser",
      "outputs": [
        {
          "components": [
            {
              "internalType": "uint256",
              "name": "id",
              "type": "uint256"
            },
            {
              "internalType": "string",
              "name": "username",
              "type": "string"
            },
            {
              "internalType": "bytes32",
              "name": "passwordHash",
              "type": "bytes32"
            }
          ],
          "internalType": "struct UserManager.User",
          "name": "",
          "type": "tuple"
        }
      ],
      "stateMutability": "view",
      "type": "function"
    }
  ],
  "bytecode": "0x608060405234801561001057600080fd5b50610c20806100206000396000f3fe608060405234801561001057600080fd5b50600436106100625760003560e01c806302377f271461006757806307973ccf14610097578063365b98b2146100b55780633989dd48146100e757806368ae556314610117578063b0467deb14610133575b600080fd5b610081600480360381019061007c91906106e7565b610163565b60405161008e919061075e565b60405180910390f35b61009f6101bb565b6040516100ac9190610792565b60405180910390f35b6100cf60048036038101906100ca91906107d9565b6101c1565b6040516100de9392919061089d565b60405180910390f35b61010160048036038101906100fc91906108db565b610273565b60405161010e9190610792565b60405180910390f35b610131600480360381019061012c91906106e7565b6102a1565b005b61014d600480360381019061014891906107d9565b6103be565b60405161015a91906109dc565b60405180910390f35b6000806001846040516101769190610a3a565b9081526020016040518091039020549050600081036101995760009150506101b5565b8260008083815260200190815260200160002060020154149150505b92915050565b60025481565b60006020528060005260406000206000915090508060000154908060010180546101ea90610a80565b80601f016020809104026020016040519081016040528092919081815260200182805461021690610a80565b80156102635780601f1061023857610100808354040283529160200191610263565b820191906000526020600020905b81548152906001019060200180831161024657829003601f168201915b5050505050908060020154905083565b6001818051602081018201805184825260208301602085012081835280955050505050506000915090505481565b60006001836040516102b39190610a3a565b90815260200160405180910390205414610302576040517f08c379a00000000000000000000000000000000000000000000000000000000081526004016102f990610afd565b60405180910390fd5b60006040518060600160405280600160025461031e9190610b4c565b8152602001848152602001838152509050806000808360000151815260200190815260200160002060008201518160000155602082015181600101908051906020019061036c929190610490565b5060408201518160020155905050806000015160018460405161038f9190610a3a565b908152602001604051809103902081905550600260008154809291906103b490610ba2565b9190505550505050565b6103c6610516565b600080838152602001908152602001600020604051806060016040529081600082015481526020016001820180546103fd90610a80565b80601f016020809104026020016040519081016040528092919081815260200182805461042990610a80565b80156104765780601f1061044b57610100808354040283529160200191610476565b820191906000526020600020905b81548152906001019060200180831161045957829003601f168201915b505050505081526020016002820154815250509050919050565b82805461049c90610a80565b90600052602060002090601f0160209004810192826104be5760008555610505565b82601f106104d757805160ff1916838001178555610505565b82800160010185558215610505579182015b828111156105045782518255916020019190600101906104e9565b5b509050610512919061053a565b5090565b60405180606001604052806000815260200160608152602001600080191681525090565b5b8082111561055357600081600090555060010161053b565b5090565b6000604051905090565b600080fd5b600080fd5b600080fd5b600080fd5b6000601f19601f8301169050919050565b7f4e487b7100000000000000000000000000000000000000000000000000000000600052604160045260246000fd5b6105be82610575565b810181811067ffffffffffffffff821117156105dd576105dc610586565b5b80604052505050565b60006105f0610557565b90506105fc82826105b5565b919050565b600067ffffffffffffffff82111561061c5761061b610586565b5b61062582610575565b9050602081019050919050565b82818337600083830152505050565b600061065461064f84610601565b6105e6565b9050828152602081018484840111156106705761066f610570565b5b61067b848285610632565b509392505050565b600082601f8301126106985761069761056b565b5b81356106a8848260208601610641565b91505092915050565b6000819050919050565b6106c4816106b1565b81146106cf57600080fd5b50565b6000813590506106e1816106bb565b92915050565b600080604083850312156106fe576106fd610561565b5b600083013567ffffffffffffffff81111561071c5761071b610566565b5b61072885828601610683565b9250506020610739858286016106d2565b9150509250929050565b60008115159050919050565b61075881610743565b82525050565b6000602082019050610773600083018461074f565b92915050565b6000819050919050565b61078c81610779565b82525050565b60006020820190506107a76000830184610783565b92915050565b6107b681610779565b81146107c157600080fd5b50565b6000813590506107d3816107ad565b92915050565b6000602082840312156107ef576107ee610561565b5b60006107fd848285016107c4565b91505092915050565b600081519050919050565b600082825260208201905092915050565b60005b83811015610840578082015181840152602081019050610825565b8381111561084f576000848401525b50505050565b600061086082610806565b61086a8185610811565b935061087a818560208601610822565b61088381610575565b840191505092915050565b610897816106b1565b82525050565b60006060820190506108b26000830186610783565b81810360208301526108c48185610855565b90506108d3604083018461088e565b949350505050565b6000602082840312156108f1576108f0610561565b5b600082013567ffffffffffffffff81111561090f5761090e610566565b5b61091b84828501610683565b91505092915050565b61092d81610779565b82525050565b600082825260208201905092915050565b600061094f82610806565b6109598185610933565b9350610969818560208601610822565b61097281610575565b840191505092915050565b610986816106b1565b82525050565b60006060830160008301516109a46000860182610924565b50602083015184820360208601526109bc8282610944565b91505060408301516109d1604086018261097d565b508091505092915050565b600060208201905081810360008301526109f6818461098c565b905092915050565b600081905092915050565b6000610a1482610806565b610a1e81856109fe565b9350610a2e818560208601610822565b80840191505092915050565b6000610a468284610a09565b915081905092915050565b7f4e487b7100000000000000000000000000000000000000000000000000000000600052602260045260246000fd5b60006002820490506001821680610a9857607f821691505b602082108103610aab57610aaa610a51565b5b50919050565b7f557365726e616d6520616c7265616479206578697374732e0000000000000000600082015250565b6000610ae7601883610811565b9150610af282610ab1565b602082019050919050565b60006020820190508181036000830152610b1681610ada565b9050919050565b7f4e487b7100000000000000000000000000000000000000000000000000000000600052601160045260246000fd5b6000610b5782610779565b9150610b6283610779565b9250827fffffffffffffffffffffffffffffffffffffffffffffffffffffffffffffffff03821115610b9757610b96610b1d565b5b828201905092915050565b6000610bad82610779565b91507fffffffffffffffffffffffffffffffffffffffffffffffffffffffffffffffff8203610bdf57610bde610b1d565b5b60018201905091905056fea264697066735822122097917a631a4cc10cf1e7d23db02489bc7f61ae2baf6ce7bb62c7443fd74959de64736f6c634300080d0033",
  "immutableReferences": {},
  "source": "// SPDX-License-Identifier: GPL-3.0\n\npragma solidity >=0.7.0 <0.9.0;\n\n//import \"hardhat/console.sol\";\n\ncontract UserManager {\n    struct User {\n        uint id;\n        string username;\n        bytes32 passwordHash;\n    }\n\n    mapping(uint => User) public users;\n    mapping(string => uint) public usernameToUserId;\n    uint public userCount;\n\n    function registerUser(\n        string memory _username,\n        bytes32 _passwordHash\n    ) public {\n        require(usernameToUserId[_username] == 0, \"Username already exists.\");\n        User memory user = User(userCount + 1, _username, _passwordHash);\n        users[user.id] = user;\n        usernameToUserId[_username] = user.id;\n        userCount++;\n    }\n\n    function authenticateUser(\n        string memory _username,\n        bytes32 _passwordHash\n    ) public view returns (bool) {\n        uint userId = usernameToUserId[_username];\n        if (userId == 0) {\n            return false;\n        }\n        return users[userId].passwordHash == _passwordHash;\n    }\n\n    function getUser(uint _id) public view returns (User memory) {\n        return users[_id];\n    }\n}\n",
  "sourcePath": "/Users/lisapolena/Documents/Master_04/Thesis/Prototyp/betterPinterest/src/contracts/userManager.sol",
  "compiler": {
    "name": "solc",
    "version": "0.8.13+commit.abaa5c0e.Emscripten.clang"
  },
  "schemaVersion": "3.4.14",
  "updatedAt": "2023-05-26T10:30:27.286Z",
  "devdoc": {
    "kind": "dev",
    "methods": {},
    "version": 1
  },
  "userdoc": {
    "kind": "user",
    "methods": {},
    "version": 1
  }
}