{
  "contractName": "UserManager",
  "abi": [
    {
      "anonymous": false,
      "inputs": [
        {
          "indexed": false,
          "internalType": "uint256",
          "name": "id",
          "type": "uint256"
        },
        {
          "indexed": false,
          "internalType": "address",
          "name": "userAddress",
          "type": "address"
        }
      ],
      "name": "UserCreated",
      "type": "event"
    },
    {
      "anonymous": false,
      "inputs": [
        {
          "indexed": false,
          "internalType": "uint256",
          "name": "id",
          "type": "uint256"
        },
        {
          "indexed": false,
          "internalType": "address",
          "name": "userAddress",
          "type": "address"
        }
      ],
      "name": "UserDeleted",
      "type": "event"
    },
    {
      "anonymous": false,
      "inputs": [
        {
          "indexed": false,
          "internalType": "uint256",
          "name": "id",
          "type": "uint256"
        },
        {
          "indexed": false,
          "internalType": "address",
          "name": "userAddress",
          "type": "address"
        }
      ],
      "name": "UserEdited",
      "type": "event"
    },
    {
      "anonymous": false,
      "inputs": [
        {
          "indexed": false,
          "internalType": "uint256",
          "name": "follower",
          "type": "uint256"
        },
        {
          "indexed": false,
          "internalType": "uint256",
          "name": "followee",
          "type": "uint256"
        }
      ],
      "name": "UserFollowed",
      "type": "event"
    },
    {
      "anonymous": false,
      "inputs": [
        {
          "indexed": false,
          "internalType": "uint256",
          "name": "follower",
          "type": "uint256"
        },
        {
          "indexed": false,
          "internalType": "uint256",
          "name": "followee",
          "type": "uint256"
        }
      ],
      "name": "UserUnfollowed",
      "type": "event"
    },
    {
      "inputs": [],
      "name": "userCount",
      "outputs": [
        {
          "internalType": "uint256",
          "name": "",
          "type": "uint256"
        }
      ],
      "stateMutability": "view",
      "type": "function",
      "constant": true
    },
    {
      "inputs": [
        {
          "internalType": "uint256",
          "name": "",
          "type": "uint256"
        }
      ],
      "name": "users",
      "outputs": [
        {
          "internalType": "uint256",
          "name": "id",
          "type": "uint256"
        },
        {
          "internalType": "address",
          "name": "userAddress",
          "type": "address"
        },
        {
          "internalType": "string",
          "name": "name",
          "type": "string"
        },
        {
          "internalType": "string",
          "name": "username",
          "type": "string"
        },
        {
          "internalType": "string",
          "name": "profileImageHash",
          "type": "string"
        },
        {
          "internalType": "string",
          "name": "bio",
          "type": "string"
        }
      ],
      "stateMutability": "view",
      "type": "function",
      "constant": true
    },
    {
      "inputs": [
        {
          "internalType": "address",
          "name": "userAddress",
          "type": "address"
        }
      ],
      "name": "createUser",
      "outputs": [
        {
          "components": [
            {
              "internalType": "uint256",
              "name": "id",
              "type": "uint256"
            },
            {
              "internalType": "address",
              "name": "userAddress",
              "type": "address"
            },
            {
              "internalType": "string",
              "name": "name",
              "type": "string"
            },
            {
              "internalType": "string",
              "name": "username",
              "type": "string"
            },
            {
              "internalType": "string",
              "name": "profileImageHash",
              "type": "string"
            },
            {
              "internalType": "string",
              "name": "bio",
              "type": "string"
            },
            {
              "internalType": "uint256[]",
              "name": "following",
              "type": "uint256[]"
            },
            {
              "internalType": "uint256[]",
              "name": "followers",
              "type": "uint256[]"
            }
          ],
          "internalType": "struct User",
          "name": "",
          "type": "tuple"
        }
      ],
      "stateMutability": "nonpayable",
      "type": "function"
    },
    {
      "inputs": [
        {
          "internalType": "uint256",
          "name": "id",
          "type": "uint256"
        }
      ],
      "name": "getUserById",
      "outputs": [
        {
          "components": [
            {
              "internalType": "uint256",
              "name": "id",
              "type": "uint256"
            },
            {
              "internalType": "address",
              "name": "userAddress",
              "type": "address"
            },
            {
              "internalType": "string",
              "name": "name",
              "type": "string"
            },
            {
              "internalType": "string",
              "name": "username",
              "type": "string"
            },
            {
              "internalType": "string",
              "name": "profileImageHash",
              "type": "string"
            },
            {
              "internalType": "string",
              "name": "bio",
              "type": "string"
            },
            {
              "internalType": "uint256[]",
              "name": "following",
              "type": "uint256[]"
            },
            {
              "internalType": "uint256[]",
              "name": "followers",
              "type": "uint256[]"
            }
          ],
          "internalType": "struct User",
          "name": "",
          "type": "tuple"
        }
      ],
      "stateMutability": "view",
      "type": "function",
      "constant": true
    },
    {
      "inputs": [
        {
          "internalType": "address",
          "name": "userAddress",
          "type": "address"
        }
      ],
      "name": "getUserByAddress",
      "outputs": [
        {
          "components": [
            {
              "internalType": "uint256",
              "name": "id",
              "type": "uint256"
            },
            {
              "internalType": "address",
              "name": "userAddress",
              "type": "address"
            },
            {
              "internalType": "string",
              "name": "name",
              "type": "string"
            },
            {
              "internalType": "string",
              "name": "username",
              "type": "string"
            },
            {
              "internalType": "string",
              "name": "profileImageHash",
              "type": "string"
            },
            {
              "internalType": "string",
              "name": "bio",
              "type": "string"
            },
            {
              "internalType": "uint256[]",
              "name": "following",
              "type": "uint256[]"
            },
            {
              "internalType": "uint256[]",
              "name": "followers",
              "type": "uint256[]"
            }
          ],
          "internalType": "struct User",
          "name": "",
          "type": "tuple"
        }
      ],
      "stateMutability": "view",
      "type": "function",
      "constant": true
    },
    {
      "inputs": [
        {
          "internalType": "uint256",
          "name": "id",
          "type": "uint256"
        }
      ],
      "name": "deleteUser",
      "outputs": [],
      "stateMutability": "nonpayable",
      "type": "function"
    },
    {
      "inputs": [],
      "name": "getAllUsers",
      "outputs": [
        {
          "components": [
            {
              "internalType": "uint256",
              "name": "id",
              "type": "uint256"
            },
            {
              "internalType": "address",
              "name": "userAddress",
              "type": "address"
            },
            {
              "internalType": "string",
              "name": "name",
              "type": "string"
            },
            {
              "internalType": "string",
              "name": "username",
              "type": "string"
            },
            {
              "internalType": "string",
              "name": "profileImageHash",
              "type": "string"
            },
            {
              "internalType": "string",
              "name": "bio",
              "type": "string"
            },
            {
              "internalType": "uint256[]",
              "name": "following",
              "type": "uint256[]"
            },
            {
              "internalType": "uint256[]",
              "name": "followers",
              "type": "uint256[]"
            }
          ],
          "internalType": "struct User[]",
          "name": "",
          "type": "tuple[]"
        }
      ],
      "stateMutability": "view",
      "type": "function",
      "constant": true
    },
    {
      "inputs": [
        {
          "internalType": "uint256",
          "name": "id",
          "type": "uint256"
        },
        {
          "internalType": "string",
          "name": "name",
          "type": "string"
        },
        {
          "internalType": "string",
          "name": "username",
          "type": "string"
        },
        {
          "internalType": "string",
          "name": "profileImageHash",
          "type": "string"
        },
        {
          "internalType": "string",
          "name": "bio",
          "type": "string"
        }
      ],
      "name": "editUser",
      "outputs": [],
      "stateMutability": "nonpayable",
      "type": "function"
    },
    {
      "inputs": [
        {
          "internalType": "uint256",
          "name": "followerId",
          "type": "uint256"
        },
        {
          "internalType": "uint256",
          "name": "followeeId",
          "type": "uint256"
        }
      ],
      "name": "followUser",
      "outputs": [],
      "stateMutability": "nonpayable",
      "type": "function"
    },
    {
      "inputs": [
        {
          "internalType": "uint256",
          "name": "followerId",
          "type": "uint256"
        },
        {
          "internalType": "uint256",
          "name": "followeeId",
          "type": "uint256"
        }
      ],
      "name": "unfollowUser",
      "outputs": [],
      "stateMutability": "nonpayable",
      "type": "function"
    }
  ],
  "bytecode": "0x608060405234801561001057600080fd5b506130ff806100206000396000f3fe608060405234801561001057600080fd5b506004361061009e5760003560e01c80638d1b0dbe116100665780638d1b0dbe14610172578063ccc8ef951461018e578063cdd87618146101aa578063e22ebfbc146101da578063e2842d79146101f65761009e565b806307973ccf146100a3578063365b98b2146100c157806338f14845146100f657806369c212f6146101125780636ed6da9e14610142575b600080fd5b6100ab610214565b6040516100b8919061234d565b60405180910390f35b6100db60048036038101906100d691906123a8565b61021a565b6040516100ed969594939291906124af565b60405180910390f35b610110600480360381019061010b91906123a8565b610496565b005b61012c60048036038101906101279190612558565b6106f2565b604051610139919061276f565b60405180910390f35b61015c600480360381019061015791906123a8565b610b44565b604051610169919061276f565b60405180910390f35b61018c600480360381019061018791906128c6565b610ec9565b005b6101a860048036038101906101a391906129b1565b6110ef565b005b6101c460048036038101906101bf9190612558565b6114ed565b6040516101d1919061276f565b60405180910390f35b6101f460048036038101906101ef91906129b1565b611a44565b005b6101fe611cf0565b60405161020b9190612b86565b60405180910390f35b60015481565b60006020528060005260406000206000915090508060000154908060010160009054906101000a900473ffffffffffffffffffffffffffffffffffffffff169080600201805461026990612bd7565b80601f016020809104026020016040519081016040528092919081815260200182805461029590612bd7565b80156102e25780601f106102b7576101008083540402835291602001916102e2565b820191906000526020600020905b8154815290600101906020018083116102c557829003601f168201915b5050505050908060030180546102f790612bd7565b80601f016020809104026020016040519081016040528092919081815260200182805461032390612bd7565b80156103705780601f1061034557610100808354040283529160200191610370565b820191906000526020600020905b81548152906001019060200180831161035357829003601f168201915b50505050509080600401805461038590612bd7565b80601f01602080910402602001604051908101604052809291908181526020018280546103b190612bd7565b80156103fe5780601f106103d3576101008083540402835291602001916103fe565b820191906000526020600020905b8154815290600101906020018083116103e157829003601f168201915b50505050509080600501805461041390612bd7565b80601f016020809104026020016040519081016040528092919081815260200182805461043f90612bd7565b801561048c5780601f106104615761010080835404028352916020019161048c565b820191906000526020600020905b81548152906001019060200180831161046f57829003601f168201915b5050505050905086565b600073ffffffffffffffffffffffffffffffffffffffff1660008083815260200190815260200160002060010160009054906101000a900473ffffffffffffffffffffffffffffffffffffffff1673ffffffffffffffffffffffffffffffffffffffff160361053a576040517f08c379a000000000000000000000000000000000000000000000000000000000815260040161053190612c54565b60405180910390fd5b60008082815260200190815260200160002060010160009054906101000a900473ffffffffffffffffffffffffffffffffffffffff1673ffffffffffffffffffffffffffffffffffffffff163373ffffffffffffffffffffffffffffffffffffffff16146105dd576040517f08c379a00000000000000000000000000000000000000000000000000000000081526004016105d490612ce6565b60405180910390fd5b6000808281526020019081526020016000206000808201600090556001820160006101000a81549073ffffffffffffffffffffffffffffffffffffffff021916905560028201600061062f9190612188565b60038201600061063f9190612188565b60048201600061064f9190612188565b60058201600061065f9190612188565b60068201600061066f91906121c8565b60078201600061067f91906121c8565b50507fd9c9eba630c5551d8a23cca3a0a6f0b502da672e36c547bf68e4047b8ca886b28160008084815260200190815260200160002060010160009054906101000a900473ffffffffffffffffffffffffffffffffffffffff166040516106e7929190612d06565b60405180910390a150565b6106fa6121e9565b6000600190505b6001548111610b03578273ffffffffffffffffffffffffffffffffffffffff1660008083815260200190815260200160002060010160009054906101000a900473ffffffffffffffffffffffffffffffffffffffff1673ffffffffffffffffffffffffffffffffffffffff1603610af05760008082815260200190815260200160002060405180610100016040529081600082015481526020016001820160009054906101000a900473ffffffffffffffffffffffffffffffffffffffff1673ffffffffffffffffffffffffffffffffffffffff1673ffffffffffffffffffffffffffffffffffffffff16815260200160028201805461080090612bd7565b80601f016020809104026020016040519081016040528092919081815260200182805461082c90612bd7565b80156108795780601f1061084e57610100808354040283529160200191610879565b820191906000526020600020905b81548152906001019060200180831161085c57829003601f168201915b5050505050815260200160038201805461089290612bd7565b80601f01602080910402602001604051908101604052809291908181526020018280546108be90612bd7565b801561090b5780601f106108e05761010080835404028352916020019161090b565b820191906000526020600020905b8154815290600101906020018083116108ee57829003601f168201915b5050505050815260200160048201805461092490612bd7565b80601f016020809104026020016040519081016040528092919081815260200182805461095090612bd7565b801561099d5780601f106109725761010080835404028352916020019161099d565b820191906000526020600020905b81548152906001019060200180831161098057829003601f168201915b505050505081526020016005820180546109b690612bd7565b80601f01602080910402602001604051908101604052809291908181526020018280546109e290612bd7565b8015610a2f5780601f10610a0457610100808354040283529160200191610a2f565b820191906000526020600020905b815481529060010190602001808311610a1257829003601f168201915b5050505050815260200160068201805480602002602001604051908101604052809291908181526020018280548015610a8757602002820191906000526020600020905b815481526020019060010190808311610a73575b5050505050815260200160078201805480602002602001604051908101604052809291908181526020018280548015610adf57602002820191906000526020600020905b815481526020019060010190808311610acb575b505050505081525050915050610b3f565b8080610afb90612d5e565b915050610701565b506040517f08c379a0000000000000000000000000000000000000000000000000000000008152600401610b3690612df2565b60405180910390fd5b919050565b610b4c6121e9565b60008083815260200190815260200160002060405180610100016040529081600082015481526020016001820160009054906101000a900473ffffffffffffffffffffffffffffffffffffffff1673ffffffffffffffffffffffffffffffffffffffff1673ffffffffffffffffffffffffffffffffffffffff168152602001600282018054610bda90612bd7565b80601f0160208091040260200160405190810160405280929190818152602001828054610c0690612bd7565b8015610c535780601f10610c2857610100808354040283529160200191610c53565b820191906000526020600020905b815481529060010190602001808311610c3657829003601f168201915b50505050508152602001600382018054610c6c90612bd7565b80601f0160208091040260200160405190810160405280929190818152602001828054610c9890612bd7565b8015610ce55780601f10610cba57610100808354040283529160200191610ce5565b820191906000526020600020905b815481529060010190602001808311610cc857829003601f168201915b50505050508152602001600482018054610cfe90612bd7565b80601f0160208091040260200160405190810160405280929190818152602001828054610d2a90612bd7565b8015610d775780601f10610d4c57610100808354040283529160200191610d77565b820191906000526020600020905b815481529060010190602001808311610d5a57829003601f168201915b50505050508152602001600582018054610d9090612bd7565b80601f0160208091040260200160405190810160405280929190818152602001828054610dbc90612bd7565b8015610e095780601f10610dde57610100808354040283529160200191610e09565b820191906000526020600020905b815481529060010190602001808311610dec57829003601f168201915b5050505050815260200160068201805480602002602001604051908101604052809291908181526020018280548015610e6157602002820191906000526020600020905b815481526020019060010190808311610e4d575b5050505050815260200160078201805480602002602001604051908101604052809291908181526020018280548015610eb957602002820191906000526020600020905b815481526020019060010190808311610ea5575b5050505050815250509050919050565b600073ffffffffffffffffffffffffffffffffffffffff1660008087815260200190815260200160002060010160009054906101000a900473ffffffffffffffffffffffffffffffffffffffff1673ffffffffffffffffffffffffffffffffffffffff1603610f6d576040517f08c379a0000000000000000000000000000000000000000000000000000000008152600401610f6490612c54565b60405180910390fd5b60008086815260200190815260200160002060010160009054906101000a900473ffffffffffffffffffffffffffffffffffffffff1673ffffffffffffffffffffffffffffffffffffffff163373ffffffffffffffffffffffffffffffffffffffff1614611010576040517f08c379a000000000000000000000000000000000000000000000000000000000815260040161100790612e84565b60405180910390fd5b600080600087815260200190815260200160002090508481600201908051906020019061103e929190612244565b5083816003019080519060200190611057929190612244565b5082816004019080519060200190611070929190612244565b5081816005019080519060200190611089929190612244565b507fdae01363ea070d2c4a01f66c6d8281f27a69c8c6c8e4c74fd25e121ecb969734868260010160009054906101000a900473ffffffffffffffffffffffffffffffffffffffff166040516110df929190612d06565b60405180910390a1505050505050565b60008083815260200190815260200160002060010160009054906101000a900473ffffffffffffffffffffffffffffffffffffffff1673ffffffffffffffffffffffffffffffffffffffff163373ffffffffffffffffffffffffffffffffffffffff1614611192576040517f08c379a000000000000000000000000000000000000000000000000000000000815260040161118990612f16565b60405180910390fd5b600073ffffffffffffffffffffffffffffffffffffffff1660008084815260200190815260200160002060010160009054906101000a900473ffffffffffffffffffffffffffffffffffffffff1673ffffffffffffffffffffffffffffffffffffffff1603611236576040517f08c379a000000000000000000000000000000000000000000000000000000000815260040161122d90612f82565b60405180910390fd5b600073ffffffffffffffffffffffffffffffffffffffff1660008083815260200190815260200160002060010160009054906101000a900473ffffffffffffffffffffffffffffffffffffffff1673ffffffffffffffffffffffffffffffffffffffff16036112da576040517f08c379a00000000000000000000000000000000000000000000000000000000081526004016112d190612fee565b60405180910390fd5b600080600084815260200190815260200160002090506000806000848152602001908152602001600020905060005b81600701805490508110156113d9578482600701828154811061132f5761132e61300e565b5b9060005260206000200154036113c6578160070160018360070180549050611357919061303d565b815481106113685761136761300e565b5b90600052602060002001548260070182815481106113895761138861300e565b5b9060005260206000200181905550816007018054806113ab576113aa613071565b5b600190038181906000526020600020016000905590556113d9565b80806113d190612d5e565b915050611309565b5060005b82600601805490508110156114ad57848360060182815481106114035761140261300e565b5b90600052602060002001540361149a57826006016001846006018054905061142b919061303d565b8154811061143c5761143b61300e565b5b906000526020600020015483600601828154811061145d5761145c61300e565b5b90600052602060002001819055508260060180548061147f5761147e613071565b5b600190038181906000526020600020016000905590556114ad565b80806114a590612d5e565b9150506113dd565b507f6f731e2c772b126b7cbb4e1c14318444c3427c1a28ad4e5c33837ad21604a7d484846040516114df9291906130a0565b60405180910390a150505050565b6114f56121e9565b6001600081548092919061150890612d5e565b9190505550606080606080606080600060405180610100016040528060015481526020018a73ffffffffffffffffffffffffffffffffffffffff1681526020018881526020018781526020018681526020018581526020018481526020018381525090508060008060015481526020019081526020016000206000820151816000015560208201518160010160006101000a81548173ffffffffffffffffffffffffffffffffffffffff021916908373ffffffffffffffffffffffffffffffffffffffff16021790555060408201518160020190805190602001906115ee929190612244565b50606082015181600301908051906020019061160b929190612244565b506080820151816004019080519060200190611628929190612244565b5060a0820151816005019080519060200190611645929190612244565b5060c08201518160060190805190602001906116629291906122ca565b5060e082015181600701908051906020019061167f9291906122ca565b509050507f05e27763dc2a41c9d42662779d6635b845405e7805e1d21d03fa46b190aaf0bf6001548a6040516116b6929190612d06565b60405180910390a1600080600154815260200190815260200160002060405180610100016040529081600082015481526020016001820160009054906101000a900473ffffffffffffffffffffffffffffffffffffffff1673ffffffffffffffffffffffffffffffffffffffff1673ffffffffffffffffffffffffffffffffffffffff16815260200160028201805461174e90612bd7565b80601f016020809104026020016040519081016040528092919081815260200182805461177a90612bd7565b80156117c75780601f1061179c576101008083540402835291602001916117c7565b820191906000526020600020905b8154815290600101906020018083116117aa57829003601f168201915b505050505081526020016003820180546117e090612bd7565b80601f016020809104026020016040519081016040528092919081815260200182805461180c90612bd7565b80156118595780601f1061182e57610100808354040283529160200191611859565b820191906000526020600020905b81548152906001019060200180831161183c57829003601f168201915b5050505050815260200160048201805461187290612bd7565b80601f016020809104026020016040519081016040528092919081815260200182805461189e90612bd7565b80156118eb5780601f106118c0576101008083540402835291602001916118eb565b820191906000526020600020905b8154815290600101906020018083116118ce57829003601f168201915b5050505050815260200160058201805461190490612bd7565b80601f016020809104026020016040519081016040528092919081815260200182805461193090612bd7565b801561197d5780601f106119525761010080835404028352916020019161197d565b820191906000526020600020905b81548152906001019060200180831161196057829003601f168201915b50505050508152602001600682018054806020026020016040519081016040528092919081815260200182805480156119d557602002820191906000526020600020905b8154815260200190600101908083116119c1575b5050505050815260200160078201805480602002602001604051908101604052809291908181526020018280548015611a2d57602002820191906000526020600020905b815481526020019060010190808311611a19575b505050505081525050975050505050505050919050565b60008083815260200190815260200160002060010160009054906101000a900473ffffffffffffffffffffffffffffffffffffffff1673ffffffffffffffffffffffffffffffffffffffff163373ffffffffffffffffffffffffffffffffffffffff1614611ae7576040517f08c379a0000000000000000000000000000000000000000000000000000000008152600401611ade90612f16565b60405180910390fd5b600073ffffffffffffffffffffffffffffffffffffffff1660008084815260200190815260200160002060010160009054906101000a900473ffffffffffffffffffffffffffffffffffffffff1673ffffffffffffffffffffffffffffffffffffffff1603611b8b576040517f08c379a0000000000000000000000000000000000000000000000000000000008152600401611b8290612f82565b60405180910390fd5b600073ffffffffffffffffffffffffffffffffffffffff1660008083815260200190815260200160002060010160009054906101000a900473ffffffffffffffffffffffffffffffffffffffff1673ffffffffffffffffffffffffffffffffffffffff1603611c2f576040517f08c379a0000000000000000000000000000000000000000000000000000000008152600401611c2690612fee565b60405180910390fd5b600080600084815260200190815260200160002090506000806000848152602001908152602001600020905081600601839080600181540180825580915050600190039060005260206000200160009091909190915055806007018490806001815401808255809150506001900390600052602060002001600090919091909150557f43b2057f07927f9e4d47a766df695335ba99f463c255b0f3a480b408154203848484604051611ce29291906130a0565b60405180910390a150505050565b6060600060015467ffffffffffffffff811115611d1057611d0f61279b565b5b604051908082528060200260200182016040528015611d4957816020015b611d366121e9565b815260200190600190039081611d2e5790505b509050600080600190505b600154811161217c57600073ffffffffffffffffffffffffffffffffffffffff1660008083815260200190815260200160002060010160009054906101000a900473ffffffffffffffffffffffffffffffffffffffff1673ffffffffffffffffffffffffffffffffffffffff16146121695760008082815260200190815260200160002060405180610100016040529081600082015481526020016001820160009054906101000a900473ffffffffffffffffffffffffffffffffffffffff1673ffffffffffffffffffffffffffffffffffffffff1673ffffffffffffffffffffffffffffffffffffffff168152602001600282018054611e5490612bd7565b80601f0160208091040260200160405190810160405280929190818152602001828054611e8090612bd7565b8015611ecd5780601f10611ea257610100808354040283529160200191611ecd565b820191906000526020600020905b815481529060010190602001808311611eb057829003601f168201915b50505050508152602001600382018054611ee690612bd7565b80601f0160208091040260200160405190810160405280929190818152602001828054611f1290612bd7565b8015611f5f5780601f10611f3457610100808354040283529160200191611f5f565b820191906000526020600020905b815481529060010190602001808311611f4257829003601f168201915b50505050508152602001600482018054611f7890612bd7565b80601f0160208091040260200160405190810160405280929190818152602001828054611fa490612bd7565b8015611ff15780601f10611fc657610100808354040283529160200191611ff1565b820191906000526020600020905b815481529060010190602001808311611fd457829003601f168201915b5050505050815260200160058201805461200a90612bd7565b80601f016020809104026020016040519081016040528092919081815260200182805461203690612bd7565b80156120835780601f1061205857610100808354040283529160200191612083565b820191906000526020600020905b81548152906001019060200180831161206657829003601f168201915b50505050508152602001600682018054806020026020016040519081016040528092919081815260200182805480156120db57602002820191906000526020600020905b8154815260200190600101908083116120c7575b505050505081526020016007820180548060200260200160405190810160405280929190818152602001828054801561213357602002820191906000526020600020905b81548152602001906001019080831161211f575b50505050508152505083838151811061214f5761214e61300e565b5b6020026020010181905250818061216590612d5e565b9250505b808061217490612d5e565b915050611d54565b50808252819250505090565b50805461219490612bd7565b6000825580601f106121a657506121c5565b601f0160209004906000526020600020908101906121c49190612317565b5b50565b50805460008255906000526020600020908101906121e69190612317565b50565b60405180610100016040528060008152602001600073ffffffffffffffffffffffffffffffffffffffff1681526020016060815260200160608152602001606081526020016060815260200160608152602001606081525090565b82805461225090612bd7565b90600052602060002090601f01602090048101928261227257600085556122b9565b82601f1061228b57805160ff19168380011785556122b9565b828001600101855582156122b9579182015b828111156122b857825182559160200191906001019061229d565b5b5090506122c69190612317565b5090565b828054828255906000526020600020908101928215612306579160200282015b828111156123055782518255916020019190600101906122ea565b5b5090506123139190612317565b5090565b5b80821115612330576000816000905550600101612318565b5090565b6000819050919050565b61234781612334565b82525050565b6000602082019050612362600083018461233e565b92915050565b6000604051905090565b600080fd5b600080fd5b61238581612334565b811461239057600080fd5b50565b6000813590506123a28161237c565b92915050565b6000602082840312156123be576123bd612372565b5b60006123cc84828501612393565b91505092915050565b600073ffffffffffffffffffffffffffffffffffffffff82169050919050565b6000612400826123d5565b9050919050565b612410816123f5565b82525050565b600081519050919050565b600082825260208201905092915050565b60005b83811015612450578082015181840152602081019050612435565b8381111561245f576000848401525b50505050565b6000601f19601f8301169050919050565b600061248182612416565b61248b8185612421565b935061249b818560208601612432565b6124a481612465565b840191505092915050565b600060c0820190506124c4600083018961233e565b6124d16020830188612407565b81810360408301526124e38187612476565b905081810360608301526124f78186612476565b9050818103608083015261250b8185612476565b905081810360a083015261251f8184612476565b9050979650505050505050565b612535816123f5565b811461254057600080fd5b50565b6000813590506125528161252c565b92915050565b60006020828403121561256e5761256d612372565b5b600061257c84828501612543565b91505092915050565b61258e81612334565b82525050565b61259d816123f5565b82525050565b600082825260208201905092915050565b60006125bf82612416565b6125c981856125a3565b93506125d9818560208601612432565b6125e281612465565b840191505092915050565b600081519050919050565b600082825260208201905092915050565b6000819050602082019050919050565b60006126258383612585565b60208301905092915050565b6000602082019050919050565b6000612649826125ed565b61265381856125f8565b935061265e83612609565b8060005b8381101561268f5781516126768882612619565b975061268183612631565b925050600181019050612662565b5085935050505092915050565b6000610100830160008301516126b56000860182612585565b5060208301516126c86020860182612594565b50604083015184820360408601526126e082826125b4565b915050606083015184820360608601526126fa82826125b4565b9150506080830151848203608086015261271482826125b4565b91505060a083015184820360a086015261272e82826125b4565b91505060c083015184820360c0860152612748828261263e565b91505060e083015184820360e0860152612762828261263e565b9150508091505092915050565b60006020820190508181036000830152612789818461269c565b905092915050565b600080fd5b600080fd5b7f4e487b7100000000000000000000000000000000000000000000000000000000600052604160045260246000fd5b6127d382612465565b810181811067ffffffffffffffff821117156127f2576127f161279b565b5b80604052505050565b6000612805612368565b905061281182826127ca565b919050565b600067ffffffffffffffff8211156128315761283061279b565b5b61283a82612465565b9050602081019050919050565b82818337600083830152505050565b600061286961286484612816565b6127fb565b90508281526020810184848401111561288557612884612796565b5b612890848285612847565b509392505050565b600082601f8301126128ad576128ac612791565b5b81356128bd848260208601612856565b91505092915050565b600080600080600060a086880312156128e2576128e1612372565b5b60006128f088828901612393565b955050602086013567ffffffffffffffff81111561291157612910612377565b5b61291d88828901612898565b945050604086013567ffffffffffffffff81111561293e5761293d612377565b5b61294a88828901612898565b935050606086013567ffffffffffffffff81111561296b5761296a612377565b5b61297788828901612898565b925050608086013567ffffffffffffffff81111561299857612997612377565b5b6129a488828901612898565b9150509295509295909350565b600080604083850312156129c8576129c7612372565b5b60006129d685828601612393565b92505060206129e785828601612393565b9150509250929050565b600081519050919050565b600082825260208201905092915050565b6000819050602082019050919050565b600061010083016000830151612a366000860182612585565b506020830151612a496020860182612594565b5060408301518482036040860152612a6182826125b4565b91505060608301518482036060860152612a7b82826125b4565b91505060808301518482036080860152612a9582826125b4565b91505060a083015184820360a0860152612aaf82826125b4565b91505060c083015184820360c0860152612ac9828261263e565b91505060e083015184820360e0860152612ae3828261263e565b9150508091505092915050565b6000612afc8383612a1d565b905092915050565b6000602082019050919050565b6000612b1c826129f1565b612b2681856129fc565b935083602082028501612b3885612a0d565b8060005b85811015612b745784840389528151612b558582612af0565b9450612b6083612b04565b925060208a01995050600181019050612b3c565b50829750879550505050505092915050565b60006020820190508181036000830152612ba08184612b11565b905092915050565b7f4e487b7100000000000000000000000000000000000000000000000000000000600052602260045260246000fd5b60006002820490506001821680612bef57607f821691505b602082108103612c0257612c01612ba8565b5b50919050565b7f5573657220646f6573206e6f7420657869737400000000000000000000000000600082015250565b6000612c3e601383612421565b9150612c4982612c08565b602082019050919050565b60006020820190508181036000830152612c6d81612c31565b9050919050565b7f4f6e6c79207468652075736572206f776e65722063616e2064656c657465207460008201527f6865207573657200000000000000000000000000000000000000000000000000602082015250565b6000612cd0602783612421565b9150612cdb82612c74565b604082019050919050565b60006020820190508181036000830152612cff81612cc3565b9050919050565b6000604082019050612d1b600083018561233e565b612d286020830184612407565b9392505050565b7f4e487b7100000000000000000000000000000000000000000000000000000000600052601160045260246000fd5b6000612d6982612334565b91507fffffffffffffffffffffffffffffffffffffffffffffffffffffffffffffffff8203612d9b57612d9a612d2f565b5b600182019050919050565b7f55736572206e6f7420666f756e64000000000000000000000000000000000000600082015250565b6000612ddc600e83612421565b9150612de782612da6565b602082019050919050565b60006020820190508181036000830152612e0b81612dcf565b9050919050565b7f4f6e6c79207468652075736572206f776e65722063616e20656469742074686560008201527f2075736572000000000000000000000000000000000000000000000000000000602082015250565b6000612e6e602583612421565b9150612e7982612e12565b604082019050919050565b60006020820190508181036000830152612e9d81612e61565b9050919050565b7f4f6e6c79207468652075736572206f776e65722063616e20666f6c6c6f77206160008201527f2075736572000000000000000000000000000000000000000000000000000000602082015250565b6000612f00602583612421565b9150612f0b82612ea4565b604082019050919050565b60006020820190508181036000830152612f2f81612ef3565b9050919050565b7f466f6c6c6f77657220646f6573206e6f74206578697374000000000000000000600082015250565b6000612f6c601783612421565b9150612f7782612f36565b602082019050919050565b60006020820190508181036000830152612f9b81612f5f565b9050919050565b7f466f6c6c6f77656520646f6573206e6f74206578697374000000000000000000600082015250565b6000612fd8601783612421565b9150612fe382612fa2565b602082019050919050565b6000602082019050818103600083015261300781612fcb565b9050919050565b7f4e487b7100000000000000000000000000000000000000000000000000000000600052603260045260246000fd5b600061304882612334565b915061305383612334565b92508282101561306657613065612d2f565b5b828203905092915050565b7f4e487b7100000000000000000000000000000000000000000000000000000000600052603160045260246000fd5b60006040820190506130b5600083018561233e565b6130c2602083018461233e565b939250505056fea26469706673582212208ad591a61a0b5d839be39eef75e14dc3f8e8c57f7d60d72439656353832f618564736f6c634300080d0033",
  "immutableReferences": {},
  "source": "// SPDX-License-Identifier: GPL-3.0\n\npragma solidity >=0.7.0 <0.9.0;\n\nimport {User} from \"./common/types.sol\";\n\ncontract UserManager {\n    mapping(uint256 => User) public users; // Mapping to store user information by user address\n    uint public userCount; // Total number of users\n\n    event UserCreated(uint256 id, address userAddress); // Event emitted when a new user is created\n    event UserDeleted(uint256 id, address userAddress); // Event emitted when a user is deleted\n    event UserEdited(uint256 id, address userAddress); // Event emitted when a user is edited\n    event UserFollowed(uint256 follower, uint256 followee); // Event emitted when a user follows another user\n    event UserUnfollowed(uint256 follower, uint256 followee); // Event emitted when a user unfollows another user\n\n    /**\n     * @dev Create a new user\n     * @param userAddress Address of the user\n     * @return address Address of the created user\n     */\n    function createUser(address userAddress) public returns (User memory) {\n        userCount++;\n\n        // Initialize user properties\n        string memory name;\n        string memory username;\n        string memory profileImageHash;\n        string memory bio;\n        uint256[] memory following;\n        uint256[] memory followers;\n\n        // Create user object\n        User memory user = User(\n            userCount,\n            userAddress,\n            name,\n            username,\n            profileImageHash,\n            bio,\n            following,\n            followers\n        );\n\n        // Store user in the mapping\n        users[userCount] = user;\n\n        // Emit event for user creation\n        emit UserCreated(userCount, userAddress);\n\n        return users[userCount];\n    }\n\n    /**\n     * @dev Get user information by user id\n     * @param id Address of the user\n     * @return User struct containing user information\n     */\n    function getUserById(uint256 id) public view returns (User memory) {\n        return users[id];\n    }\n\n    /**\n     * @dev Get user information by user address\n     * @param userAddress Address of the user\n     * @return User struct containing user information\n     */\n    function getUserByAddress(\n        address userAddress\n    ) public view returns (User memory) {\n        for (uint256 i = 1; i <= userCount; i++) {\n            if (users[i].userAddress == userAddress) {\n                return users[i];\n            }\n        }\n        revert(\"User not found\");\n    }\n\n    /**\n     * @dev Delete a user\n     * @param id ID of the user to delete\n     */\n    function deleteUser(uint256 id) public {\n        require(users[id].userAddress != address(0), \"User does not exist\");\n        require(\n            msg.sender == users[id].userAddress,\n            \"Only the user owner can delete the user\"\n        );\n\n        // Remove user from the mapping\n        delete users[id];\n\n        // Emit event for user deletion\n        emit UserDeleted(id, users[id].userAddress);\n    }\n\n    /**\n     * @dev Get all users\n     * @return User[] Array containing all users\n     */\n    function getAllUsers() public view returns (User[] memory) {\n        User[] memory allUsers = new User[](userCount);\n        uint index = 0;\n\n        for (uint256 i = 1; i <= userCount; i++) {\n            if (users[i].userAddress != address(0)) {\n                allUsers[index] = users[i];\n                index++;\n            }\n        }\n\n        assembly {\n            mstore(allUsers, index)\n        }\n\n        return allUsers;\n    }\n\n    /**\n     * @dev Edit user information\n     * @param id ID of the user to edit\n     * @param name New name of the user\n     * @param username New username of the user\n     * @param profileImageHash New profile image hash of the user\n     * @param bio New bio of the user\n     */\n    function editUser(\n        uint256 id,\n        string memory name,\n        string memory username,\n        string memory profileImageHash,\n        string memory bio\n    ) public {\n        require(users[id].userAddress != address(0), \"User does not exist\");\n        require(\n            msg.sender == users[id].userAddress,\n            \"Only the user owner can edit the user\"\n        );\n\n        User storage user = users[id];\n        user.name = name;\n        user.username = username;\n        user.profileImageHash = profileImageHash;\n        user.bio = bio;\n\n        // Emit event for user edition\n        emit UserEdited(id, user.userAddress);\n    }\n\n    /**\n     * @dev Follow a user\n     * @param followerId ID of the user who wants to follow\n     * @param followeeId ID of the user to be followed\n     */\n    function followUser(uint256 followerId, uint256 followeeId) public {\n        require(\n            msg.sender == users[followerId].userAddress,\n            \"Only the user owner can follow a user\"\n        );\n        require(\n            users[followerId].userAddress != address(0),\n            \"Follower does not exist\"\n        );\n        require(\n            users[followeeId].userAddress != address(0),\n            \"Followee does not exist\"\n        );\n\n        User storage followerUser = users[followerId];\n        User storage followeeUser = users[followeeId];\n\n        followerUser.following.push(followeeId);\n        followeeUser.followers.push(followerId);\n\n        // Emit event for user following\n        emit UserFollowed(followerId, followeeId);\n    }\n\n    /**\n     * @dev Unfollow a user\n     * @param followerId ID of the user who wants to unfollow\n     * @param followeeId ID of the user to be unfollowed\n     */\n    function unfollowUser(uint256 followerId, uint256 followeeId) public {\n        require(\n            msg.sender == users[followerId].userAddress,\n            \"Only the user owner can follow a user\"\n        );\n        require(\n            users[followerId].userAddress != address(0),\n            \"Follower does not exist\"\n        );\n        require(\n            users[followeeId].userAddress != address(0),\n            \"Followee does not exist\"\n        );\n\n        User storage followerUser = users[followerId];\n        User storage followeeUser = users[followeeId];\n\n        for (uint i = 0; i < followeeUser.followers.length; i++) {\n            if (followeeUser.followers[i] == followerId) {\n                followeeUser.followers[i] = followeeUser.followers[\n                    followeeUser.followers.length - 1\n                ];\n                followeeUser.followers.pop();\n                break;\n            }\n        }\n\n        for (uint i = 0; i < followerUser.following.length; i++) {\n            if (followerUser.following[i] == followerId) {\n                followerUser.following[i] = followerUser.following[\n                    followerUser.following.length - 1\n                ];\n                followerUser.following.pop();\n                break;\n            }\n        }\n\n        // Emit event for user unfollowing\n        emit UserUnfollowed(followerId, followeeId);\n    }\n}\n",
  "sourcePath": "/Users/lisapolena/Documents/Master_04/Thesis/Prototyp/betterPinterest/src/contracts/userManager.sol",
  "compiler": {
    "name": "solc",
    "version": "0.8.13+commit.abaa5c0e.Emscripten.clang"
  },
  "schemaVersion": "3.4.14",
  "updatedAt": "2023-08-04T10:41:10.634Z",
  "networkType": "ethereum",
  "devdoc": {
    "kind": "dev",
    "methods": {
      "createUser(address)": {
        "details": "Create a new user",
        "params": {
          "userAddress": "Address of the user"
        },
        "returns": {
          "_0": "address Address of the created user"
        }
      },
      "deleteUser(uint256)": {
        "details": "Delete a user",
        "params": {
          "id": "ID of the user to delete"
        }
      },
      "editUser(uint256,string,string,string,string)": {
        "details": "Edit user information",
        "params": {
          "bio": "New bio of the user",
          "id": "ID of the user to edit",
          "name": "New name of the user",
          "profileImageHash": "New profile image hash of the user",
          "username": "New username of the user"
        }
      },
      "followUser(uint256,uint256)": {
        "details": "Follow a user",
        "params": {
          "followeeId": "ID of the user to be followed",
          "followerId": "ID of the user who wants to follow"
        }
      },
      "getAllUsers()": {
        "details": "Get all users",
        "returns": {
          "_0": "User[] Array containing all users"
        }
      },
      "getUserByAddress(address)": {
        "details": "Get user information by user address",
        "params": {
          "userAddress": "Address of the user"
        },
        "returns": {
          "_0": "User struct containing user information"
        }
      },
      "getUserById(uint256)": {
        "details": "Get user information by user id",
        "params": {
          "id": "Address of the user"
        },
        "returns": {
          "_0": "User struct containing user information"
        }
      },
      "unfollowUser(uint256,uint256)": {
        "details": "Unfollow a user",
        "params": {
          "followeeId": "ID of the user to be unfollowed",
          "followerId": "ID of the user who wants to unfollow"
        }
      }
    },
    "version": 1
  },
  "userdoc": {
    "kind": "user",
    "methods": {},
    "version": 1
  }
}