{
  "contractName": "UserManager",
  "abi": [
    {
      "anonymous": false,
      "inputs": [
        {
          "indexed": false,
          "internalType": "uint256",
          "name": "id",
          "type": "uint256"
        },
        {
          "indexed": false,
          "internalType": "address",
          "name": "userAddress",
          "type": "address"
        }
      ],
      "name": "UserCreated",
      "type": "event"
    },
    {
      "anonymous": false,
      "inputs": [
        {
          "indexed": false,
          "internalType": "uint256",
          "name": "id",
          "type": "uint256"
        },
        {
          "indexed": false,
          "internalType": "address",
          "name": "userAddress",
          "type": "address"
        }
      ],
      "name": "UserDeleted",
      "type": "event"
    },
    {
      "anonymous": false,
      "inputs": [
        {
          "indexed": false,
          "internalType": "uint256",
          "name": "id",
          "type": "uint256"
        },
        {
          "indexed": false,
          "internalType": "address",
          "name": "userAddress",
          "type": "address"
        }
      ],
      "name": "UserEdited",
      "type": "event"
    },
    {
      "anonymous": false,
      "inputs": [
        {
          "indexed": false,
          "internalType": "uint256",
          "name": "follower",
          "type": "uint256"
        },
        {
          "indexed": false,
          "internalType": "uint256",
          "name": "followee",
          "type": "uint256"
        }
      ],
      "name": "UserFollowed",
      "type": "event"
    },
    {
      "anonymous": false,
      "inputs": [
        {
          "indexed": false,
          "internalType": "uint256",
          "name": "follower",
          "type": "uint256"
        },
        {
          "indexed": false,
          "internalType": "uint256",
          "name": "followee",
          "type": "uint256"
        }
      ],
      "name": "UserUnfollowed",
      "type": "event"
    },
    {
      "inputs": [],
      "name": "userCount",
      "outputs": [
        {
          "internalType": "uint256",
          "name": "",
          "type": "uint256"
        }
      ],
      "stateMutability": "view",
      "type": "function"
    },
    {
      "inputs": [
        {
          "internalType": "uint256",
          "name": "",
          "type": "uint256"
        }
      ],
      "name": "users",
      "outputs": [
        {
          "internalType": "uint256",
          "name": "id",
          "type": "uint256"
        },
        {
          "internalType": "address",
          "name": "userAddress",
          "type": "address"
        },
        {
          "internalType": "string",
          "name": "name",
          "type": "string"
        },
        {
          "internalType": "string",
          "name": "username",
          "type": "string"
        },
        {
          "internalType": "string",
          "name": "profileImageHash",
          "type": "string"
        },
        {
          "internalType": "string",
          "name": "bio",
          "type": "string"
        }
      ],
      "stateMutability": "view",
      "type": "function"
    },
    {
      "inputs": [
        {
          "internalType": "address",
          "name": "userAddress",
          "type": "address"
        }
      ],
      "name": "createUser",
      "outputs": [
        {
          "components": [
            {
              "internalType": "uint256",
              "name": "id",
              "type": "uint256"
            },
            {
              "internalType": "address",
              "name": "userAddress",
              "type": "address"
            },
            {
              "internalType": "string",
              "name": "name",
              "type": "string"
            },
            {
              "internalType": "string",
              "name": "username",
              "type": "string"
            },
            {
              "internalType": "string",
              "name": "profileImageHash",
              "type": "string"
            },
            {
              "internalType": "string",
              "name": "bio",
              "type": "string"
            },
            {
              "internalType": "uint256[]",
              "name": "following",
              "type": "uint256[]"
            },
            {
              "internalType": "uint256[]",
              "name": "followers",
              "type": "uint256[]"
            }
          ],
          "internalType": "struct User",
          "name": "",
          "type": "tuple"
        }
      ],
      "stateMutability": "nonpayable",
      "type": "function"
    },
    {
      "inputs": [
        {
          "internalType": "uint256",
          "name": "id",
          "type": "uint256"
        }
      ],
      "name": "getUserById",
      "outputs": [
        {
          "components": [
            {
              "internalType": "uint256",
              "name": "id",
              "type": "uint256"
            },
            {
              "internalType": "address",
              "name": "userAddress",
              "type": "address"
            },
            {
              "internalType": "string",
              "name": "name",
              "type": "string"
            },
            {
              "internalType": "string",
              "name": "username",
              "type": "string"
            },
            {
              "internalType": "string",
              "name": "profileImageHash",
              "type": "string"
            },
            {
              "internalType": "string",
              "name": "bio",
              "type": "string"
            },
            {
              "internalType": "uint256[]",
              "name": "following",
              "type": "uint256[]"
            },
            {
              "internalType": "uint256[]",
              "name": "followers",
              "type": "uint256[]"
            }
          ],
          "internalType": "struct User",
          "name": "",
          "type": "tuple"
        }
      ],
      "stateMutability": "view",
      "type": "function"
    },
    {
      "inputs": [
        {
          "internalType": "address",
          "name": "userAddress",
          "type": "address"
        }
      ],
      "name": "getUserByAddress",
      "outputs": [
        {
          "components": [
            {
              "internalType": "uint256",
              "name": "id",
              "type": "uint256"
            },
            {
              "internalType": "address",
              "name": "userAddress",
              "type": "address"
            },
            {
              "internalType": "string",
              "name": "name",
              "type": "string"
            },
            {
              "internalType": "string",
              "name": "username",
              "type": "string"
            },
            {
              "internalType": "string",
              "name": "profileImageHash",
              "type": "string"
            },
            {
              "internalType": "string",
              "name": "bio",
              "type": "string"
            },
            {
              "internalType": "uint256[]",
              "name": "following",
              "type": "uint256[]"
            },
            {
              "internalType": "uint256[]",
              "name": "followers",
              "type": "uint256[]"
            }
          ],
          "internalType": "struct User",
          "name": "",
          "type": "tuple"
        }
      ],
      "stateMutability": "view",
      "type": "function"
    },
    {
      "inputs": [
        {
          "internalType": "uint256",
          "name": "id",
          "type": "uint256"
        }
      ],
      "name": "deleteUser",
      "outputs": [],
      "stateMutability": "nonpayable",
      "type": "function"
    },
    {
      "inputs": [],
      "name": "getAllUsers",
      "outputs": [
        {
          "components": [
            {
              "internalType": "uint256",
              "name": "id",
              "type": "uint256"
            },
            {
              "internalType": "address",
              "name": "userAddress",
              "type": "address"
            },
            {
              "internalType": "string",
              "name": "name",
              "type": "string"
            },
            {
              "internalType": "string",
              "name": "username",
              "type": "string"
            },
            {
              "internalType": "string",
              "name": "profileImageHash",
              "type": "string"
            },
            {
              "internalType": "string",
              "name": "bio",
              "type": "string"
            },
            {
              "internalType": "uint256[]",
              "name": "following",
              "type": "uint256[]"
            },
            {
              "internalType": "uint256[]",
              "name": "followers",
              "type": "uint256[]"
            }
          ],
          "internalType": "struct User[]",
          "name": "",
          "type": "tuple[]"
        }
      ],
      "stateMutability": "view",
      "type": "function"
    },
    {
      "inputs": [
        {
          "internalType": "uint256",
          "name": "id",
          "type": "uint256"
        },
        {
          "internalType": "string",
          "name": "name",
          "type": "string"
        },
        {
          "internalType": "string",
          "name": "username",
          "type": "string"
        },
        {
          "internalType": "string",
          "name": "profileImageHash",
          "type": "string"
        },
        {
          "internalType": "string",
          "name": "bio",
          "type": "string"
        }
      ],
      "name": "editUser",
      "outputs": [],
      "stateMutability": "nonpayable",
      "type": "function"
    },
    {
      "inputs": [
        {
          "internalType": "uint256",
          "name": "followerId",
          "type": "uint256"
        },
        {
          "internalType": "uint256",
          "name": "followeeId",
          "type": "uint256"
        }
      ],
      "name": "followUser",
      "outputs": [],
      "stateMutability": "nonpayable",
      "type": "function"
    },
    {
      "inputs": [
        {
          "internalType": "uint256",
          "name": "followerId",
          "type": "uint256"
        },
        {
          "internalType": "uint256",
          "name": "followeeId",
          "type": "uint256"
        }
      ],
      "name": "unfollowUser",
      "outputs": [],
      "stateMutability": "nonpayable",
      "type": "function"
    }
  ],
  "bytecode": "0x608060405234801561001057600080fd5b50612cbd806100206000396000f3fe608060405234801561001057600080fd5b506004361061009e5760003560e01c80638d1b0dbe116100665780638d1b0dbe14610172578063ccc8ef951461018e578063cdd87618146101aa578063e22ebfbc146101da578063e2842d79146101f65761009e565b806307973ccf146100a3578063365b98b2146100c157806338f14845146100f657806369c212f6146101125780636ed6da9e14610142575b600080fd5b6100ab610214565b6040516100b891906120c1565b60405180910390f35b6100db60048036038101906100d6919061211c565b61021a565b6040516100ed96959493929190612223565b60405180910390f35b610110600480360381019061010b919061211c565b610496565b005b61012c600480360381019061012791906122cc565b61064f565b60405161013991906124e3565b60405180910390f35b61015c6004803603810190610157919061211c565b610aa1565b60405161016991906124e3565b60405180910390f35b61018c6004803603810190610187919061263a565b610e26565b005b6101a860048036038101906101a39190612725565b610fa9565b005b6101c460048036038101906101bf91906122cc565b611304565b6040516101d191906124e3565b60405180910390f35b6101f460048036038101906101ef9190612725565b61185b565b005b6101fe611a64565b60405161020b91906128fa565b60405180910390f35b60015481565b60006020528060005260406000206000915090508060000154908060010160009054906101000a900473ffffffffffffffffffffffffffffffffffffffff16908060020180546102699061294b565b80601f01602080910402602001604051908101604052809291908181526020018280546102959061294b565b80156102e25780601f106102b7576101008083540402835291602001916102e2565b820191906000526020600020905b8154815290600101906020018083116102c557829003601f168201915b5050505050908060030180546102f79061294b565b80601f01602080910402602001604051908101604052809291908181526020018280546103239061294b565b80156103705780601f1061034557610100808354040283529160200191610370565b820191906000526020600020905b81548152906001019060200180831161035357829003601f168201915b5050505050908060040180546103859061294b565b80601f01602080910402602001604051908101604052809291908181526020018280546103b19061294b565b80156103fe5780601f106103d3576101008083540402835291602001916103fe565b820191906000526020600020905b8154815290600101906020018083116103e157829003601f168201915b5050505050908060050180546104139061294b565b80601f016020809104026020016040519081016040528092919081815260200182805461043f9061294b565b801561048c5780601f106104615761010080835404028352916020019161048c565b820191906000526020600020905b81548152906001019060200180831161046f57829003601f168201915b5050505050905086565b600073ffffffffffffffffffffffffffffffffffffffff1660008083815260200190815260200160002060010160009054906101000a900473ffffffffffffffffffffffffffffffffffffffff1673ffffffffffffffffffffffffffffffffffffffff160361053a576040517f08c379a0000000000000000000000000000000000000000000000000000000008152600401610531906129c8565b60405180910390fd5b6000808281526020019081526020016000206000808201600090556001820160006101000a81549073ffffffffffffffffffffffffffffffffffffffff021916905560028201600061058c9190611efc565b60038201600061059c9190611efc565b6004820160006105ac9190611efc565b6005820160006105bc9190611efc565b6006820160006105cc9190611f3c565b6007820160006105dc9190611f3c565b50507fd9c9eba630c5551d8a23cca3a0a6f0b502da672e36c547bf68e4047b8ca886b28160008084815260200190815260200160002060010160009054906101000a900473ffffffffffffffffffffffffffffffffffffffff166040516106449291906129e8565b60405180910390a150565b610657611f5d565b6000600190505b6001548111610a60578273ffffffffffffffffffffffffffffffffffffffff1660008083815260200190815260200160002060010160009054906101000a900473ffffffffffffffffffffffffffffffffffffffff1673ffffffffffffffffffffffffffffffffffffffff1603610a4d5760008082815260200190815260200160002060405180610100016040529081600082015481526020016001820160009054906101000a900473ffffffffffffffffffffffffffffffffffffffff1673ffffffffffffffffffffffffffffffffffffffff1673ffffffffffffffffffffffffffffffffffffffff16815260200160028201805461075d9061294b565b80601f01602080910402602001604051908101604052809291908181526020018280546107899061294b565b80156107d65780601f106107ab576101008083540402835291602001916107d6565b820191906000526020600020905b8154815290600101906020018083116107b957829003601f168201915b505050505081526020016003820180546107ef9061294b565b80601f016020809104026020016040519081016040528092919081815260200182805461081b9061294b565b80156108685780601f1061083d57610100808354040283529160200191610868565b820191906000526020600020905b81548152906001019060200180831161084b57829003601f168201915b505050505081526020016004820180546108819061294b565b80601f01602080910402602001604051908101604052809291908181526020018280546108ad9061294b565b80156108fa5780601f106108cf576101008083540402835291602001916108fa565b820191906000526020600020905b8154815290600101906020018083116108dd57829003601f168201915b505050505081526020016005820180546109139061294b565b80601f016020809104026020016040519081016040528092919081815260200182805461093f9061294b565b801561098c5780601f106109615761010080835404028352916020019161098c565b820191906000526020600020905b81548152906001019060200180831161096f57829003601f168201915b50505050508152602001600682018054806020026020016040519081016040528092919081815260200182805480156109e457602002820191906000526020600020905b8154815260200190600101908083116109d0575b5050505050815260200160078201805480602002602001604051908101604052809291908181526020018280548015610a3c57602002820191906000526020600020905b815481526020019060010190808311610a28575b505050505081525050915050610a9c565b8080610a5890612a40565b91505061065e565b506040517f08c379a0000000000000000000000000000000000000000000000000000000008152600401610a9390612ad4565b60405180910390fd5b919050565b610aa9611f5d565b60008083815260200190815260200160002060405180610100016040529081600082015481526020016001820160009054906101000a900473ffffffffffffffffffffffffffffffffffffffff1673ffffffffffffffffffffffffffffffffffffffff1673ffffffffffffffffffffffffffffffffffffffff168152602001600282018054610b379061294b565b80601f0160208091040260200160405190810160405280929190818152602001828054610b639061294b565b8015610bb05780601f10610b8557610100808354040283529160200191610bb0565b820191906000526020600020905b815481529060010190602001808311610b9357829003601f168201915b50505050508152602001600382018054610bc99061294b565b80601f0160208091040260200160405190810160405280929190818152602001828054610bf59061294b565b8015610c425780601f10610c1757610100808354040283529160200191610c42565b820191906000526020600020905b815481529060010190602001808311610c2557829003601f168201915b50505050508152602001600482018054610c5b9061294b565b80601f0160208091040260200160405190810160405280929190818152602001828054610c879061294b565b8015610cd45780601f10610ca957610100808354040283529160200191610cd4565b820191906000526020600020905b815481529060010190602001808311610cb757829003601f168201915b50505050508152602001600582018054610ced9061294b565b80601f0160208091040260200160405190810160405280929190818152602001828054610d199061294b565b8015610d665780601f10610d3b57610100808354040283529160200191610d66565b820191906000526020600020905b815481529060010190602001808311610d4957829003601f168201915b5050505050815260200160068201805480602002602001604051908101604052809291908181526020018280548015610dbe57602002820191906000526020600020905b815481526020019060010190808311610daa575b5050505050815260200160078201805480602002602001604051908101604052809291908181526020018280548015610e1657602002820191906000526020600020905b815481526020019060010190808311610e02575b5050505050815250509050919050565b600073ffffffffffffffffffffffffffffffffffffffff1660008087815260200190815260200160002060010160009054906101000a900473ffffffffffffffffffffffffffffffffffffffff1673ffffffffffffffffffffffffffffffffffffffff1603610eca576040517f08c379a0000000000000000000000000000000000000000000000000000000008152600401610ec1906129c8565b60405180910390fd5b6000806000878152602001908152602001600020905084816002019080519060200190610ef8929190611fb8565b5083816003019080519060200190610f11929190611fb8565b5082816004019080519060200190610f2a929190611fb8565b5081816005019080519060200190610f43929190611fb8565b507fdae01363ea070d2c4a01f66c6d8281f27a69c8c6c8e4c74fd25e121ecb969734868260010160009054906101000a900473ffffffffffffffffffffffffffffffffffffffff16604051610f999291906129e8565b60405180910390a1505050505050565b600073ffffffffffffffffffffffffffffffffffffffff1660008084815260200190815260200160002060010160009054906101000a900473ffffffffffffffffffffffffffffffffffffffff1673ffffffffffffffffffffffffffffffffffffffff160361104d576040517f08c379a000000000000000000000000000000000000000000000000000000000815260040161104490612b40565b60405180910390fd5b600073ffffffffffffffffffffffffffffffffffffffff1660008083815260200190815260200160002060010160009054906101000a900473ffffffffffffffffffffffffffffffffffffffff1673ffffffffffffffffffffffffffffffffffffffff16036110f1576040517f08c379a00000000000000000000000000000000000000000000000000000000081526004016110e890612bac565b60405180910390fd5b600080600084815260200190815260200160002090506000806000848152602001908152602001600020905060005b81600701805490508110156111f0578482600701828154811061114657611145612bcc565b5b9060005260206000200154036111dd57816007016001836007018054905061116e9190612bfb565b8154811061117f5761117e612bcc565b5b90600052602060002001548260070182815481106111a05761119f612bcc565b5b9060005260206000200181905550816007018054806111c2576111c1612c2f565b5b600190038181906000526020600020016000905590556111f0565b80806111e890612a40565b915050611120565b5060005b82600601805490508110156112c4578483600601828154811061121a57611219612bcc565b5b9060005260206000200154036112b15782600601600184600601805490506112429190612bfb565b8154811061125357611252612bcc565b5b906000526020600020015483600601828154811061127457611273612bcc565b5b90600052602060002001819055508260060180548061129657611295612c2f565b5b600190038181906000526020600020016000905590556112c4565b80806112bc90612a40565b9150506111f4565b507f6f731e2c772b126b7cbb4e1c14318444c3427c1a28ad4e5c33837ad21604a7d484846040516112f6929190612c5e565b60405180910390a150505050565b61130c611f5d565b6001600081548092919061131f90612a40565b9190505550606080606080606080600060405180610100016040528060015481526020018a73ffffffffffffffffffffffffffffffffffffffff1681526020018881526020018781526020018681526020018581526020018481526020018381525090508060008060015481526020019081526020016000206000820151816000015560208201518160010160006101000a81548173ffffffffffffffffffffffffffffffffffffffff021916908373ffffffffffffffffffffffffffffffffffffffff1602179055506040820151816002019080519060200190611405929190611fb8565b506060820151816003019080519060200190611422929190611fb8565b50608082015181600401908051906020019061143f929190611fb8565b5060a082015181600501908051906020019061145c929190611fb8565b5060c082015181600601908051906020019061147992919061203e565b5060e082015181600701908051906020019061149692919061203e565b509050507f05e27763dc2a41c9d42662779d6635b845405e7805e1d21d03fa46b190aaf0bf6001548a6040516114cd9291906129e8565b60405180910390a1600080600154815260200190815260200160002060405180610100016040529081600082015481526020016001820160009054906101000a900473ffffffffffffffffffffffffffffffffffffffff1673ffffffffffffffffffffffffffffffffffffffff1673ffffffffffffffffffffffffffffffffffffffff1681526020016002820180546115659061294b565b80601f01602080910402602001604051908101604052809291908181526020018280546115919061294b565b80156115de5780601f106115b3576101008083540402835291602001916115de565b820191906000526020600020905b8154815290600101906020018083116115c157829003601f168201915b505050505081526020016003820180546115f79061294b565b80601f01602080910402602001604051908101604052809291908181526020018280546116239061294b565b80156116705780601f1061164557610100808354040283529160200191611670565b820191906000526020600020905b81548152906001019060200180831161165357829003601f168201915b505050505081526020016004820180546116899061294b565b80601f01602080910402602001604051908101604052809291908181526020018280546116b59061294b565b80156117025780601f106116d757610100808354040283529160200191611702565b820191906000526020600020905b8154815290600101906020018083116116e557829003601f168201915b5050505050815260200160058201805461171b9061294b565b80601f01602080910402602001604051908101604052809291908181526020018280546117479061294b565b80156117945780601f1061176957610100808354040283529160200191611794565b820191906000526020600020905b81548152906001019060200180831161177757829003601f168201915b50505050508152602001600682018054806020026020016040519081016040528092919081815260200182805480156117ec57602002820191906000526020600020905b8154815260200190600101908083116117d8575b505050505081526020016007820180548060200260200160405190810160405280929190818152602001828054801561184457602002820191906000526020600020905b815481526020019060010190808311611830575b505050505081525050975050505050505050919050565b600073ffffffffffffffffffffffffffffffffffffffff1660008084815260200190815260200160002060010160009054906101000a900473ffffffffffffffffffffffffffffffffffffffff1673ffffffffffffffffffffffffffffffffffffffff16036118ff576040517f08c379a00000000000000000000000000000000000000000000000000000000081526004016118f690612b40565b60405180910390fd5b600073ffffffffffffffffffffffffffffffffffffffff1660008083815260200190815260200160002060010160009054906101000a900473ffffffffffffffffffffffffffffffffffffffff1673ffffffffffffffffffffffffffffffffffffffff16036119a3576040517f08c379a000000000000000000000000000000000000000000000000000000000815260040161199a90612bac565b60405180910390fd5b600080600084815260200190815260200160002090506000806000848152602001908152602001600020905081600601839080600181540180825580915050600190039060005260206000200160009091909190915055806007018490806001815401808255809150506001900390600052602060002001600090919091909150557f43b2057f07927f9e4d47a766df695335ba99f463c255b0f3a480b408154203848484604051611a56929190612c5e565b60405180910390a150505050565b6060600060015467ffffffffffffffff811115611a8457611a8361250f565b5b604051908082528060200260200182016040528015611abd57816020015b611aaa611f5d565b815260200190600190039081611aa25790505b509050600080600190505b6001548111611ef057600073ffffffffffffffffffffffffffffffffffffffff1660008083815260200190815260200160002060010160009054906101000a900473ffffffffffffffffffffffffffffffffffffffff1673ffffffffffffffffffffffffffffffffffffffff1614611edd5760008082815260200190815260200160002060405180610100016040529081600082015481526020016001820160009054906101000a900473ffffffffffffffffffffffffffffffffffffffff1673ffffffffffffffffffffffffffffffffffffffff1673ffffffffffffffffffffffffffffffffffffffff168152602001600282018054611bc89061294b565b80601f0160208091040260200160405190810160405280929190818152602001828054611bf49061294b565b8015611c415780601f10611c1657610100808354040283529160200191611c41565b820191906000526020600020905b815481529060010190602001808311611c2457829003601f168201915b50505050508152602001600382018054611c5a9061294b565b80601f0160208091040260200160405190810160405280929190818152602001828054611c869061294b565b8015611cd35780601f10611ca857610100808354040283529160200191611cd3565b820191906000526020600020905b815481529060010190602001808311611cb657829003601f168201915b50505050508152602001600482018054611cec9061294b565b80601f0160208091040260200160405190810160405280929190818152602001828054611d189061294b565b8015611d655780601f10611d3a57610100808354040283529160200191611d65565b820191906000526020600020905b815481529060010190602001808311611d4857829003601f168201915b50505050508152602001600582018054611d7e9061294b565b80601f0160208091040260200160405190810160405280929190818152602001828054611daa9061294b565b8015611df75780601f10611dcc57610100808354040283529160200191611df7565b820191906000526020600020905b815481529060010190602001808311611dda57829003601f168201915b5050505050815260200160068201805480602002602001604051908101604052809291908181526020018280548015611e4f57602002820191906000526020600020905b815481526020019060010190808311611e3b575b5050505050815260200160078201805480602002602001604051908101604052809291908181526020018280548015611ea757602002820191906000526020600020905b815481526020019060010190808311611e93575b505050505081525050838381518110611ec357611ec2612bcc565b5b60200260200101819052508180611ed990612a40565b9250505b8080611ee890612a40565b915050611ac8565b50808252819250505090565b508054611f089061294b565b6000825580601f10611f1a5750611f39565b601f016020900490600052602060002090810190611f38919061208b565b5b50565b5080546000825590600052602060002090810190611f5a919061208b565b50565b60405180610100016040528060008152602001600073ffffffffffffffffffffffffffffffffffffffff1681526020016060815260200160608152602001606081526020016060815260200160608152602001606081525090565b828054611fc49061294b565b90600052602060002090601f016020900481019282611fe6576000855561202d565b82601f10611fff57805160ff191683800117855561202d565b8280016001018555821561202d579182015b8281111561202c578251825591602001919060010190612011565b5b50905061203a919061208b565b5090565b82805482825590600052602060002090810192821561207a579160200282015b8281111561207957825182559160200191906001019061205e565b5b509050612087919061208b565b5090565b5b808211156120a457600081600090555060010161208c565b5090565b6000819050919050565b6120bb816120a8565b82525050565b60006020820190506120d660008301846120b2565b92915050565b6000604051905090565b600080fd5b600080fd5b6120f9816120a8565b811461210457600080fd5b50565b600081359050612116816120f0565b92915050565b600060208284031215612132576121316120e6565b5b600061214084828501612107565b91505092915050565b600073ffffffffffffffffffffffffffffffffffffffff82169050919050565b600061217482612149565b9050919050565b61218481612169565b82525050565b600081519050919050565b600082825260208201905092915050565b60005b838110156121c45780820151818401526020810190506121a9565b838111156121d3576000848401525b50505050565b6000601f19601f8301169050919050565b60006121f58261218a565b6121ff8185612195565b935061220f8185602086016121a6565b612218816121d9565b840191505092915050565b600060c08201905061223860008301896120b2565b612245602083018861217b565b818103604083015261225781876121ea565b9050818103606083015261226b81866121ea565b9050818103608083015261227f81856121ea565b905081810360a083015261229381846121ea565b9050979650505050505050565b6122a981612169565b81146122b457600080fd5b50565b6000813590506122c6816122a0565b92915050565b6000602082840312156122e2576122e16120e6565b5b60006122f0848285016122b7565b91505092915050565b612302816120a8565b82525050565b61231181612169565b82525050565b600082825260208201905092915050565b60006123338261218a565b61233d8185612317565b935061234d8185602086016121a6565b612356816121d9565b840191505092915050565b600081519050919050565b600082825260208201905092915050565b6000819050602082019050919050565b600061239983836122f9565b60208301905092915050565b6000602082019050919050565b60006123bd82612361565b6123c7818561236c565b93506123d28361237d565b8060005b838110156124035781516123ea888261238d565b97506123f5836123a5565b9250506001810190506123d6565b5085935050505092915050565b60006101008301600083015161242960008601826122f9565b50602083015161243c6020860182612308565b50604083015184820360408601526124548282612328565b9150506060830151848203606086015261246e8282612328565b915050608083015184820360808601526124888282612328565b91505060a083015184820360a08601526124a28282612328565b91505060c083015184820360c08601526124bc82826123b2565b91505060e083015184820360e08601526124d682826123b2565b9150508091505092915050565b600060208201905081810360008301526124fd8184612410565b905092915050565b600080fd5b600080fd5b7f4e487b7100000000000000000000000000000000000000000000000000000000600052604160045260246000fd5b612547826121d9565b810181811067ffffffffffffffff821117156125665761256561250f565b5b80604052505050565b60006125796120dc565b9050612585828261253e565b919050565b600067ffffffffffffffff8211156125a5576125a461250f565b5b6125ae826121d9565b9050602081019050919050565b82818337600083830152505050565b60006125dd6125d88461258a565b61256f565b9050828152602081018484840111156125f9576125f861250a565b5b6126048482856125bb565b509392505050565b600082601f83011261262157612620612505565b5b81356126318482602086016125ca565b91505092915050565b600080600080600060a08688031215612656576126556120e6565b5b600061266488828901612107565b955050602086013567ffffffffffffffff811115612685576126846120eb565b5b6126918882890161260c565b945050604086013567ffffffffffffffff8111156126b2576126b16120eb565b5b6126be8882890161260c565b935050606086013567ffffffffffffffff8111156126df576126de6120eb565b5b6126eb8882890161260c565b925050608086013567ffffffffffffffff81111561270c5761270b6120eb565b5b6127188882890161260c565b9150509295509295909350565b6000806040838503121561273c5761273b6120e6565b5b600061274a85828601612107565b925050602061275b85828601612107565b9150509250929050565b600081519050919050565b600082825260208201905092915050565b6000819050602082019050919050565b6000610100830160008301516127aa60008601826122f9565b5060208301516127bd6020860182612308565b50604083015184820360408601526127d58282612328565b915050606083015184820360608601526127ef8282612328565b915050608083015184820360808601526128098282612328565b91505060a083015184820360a08601526128238282612328565b91505060c083015184820360c086015261283d82826123b2565b91505060e083015184820360e086015261285782826123b2565b9150508091505092915050565b60006128708383612791565b905092915050565b6000602082019050919050565b600061289082612765565b61289a8185612770565b9350836020820285016128ac85612781565b8060005b858110156128e857848403895281516128c98582612864565b94506128d483612878565b925060208a019950506001810190506128b0565b50829750879550505050505092915050565b600060208201905081810360008301526129148184612885565b905092915050565b7f4e487b7100000000000000000000000000000000000000000000000000000000600052602260045260246000fd5b6000600282049050600182168061296357607f821691505b6020821081036129765761297561291c565b5b50919050565b7f5573657220646f6573206e6f7420657869737400000000000000000000000000600082015250565b60006129b2601383612195565b91506129bd8261297c565b602082019050919050565b600060208201905081810360008301526129e1816129a5565b9050919050565b60006040820190506129fd60008301856120b2565b612a0a602083018461217b565b9392505050565b7f4e487b7100000000000000000000000000000000000000000000000000000000600052601160045260246000fd5b6000612a4b826120a8565b91507fffffffffffffffffffffffffffffffffffffffffffffffffffffffffffffffff8203612a7d57612a7c612a11565b5b600182019050919050565b7f55736572206e6f7420666f756e64000000000000000000000000000000000000600082015250565b6000612abe600e83612195565b9150612ac982612a88565b602082019050919050565b60006020820190508181036000830152612aed81612ab1565b9050919050565b7f466f6c6c6f77657220646f6573206e6f74206578697374000000000000000000600082015250565b6000612b2a601783612195565b9150612b3582612af4565b602082019050919050565b60006020820190508181036000830152612b5981612b1d565b9050919050565b7f466f6c6c6f77656520646f6573206e6f74206578697374000000000000000000600082015250565b6000612b96601783612195565b9150612ba182612b60565b602082019050919050565b60006020820190508181036000830152612bc581612b89565b9050919050565b7f4e487b7100000000000000000000000000000000000000000000000000000000600052603260045260246000fd5b6000612c06826120a8565b9150612c11836120a8565b925082821015612c2457612c23612a11565b5b828203905092915050565b7f4e487b7100000000000000000000000000000000000000000000000000000000600052603160045260246000fd5b6000604082019050612c7360008301856120b2565b612c8060208301846120b2565b939250505056fea26469706673582212209852262b036e06d6cfcf5880c228a798e014bf9595aa2e6f15f76491790fbfa564736f6c634300080d0033",
  "immutableReferences": {},
  "source": "// SPDX-License-Identifier: GPL-3.0\n\npragma solidity >=0.7.0 <0.9.0;\n\nimport {User} from \"./common/types.sol\";\n\ncontract UserManager {\n    mapping(uint256 => User) public users; // Mapping to store user information by user address\n    uint public userCount; // Total number of users\n\n    event UserCreated(uint256 id, address userAddress); // Event emitted when a new user is created\n    event UserDeleted(uint256 id, address userAddress); // Event emitted when a user is deleted\n    event UserEdited(uint256 id, address userAddress); // Event emitted when a user is edited\n    event UserFollowed(uint256 follower, uint256 followee); // Event emitted when a user follows another user\n    event UserUnfollowed(uint256 follower, uint256 followee); // Event emitted when a user unfollows another user\n\n    /**\n     * @dev Create a new user\n     * @param userAddress Address of the user\n     * @return address Address of the created user\n     */\n    function createUser(address userAddress) public returns (User memory) {\n        userCount++;\n\n        // Initialize user properties\n        string memory name;\n        string memory username;\n        string memory profileImageHash;\n        string memory bio;\n        uint256[] memory following;\n        uint256[] memory followers;\n\n        // Create user object\n        User memory user = User(\n            userCount,\n            userAddress,\n            name,\n            username,\n            profileImageHash,\n            bio,\n            following,\n            followers\n        );\n\n        // Store user in the mapping\n        users[userCount] = user;\n\n        // Emit event for user creation\n        emit UserCreated(userCount, userAddress);\n\n        return users[userCount];\n    }\n\n    /**\n     * @dev Get user information by user id\n     * @param id Address of the user\n     * @return User struct containing user information\n     */\n    function getUserById(uint256 id) public view returns (User memory) {\n        return users[id];\n    }\n\n    /**\n     * @dev Get user information by user address\n     * @param userAddress Address of the user\n     * @return User struct containing user information\n     */\n    function getUserByAddress(\n        address userAddress\n    ) public view returns (User memory) {\n        for (uint256 i = 1; i <= userCount; i++) {\n            if (users[i].userAddress == userAddress) {\n                return users[i];\n            }\n        }\n        revert(\"User not found\");\n    }\n\n    /**\n     * @dev Delete a user\n     * @param id ID of the user to delete\n     */\n    function deleteUser(uint256 id) public {\n        require(users[id].userAddress != address(0), \"User does not exist\");\n\n        // Remove user from the mapping\n        delete users[id];\n\n        // Emit event for user deletion\n        emit UserDeleted(id, users[id].userAddress);\n    }\n\n    /**\n     * @dev Get all users\n     * @return User[] Array containing all users\n     */\n    function getAllUsers() public view returns (User[] memory) {\n        User[] memory allUsers = new User[](userCount);\n        uint index = 0;\n\n        for (uint256 i = 1; i <= userCount; i++) {\n            if (users[i].userAddress != address(0)) {\n                allUsers[index] = users[i];\n                index++;\n            }\n        }\n\n        assembly {\n            mstore(allUsers, index)\n        }\n\n        return allUsers;\n    }\n\n    /**\n     * @dev Edit user information\n     * @param id ID of the user to edit\n     * @param name New name of the user\n     * @param username New username of the user\n     * @param profileImageHash New profile image hash of the user\n     * @param bio New bio of the user\n     */\n    function editUser(\n        uint256 id,\n        string memory name,\n        string memory username,\n        string memory profileImageHash,\n        string memory bio\n    ) public {\n        require(users[id].userAddress != address(0), \"User does not exist\");\n\n        User storage user = users[id];\n        user.name = name;\n        user.username = username;\n        user.profileImageHash = profileImageHash;\n        user.bio = bio;\n\n        // Emit event for user edition\n        emit UserEdited(id, user.userAddress);\n    }\n\n    /**\n     * @dev Follow a user\n     * @param followerId ID of the user who wants to follow\n     * @param followeeId ID of the user to be followed\n     */\n    function followUser(uint256 followerId, uint256 followeeId) public {\n        require(\n            users[followerId].userAddress != address(0),\n            \"Follower does not exist\"\n        );\n        require(\n            users[followeeId].userAddress != address(0),\n            \"Followee does not exist\"\n        );\n\n        User storage followerUser = users[followerId];\n        User storage followeeUser = users[followeeId];\n\n        followerUser.following.push(followeeId);\n        followeeUser.followers.push(followerId);\n\n        // Emit event for user following\n        emit UserFollowed(followerId, followeeId);\n    }\n\n    /**\n     * @dev Unfollow a user\n     * @param followerId ID of the user who wants to unfollow\n     * @param followeeId ID of the user to be unfollowed\n     */\n    function unfollowUser(uint256 followerId, uint256 followeeId) public {\n        require(\n            users[followerId].userAddress != address(0),\n            \"Follower does not exist\"\n        );\n        require(\n            users[followeeId].userAddress != address(0),\n            \"Followee does not exist\"\n        );\n\n        User storage followerUser = users[followerId];\n        User storage followeeUser = users[followeeId];\n\n        for (uint i = 0; i < followeeUser.followers.length; i++) {\n            if (followeeUser.followers[i] == followerId) {\n                followeeUser.followers[i] = followeeUser.followers[\n                    followeeUser.followers.length - 1\n                ];\n                followeeUser.followers.pop();\n                break;\n            }\n        }\n\n        for (uint i = 0; i < followerUser.following.length; i++) {\n            if (followerUser.following[i] == followerId) {\n                followerUser.following[i] = followerUser.following[\n                    followerUser.following.length - 1\n                ];\n                followerUser.following.pop();\n                break;\n            }\n        }\n\n        // Emit event for user unfollowing\n        emit UserUnfollowed(followerId, followeeId);\n    }\n}\n",
  "sourcePath": "/Users/lisapolena/Documents/Master_04/Thesis/Prototyp/betterPinterest/src/contracts/userManager.sol",
  "compiler": {
    "name": "solc",
    "version": "0.8.13+commit.abaa5c0e.Emscripten.clang"
  },
  "schemaVersion": "3.4.14",
  "updatedAt": "2023-06-12T19:05:52.256Z",
  "devdoc": {
    "kind": "dev",
    "methods": {
      "createUser(address)": {
        "details": "Create a new user",
        "params": {
          "userAddress": "Address of the user"
        },
        "returns": {
          "_0": "address Address of the created user"
        }
      },
      "deleteUser(uint256)": {
        "details": "Delete a user",
        "params": {
          "id": "ID of the user to delete"
        }
      },
      "editUser(uint256,string,string,string,string)": {
        "details": "Edit user information",
        "params": {
          "bio": "New bio of the user",
          "id": "ID of the user to edit",
          "name": "New name of the user",
          "profileImageHash": "New profile image hash of the user",
          "username": "New username of the user"
        }
      },
      "followUser(uint256,uint256)": {
        "details": "Follow a user",
        "params": {
          "followeeId": "ID of the user to be followed",
          "followerId": "ID of the user who wants to follow"
        }
      },
      "getAllUsers()": {
        "details": "Get all users",
        "returns": {
          "_0": "User[] Array containing all users"
        }
      },
      "getUserByAddress(address)": {
        "details": "Get user information by user address",
        "params": {
          "userAddress": "Address of the user"
        },
        "returns": {
          "_0": "User struct containing user information"
        }
      },
      "getUserById(uint256)": {
        "details": "Get user information by user id",
        "params": {
          "id": "Address of the user"
        },
        "returns": {
          "_0": "User struct containing user information"
        }
      },
      "unfollowUser(uint256,uint256)": {
        "details": "Unfollow a user",
        "params": {
          "followeeId": "ID of the user to be unfollowed",
          "followerId": "ID of the user who wants to unfollow"
        }
      }
    },
    "version": 1
  },
  "userdoc": {
    "kind": "user",
    "methods": {},
    "version": 1
  }
}